{
	"Contracts/AccessBSC.sol": {
		"Metacces": {
			"abi": [
				{
					"inputs": [],
					"stateMutability": "payable",
					"type": "constructor"
				},
				{
					"anonymous": false,
					"inputs": [
						{
							"indexed": true,
							"internalType": "address",
							"name": "owner",
							"type": "address"
						},
						{
							"indexed": true,
							"internalType": "address",
							"name": "spender",
							"type": "address"
						},
						{
							"indexed": false,
							"internalType": "uint256",
							"name": "value",
							"type": "uint256"
						}
					],
					"name": "Approval",
					"type": "event"
				},
				{
					"anonymous": false,
					"inputs": [
						{
							"indexed": true,
							"internalType": "address",
							"name": "oldOwner",
							"type": "address"
						},
						{
							"indexed": true,
							"internalType": "address",
							"name": "newOwner",
							"type": "address"
						}
					],
					"name": "OwnershipTransferred",
					"type": "event"
				},
				{
					"anonymous": false,
					"inputs": [
						{
							"indexed": false,
							"internalType": "uint256",
							"name": "newLimit",
							"type": "uint256"
						}
					],
					"name": "PrivateLimit",
					"type": "event"
				},
				{
					"anonymous": false,
					"inputs": [
						{
							"indexed": false,
							"internalType": "uint256",
							"name": "Amount",
							"type": "uint256"
						},
						{
							"indexed": false,
							"internalType": "uint256",
							"name": "Price",
							"type": "uint256"
						}
					],
					"name": "PrivateSale",
					"type": "event"
				},
				{
					"anonymous": false,
					"inputs": [
						{
							"indexed": false,
							"internalType": "address",
							"name": "newBridge",
							"type": "address"
						}
					],
					"name": "SetBridge",
					"type": "event"
				},
				{
					"anonymous": false,
					"inputs": [
						{
							"indexed": true,
							"internalType": "address",
							"name": "from",
							"type": "address"
						},
						{
							"indexed": true,
							"internalType": "address",
							"name": "to",
							"type": "address"
						},
						{
							"indexed": false,
							"internalType": "uint256",
							"name": "value",
							"type": "uint256"
						}
					],
					"name": "Transfer",
					"type": "event"
				},
				{
					"anonymous": false,
					"inputs": [
						{
							"indexed": false,
							"internalType": "uint256",
							"name": "_amount",
							"type": "uint256"
						},
						{
							"indexed": false,
							"internalType": "uint256",
							"name": "decimal",
							"type": "uint256"
						},
						{
							"indexed": false,
							"internalType": "address",
							"name": "to",
							"type": "address"
						}
					],
					"name": "WithdrawalBNB",
					"type": "event"
				},
				{
					"anonymous": false,
					"inputs": [
						{
							"indexed": false,
							"internalType": "address",
							"name": "_tokenAddr",
							"type": "address"
						},
						{
							"indexed": false,
							"internalType": "uint256",
							"name": "_amount",
							"type": "uint256"
						},
						{
							"indexed": false,
							"internalType": "uint256",
							"name": "decimals",
							"type": "uint256"
						},
						{
							"indexed": false,
							"internalType": "address",
							"name": "to",
							"type": "address"
						}
					],
					"name": "WithdrawalToken",
					"type": "event"
				},
				{
					"anonymous": false,
					"inputs": [
						{
							"indexed": false,
							"internalType": "uint256",
							"name": "Min",
							"type": "uint256"
						},
						{
							"indexed": false,
							"internalType": "uint256",
							"name": "Max",
							"type": "uint256"
						}
					],
					"name": "minMax",
					"type": "event"
				},
				{
					"anonymous": false,
					"inputs": [
						{
							"indexed": false,
							"internalType": "uint256",
							"name": "Time",
							"type": "uint256"
						}
					],
					"name": "saleEnded",
					"type": "event"
				},
				{
					"anonymous": false,
					"inputs": [
						{
							"indexed": false,
							"internalType": "uint256",
							"name": "blockNumber",
							"type": "uint256"
						}
					],
					"name": "saleStarted",
					"type": "event"
				},
				{
					"inputs": [],
					"name": "Bridge",
					"outputs": [
						{
							"internalType": "address",
							"name": "",
							"type": "address"
						}
					],
					"stateMutability": "view",
					"type": "function"
				},
				{
					"inputs": [],
					"name": "Path",
					"outputs": [
						{
							"internalType": "uint256",
							"name": "",
							"type": "uint256"
						}
					],
					"stateMutability": "view",
					"type": "function"
				},
				{
					"inputs": [
						{
							"internalType": "address",
							"name": "owner",
							"type": "address"
						},
						{
							"internalType": "address",
							"name": "spender",
							"type": "address"
						}
					],
					"name": "allowance",
					"outputs": [
						{
							"internalType": "uint256",
							"name": "",
							"type": "uint256"
						}
					],
					"stateMutability": "view",
					"type": "function"
				},
				{
					"inputs": [
						{
							"internalType": "address",
							"name": "spender",
							"type": "address"
						},
						{
							"internalType": "uint256",
							"name": "amount",
							"type": "uint256"
						}
					],
					"name": "approve",
					"outputs": [
						{
							"internalType": "bool",
							"name": "",
							"type": "bool"
						}
					],
					"stateMutability": "nonpayable",
					"type": "function"
				},
				{
					"inputs": [
						{
							"internalType": "address",
							"name": "account",
							"type": "address"
						}
					],
					"name": "balanceOf",
					"outputs": [
						{
							"internalType": "uint256",
							"name": "",
							"type": "uint256"
						}
					],
					"stateMutability": "view",
					"type": "function"
				},
				{
					"inputs": [
						{
							"internalType": "uint256",
							"name": "minAmount",
							"type": "uint256"
						},
						{
							"internalType": "uint256",
							"name": "maxAmount",
							"type": "uint256"
						}
					],
					"name": "changeMinMaxPrivateSale",
					"outputs": [],
					"stateMutability": "nonpayable",
					"type": "function"
				},
				{
					"inputs": [],
					"name": "deadAddress",
					"outputs": [
						{
							"internalType": "address",
							"name": "",
							"type": "address"
						}
					],
					"stateMutability": "view",
					"type": "function"
				},
				{
					"inputs": [],
					"name": "decimals",
					"outputs": [
						{
							"internalType": "uint8",
							"name": "",
							"type": "uint8"
						}
					],
					"stateMutability": "view",
					"type": "function"
				},
				{
					"inputs": [
						{
							"internalType": "address",
							"name": "spender",
							"type": "address"
						},
						{
							"internalType": "uint256",
							"name": "subtractedValue",
							"type": "uint256"
						}
					],
					"name": "decreaseAllowance",
					"outputs": [
						{
							"internalType": "bool",
							"name": "",
							"type": "bool"
						}
					],
					"stateMutability": "nonpayable",
					"type": "function"
				},
				{
					"inputs": [],
					"name": "endSale",
					"outputs": [],
					"stateMutability": "nonpayable",
					"type": "function"
				},
				{
					"inputs": [
						{
							"internalType": "address",
							"name": "spender",
							"type": "address"
						},
						{
							"internalType": "uint256",
							"name": "addedValue",
							"type": "uint256"
						}
					],
					"name": "increaseAllowance",
					"outputs": [
						{
							"internalType": "bool",
							"name": "",
							"type": "bool"
						}
					],
					"stateMutability": "nonpayable",
					"type": "function"
				},
				{
					"inputs": [],
					"name": "max",
					"outputs": [
						{
							"internalType": "uint256",
							"name": "",
							"type": "uint256"
						}
					],
					"stateMutability": "view",
					"type": "function"
				},
				{
					"inputs": [],
					"name": "maxSupply",
					"outputs": [
						{
							"internalType": "uint256",
							"name": "",
							"type": "uint256"
						}
					],
					"stateMutability": "view",
					"type": "function"
				},
				{
					"inputs": [],
					"name": "min",
					"outputs": [
						{
							"internalType": "uint256",
							"name": "",
							"type": "uint256"
						}
					],
					"stateMutability": "view",
					"type": "function"
				},
				{
					"inputs": [],
					"name": "name",
					"outputs": [
						{
							"internalType": "string",
							"name": "",
							"type": "string"
						}
					],
					"stateMutability": "view",
					"type": "function"
				},
				{
					"inputs": [],
					"name": "privateLimit",
					"outputs": [
						{
							"internalType": "uint256",
							"name": "",
							"type": "uint256"
						}
					],
					"stateMutability": "view",
					"type": "function"
				},
				{
					"inputs": [
						{
							"internalType": "address",
							"name": "",
							"type": "address"
						}
					],
					"name": "privateSale",
					"outputs": [
						{
							"internalType": "bool",
							"name": "success",
							"type": "bool"
						}
					],
					"stateMutability": "payable",
					"type": "function"
				},
				{
					"inputs": [
						{
							"internalType": "address payable",
							"name": "newBridge",
							"type": "address"
						}
					],
					"name": "setBridge",
					"outputs": [],
					"stateMutability": "nonpayable",
					"type": "function"
				},
				{
					"inputs": [
						{
							"internalType": "uint256",
							"name": "_limit",
							"type": "uint256"
						}
					],
					"name": "setPrivateLimit",
					"outputs": [],
					"stateMutability": "nonpayable",
					"type": "function"
				},
				{
					"inputs": [
						{
							"internalType": "uint256",
							"name": "_sEBlock",
							"type": "uint256"
						},
						{
							"internalType": "uint256",
							"name": "_sPrice",
							"type": "uint256"
						}
					],
					"name": "startSale",
					"outputs": [],
					"stateMutability": "nonpayable",
					"type": "function"
				},
				{
					"inputs": [],
					"name": "symbol",
					"outputs": [
						{
							"internalType": "string",
							"name": "",
							"type": "string"
						}
					],
					"stateMutability": "view",
					"type": "function"
				},
				{
					"inputs": [],
					"name": "theCompany",
					"outputs": [
						{
							"internalType": "address",
							"name": "",
							"type": "address"
						}
					],
					"stateMutability": "view",
					"type": "function"
				},
				{
					"inputs": [],
					"name": "totalSupply",
					"outputs": [
						{
							"internalType": "uint256",
							"name": "",
							"type": "uint256"
						}
					],
					"stateMutability": "view",
					"type": "function"
				},
				{
					"inputs": [
						{
							"internalType": "address",
							"name": "to",
							"type": "address"
						},
						{
							"internalType": "uint256",
							"name": "amount",
							"type": "uint256"
						}
					],
					"name": "transfer",
					"outputs": [
						{
							"internalType": "bool",
							"name": "",
							"type": "bool"
						}
					],
					"stateMutability": "nonpayable",
					"type": "function"
				},
				{
					"inputs": [
						{
							"internalType": "address",
							"name": "from",
							"type": "address"
						},
						{
							"internalType": "address",
							"name": "to",
							"type": "address"
						},
						{
							"internalType": "uint256",
							"name": "amount",
							"type": "uint256"
						}
					],
					"name": "transferFrom",
					"outputs": [
						{
							"internalType": "bool",
							"name": "",
							"type": "bool"
						}
					],
					"stateMutability": "nonpayable",
					"type": "function"
				},
				{
					"inputs": [
						{
							"internalType": "address",
							"name": "_newOwner",
							"type": "address"
						}
					],
					"name": "transferOwnership",
					"outputs": [],
					"stateMutability": "nonpayable",
					"type": "function"
				},
				{
					"inputs": [],
					"name": "viewSale",
					"outputs": [
						{
							"internalType": "uint256",
							"name": "StartBlock",
							"type": "uint256"
						},
						{
							"internalType": "uint256",
							"name": "EndBlock",
							"type": "uint256"
						},
						{
							"internalType": "uint256",
							"name": "SaleCount",
							"type": "uint256"
						},
						{
							"internalType": "uint256",
							"name": "SalePrice",
							"type": "uint256"
						}
					],
					"stateMutability": "view",
					"type": "function"
				},
				{
					"inputs": [
						{
							"internalType": "uint256",
							"name": "_amount",
							"type": "uint256"
						},
						{
							"internalType": "uint256",
							"name": "decimal",
							"type": "uint256"
						},
						{
							"internalType": "address",
							"name": "to",
							"type": "address"
						}
					],
					"name": "withdrawalBNB",
					"outputs": [],
					"stateMutability": "nonpayable",
					"type": "function"
				},
				{
					"inputs": [
						{
							"internalType": "address",
							"name": "_tokenAddr",
							"type": "address"
						},
						{
							"internalType": "uint256",
							"name": "_amount",
							"type": "uint256"
						},
						{
							"internalType": "uint256",
							"name": "decimal",
							"type": "uint256"
						},
						{
							"internalType": "address",
							"name": "to",
							"type": "address"
						}
					],
					"name": "withdrawalToken",
					"outputs": [],
					"stateMutability": "nonpayable",
					"type": "function"
				},
				{
					"stateMutability": "payable",
					"type": "receive"
				}
			],
			"devdoc": {
				"kind": "dev",
				"methods": {
					"allowance(address,address)": {
						"details": "See {IERC20-allowance}."
					},
					"approve(address,uint256)": {
						"details": "See {IERC20-approve}. NOTE: If `amount` is the maximum `uint256`, the allowance is not updated on `transferFrom`. This is semantically equivalent to an infinite approval. Requirements: - `spender` cannot be the zero address."
					},
					"balanceOf(address)": {
						"details": "See {IERC20-balanceOf}."
					},
					"decimals()": {
						"details": "Returns the number of decimals used to get its user representation. For example, if `decimals` equals `2`, a balance of `505` tokens should be displayed to a user as `5.05` (`505 / 10 ** 2`). Tokens usually opt for a value of 18, imitating the relationship between Ether and Wei. This is the value {ERC20} uses, unless this function is overridden; NOTE: This information is only used for _display_ purposes: it in no way affects any of the arithmetic of the contract, including {IERC20-balanceOf} and {IERC20-transfer}."
					},
					"decreaseAllowance(address,uint256)": {
						"details": "Atomically decreases the allowance granted to `spender` by the caller. This is an alternative to {approve} that can be used as a mitigation for problems described in {IERC20-approve}. Emits an {Approval} event indicating the updated allowance. Requirements: - `spender` cannot be the zero address. - `spender` must have allowance for the caller of at least `subtractedValue`."
					},
					"increaseAllowance(address,uint256)": {
						"details": "Atomically increases the allowance granted to `spender` by the caller. This is an alternative to {approve} that can be used as a mitigation for problems described in {IERC20-approve}. Emits an {Approval} event indicating the updated allowance. Requirements: - `spender` cannot be the zero address."
					},
					"name()": {
						"details": "Returns the name of the token."
					},
					"symbol()": {
						"details": "Returns the symbol of the token, usually a shorter version of the name."
					},
					"totalSupply()": {
						"details": "See {IERC20-totalSupply}."
					},
					"transfer(address,uint256)": {
						"details": "See {IERC20-transfer}. Requirements: - `to` cannot be the zero address. - the caller must have a balance of at least `amount`."
					},
					"transferFrom(address,address,uint256)": {
						"details": "See {IERC20-transferFrom}. Emits an {Approval} event indicating the updated allowance. This is not required by the EIP. See the note at the beginning of {ERC20}. NOTE: Does not update the allowance if the current allowance is the maximum `uint256`. Requirements: - `from` and `to` cannot be the zero address. - `from` must have a balance of at least `amount`. - the caller must have allowance for ``from``'s tokens of at least `amount`."
					}
				},
				"version": 1
			},
			"evm": {
				"assembly": "    /* \"Contracts/AccessBSC.sol\":201:4566  contract Metacces is ERC20 {... */\n  mstore(0x40, 0x80)\n    /* \"Contracts/AccessBSC.sol\":406:477  address public deadAddress = 0x000000000000000000000000000000000000dEaD */\n  0x07\n  dup1\n  sload\n  not(sub(shl(0xa0, 0x01), 0x01))\n  and\n    /* \"Contracts/AccessBSC.sol\":435:477  0x000000000000000000000000000000000000dEaD */\n  0xdead\n    /* \"Contracts/AccessBSC.sol\":406:477  address public deadAddress = 0x000000000000000000000000000000000000dEaD */\n  or\n  swap1\n  sstore\n    /* \"Contracts/AccessBSC.sol\":617:627  decimals() */\n  tag_1\n    /* \"@openzeppelin/contracts/token/ERC20/ERC20.sol\":3175:3177  18 */\n  0x12\n  swap1\n    /* \"@openzeppelin/contracts/token/ERC20/ERC20.sol\":3093:3184  function decimals() public view virtual override returns (uint8) {... */\n  jump\n    /* \"Contracts/AccessBSC.sol\":617:627  decimals() */\ntag_1:\n    /* \"Contracts/AccessBSC.sol\":612:627  10** decimals() */\n  tag_3\n  swap1\n    /* \"Contracts/AccessBSC.sol\":612:614  10 */\n  0x0a\n    /* \"Contracts/AccessBSC.sol\":612:627  10** decimals() */\n  tag_4\n  jump\t// in\ntag_3:\n    /* \"Contracts/AccessBSC.sol\":590:627  uint256 public Path = 10** decimals() */\n  0x0c\n  dup2\n  swap1\n  sstore\n    /* \"Contracts/AccessBSC.sol\":654:663  20 * Path */\n  tag_5\n  swap1\n    /* \"Contracts/AccessBSC.sol\":654:656  20 */\n  0x14\n    /* \"Contracts/AccessBSC.sol\":654:663  20 * Path */\n  tag_6\n  jump\t// in\ntag_5:\n    /* \"Contracts/AccessBSC.sol\":633:663  uint256 public max = 20 * Path */\n  0x0d\n  sstore\n    /* \"Contracts/AccessBSC.sol\":690:702  max.div(100) */\n  tag_7\n    /* \"Contracts/AccessBSC.sol\":698:701  100 */\n  0x64\n    /* \"Contracts/AccessBSC.sol\":690:693  max */\n  sload(0x0d)\n    /* \"Contracts/AccessBSC.sol\":690:697  max.div */\n  or(tag_0_178, shl(0x20, tag_8))\n  swap1\n    /* \"Contracts/AccessBSC.sol\":690:702  max.div(100) */\n  swap2\n  swap1\n  0x20\n  shr\n  jump\t// in\ntag_7:\n    /* \"Contracts/AccessBSC.sol\":669:702  uint256 public min = max.div(100) */\n  0x0e\n  sstore\n    /* \"Contracts/AccessBSC.sol\":738:745  1000000 */\n  0x0f4240\n    /* \"Contracts/AccessBSC.sol\":708:745  uint256 public privateLimit = 1000000 */\n  0x0f\n  sstore\n    /* \"Contracts/AccessBSC.sol\":790:794  Path */\n  sload(0x0c)\n    /* \"Contracts/AccessBSC.sol\":778:794  500000000 * Path */\n  tag_9\n  swap1\n    /* \"Contracts/AccessBSC.sol\":778:787  500000000 */\n  0x1dcd6500\n    /* \"Contracts/AccessBSC.sol\":778:794  500000000 * Path */\n  tag_6\n  jump\t// in\ntag_9:\n    /* \"Contracts/AccessBSC.sol\":751:794  uint256 public maxSupply = 500000000 * Path */\n  0x10\n  sstore\n    /* \"@openzeppelin/contracts/token/ERC20/ERC20.sol\":1978:2091  constructor(string memory name_, string memory symbol_) {... */\n  mload(0x40)\n  dup1\n  0x40\n  add\n  0x40\n  mstore\n  dup1\n  0x08\n  dup2\n  mstore\n  0x20\n  add\n  shl(0xc0, 0x4d65746163636573)\n  dup2\n  mstore\n  pop\n  mload(0x40)\n  dup1\n  0x40\n  add\n  0x40\n  mstore\n  dup1\n  0x05\n  dup2\n  mstore\n  0x20\n  add\n  shl(0xd8, 0x4163636573)\n  dup2\n  mstore\n  pop\n    /* \"@openzeppelin/contracts/token/ERC20/ERC20.sol\":2052:2057  name_ */\n  dup2\n    /* \"@openzeppelin/contracts/token/ERC20/ERC20.sol\":2044:2049  _name */\n  0x03\n    /* \"@openzeppelin/contracts/token/ERC20/ERC20.sol\":2044:2057  _name = name_ */\n  swap1\n  dup2\n  tag_13\n  swap2\n  swap1\n  tag_14\n  jump\t// in\ntag_13:\n  pop\n    /* \"@openzeppelin/contracts/token/ERC20/ERC20.sol\":2067:2074  _symbol */\n  0x04\n    /* \"@openzeppelin/contracts/token/ERC20/ERC20.sol\":2067:2084  _symbol = symbol_ */\n  tag_15\n    /* \"@openzeppelin/contracts/token/ERC20/ERC20.sol\":2077:2084  symbol_ */\n  dup3\n    /* \"@openzeppelin/contracts/token/ERC20/ERC20.sol\":2067:2074  _symbol */\n  dup3\n    /* \"@openzeppelin/contracts/token/ERC20/ERC20.sol\":2067:2084  _symbol = symbol_ */\n  tag_14\n  jump\t// in\ntag_15:\n  pop\n  pop\n    /* \"Contracts/AccessBSC.sol\":1464:1469  owner */\n  0x05\n    /* \"Contracts/AccessBSC.sol\":1464:1482  owner = msg.sender */\n  dup1\n  sload\n    /* \"Contracts/AccessBSC.sol\":1472:1482  msg.sender */\n  caller\n  not(sub(shl(0xa0, 0x01), 0x01))\n    /* \"Contracts/AccessBSC.sol\":1464:1482  owner = msg.sender */\n  swap1\n  swap2\n  and\n  or\n  dup2\n  sstore\n    /* \"Contracts/AccessBSC.sol\":1510:1519  maxSupply */\n  sload(0x10)\n    /* \"Contracts/AccessBSC.sol\":1488:1536  _mint (address(this), maxSupply.mul(5).div(100)) */\n  tag_17\n  swap3\n  pop\n    /* \"Contracts/AccessBSC.sol\":1503:1507  this */\n  address\n  swap2\n    /* \"Contracts/AccessBSC.sol\":1510:1535  maxSupply.mul(5).div(100) */\n  tag_18\n  swap2\n    /* \"Contracts/AccessBSC.sol\":1531:1534  100 */\n  0x64\n  swap2\n    /* \"Contracts/AccessBSC.sol\":1510:1526  maxSupply.mul(5) */\n  tag_19\n  swap2\n    /* \"Contracts/AccessBSC.sol\":1510:1519  maxSupply */\n  swap1\n    /* \"Contracts/AccessBSC.sol\":1510:1523  maxSupply.mul */\n  tag_20\n  0x20\n  swap1\n  dup2\n  shl\n  tag_0_179\n  or\n    /* \"Contracts/AccessBSC.sol\":1510:1526  maxSupply.mul(5) */\n  swap1\n  shr\n  jump\t// in\ntag_19:\n    /* \"Contracts/AccessBSC.sol\":1510:1530  maxSupply.mul(5).div */\n  or(tag_0_178, shl(0x20, tag_8))\n  swap1\n    /* \"Contracts/AccessBSC.sol\":1510:1535  maxSupply.mul(5).div(100) */\n  swap2\n  swap1\n  0x20\n  shr\n  jump\t// in\ntag_18:\n    /* \"Contracts/AccessBSC.sol\":1488:1493  _mint */\n  tag_21\n    /* \"Contracts/AccessBSC.sol\":1488:1536  _mint (address(this), maxSupply.mul(5).div(100)) */\n  jump\t// in\ntag_17:\n    /* \"Contracts/AccessBSC.sol\":1548:1594  _mint (theCompany, maxSupply.mul(95).div(100)) */\n  tag_22\n    /* \"Contracts/AccessBSC.sol\":358:400  0xc6e5347D1A5FE685160429705E9e26bD3BBa8fEa */\n  0xc6e5347d1a5fe685160429705e9e26bd3bba8fea\n    /* \"Contracts/AccessBSC.sol\":1567:1593  maxSupply.mul(95).div(100) */\n  tag_18\n    /* \"Contracts/AccessBSC.sol\":1589:1592  100 */\n  0x64\n    /* \"Contracts/AccessBSC.sol\":1567:1584  maxSupply.mul(95) */\n  tag_19\n    /* \"Contracts/AccessBSC.sol\":1581:1583  95 */\n  0x5f\n    /* \"Contracts/AccessBSC.sol\":1567:1576  maxSupply */\n  sload(0x10)\n    /* \"Contracts/AccessBSC.sol\":1567:1580  maxSupply.mul */\n  or(tag_0_179, shl(0x20, tag_20))\n  swap1\n    /* \"Contracts/AccessBSC.sol\":1567:1584  maxSupply.mul(95) */\n  swap2\n  swap1\n  0x20\n  shr\n  jump\t// in\n    /* \"Contracts/AccessBSC.sol\":1548:1594  _mint (theCompany, maxSupply.mul(95).div(100)) */\ntag_22:\n    /* \"Contracts/AccessBSC.sol\":201:4566  contract Metacces is ERC20 {... */\n  jump(tag_55)\n    /* \"@openzeppelin/contracts/utils/math/SafeMath.sol\":3850:3946  function div(uint256 a, uint256 b) internal pure returns (uint256) {... */\ntag_8:\n    /* \"@openzeppelin/contracts/utils/math/SafeMath.sol\":3908:3915  uint256 */\n  0x00\n    /* \"@openzeppelin/contracts/utils/math/SafeMath.sol\":3934:3939  a / b */\n  tag_28\n    /* \"@openzeppelin/contracts/utils/math/SafeMath.sol\":3938:3939  b */\n  dup3\n    /* \"@openzeppelin/contracts/utils/math/SafeMath.sol\":3934:3935  a */\n  dup5\n    /* \"@openzeppelin/contracts/utils/math/SafeMath.sol\":3934:3939  a / b */\n  tag_29\n  jump\t// in\ntag_28:\n    /* \"@openzeppelin/contracts/utils/math/SafeMath.sol\":3927:3939  return a / b */\n  swap1\n  pop\n    /* \"@openzeppelin/contracts/utils/math/SafeMath.sol\":3850:3946  function div(uint256 a, uint256 b) internal pure returns (uint256) {... */\ntag_27:\n  swap3\n  swap2\n  pop\n  pop\n  jump\t// out\n    /* \"@openzeppelin/contracts/utils/math/SafeMath.sol\":3465:3561  function mul(uint256 a, uint256 b) internal pure returns (uint256) {... */\ntag_20:\n    /* \"@openzeppelin/contracts/utils/math/SafeMath.sol\":3523:3530  uint256 */\n  0x00\n    /* \"@openzeppelin/contracts/utils/math/SafeMath.sol\":3549:3554  a * b */\n  tag_28\n    /* \"@openzeppelin/contracts/utils/math/SafeMath.sol\":3553:3554  b */\n  dup3\n    /* \"@openzeppelin/contracts/utils/math/SafeMath.sol\":3549:3550  a */\n  dup5\n    /* \"@openzeppelin/contracts/utils/math/SafeMath.sol\":3549:3554  a * b */\n  tag_6\n  jump\t// in\n    /* \"@openzeppelin/contracts/token/ERC20/ERC20.sol\":8402:8791  function _mint(address account, uint256 amount) internal virtual {... */\ntag_21:\n  sub(shl(0xa0, 0x01), 0x01)\n    /* \"@openzeppelin/contracts/token/ERC20/ERC20.sol\":8485:8506  account != address(0) */\n  dup3\n  and\n    /* \"@openzeppelin/contracts/token/ERC20/ERC20.sol\":8477:8542  require(account != address(0), \"ERC20: mint to the zero address\") */\n  tag_33\n  jumpi\n  mload(0x40)\n  shl(0xe5, 0x461bcd)\n  dup2\n  mstore\n    /* \"#utility.yul\":4847:4849   */\n  0x20\n    /* \"@openzeppelin/contracts/token/ERC20/ERC20.sol\":8477:8542  require(account != address(0), \"ERC20: mint to the zero address\") */\n  0x04\n  dup3\n  add\n    /* \"#utility.yul\":4829:4850   */\n  mstore\n    /* \"#utility.yul\":4886:4888   */\n  0x1f\n    /* \"#utility.yul\":4866:4884   */\n  0x24\n  dup3\n  add\n    /* \"#utility.yul\":4859:4889   */\n  mstore\n    /* \"#utility.yul\":4925:4958   */\n  0x45524332303a206d696e7420746f20746865207a65726f206164647265737300\n    /* \"#utility.yul\":4905:4923   */\n  0x44\n  dup3\n  add\n    /* \"#utility.yul\":4898:4959   */\n  mstore\n    /* \"#utility.yul\":4976:4994   */\n  0x64\n  add\n    /* \"@openzeppelin/contracts/token/ERC20/ERC20.sol\":8477:8542  require(account != address(0), \"ERC20: mint to the zero address\") */\n  mload(0x40)\n  dup1\n  swap2\n  sub\n  swap1\n  revert\ntag_33:\n    /* \"@openzeppelin/contracts/token/ERC20/ERC20.sol\":8629:8635  amount */\n  dup1\n    /* \"@openzeppelin/contracts/token/ERC20/ERC20.sol\":8613:8625  _totalSupply */\n  0x02\n  0x00\n    /* \"@openzeppelin/contracts/token/ERC20/ERC20.sol\":8613:8635  _totalSupply += amount */\n  dup3\n  dup3\n  sload\n  tag_38\n  swap2\n  swap1\n  tag_39\n  jump\t// in\ntag_38:\n  swap1\n  swap2\n  sstore\n  pop\n  pop\n  sub(shl(0xa0, 0x01), 0x01)\n    /* \"@openzeppelin/contracts/token/ERC20/ERC20.sol\":8645:8663  _balances[account] */\n  dup3\n  and\n    /* \"@openzeppelin/contracts/token/ERC20/ERC20.sol\":8645:8654  _balances */\n  0x00\n    /* \"@openzeppelin/contracts/token/ERC20/ERC20.sol\":8645:8663  _balances[account] */\n  swap1\n  dup2\n  mstore\n  0x20\n  dup2\n  swap1\n  mstore\n  0x40\n  dup2\n  keccak256\n    /* \"@openzeppelin/contracts/token/ERC20/ERC20.sol\":8645:8673  _balances[account] += amount */\n  dup1\n  sload\n    /* \"@openzeppelin/contracts/token/ERC20/ERC20.sol\":8667:8673  amount */\n  dup4\n  swap3\n    /* \"@openzeppelin/contracts/token/ERC20/ERC20.sol\":8645:8654  _balances */\n  swap1\n    /* \"@openzeppelin/contracts/token/ERC20/ERC20.sol\":8645:8673  _balances[account] += amount */\n  tag_40\n  swap1\n    /* \"@openzeppelin/contracts/token/ERC20/ERC20.sol\":8667:8673  amount */\n  dup5\n  swap1\n    /* \"@openzeppelin/contracts/token/ERC20/ERC20.sol\":8645:8673  _balances[account] += amount */\n  tag_39\n  jump\t// in\ntag_40:\n  swap1\n  swap2\n  sstore\n  pop\n  pop\n    /* \"@openzeppelin/contracts/token/ERC20/ERC20.sol\":8688:8725  Transfer(address(0), account, amount) */\n  mload(0x40)\n    /* \"#utility.yul\":5284:5309   */\n  dup2\n  dup2\n  mstore\n  sub(shl(0xa0, 0x01), 0x01)\n    /* \"@openzeppelin/contracts/token/ERC20/ERC20.sol\":8688:8725  Transfer(address(0), account, amount) */\n  dup4\n  and\n  swap1\n    /* \"@openzeppelin/contracts/token/ERC20/ERC20.sol\":8705:8706  0 */\n  0x00\n  swap1\n    /* \"@openzeppelin/contracts/token/ERC20/ERC20.sol\":8688:8725  Transfer(address(0), account, amount) */\n  0xddf252ad1be2c89b69c2b068fc378daa952ba7f163c4a11628f55a4df523b3ef\n  swap1\n    /* \"#utility.yul\":5272:5274   */\n  0x20\n    /* \"#utility.yul\":5257:5275   */\n  add\n    /* \"@openzeppelin/contracts/token/ERC20/ERC20.sol\":8688:8725  Transfer(address(0), account, amount) */\n  mload(0x40)\n  dup1\n  swap2\n  sub\n  swap1\n  log3\n    /* \"@openzeppelin/contracts/token/ERC20/ERC20.sol\":8402:8791  function _mint(address account, uint256 amount) internal virtual {... */\n  pop\n  pop\n  jump\t// out\n    /* \"@openzeppelin/contracts/token/ERC20/ERC20.sol\":11786:11907  function _beforeTokenTransfer(... */\ntag_37:\n  pop\n  pop\n  pop\n  jump\t// out\n    /* \"#utility.yul\":14:141   */\ntag_47:\n    /* \"#utility.yul\":75:85   */\n  0x4e487b71\n    /* \"#utility.yul\":70:73   */\n  0xe0\n    /* \"#utility.yul\":66:86   */\n  shl\n    /* \"#utility.yul\":63:64   */\n  0x00\n    /* \"#utility.yul\":56:87   */\n  mstore\n    /* \"#utility.yul\":106:110   */\n  0x11\n    /* \"#utility.yul\":103:104   */\n  0x04\n    /* \"#utility.yul\":96:111   */\n  mstore\n    /* \"#utility.yul\":130:134   */\n  0x24\n    /* \"#utility.yul\":127:128   */\n  0x00\n    /* \"#utility.yul\":120:135   */\n  revert\n    /* \"#utility.yul\":146:568   */\ntag_48:\n    /* \"#utility.yul\":235:236   */\n  0x01\n    /* \"#utility.yul\":278:283   */\n  dup2\n    /* \"#utility.yul\":235:236   */\n  dup2\n    /* \"#utility.yul\":292:562   */\ntag_58:\n    /* \"#utility.yul\":313:320   */\n  dup1\n    /* \"#utility.yul\":303:311   */\n  dup6\n    /* \"#utility.yul\":300:321   */\n  gt\n    /* \"#utility.yul\":292:562   */\n  iszero\n  tag_60\n  jumpi\n    /* \"#utility.yul\":372:376   */\n  dup2\n    /* \"#utility.yul\":368:369   */\n  0x00\n    /* \"#utility.yul\":364:370   */\n  not\n    /* \"#utility.yul\":360:377   */\n  div\n    /* \"#utility.yul\":354:358   */\n  dup3\n    /* \"#utility.yul\":351:378   */\n  gt\n    /* \"#utility.yul\":348:401   */\n  iszero\n  tag_62\n  jumpi\n    /* \"#utility.yul\":381:399   */\n  tag_62\n  tag_47\n  jump\t// in\ntag_62:\n    /* \"#utility.yul\":431:438   */\n  dup1\n    /* \"#utility.yul\":421:429   */\n  dup6\n    /* \"#utility.yul\":417:439   */\n  and\n    /* \"#utility.yul\":414:469   */\n  iszero\n  tag_63\n  jumpi\n    /* \"#utility.yul\":451:467   */\n  swap2\n  dup2\n  mul\n  swap2\n    /* \"#utility.yul\":414:469   */\ntag_63:\n    /* \"#utility.yul\":530:552   */\n  swap4\n  dup5\n  shr\n  swap4\n    /* \"#utility.yul\":490:505   */\n  swap1\n  dup1\n  mul\n  swap1\n    /* \"#utility.yul\":292:562   */\n  jump(tag_58)\ntag_60:\n    /* \"#utility.yul\":296:299   */\n  pop\n    /* \"#utility.yul\":146:568   */\n  swap3\n  pop\n  swap3\n  swap1\n  pop\n  jump\t// out\n    /* \"#utility.yul\":573:1379   */\ntag_49:\n    /* \"#utility.yul\":622:627   */\n  0x00\n    /* \"#utility.yul\":652:660   */\n  dup3\n    /* \"#utility.yul\":642:722   */\n  tag_65\n  jumpi\n  pop\n    /* \"#utility.yul\":693:694   */\n  0x01\n    /* \"#utility.yul\":707:712   */\n  jump(tag_27)\n    /* \"#utility.yul\":642:722   */\ntag_65:\n    /* \"#utility.yul\":741:745   */\n  dup2\n    /* \"#utility.yul\":731:807   */\n  tag_66\n  jumpi\n  pop\n    /* \"#utility.yul\":778:779   */\n  0x00\n    /* \"#utility.yul\":792:797   */\n  jump(tag_27)\n    /* \"#utility.yul\":731:807   */\ntag_66:\n    /* \"#utility.yul\":823:827   */\n  dup2\n    /* \"#utility.yul\":841:842   */\n  0x01\n    /* \"#utility.yul\":836:895   */\n  dup2\n  eq\n  tag_68\n  jumpi\n    /* \"#utility.yul\":909:910   */\n  0x02\n    /* \"#utility.yul\":904:1034   */\n  dup2\n  eq\n  tag_69\n  jumpi\n    /* \"#utility.yul\":816:1034   */\n  jump(tag_67)\n    /* \"#utility.yul\":836:895   */\ntag_68:\n    /* \"#utility.yul\":866:867   */\n  0x01\n    /* \"#utility.yul\":857:867   */\n  swap2\n  pop\n    /* \"#utility.yul\":880:885   */\n  pop\n  jump(tag_27)\n    /* \"#utility.yul\":904:1034   */\ntag_69:\n    /* \"#utility.yul\":941:944   */\n  0xff\n    /* \"#utility.yul\":931:939   */\n  dup5\n    /* \"#utility.yul\":928:945   */\n  gt\n    /* \"#utility.yul\":925:968   */\n  iszero\n  tag_71\n  jumpi\n    /* \"#utility.yul\":948:966   */\n  tag_71\n  tag_47\n  jump\t// in\ntag_71:\n  pop\n  pop\n    /* \"#utility.yul\":1004:1005   */\n  0x01\n    /* \"#utility.yul\":990:1006   */\n  dup3\n  shl\n    /* \"#utility.yul\":1019:1024   */\n  jump(tag_27)\n    /* \"#utility.yul\":816:1034   */\ntag_67:\n  pop\n    /* \"#utility.yul\":1118:1120   */\n  0x20\n    /* \"#utility.yul\":1108:1116   */\n  dup4\n    /* \"#utility.yul\":1105:1121   */\n  lt\n    /* \"#utility.yul\":1099:1102   */\n  0x0133\n    /* \"#utility.yul\":1093:1097   */\n  dup4\n    /* \"#utility.yul\":1090:1103   */\n  lt\n    /* \"#utility.yul\":1086:1122   */\n  and\n    /* \"#utility.yul\":1080:1082   */\n  0x4e\n    /* \"#utility.yul\":1070:1078   */\n  dup5\n    /* \"#utility.yul\":1067:1083   */\n  lt\n    /* \"#utility.yul\":1062:1064   */\n  0x0b\n    /* \"#utility.yul\":1056:1060   */\n  dup5\n    /* \"#utility.yul\":1053:1065   */\n  lt\n    /* \"#utility.yul\":1049:1084   */\n  and\n    /* \"#utility.yul\":1046:1123   */\n  or\n    /* \"#utility.yul\":1043:1202   */\n  iszero\n  tag_72\n  jumpi\n  pop\n    /* \"#utility.yul\":1155:1174   */\n  dup2\n  dup2\n  exp\n    /* \"#utility.yul\":1187:1192   */\n  jump(tag_27)\n    /* \"#utility.yul\":1043:1202   */\ntag_72:\n    /* \"#utility.yul\":1234:1268   */\n  tag_73\n    /* \"#utility.yul\":1259:1267   */\n  dup4\n    /* \"#utility.yul\":1253:1257   */\n  dup4\n    /* \"#utility.yul\":1234:1268   */\n  tag_48\n  jump\t// in\ntag_73:\n    /* \"#utility.yul\":1304:1310   */\n  dup1\n    /* \"#utility.yul\":1300:1301   */\n  0x00\n    /* \"#utility.yul\":1296:1302   */\n  not\n    /* \"#utility.yul\":1292:1311   */\n  div\n    /* \"#utility.yul\":1283:1290   */\n  dup3\n    /* \"#utility.yul\":1280:1312   */\n  gt\n    /* \"#utility.yul\":1277:1335   */\n  iszero\n  tag_75\n  jumpi\n    /* \"#utility.yul\":1315:1333   */\n  tag_75\n  tag_47\n  jump\t// in\ntag_75:\n    /* \"#utility.yul\":1353:1373   */\n  mul\n  swap4\n    /* \"#utility.yul\":573:1379   */\n  swap3\n  pop\n  pop\n  pop\n  jump\t// out\n    /* \"#utility.yul\":1384:1524   */\ntag_4:\n    /* \"#utility.yul\":1442:1447   */\n  0x00\n    /* \"#utility.yul\":1471:1518   */\n  tag_28\n    /* \"#utility.yul\":1512:1516   */\n  0xff\n    /* \"#utility.yul\":1502:1510   */\n  dup5\n    /* \"#utility.yul\":1498:1517   */\n  and\n    /* \"#utility.yul\":1492:1496   */\n  dup4\n    /* \"#utility.yul\":1471:1518   */\n  tag_49\n  jump\t// in\n    /* \"#utility.yul\":1529:1697   */\ntag_6:\n    /* \"#utility.yul\":1569:1576   */\n  0x00\n    /* \"#utility.yul\":1635:1636   */\n  dup2\n    /* \"#utility.yul\":1631:1632   */\n  0x00\n    /* \"#utility.yul\":1627:1633   */\n  not\n    /* \"#utility.yul\":1623:1637   */\n  div\n    /* \"#utility.yul\":1620:1621   */\n  dup4\n    /* \"#utility.yul\":1617:1638   */\n  gt\n    /* \"#utility.yul\":1612:1613   */\n  dup3\n    /* \"#utility.yul\":1605:1614   */\n  iszero\n    /* \"#utility.yul\":1598:1615   */\n  iszero\n    /* \"#utility.yul\":1594:1639   */\n  and\n    /* \"#utility.yul\":1591:1662   */\n  iszero\n  tag_80\n  jumpi\n    /* \"#utility.yul\":1642:1660   */\n  tag_80\n  tag_47\n  jump\t// in\ntag_80:\n  pop\n    /* \"#utility.yul\":1682:1691   */\n  mul\n  swap1\n    /* \"#utility.yul\":1529:1697   */\n  jump\t// out\n    /* \"#utility.yul\":1702:1829   */\ntag_50:\n    /* \"#utility.yul\":1763:1773   */\n  0x4e487b71\n    /* \"#utility.yul\":1758:1761   */\n  0xe0\n    /* \"#utility.yul\":1754:1774   */\n  shl\n    /* \"#utility.yul\":1751:1752   */\n  0x00\n    /* \"#utility.yul\":1744:1775   */\n  mstore\n    /* \"#utility.yul\":1794:1798   */\n  0x41\n    /* \"#utility.yul\":1791:1792   */\n  0x04\n    /* \"#utility.yul\":1784:1799   */\n  mstore\n    /* \"#utility.yul\":1818:1822   */\n  0x24\n    /* \"#utility.yul\":1815:1816   */\n  0x00\n    /* \"#utility.yul\":1808:1823   */\n  revert\n    /* \"#utility.yul\":1834:2214   */\ntag_51:\n    /* \"#utility.yul\":1913:1914   */\n  0x01\n    /* \"#utility.yul\":1909:1921   */\n  dup2\n  dup2\n  shr\n  swap1\n    /* \"#utility.yul\":1956:1968   */\n  dup3\n  and\n  dup1\n    /* \"#utility.yul\":1977:2038   */\n  tag_83\n  jumpi\n    /* \"#utility.yul\":2031:2035   */\n  0x7f\n    /* \"#utility.yul\":2023:2029   */\n  dup3\n    /* \"#utility.yul\":2019:2036   */\n  and\n    /* \"#utility.yul\":2009:2036   */\n  swap2\n  pop\n    /* \"#utility.yul\":1977:2038   */\ntag_83:\n    /* \"#utility.yul\":2084:2086   */\n  0x20\n    /* \"#utility.yul\":2076:2082   */\n  dup3\n    /* \"#utility.yul\":2073:2087   */\n  lt\n    /* \"#utility.yul\":2053:2071   */\n  dup2\n    /* \"#utility.yul\":2050:2088   */\n  sub\n    /* \"#utility.yul\":2047:2208   */\n  tag_84\n  jumpi\n    /* \"#utility.yul\":2130:2140   */\n  0x4e487b71\n    /* \"#utility.yul\":2125:2128   */\n  0xe0\n    /* \"#utility.yul\":2121:2141   */\n  shl\n    /* \"#utility.yul\":2118:2119   */\n  0x00\n    /* \"#utility.yul\":2111:2142   */\n  mstore\n    /* \"#utility.yul\":2165:2169   */\n  0x22\n    /* \"#utility.yul\":2162:2163   */\n  0x04\n    /* \"#utility.yul\":2155:2170   */\n  mstore\n    /* \"#utility.yul\":2193:2197   */\n  0x24\n    /* \"#utility.yul\":2190:2191   */\n  0x00\n    /* \"#utility.yul\":2183:2198   */\n  revert\n    /* \"#utility.yul\":2047:2208   */\ntag_84:\n  pop\n    /* \"#utility.yul\":1834:2214   */\n  swap2\n  swap1\n  pop\n  jump\t// out\n    /* \"#utility.yul\":2345:2890   */\ntag_53:\n    /* \"#utility.yul\":2447:2449   */\n  0x1f\n    /* \"#utility.yul\":2442:2445   */\n  dup3\n    /* \"#utility.yul\":2439:2450   */\n  gt\n    /* \"#utility.yul\":2436:2884   */\n  iszero\n  tag_37\n  jumpi\n    /* \"#utility.yul\":2483:2484   */\n  0x00\n    /* \"#utility.yul\":2508:2513   */\n  dup2\n    /* \"#utility.yul\":2504:2506   */\n  dup2\n    /* \"#utility.yul\":2497:2514   */\n  mstore\n    /* \"#utility.yul\":2553:2557   */\n  0x20\n    /* \"#utility.yul\":2549:2551   */\n  dup2\n    /* \"#utility.yul\":2539:2558   */\n  keccak256\n    /* \"#utility.yul\":2623:2625   */\n  0x1f\n    /* \"#utility.yul\":2611:2621   */\n  dup6\n    /* \"#utility.yul\":2607:2626   */\n  add\n    /* \"#utility.yul\":2604:2605   */\n  0x05\n    /* \"#utility.yul\":2600:2627   */\n  shr\n    /* \"#utility.yul\":2594:2598   */\n  dup2\n    /* \"#utility.yul\":2590:2628   */\n  add\n    /* \"#utility.yul\":2659:2663   */\n  0x20\n    /* \"#utility.yul\":2647:2657   */\n  dup7\n    /* \"#utility.yul\":2644:2664   */\n  lt\n    /* \"#utility.yul\":2641:2688   */\n  iszero\n  tag_88\n  jumpi\n  pop\n    /* \"#utility.yul\":2682:2686   */\n  dup1\n    /* \"#utility.yul\":2641:2688   */\ntag_88:\n    /* \"#utility.yul\":2737:2739   */\n  0x1f\n    /* \"#utility.yul\":2732:2735   */\n  dup6\n    /* \"#utility.yul\":2728:2740   */\n  add\n    /* \"#utility.yul\":2725:2726   */\n  0x05\n    /* \"#utility.yul\":2721:2741   */\n  shr\n    /* \"#utility.yul\":2715:2719   */\n  dup3\n    /* \"#utility.yul\":2711:2742   */\n  add\n    /* \"#utility.yul\":2701:2742   */\n  swap2\n  pop\n    /* \"#utility.yul\":2792:2874   */\ntag_89:\n    /* \"#utility.yul\":2810:2812   */\n  dup2\n    /* \"#utility.yul\":2803:2808   */\n  dup2\n    /* \"#utility.yul\":2800:2813   */\n  lt\n    /* \"#utility.yul\":2792:2874   */\n  iszero\n  tag_91\n  jumpi\n    /* \"#utility.yul\":2855:2872   */\n  dup3\n  dup2\n  sstore\n    /* \"#utility.yul\":2836:2837   */\n  0x01\n    /* \"#utility.yul\":2825:2838   */\n  add\n    /* \"#utility.yul\":2792:2874   */\n  jump(tag_89)\ntag_91:\n    /* \"#utility.yul\":2796:2799   */\n  pop\n  pop\n  pop\n    /* \"#utility.yul\":2345:2890   */\n  pop\n  pop\n  pop\n  jump\t// out\n    /* \"#utility.yul\":3066:4418   */\ntag_14:\n    /* \"#utility.yul\":3186:3196   */\n  dup2\n  mload\n  sub(shl(0x40, 0x01), 0x01)\n    /* \"#utility.yul\":3208:3238   */\n  dup2\n  gt\n    /* \"#utility.yul\":3205:3261   */\n  iszero\n  tag_95\n  jumpi\n    /* \"#utility.yul\":3241:3259   */\n  tag_95\n  tag_50\n  jump\t// in\ntag_95:\n    /* \"#utility.yul\":3270:3367   */\n  tag_96\n    /* \"#utility.yul\":3360:3366   */\n  dup2\n    /* \"#utility.yul\":3320:3358   */\n  tag_97\n    /* \"#utility.yul\":3352:3356   */\n  dup5\n    /* \"#utility.yul\":3346:3357   */\n  sload\n    /* \"#utility.yul\":3320:3358   */\n  tag_51\n  jump\t// in\ntag_97:\n    /* \"#utility.yul\":3314:3318   */\n  dup5\n    /* \"#utility.yul\":3270:3367   */\n  tag_53\n  jump\t// in\ntag_96:\n    /* \"#utility.yul\":3422:3426   */\n  0x20\n  dup1\n    /* \"#utility.yul\":3486:3488   */\n  0x1f\n    /* \"#utility.yul\":3475:3489   */\n  dup4\n  gt\n    /* \"#utility.yul\":3503:3504   */\n  0x01\n    /* \"#utility.yul\":3498:4161   */\n  dup2\n  eq\n  tag_99\n  jumpi\n    /* \"#utility.yul\":4205:4206   */\n  0x00\n    /* \"#utility.yul\":4222:4228   */\n  dup5\n    /* \"#utility.yul\":4219:4308   */\n  iszero\n  tag_100\n  jumpi\n  pop\n    /* \"#utility.yul\":4274:4293   */\n  dup6\n  dup4\n  add\n    /* \"#utility.yul\":4268:4294   */\n  mload\n    /* \"#utility.yul\":4219:4308   */\ntag_100:\n  not(0x00)\n    /* \"#utility.yul\":3023:3024   */\n  0x03\n    /* \"#utility.yul\":3019:3030   */\n  dup7\n  swap1\n  shl\n    /* \"#utility.yul\":3015:3039   */\n  shr\n    /* \"#utility.yul\":3011:3040   */\n  not\n    /* \"#utility.yul\":3001:3041   */\n  and\n    /* \"#utility.yul\":3047:3048   */\n  0x01\n    /* \"#utility.yul\":3043:3054   */\n  dup6\n  swap1\n  shl\n    /* \"#utility.yul\":2998:3055   */\n  or\n    /* \"#utility.yul\":4321:4402   */\n  dup6\n  sstore\n    /* \"#utility.yul\":3468:4412   */\n  jump(tag_91)\n    /* \"#utility.yul\":3498:4161   */\ntag_99:\n    /* \"#utility.yul\":2292:2293   */\n  0x00\n    /* \"#utility.yul\":2285:2299   */\n  dup6\n  dup2\n  mstore\n    /* \"#utility.yul\":2329:2333   */\n  0x20\n    /* \"#utility.yul\":2316:2334   */\n  dup2\n  keccak256\n  not(0x1f)\n    /* \"#utility.yul\":3534:3554   */\n  dup7\n  and\n  swap2\n    /* \"#utility.yul\":3652:3888   */\ntag_103:\n    /* \"#utility.yul\":3666:3673   */\n  dup3\n    /* \"#utility.yul\":3663:3664   */\n  dup2\n    /* \"#utility.yul\":3660:3674   */\n  lt\n    /* \"#utility.yul\":3652:3888   */\n  iszero\n  tag_105\n  jumpi\n    /* \"#utility.yul\":3755:3774   */\n  dup9\n  dup7\n  add\n    /* \"#utility.yul\":3749:3775   */\n  mload\n    /* \"#utility.yul\":3734:3776   */\n  dup3\n  sstore\n    /* \"#utility.yul\":3847:3874   */\n  swap5\n  dup5\n  add\n  swap5\n    /* \"#utility.yul\":3815:3816   */\n  0x01\n    /* \"#utility.yul\":3803:3817   */\n  swap1\n  swap2\n  add\n  swap1\n    /* \"#utility.yul\":3682:3701   */\n  dup5\n  add\n    /* \"#utility.yul\":3652:3888   */\n  jump(tag_103)\ntag_105:\n    /* \"#utility.yul\":3656:3659   */\n  pop\n    /* \"#utility.yul\":3916:3922   */\n  dup6\n    /* \"#utility.yul\":3907:3914   */\n  dup3\n    /* \"#utility.yul\":3904:3923   */\n  lt\n    /* \"#utility.yul\":3901:4102   */\n  iszero\n  tag_106\n  jumpi\n    /* \"#utility.yul\":3977:3996   */\n  dup8\n  dup6\n  add\n    /* \"#utility.yul\":3971:3997   */\n  mload\n  not(0x00)\n    /* \"#utility.yul\":4060:4061   */\n  0x03\n    /* \"#utility.yul\":4056:4070   */\n  dup9\n  swap1\n  shl\n    /* \"#utility.yul\":4072:4075   */\n  0xf8\n    /* \"#utility.yul\":4052:4076   */\n  and\n    /* \"#utility.yul\":4048:4085   */\n  shr\n    /* \"#utility.yul\":4044:4086   */\n  not\n    /* \"#utility.yul\":4029:4087   */\n  and\n    /* \"#utility.yul\":4014:4088   */\n  dup2\n  sstore\n    /* \"#utility.yul\":3901:4102   */\ntag_106:\n  pop\n  pop\n  pop\n  pop\n  pop\n    /* \"#utility.yul\":4148:4149   */\n  0x01\n    /* \"#utility.yul\":4132:4146   */\n  swap1\n  dup2\n  shl\n    /* \"#utility.yul\":4128:4150   */\n  add\n    /* \"#utility.yul\":4115:4151   */\n  swap1\n  sstore\n  pop\n    /* \"#utility.yul\":3066:4418   */\n  jump\t// out\n    /* \"#utility.yul\":4423:4640   */\ntag_29:\n    /* \"#utility.yul\":4463:4464   */\n  0x00\n    /* \"#utility.yul\":4489:4490   */\n  dup3\n    /* \"#utility.yul\":4479:4611   */\n  tag_108\n  jumpi\n    /* \"#utility.yul\":4533:4543   */\n  0x4e487b71\n    /* \"#utility.yul\":4528:4531   */\n  0xe0\n    /* \"#utility.yul\":4524:4544   */\n  shl\n    /* \"#utility.yul\":4521:4522   */\n  0x00\n    /* \"#utility.yul\":4514:4545   */\n  mstore\n    /* \"#utility.yul\":4568:4572   */\n  0x12\n    /* \"#utility.yul\":4565:4566   */\n  0x04\n    /* \"#utility.yul\":4558:4573   */\n  mstore\n    /* \"#utility.yul\":4596:4600   */\n  0x24\n    /* \"#utility.yul\":4593:4594   */\n  0x00\n    /* \"#utility.yul\":4586:4601   */\n  revert\n    /* \"#utility.yul\":4479:4611   */\ntag_108:\n  pop\n    /* \"#utility.yul\":4625:4634   */\n  div\n  swap1\n    /* \"#utility.yul\":4423:4640   */\n  jump\t// out\n    /* \"#utility.yul\":5005:5133   */\ntag_39:\n    /* \"#utility.yul\":5045:5048   */\n  0x00\n    /* \"#utility.yul\":5076:5077   */\n  dup3\n    /* \"#utility.yul\":5072:5078   */\n  not\n    /* \"#utility.yul\":5069:5070   */\n  dup3\n    /* \"#utility.yul\":5066:5079   */\n  gt\n    /* \"#utility.yul\":5063:5102   */\n  iszero\n  tag_112\n  jumpi\n    /* \"#utility.yul\":5082:5100   */\n  tag_112\n  tag_47\n  jump\t// in\ntag_112:\n  pop\n    /* \"#utility.yul\":5118:5127   */\n  add\n  swap1\n    /* \"#utility.yul\":5005:5133   */\n  jump\t// out\n    /* \"#utility.yul\":5138:5315   */\ntag_55:\n    /* \"Contracts/AccessBSC.sol\":201:4566  contract Metacces is ERC20 {... */\n  dataSize(sub_0)\n  dup1\n  dataOffset(sub_0)\n  0x00\n  codecopy\n  0x00\n  return\nstop\n\nsub_0: assembly {\n        /* \"Contracts/AccessBSC.sol\":201:4566  contract Metacces is ERC20 {... */\n      mstore(0x40, 0x80)\n      jumpi(tag_1, lt(calldatasize, 0x04))\n      shr(0xe0, calldataload(0x00))\n      dup1\n      0x8dd14802\n      gt\n      tag_32\n      jumpi\n      dup1\n      0xdd62ed3e\n      gt\n      tag_33\n      jumpi\n      dup1\n      0xe7d53fcb\n      gt\n      tag_34\n      jumpi\n      dup1\n      0xe7d53fcb\n      eq\n      tag_28\n      jumpi\n      dup1\n      0xf2fde38b\n      eq\n      tag_29\n      jumpi\n      dup1\n      0xf4f3122e\n      eq\n      tag_30\n      jumpi\n      dup1\n      0xf8897945\n      eq\n      tag_31\n      jumpi\n      0x00\n      dup1\n      revert\n    tag_34:\n      dup1\n      0xdd62ed3e\n      eq\n      tag_24\n      jumpi\n      dup1\n      0xdeea800d\n      eq\n      tag_25\n      jumpi\n      dup1\n      0xe181203a\n      eq\n      tag_26\n      jumpi\n      dup1\n      0xe4993d8c\n      eq\n      tag_27\n      jumpi\n      0x00\n      dup1\n      revert\n    tag_33:\n      dup1\n      0xa9059cbb\n      gt\n      tag_35\n      jumpi\n      dup1\n      0xa9059cbb\n      eq\n      tag_20\n      jumpi\n      dup1\n      0xadbc7cee\n      eq\n      tag_21\n      jumpi\n      dup1\n      0xb2938bee\n      eq\n      tag_22\n      jumpi\n      dup1\n      0xd5abeb01\n      eq\n      tag_23\n      jumpi\n      0x00\n      dup1\n      revert\n    tag_35:\n      dup1\n      0x8dd14802\n      eq\n      tag_17\n      jumpi\n      dup1\n      0x95d89b41\n      eq\n      tag_18\n      jumpi\n      dup1\n      0xa457c2d7\n      eq\n      tag_19\n      jumpi\n      0x00\n      dup1\n      revert\n    tag_32:\n      dup1\n      0x39509351\n      gt\n      tag_36\n      jumpi\n      dup1\n      0x534b1442\n      gt\n      tag_37\n      jumpi\n      dup1\n      0x534b1442\n      eq\n      tag_13\n      jumpi\n      dup1\n      0x5fa2ef10\n      eq\n      tag_14\n      jumpi\n      dup1\n      0x6ac5db19\n      eq\n      tag_15\n      jumpi\n      dup1\n      0x70a08231\n      eq\n      tag_16\n      jumpi\n      0x00\n      dup1\n      revert\n    tag_37:\n      dup1\n      0x39509351\n      eq\n      tag_10\n      jumpi\n      dup1\n      0x3c3b7995\n      eq\n      tag_11\n      jumpi\n      dup1\n      0x4d1d03d1\n      eq\n      tag_12\n      jumpi\n      0x00\n      dup1\n      revert\n    tag_36:\n      dup1\n      0x23b872dd\n      gt\n      tag_38\n      jumpi\n      dup1\n      0x23b872dd\n      eq\n      tag_6\n      jumpi\n      dup1\n      0x27c8f835\n      eq\n      tag_7\n      jumpi\n      dup1\n      0x313ce567\n      eq\n      tag_8\n      jumpi\n      dup1\n      0x380d831b\n      eq\n      tag_9\n      jumpi\n      0x00\n      dup1\n      revert\n    tag_38:\n      dup1\n      0x06fdde03\n      eq\n      tag_3\n      jumpi\n      dup1\n      0x095ea7b3\n      eq\n      tag_4\n      jumpi\n      dup1\n      0x18160ddd\n      eq\n      tag_5\n      jumpi\n      0x00\n      dup1\n      revert\n    tag_1:\n      jumpi(tag_2, calldatasize)\n      stop\n    tag_2:\n      0x00\n      dup1\n      revert\n        /* \"@openzeppelin/contracts/token/ERC20/ERC20.sol\":2156:2254  function name() public view virtual override returns (string memory) {... */\n    tag_3:\n      callvalue\n      dup1\n      iszero\n      tag_41\n      jumpi\n      0x00\n      dup1\n      revert\n    tag_41:\n      pop\n      tag_42\n      tag_43\n      jump\t// in\n    tag_42:\n      mload(0x40)\n      tag_44\n      swap2\n      swap1\n      tag_45\n      jump\t// in\n    tag_44:\n      mload(0x40)\n      dup1\n      swap2\n      sub\n      swap1\n      return\n        /* \"@openzeppelin/contracts/token/ERC20/ERC20.sol\":4433:4630  function approve(address spender, uint256 amount) public virtual override returns (bool) {... */\n    tag_4:\n      callvalue\n      dup1\n      iszero\n      tag_46\n      jumpi\n      0x00\n      dup1\n      revert\n    tag_46:\n      pop\n      tag_47\n      tag_48\n      calldatasize\n      0x04\n      tag_49\n      jump\t// in\n    tag_48:\n      tag_50\n      jump\t// in\n    tag_47:\n      mload(0x40)\n        /* \"#utility.yul\":1237:1251   */\n      swap1\n      iszero\n        /* \"#utility.yul\":1230:1252   */\n      iszero\n        /* \"#utility.yul\":1212:1253   */\n      dup2\n      mstore\n        /* \"#utility.yul\":1200:1202   */\n      0x20\n        /* \"#utility.yul\":1185:1203   */\n      add\n        /* \"@openzeppelin/contracts/token/ERC20/ERC20.sol\":4433:4630  function approve(address spender, uint256 amount) public virtual override returns (bool) {... */\n      tag_44\n        /* \"#utility.yul\":1072:1259   */\n      jump\n        /* \"@openzeppelin/contracts/token/ERC20/ERC20.sol\":3244:3350  function totalSupply() public view virtual override returns (uint256) {... */\n    tag_5:\n      callvalue\n      dup1\n      iszero\n      tag_53\n      jumpi\n      0x00\n      dup1\n      revert\n    tag_53:\n      pop\n        /* \"@openzeppelin/contracts/token/ERC20/ERC20.sol\":3331:3343  _totalSupply */\n      sload(0x02)\n        /* \"@openzeppelin/contracts/token/ERC20/ERC20.sol\":3244:3350  function totalSupply() public view virtual override returns (uint256) {... */\n    tag_54:\n      mload(0x40)\n        /* \"#utility.yul\":1410:1435   */\n      swap1\n      dup2\n      mstore\n        /* \"#utility.yul\":1398:1400   */\n      0x20\n        /* \"#utility.yul\":1383:1401   */\n      add\n        /* \"@openzeppelin/contracts/token/ERC20/ERC20.sol\":3244:3350  function totalSupply() public view virtual override returns (uint256) {... */\n      tag_44\n        /* \"#utility.yul\":1264:1441   */\n      jump\n        /* \"@openzeppelin/contracts/token/ERC20/ERC20.sol\":5192:5478  function transferFrom(... */\n    tag_6:\n      callvalue\n      dup1\n      iszero\n      tag_58\n      jumpi\n      0x00\n      dup1\n      revert\n    tag_58:\n      pop\n      tag_47\n      tag_60\n      calldatasize\n      0x04\n      tag_61\n      jump\t// in\n    tag_60:\n      tag_62\n      jump\t// in\n        /* \"Contracts/AccessBSC.sol\":406:477  address public deadAddress = 0x000000000000000000000000000000000000dEaD */\n    tag_7:\n      callvalue\n      dup1\n      iszero\n      tag_64\n      jumpi\n      0x00\n      dup1\n      revert\n    tag_64:\n      pop\n      sload(0x07)\n      tag_65\n      swap1\n      sub(shl(0xa0, 0x01), 0x01)\n      and\n      dup2\n      jump\n    tag_65:\n      mload(0x40)\n      sub(shl(0xa0, 0x01), 0x01)\n        /* \"#utility.yul\":2071:2103   */\n      swap1\n      swap2\n      and\n        /* \"#utility.yul\":2053:2104   */\n      dup2\n      mstore\n        /* \"#utility.yul\":2041:2043   */\n      0x20\n        /* \"#utility.yul\":2026:2044   */\n      add\n        /* \"Contracts/AccessBSC.sol\":406:477  address public deadAddress = 0x000000000000000000000000000000000000dEaD */\n      tag_44\n        /* \"#utility.yul\":1907:2110   */\n      jump\n        /* \"@openzeppelin/contracts/token/ERC20/ERC20.sol\":3093:3184  function decimals() public view virtual override returns (uint8) {... */\n    tag_8:\n      callvalue\n      dup1\n      iszero\n      tag_69\n      jumpi\n      0x00\n      dup1\n      revert\n    tag_69:\n      pop\n      mload(0x40)\n        /* \"@openzeppelin/contracts/token/ERC20/ERC20.sol\":3175:3177  18 */\n      0x12\n        /* \"#utility.yul\":2257:2293   */\n      dup2\n      mstore\n        /* \"#utility.yul\":2245:2247   */\n      0x20\n        /* \"#utility.yul\":2230:2248   */\n      add\n        /* \"@openzeppelin/contracts/token/ERC20/ERC20.sol\":3093:3184  function decimals() public view virtual override returns (uint8) {... */\n      tag_44\n        /* \"#utility.yul\":2115:2299   */\n      jump\n        /* \"Contracts/AccessBSC.sol\":2888:2996  function endSale () external onlyOwner{... */\n    tag_9:\n      callvalue\n      dup1\n      iszero\n      tag_74\n      jumpi\n      0x00\n      dup1\n      revert\n    tag_74:\n      pop\n      tag_75\n      tag_76\n      jump\t// in\n    tag_75:\n      stop\n        /* \"@openzeppelin/contracts/token/ERC20/ERC20.sol\":5873:6107  function increaseAllowance(address spender, uint256 addedValue) public virtual returns (bool) {... */\n    tag_10:\n      callvalue\n      dup1\n      iszero\n      tag_77\n      jumpi\n      0x00\n      dup1\n      revert\n    tag_77:\n      pop\n      tag_47\n      tag_79\n      calldatasize\n      0x04\n      tag_49\n      jump\t// in\n    tag_79:\n      tag_80\n      jump\t// in\n        /* \"Contracts/AccessBSC.sol\":708:745  uint256 public privateLimit = 1000000 */\n    tag_11:\n      callvalue\n      dup1\n      iszero\n      tag_82\n      jumpi\n      0x00\n      dup1\n      revert\n    tag_82:\n      pop\n      tag_54\n      sload(0x0f)\n      dup2\n      jump\n        /* \"Contracts/AccessBSC.sol\":2505:2670  function viewSale() public view returns(uint256 StartBlock, uint256 EndBlock, uint256 SaleCount, uint256 SalePrice){... */\n    tag_12:\n      callvalue\n      dup1\n      iszero\n      tag_86\n      jumpi\n      0x00\n      dup1\n      revert\n    tag_86:\n      pop\n        /* \"Contracts/AccessBSC.sol\":2633:2640  sSBlock */\n      sload(0x08)\n        /* \"Contracts/AccessBSC.sol\":2642:2649  sEBlock */\n      sload(0x09)\n        /* \"Contracts/AccessBSC.sol\":2651:2655  sTot */\n      sload(0x0a)\n        /* \"Contracts/AccessBSC.sol\":2658:2664  sPrice */\n      sload(0x0b)\n        /* \"Contracts/AccessBSC.sol\":2505:2670  function viewSale() public view returns(uint256 StartBlock, uint256 EndBlock, uint256 SaleCount, uint256 SalePrice){... */\n      0x40\n      dup1\n      mload\n        /* \"#utility.yul\":2535:2560   */\n      swap5\n      dup6\n      mstore\n        /* \"#utility.yul\":2591:2593   */\n      0x20\n        /* \"#utility.yul\":2576:2594   */\n      dup6\n      add\n        /* \"#utility.yul\":2569:2603   */\n      swap4\n      swap1\n      swap4\n      mstore\n        /* \"#utility.yul\":2619:2637   */\n      swap2\n      dup4\n      add\n        /* \"#utility.yul\":2612:2646   */\n      mstore\n        /* \"#utility.yul\":2677:2679   */\n      0x60\n        /* \"#utility.yul\":2662:2680   */\n      dup3\n      add\n        /* \"#utility.yul\":2655:2689   */\n      mstore\n        /* \"#utility.yul\":2522:2525   */\n      0x80\n        /* \"#utility.yul\":2507:2526   */\n      add\n        /* \"Contracts/AccessBSC.sol\":2505:2670  function viewSale() public view returns(uint256 StartBlock, uint256 EndBlock, uint256 SaleCount, uint256 SalePrice){... */\n      tag_44\n        /* \"#utility.yul\":2304:2695   */\n      jump\n        /* \"Contracts/AccessBSC.sol\":3237:3399  function setPrivateLimit(uint256 _limit) external onlyOwner {... */\n    tag_13:\n      callvalue\n      dup1\n      iszero\n      tag_91\n      jumpi\n      0x00\n      dup1\n      revert\n    tag_91:\n      pop\n      tag_75\n      tag_93\n      calldatasize\n      0x04\n      tag_94\n      jump\t// in\n    tag_93:\n      tag_95\n      jump\t// in\n        /* \"Contracts/AccessBSC.sol\":294:315  address public Bridge */\n    tag_14:\n      callvalue\n      dup1\n      iszero\n      tag_96\n      jumpi\n      0x00\n      dup1\n      revert\n    tag_96:\n      pop\n      sload(0x06)\n      tag_65\n      swap1\n      sub(shl(0xa0, 0x01), 0x01)\n      and\n      dup2\n      jump\n        /* \"Contracts/AccessBSC.sol\":633:663  uint256 public max = 20 * Path */\n    tag_15:\n      callvalue\n      dup1\n      iszero\n      tag_100\n      jumpi\n      0x00\n      dup1\n      revert\n    tag_100:\n      pop\n      tag_54\n      sload(0x0d)\n      dup2\n      jump\n        /* \"@openzeppelin/contracts/token/ERC20/ERC20.sol\":3408:3533  function balanceOf(address account) public view virtual override returns (uint256) {... */\n    tag_16:\n      callvalue\n      dup1\n      iszero\n      tag_104\n      jumpi\n      0x00\n      dup1\n      revert\n    tag_104:\n      pop\n      tag_54\n      tag_106\n      calldatasize\n      0x04\n      tag_107\n      jump\t// in\n    tag_106:\n      sub(shl(0xa0, 0x01), 0x01)\n        /* \"@openzeppelin/contracts/token/ERC20/ERC20.sol\":3508:3526  _balances[account] */\n      and\n        /* \"@openzeppelin/contracts/token/ERC20/ERC20.sol\":3482:3489  uint256 */\n      0x00\n        /* \"@openzeppelin/contracts/token/ERC20/ERC20.sol\":3508:3526  _balances[account] */\n      swap1\n      dup2\n      mstore\n      0x20\n      dup2\n      swap1\n      mstore\n      0x40\n      swap1\n      keccak256\n      sload\n      swap1\n        /* \"@openzeppelin/contracts/token/ERC20/ERC20.sol\":3408:3533  function balanceOf(address account) public view virtual override returns (uint256) {... */\n      jump\n        /* \"Contracts/AccessBSC.sol\":4399:4528  function setBridge (address payable newBridge) external onlyOwner{... */\n    tag_17:\n      callvalue\n      dup1\n      iszero\n      tag_110\n      jumpi\n      0x00\n      dup1\n      revert\n    tag_110:\n      pop\n      tag_75\n      tag_112\n      calldatasize\n      0x04\n      tag_107\n      jump\t// in\n    tag_112:\n      tag_114\n      jump\t// in\n        /* \"@openzeppelin/contracts/token/ERC20/ERC20.sol\":2367:2469  function symbol() public view virtual override returns (string memory) {... */\n    tag_18:\n      callvalue\n      dup1\n      iszero\n      tag_115\n      jumpi\n      0x00\n      dup1\n      revert\n    tag_115:\n      pop\n      tag_42\n      tag_117\n      jump\t// in\n        /* \"@openzeppelin/contracts/token/ERC20/ERC20.sol\":6594:7021  function decreaseAllowance(address spender, uint256 subtractedValue) public virtual returns (bool) {... */\n    tag_19:\n      callvalue\n      dup1\n      iszero\n      tag_119\n      jumpi\n      0x00\n      dup1\n      revert\n    tag_119:\n      pop\n      tag_47\n      tag_121\n      calldatasize\n      0x04\n      tag_49\n      jump\t// in\n    tag_121:\n      tag_122\n      jump\t// in\n        /* \"@openzeppelin/contracts/token/ERC20/ERC20.sol\":3729:3918  function transfer(address to, uint256 amount) public virtual override returns (bool) {... */\n    tag_20:\n      callvalue\n      dup1\n      iszero\n      tag_124\n      jumpi\n      0x00\n      dup1\n      revert\n    tag_124:\n      pop\n      tag_47\n      tag_126\n      calldatasize\n      0x04\n      tag_49\n      jump\t// in\n    tag_126:\n      tag_127\n      jump\t// in\n        /* \"Contracts/AccessBSC.sol\":4049:4395  function withdrawalBNB(uint256 _amount, uint256 decimal, address to) external onlyOwner() {... */\n    tag_21:\n      callvalue\n      dup1\n      iszero\n      tag_129\n      jumpi\n      0x00\n      dup1\n      revert\n    tag_129:\n      pop\n      tag_75\n      tag_131\n      calldatasize\n      0x04\n      tag_132\n      jump\t// in\n    tag_131:\n      tag_133\n      jump\t// in\n        /* \"Contracts/AccessBSC.sol\":3541:3905  function withdrawalToken(address _tokenAddr, uint256 _amount, uint256 decimal, address to) external onlyOwner() {... */\n    tag_22:\n      callvalue\n      dup1\n      iszero\n      tag_134\n      jumpi\n      0x00\n      dup1\n      revert\n    tag_134:\n      pop\n      tag_75\n      tag_136\n      calldatasize\n      0x04\n      tag_137\n      jump\t// in\n    tag_136:\n      tag_138\n      jump\t// in\n        /* \"Contracts/AccessBSC.sol\":751:794  uint256 public maxSupply = 500000000 * Path */\n    tag_23:\n      callvalue\n      dup1\n      iszero\n      tag_139\n      jumpi\n      0x00\n      dup1\n      revert\n    tag_139:\n      pop\n      tag_54\n      sload(0x10)\n      dup2\n      jump\n        /* \"@openzeppelin/contracts/token/ERC20/ERC20.sol\":3976:4125  function allowance(address owner, address spender) public view virtual override returns (uint256) {... */\n    tag_24:\n      callvalue\n      dup1\n      iszero\n      tag_143\n      jumpi\n      0x00\n      dup1\n      revert\n    tag_143:\n      pop\n      tag_54\n      tag_145\n      calldatasize\n      0x04\n      tag_146\n      jump\t// in\n    tag_145:\n      tag_147\n      jump\t// in\n        /* \"Contracts/AccessBSC.sol\":590:627  uint256 public Path = 10** decimals() */\n    tag_25:\n      callvalue\n      dup1\n      iszero\n      tag_149\n      jumpi\n      0x00\n      dup1\n      revert\n    tag_149:\n      pop\n      tag_54\n      sload(0x0c)\n      dup2\n      jump\n        /* \"Contracts/AccessBSC.sol\":3000:3233  function changeMinMaxPrivateSale(uint256 minAmount, uint256 maxAmount) external onlyOwner {... */\n    tag_26:\n      callvalue\n      dup1\n      iszero\n      tag_153\n      jumpi\n      0x00\n      dup1\n      revert\n    tag_153:\n      pop\n      tag_75\n      tag_155\n      calldatasize\n      0x04\n      tag_156\n      jump\t// in\n    tag_155:\n      tag_157\n      jump\t// in\n        /* \"Contracts/AccessBSC.sol\":321:400  address public constant theCompany = 0xc6e5347D1A5FE685160429705E9e26bD3BBa8fEa */\n    tag_27:\n      callvalue\n      dup1\n      iszero\n      tag_158\n      jumpi\n      0x00\n      dup1\n      revert\n    tag_158:\n      pop\n      tag_65\n        /* \"Contracts/AccessBSC.sol\":358:400  0xc6e5347D1A5FE685160429705E9e26bD3BBa8fEa */\n      0xc6e5347d1a5fe685160429705e9e26bd3bba8fea\n        /* \"Contracts/AccessBSC.sol\":321:400  address public constant theCompany = 0xc6e5347D1A5FE685160429705E9e26bD3BBa8fEa */\n      dup2\n      jump\n        /* \"Contracts/AccessBSC.sol\":1897:2501  function privateSale(address) external payable returns (bool success){... */\n    tag_28:\n      tag_47\n      tag_163\n      calldatasize\n      0x04\n      tag_107\n      jump\t// in\n    tag_163:\n      tag_164\n      jump\t// in\n        /* \"Contracts/AccessBSC.sol\":1688:1892  function transferOwnership(address _newOwner) external onlyOwner{... */\n    tag_29:\n      callvalue\n      dup1\n      iszero\n      tag_166\n      jumpi\n      0x00\n      dup1\n      revert\n    tag_166:\n      pop\n      tag_75\n      tag_168\n      calldatasize\n      0x04\n      tag_107\n      jump\t// in\n    tag_168:\n      tag_169\n      jump\t// in\n        /* \"Contracts/AccessBSC.sol\":2676:2882  function startSale(uint256 _sEBlock, uint256 _sPrice) external onlyOwner{... */\n    tag_30:\n      callvalue\n      dup1\n      iszero\n      tag_170\n      jumpi\n      0x00\n      dup1\n      revert\n    tag_170:\n      pop\n      tag_75\n      tag_172\n      calldatasize\n      0x04\n      tag_156\n      jump\t// in\n    tag_172:\n      tag_173\n      jump\t// in\n        /* \"Contracts/AccessBSC.sol\":669:702  uint256 public min = max.div(100) */\n    tag_31:\n      callvalue\n      dup1\n      iszero\n      tag_174\n      jumpi\n      0x00\n      dup1\n      revert\n    tag_174:\n      pop\n      tag_54\n      sload(0x0e)\n      dup2\n      jump\n        /* \"@openzeppelin/contracts/token/ERC20/ERC20.sol\":2156:2254  function name() public view virtual override returns (string memory) {... */\n    tag_43:\n        /* \"@openzeppelin/contracts/token/ERC20/ERC20.sol\":2210:2223  string memory */\n      0x60\n        /* \"@openzeppelin/contracts/token/ERC20/ERC20.sol\":2242:2247  _name */\n      0x03\n        /* \"@openzeppelin/contracts/token/ERC20/ERC20.sol\":2235:2247  return _name */\n      dup1\n      sload\n      tag_181\n      swap1\n      tag_182\n      jump\t// in\n    tag_181:\n      dup1\n      0x1f\n      add\n      0x20\n      dup1\n      swap2\n      div\n      mul\n      0x20\n      add\n      mload(0x40)\n      swap1\n      dup2\n      add\n      0x40\n      mstore\n      dup1\n      swap3\n      swap2\n      swap1\n      dup2\n      dup2\n      mstore\n      0x20\n      add\n      dup3\n      dup1\n      sload\n      tag_183\n      swap1\n      tag_182\n      jump\t// in\n    tag_183:\n      dup1\n      iszero\n      tag_184\n      jumpi\n      dup1\n      0x1f\n      lt\n      tag_185\n      jumpi\n      0x0100\n      dup1\n      dup4\n      sload\n      div\n      mul\n      dup4\n      mstore\n      swap2\n      0x20\n      add\n      swap2\n      jump(tag_184)\n    tag_185:\n      dup3\n      add\n      swap2\n      swap1\n      0x00\n      mstore\n      keccak256(0x00, 0x20)\n      swap1\n    tag_186:\n      dup2\n      sload\n      dup2\n      mstore\n      swap1\n      0x01\n      add\n      swap1\n      0x20\n      add\n      dup1\n      dup4\n      gt\n      tag_186\n      jumpi\n      dup3\n      swap1\n      sub\n      0x1f\n      and\n      dup3\n      add\n      swap2\n    tag_184:\n      pop\n      pop\n      pop\n      pop\n      pop\n      swap1\n      pop\n        /* \"@openzeppelin/contracts/token/ERC20/ERC20.sol\":2156:2254  function name() public view virtual override returns (string memory) {... */\n      swap1\n      jump\t// out\n        /* \"@openzeppelin/contracts/token/ERC20/ERC20.sol\":4433:4630  function approve(address spender, uint256 amount) public virtual override returns (bool) {... */\n    tag_50:\n        /* \"@openzeppelin/contracts/token/ERC20/ERC20.sol\":4516:4520  bool */\n      0x00\n        /* \"@openzeppelin/contracts/utils/Context.sol\":719:729  msg.sender */\n      caller\n        /* \"@openzeppelin/contracts/token/ERC20/ERC20.sol\":4570:4602  _approve(owner, spender, amount) */\n      tag_190\n        /* \"@openzeppelin/contracts/utils/Context.sol\":719:729  msg.sender */\n      dup2\n        /* \"@openzeppelin/contracts/token/ERC20/ERC20.sol\":4586:4593  spender */\n      dup6\n        /* \"@openzeppelin/contracts/token/ERC20/ERC20.sol\":4595:4601  amount */\n      dup6\n        /* \"@openzeppelin/contracts/token/ERC20/ERC20.sol\":4570:4578  _approve */\n      tag_191\n        /* \"@openzeppelin/contracts/token/ERC20/ERC20.sol\":4570:4602  _approve(owner, spender, amount) */\n      jump\t// in\n    tag_190:\n        /* \"@openzeppelin/contracts/token/ERC20/ERC20.sol\":4619:4623  true */\n      0x01\n        /* \"@openzeppelin/contracts/token/ERC20/ERC20.sol\":4612:4623  return true */\n      swap2\n      pop\n      pop\n        /* \"@openzeppelin/contracts/token/ERC20/ERC20.sol\":4433:4630  function approve(address spender, uint256 amount) public virtual override returns (bool) {... */\n    tag_187:\n      swap3\n      swap2\n      pop\n      pop\n      jump\t// out\n        /* \"@openzeppelin/contracts/token/ERC20/ERC20.sol\":5192:5478  function transferFrom(... */\n    tag_62:\n        /* \"@openzeppelin/contracts/token/ERC20/ERC20.sol\":5319:5323  bool */\n      0x00\n        /* \"@openzeppelin/contracts/utils/Context.sol\":719:729  msg.sender */\n      caller\n        /* \"@openzeppelin/contracts/token/ERC20/ERC20.sol\":5375:5413  _spendAllowance(from, spender, amount) */\n      tag_195\n        /* \"@openzeppelin/contracts/token/ERC20/ERC20.sol\":5391:5395  from */\n      dup6\n        /* \"@openzeppelin/contracts/utils/Context.sol\":719:729  msg.sender */\n      dup3\n        /* \"@openzeppelin/contracts/token/ERC20/ERC20.sol\":5406:5412  amount */\n      dup6\n        /* \"@openzeppelin/contracts/token/ERC20/ERC20.sol\":5375:5390  _spendAllowance */\n      tag_196\n        /* \"@openzeppelin/contracts/token/ERC20/ERC20.sol\":5375:5413  _spendAllowance(from, spender, amount) */\n      jump\t// in\n    tag_195:\n        /* \"@openzeppelin/contracts/token/ERC20/ERC20.sol\":5423:5450  _transfer(from, to, amount) */\n      tag_197\n        /* \"@openzeppelin/contracts/token/ERC20/ERC20.sol\":5433:5437  from */\n      dup6\n        /* \"@openzeppelin/contracts/token/ERC20/ERC20.sol\":5439:5441  to */\n      dup6\n        /* \"@openzeppelin/contracts/token/ERC20/ERC20.sol\":5443:5449  amount */\n      dup6\n        /* \"@openzeppelin/contracts/token/ERC20/ERC20.sol\":5423:5432  _transfer */\n      tag_198\n        /* \"@openzeppelin/contracts/token/ERC20/ERC20.sol\":5423:5450  _transfer(from, to, amount) */\n      jump\t// in\n    tag_197:\n      pop\n        /* \"@openzeppelin/contracts/token/ERC20/ERC20.sol\":5467:5471  true */\n      0x01\n      swap5\n        /* \"@openzeppelin/contracts/token/ERC20/ERC20.sol\":5192:5478  function transferFrom(... */\n      swap4\n      pop\n      pop\n      pop\n      pop\n      jump\t// out\n        /* \"Contracts/AccessBSC.sol\":2888:2996  function endSale () external onlyOwner{... */\n    tag_76:\n        /* \"Contracts/AccessBSC.sol\":1362:1367  owner */\n      and(sub(shl(0xa0, 0x01), 0x01), sload(0x05))\n        /* \"Contracts/AccessBSC.sol\":1348:1358  msg.sender */\n      caller\n        /* \"Contracts/AccessBSC.sol\":1348:1367  msg.sender == owner */\n      eq\n        /* \"Contracts/AccessBSC.sol\":1340:1388  require(msg.sender == owner, \"caller not owner\") */\n      tag_201\n      jumpi\n      mload(0x40)\n      shl(0xe5, 0x461bcd)\n      dup2\n      mstore\n      0x04\n      add\n      tag_202\n      swap1\n      tag_203\n      jump\t// in\n    tag_202:\n      mload(0x40)\n      dup1\n      swap2\n      sub\n      swap1\n      revert\n    tag_201:\n        /* \"Contracts/AccessBSC.sol\":2942:2954  block.number */\n      number\n        /* \"Contracts/AccessBSC.sol\":2932:2939  sEBlock */\n      0x09\n        /* \"Contracts/AccessBSC.sol\":2932:2954  sEBlock = block.number */\n      sstore\n        /* \"Contracts/AccessBSC.sol\":2965:2991  saleEnded(block.timestamp) */\n      mload(0x40)\n        /* \"Contracts/AccessBSC.sol\":2975:2990  block.timestamp */\n      timestamp\n        /* \"#utility.yul\":1410:1435   */\n      dup2\n      mstore\n        /* \"Contracts/AccessBSC.sol\":2965:2991  saleEnded(block.timestamp) */\n      0xb144be0f16f8d30f2e18ef8f7938d5e90207932d96650e592ff47725716818fb\n      swap1\n        /* \"#utility.yul\":1398:1400   */\n      0x20\n        /* \"#utility.yul\":1383:1401   */\n      add\n        /* \"Contracts/AccessBSC.sol\":2965:2991  saleEnded(block.timestamp) */\n      mload(0x40)\n      dup1\n      swap2\n      sub\n      swap1\n      log1\n        /* \"Contracts/AccessBSC.sol\":2888:2996  function endSale () external onlyOwner{... */\n      jump\t// out\n        /* \"@openzeppelin/contracts/token/ERC20/ERC20.sol\":5873:6107  function increaseAllowance(address spender, uint256 addedValue) public virtual returns (bool) {... */\n    tag_80:\n        /* \"@openzeppelin/contracts/token/ERC20/ERC20.sol\":5961:5965  bool */\n      0x00\n        /* \"@openzeppelin/contracts/utils/Context.sol\":719:729  msg.sender */\n      caller\n        /* \"@openzeppelin/contracts/token/ERC20/ERC20.sol\":6015:6079  _approve(owner, spender, allowance(owner, spender) + addedValue) */\n      tag_190\n        /* \"@openzeppelin/contracts/utils/Context.sol\":719:729  msg.sender */\n      dup2\n        /* \"@openzeppelin/contracts/token/ERC20/ERC20.sol\":6031:6038  spender */\n      dup6\n        /* \"@openzeppelin/contracts/token/ERC20/ERC20.sol\":6068:6078  addedValue */\n      dup6\n        /* \"@openzeppelin/contracts/token/ERC20/ERC20.sol\":6040:6065  allowance(owner, spender) */\n      tag_209\n        /* \"@openzeppelin/contracts/utils/Context.sol\":719:729  msg.sender */\n      dup4\n        /* \"@openzeppelin/contracts/token/ERC20/ERC20.sol\":6031:6038  spender */\n      dup4\n        /* \"@openzeppelin/contracts/token/ERC20/ERC20.sol\":6040:6049  allowance */\n      tag_147\n        /* \"@openzeppelin/contracts/token/ERC20/ERC20.sol\":6040:6065  allowance(owner, spender) */\n      jump\t// in\n    tag_209:\n        /* \"@openzeppelin/contracts/token/ERC20/ERC20.sol\":6040:6078  allowance(owner, spender) + addedValue */\n      tag_210\n      swap2\n      swap1\n      tag_211\n      jump\t// in\n    tag_210:\n        /* \"@openzeppelin/contracts/token/ERC20/ERC20.sol\":6015:6023  _approve */\n      tag_191\n        /* \"@openzeppelin/contracts/token/ERC20/ERC20.sol\":6015:6079  _approve(owner, spender, allowance(owner, spender) + addedValue) */\n      jump\t// in\n        /* \"Contracts/AccessBSC.sol\":3237:3399  function setPrivateLimit(uint256 _limit) external onlyOwner {... */\n    tag_95:\n        /* \"Contracts/AccessBSC.sol\":1362:1367  owner */\n      and(sub(shl(0xa0, 0x01), 0x01), sload(0x05))\n        /* \"Contracts/AccessBSC.sol\":1348:1358  msg.sender */\n      caller\n        /* \"Contracts/AccessBSC.sol\":1348:1367  msg.sender == owner */\n      eq\n        /* \"Contracts/AccessBSC.sol\":1340:1388  require(msg.sender == owner, \"caller not owner\") */\n      tag_214\n      jumpi\n      mload(0x40)\n      shl(0xe5, 0x461bcd)\n      dup2\n      mstore\n      0x04\n      add\n      tag_202\n      swap1\n      tag_203\n      jump\t// in\n    tag_214:\n        /* \"Contracts/AccessBSC.sol\":3313:3319  _limit */\n      dup1\n        /* \"Contracts/AccessBSC.sol\":3322:3323  0 */\n      0x00\n        /* \"Contracts/AccessBSC.sol\":3313:3323  _limit !=0 */\n      sub\n        /* \"Contracts/AccessBSC.sol\":3305:3332  require(_limit !=0,\"Zero!\") */\n      tag_217\n      jumpi\n      mload(0x40)\n      shl(0xe5, 0x461bcd)\n      dup2\n      mstore\n      0x04\n      add\n      tag_202\n      swap1\n      tag_219\n      jump\t// in\n    tag_217:\n        /* \"Contracts/AccessBSC.sol\":3340:3352  privateLimit */\n      0x0f\n        /* \"Contracts/AccessBSC.sol\":3340:3361  privateLimit = _limit */\n      dup2\n      swap1\n      sstore\n        /* \"Contracts/AccessBSC.sol\":3374:3394  PrivateLimit(_limit) */\n      mload(0x40)\n        /* \"#utility.yul\":1410:1435   */\n      dup2\n      dup2\n      mstore\n        /* \"Contracts/AccessBSC.sol\":3374:3394  PrivateLimit(_limit) */\n      0x6d487f3988610155b3a9ef590f8ac170134d24e6505b9ddd3160e34abaa0edaf\n      swap1\n        /* \"#utility.yul\":1398:1400   */\n      0x20\n        /* \"#utility.yul\":1383:1401   */\n      add\n        /* \"Contracts/AccessBSC.sol\":3374:3394  PrivateLimit(_limit) */\n      mload(0x40)\n      dup1\n      swap2\n      sub\n      swap1\n      log1\n        /* \"Contracts/AccessBSC.sol\":3237:3399  function setPrivateLimit(uint256 _limit) external onlyOwner {... */\n      pop\n      jump\t// out\n        /* \"Contracts/AccessBSC.sol\":4399:4528  function setBridge (address payable newBridge) external onlyOwner{... */\n    tag_114:\n        /* \"Contracts/AccessBSC.sol\":1362:1367  owner */\n      and(sub(shl(0xa0, 0x01), 0x01), sload(0x05))\n        /* \"Contracts/AccessBSC.sol\":1348:1358  msg.sender */\n      caller\n        /* \"Contracts/AccessBSC.sol\":1348:1367  msg.sender == owner */\n      eq\n        /* \"Contracts/AccessBSC.sol\":1340:1388  require(msg.sender == owner, \"caller not owner\") */\n      tag_223\n      jumpi\n      mload(0x40)\n      shl(0xe5, 0x461bcd)\n      dup2\n      mstore\n      0x04\n      add\n      tag_202\n      swap1\n      tag_203\n      jump\t// in\n    tag_223:\n        /* \"Contracts/AccessBSC.sol\":4477:4497  SetBridge(newBridge) */\n      mload(0x40)\n      sub(shl(0xa0, 0x01), 0x01)\n        /* \"#utility.yul\":2071:2103   */\n      dup3\n      and\n        /* \"#utility.yul\":2053:2104   */\n      dup2\n      mstore\n        /* \"Contracts/AccessBSC.sol\":4477:4497  SetBridge(newBridge) */\n      0xe605ac02ea219003ec58fc9cf4d4b3c5f2d62ec39807b1c63886ddd47a6fcd6e\n      swap1\n        /* \"#utility.yul\":2041:2043   */\n      0x20\n        /* \"#utility.yul\":2026:2044   */\n      add\n        /* \"Contracts/AccessBSC.sol\":4477:4497  SetBridge(newBridge) */\n      mload(0x40)\n      dup1\n      swap2\n      sub\n      swap1\n      log1\n        /* \"Contracts/AccessBSC.sol\":4505:4511  Bridge */\n      0x06\n        /* \"Contracts/AccessBSC.sol\":4505:4523  Bridge = newBridge */\n      dup1\n      sload\n      not(sub(shl(0xa0, 0x01), 0x01))\n      and\n      sub(shl(0xa0, 0x01), 0x01)\n      swap3\n      swap1\n      swap3\n      and\n      swap2\n      swap1\n      swap2\n      or\n      swap1\n      sstore\n        /* \"Contracts/AccessBSC.sol\":4399:4528  function setBridge (address payable newBridge) external onlyOwner{... */\n      jump\t// out\n        /* \"@openzeppelin/contracts/token/ERC20/ERC20.sol\":2367:2469  function symbol() public view virtual override returns (string memory) {... */\n    tag_117:\n        /* \"@openzeppelin/contracts/token/ERC20/ERC20.sol\":2423:2436  string memory */\n      0x60\n        /* \"@openzeppelin/contracts/token/ERC20/ERC20.sol\":2455:2462  _symbol */\n      0x04\n        /* \"@openzeppelin/contracts/token/ERC20/ERC20.sol\":2448:2462  return _symbol */\n      dup1\n      sload\n      tag_181\n      swap1\n      tag_182\n      jump\t// in\n        /* \"@openzeppelin/contracts/token/ERC20/ERC20.sol\":6594:7021  function decreaseAllowance(address spender, uint256 subtractedValue) public virtual returns (bool) {... */\n    tag_122:\n        /* \"@openzeppelin/contracts/token/ERC20/ERC20.sol\":6687:6691  bool */\n      0x00\n        /* \"@openzeppelin/contracts/utils/Context.sol\":719:729  msg.sender */\n      caller\n        /* \"@openzeppelin/contracts/token/ERC20/ERC20.sol\":6687:6691  bool */\n      dup2\n        /* \"@openzeppelin/contracts/token/ERC20/ERC20.sol\":6768:6793  allowance(owner, spender) */\n      tag_236\n        /* \"@openzeppelin/contracts/utils/Context.sol\":719:729  msg.sender */\n      dup3\n        /* \"@openzeppelin/contracts/token/ERC20/ERC20.sol\":6785:6792  spender */\n      dup7\n        /* \"@openzeppelin/contracts/token/ERC20/ERC20.sol\":6768:6777  allowance */\n      tag_147\n        /* \"@openzeppelin/contracts/token/ERC20/ERC20.sol\":6768:6793  allowance(owner, spender) */\n      jump\t// in\n    tag_236:\n        /* \"@openzeppelin/contracts/token/ERC20/ERC20.sol\":6741:6793  uint256 currentAllowance = allowance(owner, spender) */\n      swap1\n      pop\n        /* \"@openzeppelin/contracts/token/ERC20/ERC20.sol\":6831:6846  subtractedValue */\n      dup4\n        /* \"@openzeppelin/contracts/token/ERC20/ERC20.sol\":6811:6827  currentAllowance */\n      dup2\n        /* \"@openzeppelin/contracts/token/ERC20/ERC20.sol\":6811:6846  currentAllowance >= subtractedValue */\n      lt\n      iszero\n        /* \"@openzeppelin/contracts/token/ERC20/ERC20.sol\":6803:6888  require(currentAllowance >= subtractedValue, \"ERC20: decreased allowance below zero\") */\n      tag_237\n      jumpi\n      mload(0x40)\n      shl(0xe5, 0x461bcd)\n      dup2\n      mstore\n        /* \"#utility.yul\":6707:6709   */\n      0x20\n        /* \"@openzeppelin/contracts/token/ERC20/ERC20.sol\":6803:6888  require(currentAllowance >= subtractedValue, \"ERC20: decreased allowance below zero\") */\n      0x04\n      dup3\n      add\n        /* \"#utility.yul\":6689:6710   */\n      mstore\n        /* \"#utility.yul\":6746:6748   */\n      0x25\n        /* \"#utility.yul\":6726:6744   */\n      0x24\n      dup3\n      add\n        /* \"#utility.yul\":6719:6749   */\n      mstore\n        /* \"#utility.yul\":6785:6819   */\n      0x45524332303a2064656372656173656420616c6c6f77616e63652062656c6f77\n        /* \"#utility.yul\":6765:6783   */\n      0x44\n      dup3\n      add\n        /* \"#utility.yul\":6758:6820   */\n      mstore\n      shl(0xd8, 0x207a65726f)\n        /* \"#utility.yul\":6836:6854   */\n      0x64\n      dup3\n      add\n        /* \"#utility.yul\":6829:6864   */\n      mstore\n        /* \"#utility.yul\":6881:6900   */\n      0x84\n      add\n        /* \"@openzeppelin/contracts/token/ERC20/ERC20.sol\":6803:6888  require(currentAllowance >= subtractedValue, \"ERC20: decreased allowance below zero\") */\n      tag_202\n        /* \"#utility.yul\":6505:6906   */\n      jump\n        /* \"@openzeppelin/contracts/token/ERC20/ERC20.sol\":6803:6888  require(currentAllowance >= subtractedValue, \"ERC20: decreased allowance below zero\") */\n    tag_237:\n        /* \"@openzeppelin/contracts/token/ERC20/ERC20.sol\":6922:6982  _approve(owner, spender, currentAllowance - subtractedValue) */\n      tag_197\n        /* \"@openzeppelin/contracts/token/ERC20/ERC20.sol\":6931:6936  owner */\n      dup3\n        /* \"@openzeppelin/contracts/token/ERC20/ERC20.sol\":6938:6945  spender */\n      dup7\n        /* \"@openzeppelin/contracts/token/ERC20/ERC20.sol\":6966:6981  subtractedValue */\n      dup7\n        /* \"@openzeppelin/contracts/token/ERC20/ERC20.sol\":6947:6963  currentAllowance */\n      dup5\n        /* \"@openzeppelin/contracts/token/ERC20/ERC20.sol\":6947:6981  currentAllowance - subtractedValue */\n      sub\n        /* \"@openzeppelin/contracts/token/ERC20/ERC20.sol\":6922:6930  _approve */\n      tag_191\n        /* \"@openzeppelin/contracts/token/ERC20/ERC20.sol\":6922:6982  _approve(owner, spender, currentAllowance - subtractedValue) */\n      jump\t// in\n        /* \"@openzeppelin/contracts/token/ERC20/ERC20.sol\":3729:3918  function transfer(address to, uint256 amount) public virtual override returns (bool) {... */\n    tag_127:\n        /* \"@openzeppelin/contracts/token/ERC20/ERC20.sol\":3808:3812  bool */\n      0x00\n        /* \"@openzeppelin/contracts/utils/Context.sol\":719:729  msg.sender */\n      caller\n        /* \"@openzeppelin/contracts/token/ERC20/ERC20.sol\":3862:3890  _transfer(owner, to, amount) */\n      tag_190\n        /* \"@openzeppelin/contracts/utils/Context.sol\":719:729  msg.sender */\n      dup2\n        /* \"@openzeppelin/contracts/token/ERC20/ERC20.sol\":3879:3881  to */\n      dup6\n        /* \"@openzeppelin/contracts/token/ERC20/ERC20.sol\":3883:3889  amount */\n      dup6\n        /* \"@openzeppelin/contracts/token/ERC20/ERC20.sol\":3862:3871  _transfer */\n      tag_198\n        /* \"@openzeppelin/contracts/token/ERC20/ERC20.sol\":3862:3890  _transfer(owner, to, amount) */\n      jump\t// in\n        /* \"Contracts/AccessBSC.sol\":4049:4395  function withdrawalBNB(uint256 _amount, uint256 decimal, address to) external onlyOwner() {... */\n    tag_133:\n        /* \"Contracts/AccessBSC.sol\":1362:1367  owner */\n      and(sub(shl(0xa0, 0x01), 0x01), sload(0x05))\n        /* \"Contracts/AccessBSC.sol\":1348:1358  msg.sender */\n      caller\n        /* \"Contracts/AccessBSC.sol\":1348:1367  msg.sender == owner */\n      eq\n        /* \"Contracts/AccessBSC.sol\":1340:1388  require(msg.sender == owner, \"caller not owner\") */\n      tag_245\n      jumpi\n      mload(0x40)\n      shl(0xe5, 0x461bcd)\n      dup2\n      mstore\n      0x04\n      add\n      tag_202\n      swap1\n      tag_203\n      jump\t// in\n    tag_245:\n        /* \"Contracts/AccessBSC.sol\":4182:4189  _amount */\n      dup3\n        /* \"Contracts/AccessBSC.sol\":4157:4178  address(this).balance */\n      selfbalance\n        /* \"Contracts/AccessBSC.sol\":4157:4189  address(this).balance >= _amount */\n      lt\n      iszero\n        /* \"Contracts/AccessBSC.sol\":4149:4200  require(address(this).balance >= _amount,\"No BNB!\") */\n      tag_248\n      jumpi\n      mload(0x40)\n      shl(0xe5, 0x461bcd)\n      dup2\n      mstore\n        /* \"#utility.yul\":7113:7115   */\n      0x20\n        /* \"Contracts/AccessBSC.sol\":4149:4200  require(address(this).balance >= _amount,\"No BNB!\") */\n      0x04\n      dup3\n      add\n        /* \"#utility.yul\":7095:7116   */\n      mstore\n        /* \"#utility.yul\":7152:7153   */\n      0x07\n        /* \"#utility.yul\":7132:7150   */\n      0x24\n      dup3\n      add\n        /* \"#utility.yul\":7125:7154   */\n      mstore\n      shl(0xc8, 0x4e6f20424e4221)\n        /* \"#utility.yul\":7170:7188   */\n      0x44\n      dup3\n      add\n        /* \"#utility.yul\":7163:7200   */\n      mstore\n        /* \"#utility.yul\":7217:7235   */\n      0x64\n      add\n        /* \"Contracts/AccessBSC.sol\":4149:4200  require(address(this).balance >= _amount,\"No BNB!\") */\n      tag_202\n        /* \"#utility.yul\":6911:7241   */\n      jump\n        /* \"Contracts/AccessBSC.sol\":4149:4200  require(address(this).balance >= _amount,\"No BNB!\") */\n    tag_248:\n      sub(shl(0xa0, 0x01), 0x01)\n        /* \"Contracts/AccessBSC.sol\":4218:4234  to != address(0) */\n      dup2\n      and\n        /* \"Contracts/AccessBSC.sol\":4210:4250  require(to != address(0),\"Zero address\") */\n      tag_251\n      jumpi\n      mload(0x40)\n      shl(0xe5, 0x461bcd)\n      dup2\n      mstore\n        /* \"#utility.yul\":7448:7450   */\n      0x20\n        /* \"Contracts/AccessBSC.sol\":4210:4250  require(to != address(0),\"Zero address\") */\n      0x04\n      dup3\n      add\n        /* \"#utility.yul\":7430:7451   */\n      mstore\n        /* \"#utility.yul\":7487:7489   */\n      0x0c\n        /* \"#utility.yul\":7467:7485   */\n      0x24\n      dup3\n      add\n        /* \"#utility.yul\":7460:7490   */\n      mstore\n      shl(0xa0, 0x5a65726f2061646472657373)\n        /* \"#utility.yul\":7506:7524   */\n      0x44\n      dup3\n      add\n        /* \"#utility.yul\":7499:7541   */\n      mstore\n        /* \"#utility.yul\":7558:7576   */\n      0x64\n      add\n        /* \"Contracts/AccessBSC.sol\":4210:4250  require(to != address(0),\"Zero address\") */\n      tag_202\n        /* \"#utility.yul\":7246:7582   */\n      jump\n        /* \"Contracts/AccessBSC.sol\":4210:4250  require(to != address(0),\"Zero address\") */\n    tag_251:\n        /* \"Contracts/AccessBSC.sol\":4260:4272  uint256 dcml */\n      0x00\n        /* \"Contracts/AccessBSC.sol\":4275:4288  10 ** decimal */\n      tag_254\n        /* \"Contracts/AccessBSC.sol\":4281:4288  decimal */\n      dup4\n        /* \"Contracts/AccessBSC.sol\":4275:4277  10 */\n      0x0a\n        /* \"Contracts/AccessBSC.sol\":4275:4288  10 ** decimal */\n      tag_255\n      jump\t// in\n    tag_254:\n        /* \"Contracts/AccessBSC.sol\":4303:4338  WithdrawalBNB(_amount, decimal, to) */\n      0x40\n      dup1\n      mload\n        /* \"#utility.yul\":9163:9188   */\n      dup7\n      dup2\n      mstore\n        /* \"#utility.yul\":9219:9221   */\n      0x20\n        /* \"#utility.yul\":9204:9222   */\n      dup2\n      add\n        /* \"#utility.yul\":9197:9231   */\n      dup7\n      swap1\n      mstore\n      sub(shl(0xa0, 0x01), 0x01)\n        /* \"#utility.yul\":9267:9299   */\n      dup6\n      and\n        /* \"#utility.yul\":9247:9265   */\n      dup2\n      dup4\n      add\n        /* \"#utility.yul\":9240:9300   */\n      mstore\n        /* \"Contracts/AccessBSC.sol\":4303:4338  WithdrawalBNB(_amount, decimal, to) */\n      swap1\n      mload\n        /* \"Contracts/AccessBSC.sol\":4260:4288  uint256 dcml = 10 ** decimal */\n      swap2\n      swap3\n      pop\n        /* \"Contracts/AccessBSC.sol\":4303:4338  WithdrawalBNB(_amount, decimal, to) */\n      0x4508977418b95bac209196e03356692c2d8f47957dec1c15af1a44cc40d39a04\n      swap2\n      swap1\n      dup2\n      swap1\n      sub\n        /* \"#utility.yul\":9151:9153   */\n      0x60\n        /* \"Contracts/AccessBSC.sol\":4303:4338  WithdrawalBNB(_amount, decimal, to) */\n      add\n      swap1\n      log1\n      sub(shl(0xa0, 0x01), 0x01)\n        /* \"Contracts/AccessBSC.sol\":4348:4368  payable(to).transfer */\n      dup3\n      and\n        /* \"Contracts/AccessBSC.sol\":4348:4382  payable(to).transfer(_amount*dcml) */\n      0x08fc\n        /* \"Contracts/AccessBSC.sol\":4369:4381  _amount*dcml */\n      tag_258\n        /* \"Contracts/AccessBSC.sol\":4377:4381  dcml */\n      dup4\n        /* \"Contracts/AccessBSC.sol\":4369:4376  _amount */\n      dup8\n        /* \"Contracts/AccessBSC.sol\":4369:4381  _amount*dcml */\n      tag_259\n      jump\t// in\n    tag_258:\n        /* \"Contracts/AccessBSC.sol\":4348:4382  payable(to).transfer(_amount*dcml) */\n      mload(0x40)\n      dup2\n      iszero\n      swap1\n      swap3\n      mul\n      swap2\n      0x00\n      dup2\n      dup2\n      dup2\n      dup6\n      dup9\n      dup9\n      call\n      swap4\n      pop\n      pop\n      pop\n      pop\n      iszero\n      dup1\n      iszero\n      tag_261\n      jumpi\n      returndatasize\n      0x00\n      dup1\n      returndatacopy\n      revert(0x00, returndatasize)\n    tag_261:\n      pop\n        /* \"Contracts/AccessBSC.sol\":4139:4395  {... */\n      pop\n        /* \"Contracts/AccessBSC.sol\":4049:4395  function withdrawalBNB(uint256 _amount, uint256 decimal, address to) external onlyOwner() {... */\n      pop\n      pop\n      pop\n      jump\t// out\n        /* \"Contracts/AccessBSC.sol\":3541:3905  function withdrawalToken(address _tokenAddr, uint256 _amount, uint256 decimal, address to) external onlyOwner() {... */\n    tag_138:\n        /* \"Contracts/AccessBSC.sol\":1362:1367  owner */\n      and(sub(shl(0xa0, 0x01), 0x01), sload(0x05))\n        /* \"Contracts/AccessBSC.sol\":1348:1358  msg.sender */\n      caller\n        /* \"Contracts/AccessBSC.sol\":1348:1367  msg.sender == owner */\n      eq\n        /* \"Contracts/AccessBSC.sol\":1340:1388  require(msg.sender == owner, \"caller not owner\") */\n      tag_263\n      jumpi\n      mload(0x40)\n      shl(0xe5, 0x461bcd)\n      dup2\n      mstore\n      0x04\n      add\n      tag_202\n      swap1\n      tag_203\n      jump\t// in\n    tag_263:\n      sub(shl(0xa0, 0x01), 0x01)\n        /* \"Contracts/AccessBSC.sol\":3671:3695  _tokenAddr != address(0) */\n      dup5\n      and\n        /* \"Contracts/AccessBSC.sol\":3663:3712  require(_tokenAddr != address(0),\"address zero!\") */\n      tag_266\n      jumpi\n      mload(0x40)\n      shl(0xe5, 0x461bcd)\n      dup2\n      mstore\n        /* \"#utility.yul\":9686:9688   */\n      0x20\n        /* \"Contracts/AccessBSC.sol\":3663:3712  require(_tokenAddr != address(0),\"address zero!\") */\n      0x04\n      dup3\n      add\n        /* \"#utility.yul\":9668:9689   */\n      mstore\n        /* \"#utility.yul\":9725:9727   */\n      0x0d\n        /* \"#utility.yul\":9705:9723   */\n      0x24\n      dup3\n      add\n        /* \"#utility.yul\":9698:9728   */\n      mstore\n      shl(0x98, 0x61646472657373207a65726f21)\n        /* \"#utility.yul\":9744:9762   */\n      0x44\n      dup3\n      add\n        /* \"#utility.yul\":9737:9780   */\n      mstore\n        /* \"#utility.yul\":9797:9815   */\n      0x64\n      add\n        /* \"Contracts/AccessBSC.sol\":3663:3712  require(_tokenAddr != address(0),\"address zero!\") */\n      tag_202\n        /* \"#utility.yul\":9484:9821   */\n      jump\n        /* \"Contracts/AccessBSC.sol\":3663:3712  require(_tokenAddr != address(0),\"address zero!\") */\n    tag_266:\n        /* \"Contracts/AccessBSC.sol\":3722:3734  uint256 dcml */\n      0x00\n        /* \"Contracts/AccessBSC.sol\":3737:3750  10 ** decimal */\n      tag_269\n        /* \"Contracts/AccessBSC.sol\":3743:3750  decimal */\n      dup4\n        /* \"Contracts/AccessBSC.sol\":3737:3739  10 */\n      0x0a\n        /* \"Contracts/AccessBSC.sol\":3737:3750  10 ** decimal */\n      tag_255\n      jump\t// in\n    tag_269:\n        /* \"Contracts/AccessBSC.sol\":3806:3855  WithdrawalToken(_tokenAddr, _amount, decimal, to) */\n      0x40\n      dup1\n      mload\n      sub(shl(0xa0, 0x01), 0x01)\n        /* \"#utility.yul\":10113:10128   */\n      dup9\n      dup2\n      and\n        /* \"#utility.yul\":10095:10129   */\n      dup3\n      mstore\n        /* \"#utility.yul\":10160:10162   */\n      0x20\n        /* \"#utility.yul\":10145:10163   */\n      dup3\n      add\n        /* \"#utility.yul\":10138:10172   */\n      dup9\n      swap1\n      mstore\n        /* \"#utility.yul\":10188:10206   */\n      dup2\n      dup4\n      add\n        /* \"#utility.yul\":10181:10215   */\n      dup8\n      swap1\n      mstore\n        /* \"#utility.yul\":10251:10266   */\n      dup6\n      and\n        /* \"#utility.yul\":10246:10248   */\n      0x60\n        /* \"#utility.yul\":10231:10249   */\n      dup3\n      add\n        /* \"#utility.yul\":10224:10267   */\n      mstore\n        /* \"Contracts/AccessBSC.sol\":3806:3855  WithdrawalToken(_tokenAddr, _amount, decimal, to) */\n      swap1\n      mload\n        /* \"Contracts/AccessBSC.sol\":3722:3750  uint256 dcml = 10 ** decimal */\n      swap2\n      swap3\n      pop\n        /* \"#utility.yul\":10113:10128   */\n      dup7\n      swap2\n        /* \"Contracts/AccessBSC.sol\":3806:3855  WithdrawalToken(_tokenAddr, _amount, decimal, to) */\n      0x0206ca7f97d46974ed97b981f879b17e9e1fe17ead63770c806926d28aa5cbd5\n      swap2\n      dup2\n      swap1\n      sub\n        /* \"#utility.yul\":10044:10047   */\n      0x80\n        /* \"Contracts/AccessBSC.sol\":3806:3855  WithdrawalToken(_tokenAddr, _amount, decimal, to) */\n      add\n      swap1\n      log1\n      sub(shl(0xa0, 0x01), 0x01)\n        /* \"Contracts/AccessBSC.sol\":3865:3879  token.transfer */\n      dup2\n      and\n      0xa9059cbb\n        /* \"Contracts/AccessBSC.sol\":3880:3882  to */\n      dup5\n        /* \"Contracts/AccessBSC.sol\":3884:3896  _amount*dcml */\n      tag_272\n        /* \"Contracts/AccessBSC.sol\":3892:3896  dcml */\n      dup6\n        /* \"Contracts/AccessBSC.sol\":3884:3891  _amount */\n      dup10\n        /* \"Contracts/AccessBSC.sol\":3884:3896  _amount*dcml */\n      tag_259\n      jump\t// in\n    tag_272:\n        /* \"Contracts/AccessBSC.sol\":3865:3897  token.transfer(to, _amount*dcml) */\n      mload(0x40)\n      not(sub(shl(0xe0, 0x01), 0x01))\n      0xe0\n      dup6\n      swap1\n      shl\n      and\n      dup2\n      mstore\n      sub(shl(0xa0, 0x01), 0x01)\n        /* \"#utility.yul\":10470:10502   */\n      swap1\n      swap3\n      and\n        /* \"Contracts/AccessBSC.sol\":3865:3897  token.transfer(to, _amount*dcml) */\n      0x04\n      dup4\n      add\n        /* \"#utility.yul\":10452:10503   */\n      mstore\n        /* \"#utility.yul\":10519:10537   */\n      0x24\n      dup3\n      add\n        /* \"#utility.yul\":10512:10546   */\n      mstore\n        /* \"#utility.yul\":10425:10443   */\n      0x44\n      add\n        /* \"Contracts/AccessBSC.sol\":3865:3897  token.transfer(to, _amount*dcml) */\n      0x20\n      mload(0x40)\n      dup1\n      dup4\n      sub\n      dup2\n      0x00\n      dup8\n      gas\n      call\n      iszero\n      dup1\n      iszero\n      tag_276\n      jumpi\n      returndatasize\n      0x00\n      dup1\n      returndatacopy\n      revert(0x00, returndatasize)\n    tag_276:\n      pop\n      pop\n      pop\n      pop\n      mload(0x40)\n      returndatasize\n      not(0x1f)\n      0x1f\n      dup3\n      add\n      and\n      dup3\n      add\n      dup1\n      0x40\n      mstore\n      pop\n      dup2\n      add\n      swap1\n      tag_277\n      swap2\n      swap1\n      tag_278\n      jump\t// in\n    tag_277:\n      pop\n        /* \"Contracts/AccessBSC.sol\":3653:3905  {... */\n      pop\n      pop\n        /* \"Contracts/AccessBSC.sol\":3541:3905  function withdrawalToken(address _tokenAddr, uint256 _amount, uint256 decimal, address to) external onlyOwner() {... */\n      pop\n      pop\n      pop\n      pop\n      jump\t// out\n        /* \"@openzeppelin/contracts/token/ERC20/ERC20.sol\":3976:4125  function allowance(address owner, address spender) public view virtual override returns (uint256) {... */\n    tag_147:\n      sub(shl(0xa0, 0x01), 0x01)\n        /* \"@openzeppelin/contracts/token/ERC20/ERC20.sol\":4091:4109  _allowances[owner] */\n      swap2\n      dup3\n      and\n        /* \"@openzeppelin/contracts/token/ERC20/ERC20.sol\":4065:4072  uint256 */\n      0x00\n        /* \"@openzeppelin/contracts/token/ERC20/ERC20.sol\":4091:4109  _allowances[owner] */\n      swap1\n      dup2\n      mstore\n        /* \"@openzeppelin/contracts/token/ERC20/ERC20.sol\":4091:4102  _allowances */\n      0x01\n        /* \"@openzeppelin/contracts/token/ERC20/ERC20.sol\":4091:4109  _allowances[owner] */\n      0x20\n      swap1\n      dup2\n      mstore\n      0x40\n      dup1\n      dup4\n      keccak256\n        /* \"@openzeppelin/contracts/token/ERC20/ERC20.sol\":4091:4118  _allowances[owner][spender] */\n      swap4\n      swap1\n      swap5\n      and\n      dup3\n      mstore\n      swap2\n      swap1\n      swap2\n      mstore\n      keccak256\n      sload\n      swap1\n        /* \"@openzeppelin/contracts/token/ERC20/ERC20.sol\":3976:4125  function allowance(address owner, address spender) public view virtual override returns (uint256) {... */\n      jump\t// out\n        /* \"Contracts/AccessBSC.sol\":3000:3233  function changeMinMaxPrivateSale(uint256 minAmount, uint256 maxAmount) external onlyOwner {... */\n    tag_157:\n        /* \"Contracts/AccessBSC.sol\":1362:1367  owner */\n      and(sub(shl(0xa0, 0x01), 0x01), sload(0x05))\n        /* \"Contracts/AccessBSC.sol\":1348:1358  msg.sender */\n      caller\n        /* \"Contracts/AccessBSC.sol\":1348:1367  msg.sender == owner */\n      eq\n        /* \"Contracts/AccessBSC.sol\":1340:1388  require(msg.sender == owner, \"caller not owner\") */\n      tag_281\n      jumpi\n      mload(0x40)\n      shl(0xe5, 0x461bcd)\n      dup2\n      mstore\n      0x04\n      add\n      tag_202\n      swap1\n      tag_203\n      jump\t// in\n    tag_281:\n        /* \"Contracts/AccessBSC.sol\":3106:3120  minAmount != 0 */\n      dup2\n      iszero\n      dup1\n      iszero\n      swap1\n        /* \"Contracts/AccessBSC.sol\":3106:3137  minAmount != 0 && maxAmount !=0 */\n      tag_284\n      jumpi\n      pop\n        /* \"Contracts/AccessBSC.sol\":3124:3137  maxAmount !=0 */\n      dup1\n      iszero\n      iszero\n        /* \"Contracts/AccessBSC.sol\":3106:3137  minAmount != 0 && maxAmount !=0 */\n    tag_284:\n        /* \"Contracts/AccessBSC.sol\":3098:3146  require(minAmount != 0 && maxAmount !=0,\"Zero!\") */\n      tag_285\n      jumpi\n      mload(0x40)\n      shl(0xe5, 0x461bcd)\n      dup2\n      mstore\n      0x04\n      add\n      tag_202\n      swap1\n      tag_219\n      jump\t// in\n    tag_285:\n        /* \"Contracts/AccessBSC.sol\":3154:3157  min */\n      0x0e\n        /* \"Contracts/AccessBSC.sol\":3154:3169  min = minAmount */\n      dup3\n      swap1\n      sstore\n        /* \"Contracts/AccessBSC.sol\":3195:3199  Path */\n      sload(0x0c)\n        /* \"Contracts/AccessBSC.sol\":3183:3199  maxAmount * Path */\n      tag_287\n      swap1\n        /* \"Contracts/AccessBSC.sol\":3183:3192  maxAmount */\n      dup3\n        /* \"Contracts/AccessBSC.sol\":3183:3199  maxAmount * Path */\n      tag_259\n      jump\t// in\n    tag_287:\n        /* \"Contracts/AccessBSC.sol\":3177:3180  max */\n      0x0d\n        /* \"Contracts/AccessBSC.sol\":3177:3199  max = maxAmount * Path */\n      dup2\n      swap1\n      sstore\n        /* \"Contracts/AccessBSC.sol\":3219:3222  min */\n      sload(0x0e)\n        /* \"Contracts/AccessBSC.sol\":3212:3228  minMax(min, max) */\n      mload(0x40)\n      0x3b06ffd21bedfb2c375d7b1bcf74ca4fe1afe205699e39610b3aced7adf6b9e9\n      swap3\n      tag_288\n      swap3\n        /* \"#utility.yul\":11013:11038   */\n      dup3\n      mstore\n        /* \"#utility.yul\":11069:11071   */\n      0x20\n        /* \"#utility.yul\":11054:11072   */\n      dup3\n      add\n        /* \"#utility.yul\":11047:11081   */\n      mstore\n        /* \"#utility.yul\":11001:11003   */\n      0x40\n        /* \"#utility.yul\":10986:11004   */\n      add\n      swap1\n        /* \"#utility.yul\":10839:11087   */\n      jump\n        /* \"Contracts/AccessBSC.sol\":3212:3228  minMax(min, max) */\n    tag_288:\n      mload(0x40)\n      dup1\n      swap2\n      sub\n      swap1\n      log1\n        /* \"Contracts/AccessBSC.sol\":3000:3233  function changeMinMaxPrivateSale(uint256 minAmount, uint256 maxAmount) external onlyOwner {... */\n      pop\n      pop\n      jump\t// out\n        /* \"Contracts/AccessBSC.sol\":1897:2501  function privateSale(address) external payable returns (bool success){... */\n    tag_164:\n        /* \"Contracts/AccessBSC.sol\":1953:1965  bool success */\n      0x00\n        /* \"Contracts/AccessBSC.sol\":2029:2033  Path */\n      sload(0x0c)\n        /* \"Contracts/AccessBSC.sol\":2014:2026  privateLimit */\n      sload(0x0f)\n        /* \"Contracts/AccessBSC.sol\":2014:2033  privateLimit * Path */\n      tag_291\n      swap2\n      swap1\n      tag_259\n      jump\t// in\n    tag_291:\n        /* \"Contracts/AccessBSC.sol\":1998:2008  msg.sender */\n      caller\n        /* \"@openzeppelin/contracts/token/ERC20/ERC20.sol\":3482:3489  uint256 */\n      0x00\n        /* \"@openzeppelin/contracts/token/ERC20/ERC20.sol\":3508:3526  _balances[account] */\n      swap1\n      dup2\n      mstore\n      0x20\n      dup2\n      swap1\n      mstore\n      0x40\n      swap1\n      keccak256\n      sload\n        /* \"Contracts/AccessBSC.sol\":1980:2033  balanceOf(address(msg.sender)) <= privateLimit * Path */\n      gt\n      iszero\n        /* \"Contracts/AccessBSC.sol\":1972:2074  require(balanceOf(address(msg.sender)) <= privateLimit * Path , \"You reached your private sale limit\") */\n      tag_293\n      jumpi\n      mload(0x40)\n      shl(0xe5, 0x461bcd)\n      dup2\n      mstore\n        /* \"#utility.yul\":11294:11296   */\n      0x20\n        /* \"Contracts/AccessBSC.sol\":1972:2074  require(balanceOf(address(msg.sender)) <= privateLimit * Path , \"You reached your private sale limit\") */\n      0x04\n      dup3\n      add\n        /* \"#utility.yul\":11276:11297   */\n      mstore\n        /* \"#utility.yul\":11333:11335   */\n      0x23\n        /* \"#utility.yul\":11313:11331   */\n      0x24\n      dup3\n      add\n        /* \"#utility.yul\":11306:11336   */\n      mstore\n        /* \"#utility.yul\":11372:11406   */\n      0x596f75207265616368656420796f757220707269766174652073616c65206c69\n        /* \"#utility.yul\":11352:11370   */\n      0x44\n      dup3\n      add\n        /* \"#utility.yul\":11345:11407   */\n      mstore\n      shl(0xea, 0x1b5a5d)\n        /* \"#utility.yul\":11423:11441   */\n      0x64\n      dup3\n      add\n        /* \"#utility.yul\":11416:11449   */\n      mstore\n        /* \"#utility.yul\":11466:11485   */\n      0x84\n      add\n        /* \"Contracts/AccessBSC.sol\":1972:2074  require(balanceOf(address(msg.sender)) <= privateLimit * Path , \"You reached your private sale limit\") */\n      tag_202\n        /* \"#utility.yul\":11092:11491   */\n      jump\n        /* \"Contracts/AccessBSC.sol\":1972:2074  require(balanceOf(address(msg.sender)) <= privateLimit * Path , \"You reached your private sale limit\") */\n    tag_293:\n        /* \"Contracts/AccessBSC.sol\":2101:2113  block.number */\n      number\n        /* \"Contracts/AccessBSC.sol\":2090:2097  sSBlock */\n      sload(0x08)\n        /* \"Contracts/AccessBSC.sol\":2090:2113  sSBlock <= block.number */\n      gt\n      iszero\n        /* \"Contracts/AccessBSC.sol\":2090:2140  sSBlock <= block.number && block.number <= sEBlock */\n      dup1\n      iszero\n      tag_296\n      jumpi\n      pop\n        /* \"Contracts/AccessBSC.sol\":2133:2140  sEBlock */\n      sload(0x09)\n        /* \"Contracts/AccessBSC.sol\":2117:2129  block.number */\n      number\n        /* \"Contracts/AccessBSC.sol\":2117:2140  block.number <= sEBlock */\n      gt\n      iszero\n        /* \"Contracts/AccessBSC.sol\":2090:2140  sSBlock <= block.number && block.number <= sEBlock */\n    tag_296:\n        /* \"Contracts/AccessBSC.sol\":2082:2188  require(sSBlock <= block.number && block.number <= sEBlock, \"Private Sale has ended or did not start yet\") */\n      tag_297\n      jumpi\n      mload(0x40)\n      shl(0xe5, 0x461bcd)\n      dup2\n      mstore\n        /* \"#utility.yul\":11698:11700   */\n      0x20\n        /* \"Contracts/AccessBSC.sol\":2082:2188  require(sSBlock <= block.number && block.number <= sEBlock, \"Private Sale has ended or did not start yet\") */\n      0x04\n      dup3\n      add\n        /* \"#utility.yul\":11680:11701   */\n      mstore\n        /* \"#utility.yul\":11737:11739   */\n      0x2b\n        /* \"#utility.yul\":11717:11735   */\n      0x24\n      dup3\n      add\n        /* \"#utility.yul\":11710:11740   */\n      mstore\n        /* \"#utility.yul\":11776:11810   */\n      0x507269766174652053616c652068617320656e646564206f7220646964206e6f\n        /* \"#utility.yul\":11756:11774   */\n      0x44\n      dup3\n      add\n        /* \"#utility.yul\":11749:11811   */\n      mstore\n      shl(0xaa, 0x1d081cdd185c9d081e595d)\n        /* \"#utility.yul\":11827:11845   */\n      0x64\n      dup3\n      add\n        /* \"#utility.yul\":11820:11861   */\n      mstore\n        /* \"#utility.yul\":11878:11897   */\n      0x84\n      add\n        /* \"Contracts/AccessBSC.sol\":2082:2188  require(sSBlock <= block.number && block.number <= sEBlock, \"Private Sale has ended or did not start yet\") */\n      tag_202\n        /* \"#utility.yul\":11496:11903   */\n      jump\n        /* \"Contracts/AccessBSC.sol\":2082:2188  require(sSBlock <= block.number && block.number <= sEBlock, \"Private Sale has ended or did not start yet\") */\n    tag_297:\n        /* \"Contracts/AccessBSC.sol\":2267:2270  min */\n      sload(0x0e)\n        /* \"Contracts/AccessBSC.sol\":2210:2219  msg.value */\n      callvalue\n      swap1\n        /* \"Contracts/AccessBSC.sol\":2195:2207  uint256 _eth */\n      0x00\n      swap1\n        /* \"Contracts/AccessBSC.sol\":2259:2270  _eth >= min */\n      dup3\n      lt\n      dup1\n      iszero\n      swap1\n        /* \"Contracts/AccessBSC.sol\":2259:2285  _eth >= min && _eth <= max */\n      tag_300\n      jumpi\n      pop\n        /* \"Contracts/AccessBSC.sol\":2282:2285  max */\n      sload(0x0d)\n        /* \"Contracts/AccessBSC.sol\":2274:2278  _eth */\n      dup3\n        /* \"Contracts/AccessBSC.sol\":2274:2285  _eth <= max */\n      gt\n      iszero\n        /* \"Contracts/AccessBSC.sol\":2259:2285  _eth >= min && _eth <= max */\n    tag_300:\n        /* \"Contracts/AccessBSC.sol\":2249:2329  require ( _eth >= min && _eth <= max , \"Less than Minimum or More than Maximum\") */\n      tag_301\n      jumpi\n      mload(0x40)\n      shl(0xe5, 0x461bcd)\n      dup2\n      mstore\n        /* \"#utility.yul\":12110:12112   */\n      0x20\n        /* \"Contracts/AccessBSC.sol\":2249:2329  require ( _eth >= min && _eth <= max , \"Less than Minimum or More than Maximum\") */\n      0x04\n      dup3\n      add\n        /* \"#utility.yul\":12092:12113   */\n      mstore\n        /* \"#utility.yul\":12149:12151   */\n      0x26\n        /* \"#utility.yul\":12129:12147   */\n      0x24\n      dup3\n      add\n        /* \"#utility.yul\":12122:12152   */\n      mstore\n        /* \"#utility.yul\":12188:12222   */\n      0x4c657373207468616e204d696e696d756d206f72204d6f7265207468616e204d\n        /* \"#utility.yul\":12168:12186   */\n      0x44\n      dup3\n      add\n        /* \"#utility.yul\":12161:12223   */\n      mstore\n      shl(0xd0, 0x6178696d756d)\n        /* \"#utility.yul\":12239:12257   */\n      0x64\n      dup3\n      add\n        /* \"#utility.yul\":12232:12268   */\n      mstore\n        /* \"#utility.yul\":12285:12304   */\n      0x84\n      add\n        /* \"Contracts/AccessBSC.sol\":2249:2329  require ( _eth >= min && _eth <= max , \"Less than Minimum or More than Maximum\") */\n      tag_202\n        /* \"#utility.yul\":11908:12310   */\n      jump\n        /* \"Contracts/AccessBSC.sol\":2249:2329  require ( _eth >= min && _eth <= max , \"Less than Minimum or More than Maximum\") */\n    tag_301:\n        /* \"Contracts/AccessBSC.sol\":2343:2374  (sPrice.mul(_eth)).div(1 ether) */\n      tag_304\n        /* \"Contracts/AccessBSC.sol\":2366:2373  1 ether */\n      0x0de0b6b3a7640000\n        /* \"Contracts/AccessBSC.sol\":2344:2360  sPrice.mul(_eth) */\n      tag_305\n        /* \"Contracts/AccessBSC.sol\":2355:2359  _eth */\n      dup5\n        /* \"Contracts/AccessBSC.sol\":2344:2350  sPrice */\n      sload(0x0b)\n        /* \"Contracts/AccessBSC.sol\":2344:2354  sPrice.mul */\n      tag_179\n      swap1\n        /* \"Contracts/AccessBSC.sol\":2344:2360  sPrice.mul(_eth) */\n      swap2\n      swap1\n      0xffffffff\n      and\n      jump\t// in\n    tag_305:\n        /* \"Contracts/AccessBSC.sol\":2343:2365  (sPrice.mul(_eth)).div */\n      swap1\n      tag_178\n        /* \"Contracts/AccessBSC.sol\":2343:2374  (sPrice.mul(_eth)).div(1 ether) */\n      jump\t// in\n    tag_304:\n        /* \"Contracts/AccessBSC.sol\":2380:2384  sTot */\n      0x0a\n        /* \"Contracts/AccessBSC.sol\":2380:2387  sTot ++ */\n      dup1\n      sload\n        /* \"Contracts/AccessBSC.sol\":2335:2374  _tkns = (sPrice.mul(_eth)).div(1 ether) */\n      swap2\n      swap3\n      pop\n        /* \"Contracts/AccessBSC.sol\":2380:2384  sTot */\n      0x00\n        /* \"Contracts/AccessBSC.sol\":2380:2387  sTot ++ */\n      tag_306\n      dup4\n      tag_307\n      jump\t// in\n    tag_306:\n      swap2\n      swap1\n      pop\n      sstore\n      pop\n        /* \"Contracts/AccessBSC.sol\":2398:2441  _transfer(address(this), msg.sender, _tkns) */\n      tag_308\n        /* \"Contracts/AccessBSC.sol\":2416:2420  this */\n      address\n        /* \"Contracts/AccessBSC.sol\":2423:2433  msg.sender */\n      caller\n        /* \"Contracts/AccessBSC.sol\":2435:2440  _tkns */\n      dup4\n        /* \"Contracts/AccessBSC.sol\":2398:2407  _transfer */\n      tag_198\n        /* \"Contracts/AccessBSC.sol\":2398:2441  _transfer(address(this), msg.sender, _tkns) */\n      jump\t// in\n    tag_308:\n        /* \"Contracts/AccessBSC.sol\":2472:2478  sPrice */\n      sload(0x0b)\n        /* \"Contracts/AccessBSC.sol\":2453:2479  PrivateSale(_tkns, sPrice) */\n      0x40\n      dup1\n      mload\n        /* \"#utility.yul\":11013:11038   */\n      dup4\n      dup2\n      mstore\n        /* \"#utility.yul\":11069:11071   */\n      0x20\n        /* \"#utility.yul\":11054:11072   */\n      dup2\n      add\n        /* \"#utility.yul\":11047:11081   */\n      swap3\n      swap1\n      swap3\n      mstore\n        /* \"Contracts/AccessBSC.sol\":2453:2479  PrivateSale(_tkns, sPrice) */\n      0xb887e151dbfcc06b4ce4f67f9bbedaeb16ab224e34c6668858d0310c6d18ffc3\n      swap2\n        /* \"#utility.yul\":10986:11004   */\n      add\n        /* \"Contracts/AccessBSC.sol\":2453:2479  PrivateSale(_tkns, sPrice) */\n      mload(0x40)\n      dup1\n      swap2\n      sub\n      swap1\n      log1\n      pop\n        /* \"Contracts/AccessBSC.sol\":2492:2496  true */\n      0x01\n      swap4\n        /* \"Contracts/AccessBSC.sol\":1897:2501  function privateSale(address) external payable returns (bool success){... */\n      swap3\n      pop\n      pop\n      pop\n      jump\t// out\n        /* \"Contracts/AccessBSC.sol\":1688:1892  function transferOwnership(address _newOwner) external onlyOwner{... */\n    tag_169:\n        /* \"Contracts/AccessBSC.sol\":1362:1367  owner */\n      and(sub(shl(0xa0, 0x01), 0x01), sload(0x05))\n        /* \"Contracts/AccessBSC.sol\":1348:1358  msg.sender */\n      caller\n        /* \"Contracts/AccessBSC.sol\":1348:1367  msg.sender == owner */\n      eq\n        /* \"Contracts/AccessBSC.sol\":1340:1388  require(msg.sender == owner, \"caller not owner\") */\n      tag_311\n      jumpi\n      mload(0x40)\n      shl(0xe5, 0x461bcd)\n      dup2\n      mstore\n      0x04\n      add\n      tag_202\n      swap1\n      tag_203\n      jump\t// in\n    tag_311:\n      sub(shl(0xa0, 0x01), 0x01)\n        /* \"Contracts/AccessBSC.sol\":1769:1792  _newOwner != address(0) */\n      dup2\n      and\n        /* \"Contracts/AccessBSC.sol\":1761:1808  require(_newOwner != address(0),\"Zero address\") */\n      tag_314\n      jumpi\n      mload(0x40)\n      shl(0xe5, 0x461bcd)\n      dup2\n      mstore\n        /* \"#utility.yul\":7448:7450   */\n      0x20\n        /* \"Contracts/AccessBSC.sol\":1761:1808  require(_newOwner != address(0),\"Zero address\") */\n      0x04\n      dup3\n      add\n        /* \"#utility.yul\":7430:7451   */\n      mstore\n        /* \"#utility.yul\":7487:7489   */\n      0x0c\n        /* \"#utility.yul\":7467:7485   */\n      0x24\n      dup3\n      add\n        /* \"#utility.yul\":7460:7490   */\n      mstore\n      shl(0xa0, 0x5a65726f2061646472657373)\n        /* \"#utility.yul\":7506:7524   */\n      0x44\n      dup3\n      add\n        /* \"#utility.yul\":7499:7541   */\n      mstore\n        /* \"#utility.yul\":7558:7576   */\n      0x64\n      add\n        /* \"Contracts/AccessBSC.sol\":1761:1808  require(_newOwner != address(0),\"Zero address\") */\n      tag_202\n        /* \"#utility.yul\":7246:7582   */\n      jump\n        /* \"Contracts/AccessBSC.sol\":1761:1808  require(_newOwner != address(0),\"Zero address\") */\n    tag_314:\n        /* \"Contracts/AccessBSC.sol\":1817:1822  owner */\n      0x05\n        /* \"Contracts/AccessBSC.sol\":1817:1834  owner = _newOwner */\n      dup1\n      sload\n      not(sub(shl(0xa0, 0x01), 0x01))\n      and\n      sub(shl(0xa0, 0x01), 0x01)\n      dup4\n      and\n      swap1\n      dup2\n      or\n      swap1\n      swap2\n      sstore\n        /* \"Contracts/AccessBSC.sol\":1848:1886  OwnershipTransferred(owner, _newOwner) */\n      mload(0x40)\n        /* \"Contracts/AccessBSC.sol\":1817:1834  owner = _newOwner */\n      dup2\n      swap1\n        /* \"Contracts/AccessBSC.sol\":1848:1886  OwnershipTransferred(owner, _newOwner) */\n      0x8be0079c531659141344cd1fd0a4f28419497f9722a3daafe3b4186f6b6457e0\n      swap1\n      0x00\n      swap1\n      log3\n        /* \"Contracts/AccessBSC.sol\":1688:1892  function transferOwnership(address _newOwner) external onlyOwner{... */\n      pop\n      jump\t// out\n        /* \"Contracts/AccessBSC.sol\":2676:2882  function startSale(uint256 _sEBlock, uint256 _sPrice) external onlyOwner{... */\n    tag_173:\n        /* \"Contracts/AccessBSC.sol\":1362:1367  owner */\n      and(sub(shl(0xa0, 0x01), 0x01), sload(0x05))\n        /* \"Contracts/AccessBSC.sol\":1348:1358  msg.sender */\n      caller\n        /* \"Contracts/AccessBSC.sol\":1348:1367  msg.sender == owner */\n      eq\n        /* \"Contracts/AccessBSC.sol\":1340:1388  require(msg.sender == owner, \"caller not owner\") */\n      tag_317\n      jumpi\n      mload(0x40)\n      shl(0xe5, 0x461bcd)\n      dup2\n      mstore\n      0x04\n      add\n      tag_202\n      swap1\n      tag_203\n      jump\t// in\n    tag_317:\n        /* \"Contracts/AccessBSC.sol\":2762:2775  _sEBlock != 0 */\n      dup2\n      iszero\n      dup1\n      iszero\n      swap1\n        /* \"Contracts/AccessBSC.sol\":2762:2790  _sEBlock != 0 && _sPrice !=0 */\n      tag_320\n      jumpi\n      pop\n        /* \"Contracts/AccessBSC.sol\":2779:2790  _sPrice !=0 */\n      dup1\n      iszero\n      iszero\n        /* \"Contracts/AccessBSC.sol\":2762:2790  _sEBlock != 0 && _sPrice !=0 */\n    tag_320:\n        /* \"Contracts/AccessBSC.sol\":2754:2799  require(_sEBlock != 0 && _sPrice !=0,\"Zero!\") */\n      tag_321\n      jumpi\n      mload(0x40)\n      shl(0xe5, 0x461bcd)\n      dup2\n      mstore\n      0x04\n      add\n      tag_202\n      swap1\n      tag_219\n      jump\t// in\n    tag_321:\n        /* \"Contracts/AccessBSC.sol\":2805:2812  sEBlock */\n      0x09\n        /* \"Contracts/AccessBSC.sol\":2805:2823  sEBlock = _sEBlock */\n      dup3\n      swap1\n      sstore\n        /* \"Contracts/AccessBSC.sol\":2830:2836  sPrice */\n      0x0b\n        /* \"Contracts/AccessBSC.sol\":2830:2845  sPrice =_sPrice */\n      dup2\n      swap1\n      sstore\n        /* \"Contracts/AccessBSC.sol\":2856:2877  saleStarted(_sEBlock) */\n      mload(0x40)\n        /* \"#utility.yul\":1410:1435   */\n      dup3\n      dup2\n      mstore\n        /* \"Contracts/AccessBSC.sol\":2856:2877  saleStarted(_sEBlock) */\n      0x1dc13bd033e49239661ba80e30ae191b1c31c79277b531e88246c7517971b85d\n      swap1\n        /* \"#utility.yul\":1398:1400   */\n      0x20\n        /* \"#utility.yul\":1383:1401   */\n      add\n        /* \"Contracts/AccessBSC.sol\":2856:2877  saleStarted(_sEBlock) */\n      tag_288\n        /* \"#utility.yul\":1264:1441   */\n      jump\n        /* \"@openzeppelin/contracts/utils/math/SafeMath.sol\":3850:3946  function div(uint256 a, uint256 b) internal pure returns (uint256) {... */\n    tag_178:\n        /* \"@openzeppelin/contracts/utils/math/SafeMath.sol\":3908:3915  uint256 */\n      0x00\n        /* \"@openzeppelin/contracts/utils/math/SafeMath.sol\":3934:3939  a / b */\n      tag_325\n        /* \"@openzeppelin/contracts/utils/math/SafeMath.sol\":3938:3939  b */\n      dup3\n        /* \"@openzeppelin/contracts/utils/math/SafeMath.sol\":3934:3935  a */\n      dup5\n        /* \"@openzeppelin/contracts/utils/math/SafeMath.sol\":3934:3939  a / b */\n      tag_326\n      jump\t// in\n    tag_325:\n        /* \"@openzeppelin/contracts/utils/math/SafeMath.sol\":3927:3939  return a / b */\n      swap4\n        /* \"@openzeppelin/contracts/utils/math/SafeMath.sol\":3850:3946  function div(uint256 a, uint256 b) internal pure returns (uint256) {... */\n      swap3\n      pop\n      pop\n      pop\n      jump\t// out\n        /* \"@openzeppelin/contracts/utils/math/SafeMath.sol\":3465:3561  function mul(uint256 a, uint256 b) internal pure returns (uint256) {... */\n    tag_179:\n        /* \"@openzeppelin/contracts/utils/math/SafeMath.sol\":3523:3530  uint256 */\n      0x00\n        /* \"@openzeppelin/contracts/utils/math/SafeMath.sol\":3549:3554  a * b */\n      tag_325\n        /* \"@openzeppelin/contracts/utils/math/SafeMath.sol\":3553:3554  b */\n      dup3\n        /* \"@openzeppelin/contracts/utils/math/SafeMath.sol\":3549:3550  a */\n      dup5\n        /* \"@openzeppelin/contracts/utils/math/SafeMath.sol\":3549:3554  a * b */\n      tag_259\n      jump\t// in\n        /* \"@openzeppelin/contracts/token/ERC20/ERC20.sol\":10110:10480  function _approve(... */\n    tag_191:\n      sub(shl(0xa0, 0x01), 0x01)\n        /* \"@openzeppelin/contracts/token/ERC20/ERC20.sol\":10241:10260  owner != address(0) */\n      dup4\n      and\n        /* \"@openzeppelin/contracts/token/ERC20/ERC20.sol\":10233:10301  require(owner != address(0), \"ERC20: approve from the zero address\") */\n      tag_331\n      jumpi\n      mload(0x40)\n      shl(0xe5, 0x461bcd)\n      dup2\n      mstore\n        /* \"#utility.yul\":12879:12881   */\n      0x20\n        /* \"@openzeppelin/contracts/token/ERC20/ERC20.sol\":10233:10301  require(owner != address(0), \"ERC20: approve from the zero address\") */\n      0x04\n      dup3\n      add\n        /* \"#utility.yul\":12861:12882   */\n      mstore\n        /* \"#utility.yul\":12918:12920   */\n      0x24\n        /* \"#utility.yul\":12898:12916   */\n      dup1\n      dup3\n      add\n        /* \"#utility.yul\":12891:12921   */\n      mstore\n        /* \"#utility.yul\":12957:12991   */\n      0x45524332303a20617070726f76652066726f6d20746865207a65726f20616464\n        /* \"#utility.yul\":12937:12955   */\n      0x44\n      dup3\n      add\n        /* \"#utility.yul\":12930:12992   */\n      mstore\n      shl(0xe0, 0x72657373)\n        /* \"#utility.yul\":13008:13026   */\n      0x64\n      dup3\n      add\n        /* \"#utility.yul\":13001:13035   */\n      mstore\n        /* \"#utility.yul\":13052:13071   */\n      0x84\n      add\n        /* \"@openzeppelin/contracts/token/ERC20/ERC20.sol\":10233:10301  require(owner != address(0), \"ERC20: approve from the zero address\") */\n      tag_202\n        /* \"#utility.yul\":12677:13077   */\n      jump\n        /* \"@openzeppelin/contracts/token/ERC20/ERC20.sol\":10233:10301  require(owner != address(0), \"ERC20: approve from the zero address\") */\n    tag_331:\n      sub(shl(0xa0, 0x01), 0x01)\n        /* \"@openzeppelin/contracts/token/ERC20/ERC20.sol\":10319:10340  spender != address(0) */\n      dup3\n      and\n        /* \"@openzeppelin/contracts/token/ERC20/ERC20.sol\":10311:10379  require(spender != address(0), \"ERC20: approve to the zero address\") */\n      tag_334\n      jumpi\n      mload(0x40)\n      shl(0xe5, 0x461bcd)\n      dup2\n      mstore\n        /* \"#utility.yul\":13284:13286   */\n      0x20\n        /* \"@openzeppelin/contracts/token/ERC20/ERC20.sol\":10311:10379  require(spender != address(0), \"ERC20: approve to the zero address\") */\n      0x04\n      dup3\n      add\n        /* \"#utility.yul\":13266:13287   */\n      mstore\n        /* \"#utility.yul\":13323:13325   */\n      0x22\n        /* \"#utility.yul\":13303:13321   */\n      0x24\n      dup3\n      add\n        /* \"#utility.yul\":13296:13326   */\n      mstore\n        /* \"#utility.yul\":13362:13396   */\n      0x45524332303a20617070726f766520746f20746865207a65726f206164647265\n        /* \"#utility.yul\":13342:13360   */\n      0x44\n      dup3\n      add\n        /* \"#utility.yul\":13335:13397   */\n      mstore\n      shl(0xf0, 0x7373)\n        /* \"#utility.yul\":13413:13431   */\n      0x64\n      dup3\n      add\n        /* \"#utility.yul\":13406:13438   */\n      mstore\n        /* \"#utility.yul\":13455:13474   */\n      0x84\n      add\n        /* \"@openzeppelin/contracts/token/ERC20/ERC20.sol\":10311:10379  require(spender != address(0), \"ERC20: approve to the zero address\") */\n      tag_202\n        /* \"#utility.yul\":13082:13480   */\n      jump\n        /* \"@openzeppelin/contracts/token/ERC20/ERC20.sol\":10311:10379  require(spender != address(0), \"ERC20: approve to the zero address\") */\n    tag_334:\n      sub(shl(0xa0, 0x01), 0x01)\n        /* \"@openzeppelin/contracts/token/ERC20/ERC20.sol\":10390:10408  _allowances[owner] */\n      dup4\n      dup2\n      and\n      0x00\n      dup2\n      dup2\n      mstore\n        /* \"@openzeppelin/contracts/token/ERC20/ERC20.sol\":10390:10401  _allowances */\n      0x01\n        /* \"@openzeppelin/contracts/token/ERC20/ERC20.sol\":10390:10408  _allowances[owner] */\n      0x20\n      swap1\n      dup2\n      mstore\n      0x40\n      dup1\n      dup4\n      keccak256\n        /* \"@openzeppelin/contracts/token/ERC20/ERC20.sol\":10390:10417  _allowances[owner][spender] */\n      swap5\n      dup8\n      and\n      dup1\n      dup5\n      mstore\n      swap5\n      dup3\n      mstore\n      swap2\n      dup3\n      swap1\n      keccak256\n        /* \"@openzeppelin/contracts/token/ERC20/ERC20.sol\":10390:10426  _allowances[owner][spender] = amount */\n      dup6\n      swap1\n      sstore\n        /* \"@openzeppelin/contracts/token/ERC20/ERC20.sol\":10441:10473  Approval(owner, spender, amount) */\n      swap1\n      mload\n        /* \"#utility.yul\":1410:1435   */\n      dup5\n      dup2\n      mstore\n        /* \"@openzeppelin/contracts/token/ERC20/ERC20.sol\":10441:10473  Approval(owner, spender, amount) */\n      0x8c5be1e5ebec7d5bd14f71427d1e84f3dd0314c0f7b2291e5b200ac8c7c3b925\n      swap2\n        /* \"#utility.yul\":1383:1401   */\n      add\n        /* \"@openzeppelin/contracts/token/ERC20/ERC20.sol\":10441:10473  Approval(owner, spender, amount) */\n      mload(0x40)\n      dup1\n      swap2\n      sub\n      swap1\n      log3\n        /* \"@openzeppelin/contracts/token/ERC20/ERC20.sol\":10110:10480  function _approve(... */\n      pop\n      pop\n      pop\n      jump\t// out\n        /* \"@openzeppelin/contracts/token/ERC20/ERC20.sol\":10761:11202  function _spendAllowance(... */\n    tag_196:\n        /* \"@openzeppelin/contracts/token/ERC20/ERC20.sol\":10891:10915  uint256 currentAllowance */\n      0x00\n        /* \"@openzeppelin/contracts/token/ERC20/ERC20.sol\":10918:10943  allowance(owner, spender) */\n      tag_339\n        /* \"@openzeppelin/contracts/token/ERC20/ERC20.sol\":10928:10933  owner */\n      dup5\n        /* \"@openzeppelin/contracts/token/ERC20/ERC20.sol\":10935:10942  spender */\n      dup5\n        /* \"@openzeppelin/contracts/token/ERC20/ERC20.sol\":10918:10927  allowance */\n      tag_147\n        /* \"@openzeppelin/contracts/token/ERC20/ERC20.sol\":10918:10943  allowance(owner, spender) */\n      jump\t// in\n    tag_339:\n        /* \"@openzeppelin/contracts/token/ERC20/ERC20.sol\":10891:10943  uint256 currentAllowance = allowance(owner, spender) */\n      swap1\n      pop\n      not(0x00)\n        /* \"@openzeppelin/contracts/token/ERC20/ERC20.sol\":10957:10973  currentAllowance */\n      dup2\n        /* \"@openzeppelin/contracts/token/ERC20/ERC20.sol\":10957:10994  currentAllowance != type(uint256).max */\n      eq\n        /* \"@openzeppelin/contracts/token/ERC20/ERC20.sol\":10953:11196  if (currentAllowance != type(uint256).max) {... */\n      tag_344\n      jumpi\n        /* \"@openzeppelin/contracts/token/ERC20/ERC20.sol\":11038:11044  amount */\n      dup2\n        /* \"@openzeppelin/contracts/token/ERC20/ERC20.sol\":11018:11034  currentAllowance */\n      dup2\n        /* \"@openzeppelin/contracts/token/ERC20/ERC20.sol\":11018:11044  currentAllowance >= amount */\n      lt\n      iszero\n        /* \"@openzeppelin/contracts/token/ERC20/ERC20.sol\":11010:11078  require(currentAllowance >= amount, \"ERC20: insufficient allowance\") */\n      tag_341\n      jumpi\n      mload(0x40)\n      shl(0xe5, 0x461bcd)\n      dup2\n      mstore\n        /* \"#utility.yul\":13687:13689   */\n      0x20\n        /* \"@openzeppelin/contracts/token/ERC20/ERC20.sol\":11010:11078  require(currentAllowance >= amount, \"ERC20: insufficient allowance\") */\n      0x04\n      dup3\n      add\n        /* \"#utility.yul\":13669:13690   */\n      mstore\n        /* \"#utility.yul\":13726:13728   */\n      0x1d\n        /* \"#utility.yul\":13706:13724   */\n      0x24\n      dup3\n      add\n        /* \"#utility.yul\":13699:13729   */\n      mstore\n        /* \"#utility.yul\":13765:13796   */\n      0x45524332303a20696e73756666696369656e7420616c6c6f77616e6365000000\n        /* \"#utility.yul\":13745:13763   */\n      0x44\n      dup3\n      add\n        /* \"#utility.yul\":13738:13797   */\n      mstore\n        /* \"#utility.yul\":13814:13832   */\n      0x64\n      add\n        /* \"@openzeppelin/contracts/token/ERC20/ERC20.sol\":11010:11078  require(currentAllowance >= amount, \"ERC20: insufficient allowance\") */\n      tag_202\n        /* \"#utility.yul\":13485:13838   */\n      jump\n        /* \"@openzeppelin/contracts/token/ERC20/ERC20.sol\":11010:11078  require(currentAllowance >= amount, \"ERC20: insufficient allowance\") */\n    tag_341:\n        /* \"@openzeppelin/contracts/token/ERC20/ERC20.sol\":11120:11171  _approve(owner, spender, currentAllowance - amount) */\n      tag_344\n        /* \"@openzeppelin/contracts/token/ERC20/ERC20.sol\":11129:11134  owner */\n      dup5\n        /* \"@openzeppelin/contracts/token/ERC20/ERC20.sol\":11136:11143  spender */\n      dup5\n        /* \"@openzeppelin/contracts/token/ERC20/ERC20.sol\":11164:11170  amount */\n      dup5\n        /* \"@openzeppelin/contracts/token/ERC20/ERC20.sol\":11145:11161  currentAllowance */\n      dup5\n        /* \"@openzeppelin/contracts/token/ERC20/ERC20.sol\":11145:11170  currentAllowance - amount */\n      sub\n        /* \"@openzeppelin/contracts/token/ERC20/ERC20.sol\":11120:11128  _approve */\n      tag_191\n        /* \"@openzeppelin/contracts/token/ERC20/ERC20.sol\":11120:11171  _approve(owner, spender, currentAllowance - amount) */\n      jump\t// in\n    tag_344:\n        /* \"@openzeppelin/contracts/token/ERC20/ERC20.sol\":10881:11202  {... */\n      pop\n        /* \"@openzeppelin/contracts/token/ERC20/ERC20.sol\":10761:11202  function _spendAllowance(... */\n      pop\n      pop\n      pop\n      jump\t// out\n        /* \"@openzeppelin/contracts/token/ERC20/ERC20.sol\":7475:8126  function _transfer(... */\n    tag_198:\n      sub(shl(0xa0, 0x01), 0x01)\n        /* \"@openzeppelin/contracts/token/ERC20/ERC20.sol\":7601:7619  from != address(0) */\n      dup4\n      and\n        /* \"@openzeppelin/contracts/token/ERC20/ERC20.sol\":7593:7661  require(from != address(0), \"ERC20: transfer from the zero address\") */\n      tag_346\n      jumpi\n      mload(0x40)\n      shl(0xe5, 0x461bcd)\n      dup2\n      mstore\n        /* \"#utility.yul\":14045:14047   */\n      0x20\n        /* \"@openzeppelin/contracts/token/ERC20/ERC20.sol\":7593:7661  require(from != address(0), \"ERC20: transfer from the zero address\") */\n      0x04\n      dup3\n      add\n        /* \"#utility.yul\":14027:14048   */\n      mstore\n        /* \"#utility.yul\":14084:14086   */\n      0x25\n        /* \"#utility.yul\":14064:14082   */\n      0x24\n      dup3\n      add\n        /* \"#utility.yul\":14057:14087   */\n      mstore\n        /* \"#utility.yul\":14123:14157   */\n      0x45524332303a207472616e736665722066726f6d20746865207a65726f206164\n        /* \"#utility.yul\":14103:14121   */\n      0x44\n      dup3\n      add\n        /* \"#utility.yul\":14096:14158   */\n      mstore\n      shl(0xd8, 0x6472657373)\n        /* \"#utility.yul\":14174:14192   */\n      0x64\n      dup3\n      add\n        /* \"#utility.yul\":14167:14202   */\n      mstore\n        /* \"#utility.yul\":14219:14238   */\n      0x84\n      add\n        /* \"@openzeppelin/contracts/token/ERC20/ERC20.sol\":7593:7661  require(from != address(0), \"ERC20: transfer from the zero address\") */\n      tag_202\n        /* \"#utility.yul\":13843:14244   */\n      jump\n        /* \"@openzeppelin/contracts/token/ERC20/ERC20.sol\":7593:7661  require(from != address(0), \"ERC20: transfer from the zero address\") */\n    tag_346:\n      sub(shl(0xa0, 0x01), 0x01)\n        /* \"@openzeppelin/contracts/token/ERC20/ERC20.sol\":7679:7695  to != address(0) */\n      dup3\n      and\n        /* \"@openzeppelin/contracts/token/ERC20/ERC20.sol\":7671:7735  require(to != address(0), \"ERC20: transfer to the zero address\") */\n      tag_349\n      jumpi\n      mload(0x40)\n      shl(0xe5, 0x461bcd)\n      dup2\n      mstore\n        /* \"#utility.yul\":14451:14453   */\n      0x20\n        /* \"@openzeppelin/contracts/token/ERC20/ERC20.sol\":7671:7735  require(to != address(0), \"ERC20: transfer to the zero address\") */\n      0x04\n      dup3\n      add\n        /* \"#utility.yul\":14433:14454   */\n      mstore\n        /* \"#utility.yul\":14490:14492   */\n      0x23\n        /* \"#utility.yul\":14470:14488   */\n      0x24\n      dup3\n      add\n        /* \"#utility.yul\":14463:14493   */\n      mstore\n        /* \"#utility.yul\":14529:14563   */\n      0x45524332303a207472616e7366657220746f20746865207a65726f2061646472\n        /* \"#utility.yul\":14509:14527   */\n      0x44\n      dup3\n      add\n        /* \"#utility.yul\":14502:14564   */\n      mstore\n      shl(0xe8, 0x657373)\n        /* \"#utility.yul\":14580:14598   */\n      0x64\n      dup3\n      add\n        /* \"#utility.yul\":14573:14606   */\n      mstore\n        /* \"#utility.yul\":14623:14642   */\n      0x84\n      add\n        /* \"@openzeppelin/contracts/token/ERC20/ERC20.sol\":7671:7735  require(to != address(0), \"ERC20: transfer to the zero address\") */\n      tag_202\n        /* \"#utility.yul\":14249:14648   */\n      jump\n        /* \"@openzeppelin/contracts/token/ERC20/ERC20.sol\":7671:7735  require(to != address(0), \"ERC20: transfer to the zero address\") */\n    tag_349:\n      sub(shl(0xa0, 0x01), 0x01)\n        /* \"@openzeppelin/contracts/token/ERC20/ERC20.sol\":7817:7832  _balances[from] */\n      dup4\n      and\n        /* \"@openzeppelin/contracts/token/ERC20/ERC20.sol\":7795:7814  uint256 fromBalance */\n      0x00\n        /* \"@openzeppelin/contracts/token/ERC20/ERC20.sol\":7817:7832  _balances[from] */\n      swap1\n      dup2\n      mstore\n      0x20\n      dup2\n      swap1\n      mstore\n      0x40\n      swap1\n      keccak256\n      sload\n        /* \"@openzeppelin/contracts/token/ERC20/ERC20.sol\":7850:7871  fromBalance >= amount */\n      dup2\n      dup2\n      lt\n      iszero\n        /* \"@openzeppelin/contracts/token/ERC20/ERC20.sol\":7842:7914  require(fromBalance >= amount, \"ERC20: transfer amount exceeds balance\") */\n      tag_354\n      jumpi\n      mload(0x40)\n      shl(0xe5, 0x461bcd)\n      dup2\n      mstore\n        /* \"#utility.yul\":14855:14857   */\n      0x20\n        /* \"@openzeppelin/contracts/token/ERC20/ERC20.sol\":7842:7914  require(fromBalance >= amount, \"ERC20: transfer amount exceeds balance\") */\n      0x04\n      dup3\n      add\n        /* \"#utility.yul\":14837:14858   */\n      mstore\n        /* \"#utility.yul\":14894:14896   */\n      0x26\n        /* \"#utility.yul\":14874:14892   */\n      0x24\n      dup3\n      add\n        /* \"#utility.yul\":14867:14897   */\n      mstore\n        /* \"#utility.yul\":14933:14967   */\n      0x45524332303a207472616e7366657220616d6f756e7420657863656564732062\n        /* \"#utility.yul\":14913:14931   */\n      0x44\n      dup3\n      add\n        /* \"#utility.yul\":14906:14968   */\n      mstore\n      shl(0xd0, 0x616c616e6365)\n        /* \"#utility.yul\":14984:15002   */\n      0x64\n      dup3\n      add\n        /* \"#utility.yul\":14977:15013   */\n      mstore\n        /* \"#utility.yul\":15030:15049   */\n      0x84\n      add\n        /* \"@openzeppelin/contracts/token/ERC20/ERC20.sol\":7842:7914  require(fromBalance >= amount, \"ERC20: transfer amount exceeds balance\") */\n      tag_202\n        /* \"#utility.yul\":14653:15055   */\n      jump\n        /* \"@openzeppelin/contracts/token/ERC20/ERC20.sol\":7842:7914  require(fromBalance >= amount, \"ERC20: transfer amount exceeds balance\") */\n    tag_354:\n      sub(shl(0xa0, 0x01), 0x01)\n        /* \"@openzeppelin/contracts/token/ERC20/ERC20.sol\":7948:7963  _balances[from] */\n      dup1\n      dup6\n      and\n        /* \"@openzeppelin/contracts/token/ERC20/ERC20.sol\":7948:7957  _balances */\n      0x00\n        /* \"@openzeppelin/contracts/token/ERC20/ERC20.sol\":7948:7963  _balances[from] */\n      swap1\n      dup2\n      mstore\n      0x20\n      dup2\n      swap1\n      mstore\n      0x40\n      dup1\n      dup3\n      keccak256\n        /* \"@openzeppelin/contracts/token/ERC20/ERC20.sol\":7966:7986  fromBalance - amount */\n      dup6\n      dup6\n      sub\n        /* \"@openzeppelin/contracts/token/ERC20/ERC20.sol\":7948:7986  _balances[from] = fromBalance - amount */\n      swap1\n      sstore\n        /* \"@openzeppelin/contracts/token/ERC20/ERC20.sol\":8006:8019  _balances[to] */\n      swap2\n      dup6\n      and\n      dup2\n      mstore\n      swap1\n      dup2\n      keccak256\n        /* \"@openzeppelin/contracts/token/ERC20/ERC20.sol\":8006:8029  _balances[to] += amount */\n      dup1\n      sload\n        /* \"@openzeppelin/contracts/token/ERC20/ERC20.sol\":7980:7986  amount */\n      dup5\n      swap3\n        /* \"@openzeppelin/contracts/token/ERC20/ERC20.sol\":7948:7957  _balances */\n      swap1\n        /* \"@openzeppelin/contracts/token/ERC20/ERC20.sol\":8006:8029  _balances[to] += amount */\n      tag_357\n      swap1\n        /* \"@openzeppelin/contracts/token/ERC20/ERC20.sol\":7980:7986  amount */\n      dup5\n      swap1\n        /* \"@openzeppelin/contracts/token/ERC20/ERC20.sol\":8006:8029  _balances[to] += amount */\n      tag_211\n      jump\t// in\n    tag_357:\n      swap3\n      pop\n      pop\n      dup2\n      swap1\n      sstore\n      pop\n        /* \"@openzeppelin/contracts/token/ERC20/ERC20.sol\":8060:8062  to */\n      dup3\n      sub(shl(0xa0, 0x01), 0x01)\n        /* \"@openzeppelin/contracts/token/ERC20/ERC20.sol\":8045:8071  Transfer(from, to, amount) */\n      and\n        /* \"@openzeppelin/contracts/token/ERC20/ERC20.sol\":8054:8058  from */\n      dup5\n      sub(shl(0xa0, 0x01), 0x01)\n        /* \"@openzeppelin/contracts/token/ERC20/ERC20.sol\":8045:8071  Transfer(from, to, amount) */\n      and\n      0xddf252ad1be2c89b69c2b068fc378daa952ba7f163c4a11628f55a4df523b3ef\n        /* \"@openzeppelin/contracts/token/ERC20/ERC20.sol\":8064:8070  amount */\n      dup5\n        /* \"@openzeppelin/contracts/token/ERC20/ERC20.sol\":8045:8071  Transfer(from, to, amount) */\n      mload(0x40)\n      tag_358\n      swap2\n        /* \"#utility.yul\":1410:1435   */\n      dup2\n      mstore\n        /* \"#utility.yul\":1398:1400   */\n      0x20\n        /* \"#utility.yul\":1383:1401   */\n      add\n      swap1\n        /* \"#utility.yul\":1264:1441   */\n      jump\n        /* \"@openzeppelin/contracts/token/ERC20/ERC20.sol\":8045:8071  Transfer(from, to, amount) */\n    tag_358:\n      mload(0x40)\n      dup1\n      swap2\n      sub\n      swap1\n      log3\n        /* \"@openzeppelin/contracts/token/ERC20/ERC20.sol\":8082:8119  _afterTokenTransfer(from, to, amount) */\n      tag_344\n        /* \"@openzeppelin/contracts/token/ERC20/ERC20.sol\":11786:11907  function _beforeTokenTransfer(... */\n      jump\n        /* \"#utility.yul\":14:611   */\n    tag_45:\n        /* \"#utility.yul\":126:130   */\n      0x00\n        /* \"#utility.yul\":155:157   */\n      0x20\n        /* \"#utility.yul\":184:186   */\n      dup1\n        /* \"#utility.yul\":173:182   */\n      dup4\n        /* \"#utility.yul\":166:187   */\n      mstore\n        /* \"#utility.yul\":216:222   */\n      dup4\n        /* \"#utility.yul\":210:223   */\n      mload\n        /* \"#utility.yul\":259:265   */\n      dup1\n        /* \"#utility.yul\":254:256   */\n      dup3\n        /* \"#utility.yul\":243:252   */\n      dup6\n        /* \"#utility.yul\":239:257   */\n      add\n        /* \"#utility.yul\":232:266   */\n      mstore\n        /* \"#utility.yul\":284:285   */\n      0x00\n        /* \"#utility.yul\":294:434   */\n    tag_369:\n        /* \"#utility.yul\":308:314   */\n      dup2\n        /* \"#utility.yul\":305:306   */\n      dup2\n        /* \"#utility.yul\":302:315   */\n      lt\n        /* \"#utility.yul\":294:434   */\n      iszero\n      tag_371\n      jumpi\n        /* \"#utility.yul\":403:417   */\n      dup6\n      dup2\n      add\n        /* \"#utility.yul\":399:422   */\n      dup4\n      add\n        /* \"#utility.yul\":393:423   */\n      mload\n        /* \"#utility.yul\":369:386   */\n      dup6\n      dup3\n      add\n        /* \"#utility.yul\":388:390   */\n      0x40\n        /* \"#utility.yul\":365:391   */\n      add\n        /* \"#utility.yul\":358:424   */\n      mstore\n        /* \"#utility.yul\":323:333   */\n      dup3\n      add\n        /* \"#utility.yul\":294:434   */\n      jump(tag_369)\n    tag_371:\n        /* \"#utility.yul\":452:458   */\n      dup2\n        /* \"#utility.yul\":449:450   */\n      dup2\n        /* \"#utility.yul\":446:459   */\n      gt\n        /* \"#utility.yul\":443:534   */\n      iszero\n      tag_372\n      jumpi\n        /* \"#utility.yul\":522:523   */\n      0x00\n        /* \"#utility.yul\":517:519   */\n      0x40\n        /* \"#utility.yul\":508:514   */\n      dup4\n        /* \"#utility.yul\":497:506   */\n      dup8\n        /* \"#utility.yul\":493:515   */\n      add\n        /* \"#utility.yul\":489:520   */\n      add\n        /* \"#utility.yul\":482:524   */\n      mstore\n        /* \"#utility.yul\":443:534   */\n    tag_372:\n      pop\n        /* \"#utility.yul\":595:597   */\n      0x1f\n        /* \"#utility.yul\":574:589   */\n      add\n      not(0x1f)\n        /* \"#utility.yul\":570:599   */\n      and\n        /* \"#utility.yul\":555:600   */\n      swap3\n      swap1\n      swap3\n      add\n        /* \"#utility.yul\":602:604   */\n      0x40\n        /* \"#utility.yul\":551:605   */\n      add\n      swap4\n        /* \"#utility.yul\":14:611   */\n      swap3\n      pop\n      pop\n      pop\n      jump\t// out\n        /* \"#utility.yul\":616:747   */\n    tag_363:\n      sub(shl(0xa0, 0x01), 0x01)\n        /* \"#utility.yul\":691:722   */\n      dup2\n      and\n        /* \"#utility.yul\":681:723   */\n      dup2\n      eq\n        /* \"#utility.yul\":671:741   */\n      tag_374\n      jumpi\n        /* \"#utility.yul\":737:738   */\n      0x00\n        /* \"#utility.yul\":734:735   */\n      dup1\n        /* \"#utility.yul\":727:739   */\n      revert\n        /* \"#utility.yul\":671:741   */\n    tag_374:\n        /* \"#utility.yul\":616:747   */\n      pop\n      jump\t// out\n        /* \"#utility.yul\":752:1067   */\n    tag_49:\n        /* \"#utility.yul\":820:826   */\n      0x00\n        /* \"#utility.yul\":828:834   */\n      dup1\n        /* \"#utility.yul\":881:883   */\n      0x40\n        /* \"#utility.yul\":869:878   */\n      dup4\n        /* \"#utility.yul\":860:867   */\n      dup6\n        /* \"#utility.yul\":856:879   */\n      sub\n        /* \"#utility.yul\":852:884   */\n      slt\n        /* \"#utility.yul\":849:901   */\n      iszero\n      tag_376\n      jumpi\n        /* \"#utility.yul\":897:898   */\n      0x00\n        /* \"#utility.yul\":894:895   */\n      dup1\n        /* \"#utility.yul\":887:899   */\n      revert\n        /* \"#utility.yul\":849:901   */\n    tag_376:\n        /* \"#utility.yul\":936:945   */\n      dup3\n        /* \"#utility.yul\":923:946   */\n      calldataload\n        /* \"#utility.yul\":955:986   */\n      tag_377\n        /* \"#utility.yul\":980:985   */\n      dup2\n        /* \"#utility.yul\":955:986   */\n      tag_363\n      jump\t// in\n    tag_377:\n        /* \"#utility.yul\":1005:1010   */\n      swap5\n        /* \"#utility.yul\":1057:1059   */\n      0x20\n        /* \"#utility.yul\":1042:1060   */\n      swap4\n      swap1\n      swap4\n      add\n        /* \"#utility.yul\":1029:1061   */\n      calldataload\n      swap4\n      pop\n      pop\n      pop\n        /* \"#utility.yul\":752:1067   */\n      jump\t// out\n        /* \"#utility.yul\":1446:1902   */\n    tag_61:\n        /* \"#utility.yul\":1523:1529   */\n      0x00\n        /* \"#utility.yul\":1531:1537   */\n      dup1\n        /* \"#utility.yul\":1539:1545   */\n      0x00\n        /* \"#utility.yul\":1592:1594   */\n      0x60\n        /* \"#utility.yul\":1580:1589   */\n      dup5\n        /* \"#utility.yul\":1571:1578   */\n      dup7\n        /* \"#utility.yul\":1567:1590   */\n      sub\n        /* \"#utility.yul\":1563:1595   */\n      slt\n        /* \"#utility.yul\":1560:1612   */\n      iszero\n      tag_381\n      jumpi\n        /* \"#utility.yul\":1608:1609   */\n      0x00\n        /* \"#utility.yul\":1605:1606   */\n      dup1\n        /* \"#utility.yul\":1598:1610   */\n      revert\n        /* \"#utility.yul\":1560:1612   */\n    tag_381:\n        /* \"#utility.yul\":1647:1656   */\n      dup4\n        /* \"#utility.yul\":1634:1657   */\n      calldataload\n        /* \"#utility.yul\":1666:1697   */\n      tag_382\n        /* \"#utility.yul\":1691:1696   */\n      dup2\n        /* \"#utility.yul\":1666:1697   */\n      tag_363\n      jump\t// in\n    tag_382:\n        /* \"#utility.yul\":1716:1721   */\n      swap3\n      pop\n        /* \"#utility.yul\":1773:1775   */\n      0x20\n        /* \"#utility.yul\":1758:1776   */\n      dup5\n      add\n        /* \"#utility.yul\":1745:1777   */\n      calldataload\n        /* \"#utility.yul\":1786:1819   */\n      tag_383\n        /* \"#utility.yul\":1745:1777   */\n      dup2\n        /* \"#utility.yul\":1786:1819   */\n      tag_363\n      jump\t// in\n    tag_383:\n        /* \"#utility.yul\":1446:1902   */\n      swap3\n      swap6\n        /* \"#utility.yul\":1838:1845   */\n      swap3\n      swap5\n      pop\n      pop\n      pop\n        /* \"#utility.yul\":1892:1894   */\n      0x40\n        /* \"#utility.yul\":1877:1895   */\n      swap2\n      swap1\n      swap2\n      add\n        /* \"#utility.yul\":1864:1896   */\n      calldataload\n      swap1\n        /* \"#utility.yul\":1446:1902   */\n      jump\t// out\n        /* \"#utility.yul\":2700:2880   */\n    tag_94:\n        /* \"#utility.yul\":2759:2765   */\n      0x00\n        /* \"#utility.yul\":2812:2814   */\n      0x20\n        /* \"#utility.yul\":2800:2809   */\n      dup3\n        /* \"#utility.yul\":2791:2798   */\n      dup5\n        /* \"#utility.yul\":2787:2810   */\n      sub\n        /* \"#utility.yul\":2783:2815   */\n      slt\n        /* \"#utility.yul\":2780:2832   */\n      iszero\n      tag_388\n      jumpi\n        /* \"#utility.yul\":2828:2829   */\n      0x00\n        /* \"#utility.yul\":2825:2826   */\n      dup1\n        /* \"#utility.yul\":2818:2830   */\n      revert\n        /* \"#utility.yul\":2780:2832   */\n    tag_388:\n      pop\n        /* \"#utility.yul\":2851:2874   */\n      calldataload\n      swap2\n        /* \"#utility.yul\":2700:2880   */\n      swap1\n      pop\n      jump\t// out\n        /* \"#utility.yul\":2885:3132   */\n    tag_107:\n        /* \"#utility.yul\":2944:2950   */\n      0x00\n        /* \"#utility.yul\":2997:2999   */\n      0x20\n        /* \"#utility.yul\":2985:2994   */\n      dup3\n        /* \"#utility.yul\":2976:2983   */\n      dup5\n        /* \"#utility.yul\":2972:2995   */\n      sub\n        /* \"#utility.yul\":2968:3000   */\n      slt\n        /* \"#utility.yul\":2965:3017   */\n      iszero\n      tag_390\n      jumpi\n        /* \"#utility.yul\":3013:3014   */\n      0x00\n        /* \"#utility.yul\":3010:3011   */\n      dup1\n        /* \"#utility.yul\":3003:3015   */\n      revert\n        /* \"#utility.yul\":2965:3017   */\n    tag_390:\n        /* \"#utility.yul\":3052:3061   */\n      dup2\n        /* \"#utility.yul\":3039:3062   */\n      calldataload\n        /* \"#utility.yul\":3071:3102   */\n      tag_325\n        /* \"#utility.yul\":3096:3101   */\n      dup2\n        /* \"#utility.yul\":3071:3102   */\n      tag_363\n      jump\t// in\n        /* \"#utility.yul\":3397:3780   */\n    tag_132:\n        /* \"#utility.yul\":3474:3480   */\n      0x00\n        /* \"#utility.yul\":3482:3488   */\n      dup1\n        /* \"#utility.yul\":3490:3496   */\n      0x00\n        /* \"#utility.yul\":3543:3545   */\n      0x60\n        /* \"#utility.yul\":3531:3540   */\n      dup5\n        /* \"#utility.yul\":3522:3529   */\n      dup7\n        /* \"#utility.yul\":3518:3541   */\n      sub\n        /* \"#utility.yul\":3514:3546   */\n      slt\n        /* \"#utility.yul\":3511:3563   */\n      iszero\n      tag_396\n      jumpi\n        /* \"#utility.yul\":3559:3560   */\n      0x00\n        /* \"#utility.yul\":3556:3557   */\n      dup1\n        /* \"#utility.yul\":3549:3561   */\n      revert\n        /* \"#utility.yul\":3511:3563   */\n    tag_396:\n        /* \"#utility.yul\":3595:3604   */\n      dup4\n        /* \"#utility.yul\":3582:3605   */\n      calldataload\n        /* \"#utility.yul\":3572:3605   */\n      swap3\n      pop\n        /* \"#utility.yul\":3652:3654   */\n      0x20\n        /* \"#utility.yul\":3641:3650   */\n      dup5\n        /* \"#utility.yul\":3637:3655   */\n      add\n        /* \"#utility.yul\":3624:3656   */\n      calldataload\n        /* \"#utility.yul\":3614:3656   */\n      swap2\n      pop\n        /* \"#utility.yul\":3706:3708   */\n      0x40\n        /* \"#utility.yul\":3695:3704   */\n      dup5\n        /* \"#utility.yul\":3691:3709   */\n      add\n        /* \"#utility.yul\":3678:3710   */\n      calldataload\n        /* \"#utility.yul\":3719:3750   */\n      tag_397\n        /* \"#utility.yul\":3744:3749   */\n      dup2\n        /* \"#utility.yul\":3719:3750   */\n      tag_363\n      jump\t// in\n    tag_397:\n        /* \"#utility.yul\":3769:3774   */\n      dup1\n        /* \"#utility.yul\":3759:3774   */\n      swap2\n      pop\n      pop\n        /* \"#utility.yul\":3397:3780   */\n      swap3\n      pop\n      swap3\n      pop\n      swap3\n      jump\t// out\n        /* \"#utility.yul\":3785:4310   */\n    tag_137:\n        /* \"#utility.yul\":3871:3877   */\n      0x00\n        /* \"#utility.yul\":3879:3885   */\n      dup1\n        /* \"#utility.yul\":3887:3893   */\n      0x00\n        /* \"#utility.yul\":3895:3901   */\n      dup1\n        /* \"#utility.yul\":3948:3951   */\n      0x80\n        /* \"#utility.yul\":3936:3945   */\n      dup6\n        /* \"#utility.yul\":3927:3934   */\n      dup8\n        /* \"#utility.yul\":3923:3946   */\n      sub\n        /* \"#utility.yul\":3919:3952   */\n      slt\n        /* \"#utility.yul\":3916:3969   */\n      iszero\n      tag_399\n      jumpi\n        /* \"#utility.yul\":3965:3966   */\n      0x00\n        /* \"#utility.yul\":3962:3963   */\n      dup1\n        /* \"#utility.yul\":3955:3967   */\n      revert\n        /* \"#utility.yul\":3916:3969   */\n    tag_399:\n        /* \"#utility.yul\":4004:4013   */\n      dup5\n        /* \"#utility.yul\":3991:4014   */\n      calldataload\n        /* \"#utility.yul\":4023:4054   */\n      tag_400\n        /* \"#utility.yul\":4048:4053   */\n      dup2\n        /* \"#utility.yul\":4023:4054   */\n      tag_363\n      jump\t// in\n    tag_400:\n        /* \"#utility.yul\":4073:4078   */\n      swap4\n      pop\n        /* \"#utility.yul\":4125:4127   */\n      0x20\n        /* \"#utility.yul\":4110:4128   */\n      dup6\n      add\n        /* \"#utility.yul\":4097:4129   */\n      calldataload\n      swap3\n      pop\n        /* \"#utility.yul\":4176:4178   */\n      0x40\n        /* \"#utility.yul\":4161:4179   */\n      dup6\n      add\n        /* \"#utility.yul\":4148:4180   */\n      calldataload\n      swap2\n      pop\n        /* \"#utility.yul\":4232:4234   */\n      0x60\n        /* \"#utility.yul\":4217:4235   */\n      dup6\n      add\n        /* \"#utility.yul\":4204:4236   */\n      calldataload\n        /* \"#utility.yul\":4245:4278   */\n      tag_401\n        /* \"#utility.yul\":4204:4236   */\n      dup2\n        /* \"#utility.yul\":4245:4278   */\n      tag_363\n      jump\t// in\n    tag_401:\n        /* \"#utility.yul\":3785:4310   */\n      swap4\n      swap7\n      swap3\n      swap6\n      pop\n      swap1\n      swap4\n      pop\n      pop\n      jump\t// out\n        /* \"#utility.yul\":4315:4703   */\n    tag_146:\n        /* \"#utility.yul\":4383:4389   */\n      0x00\n        /* \"#utility.yul\":4391:4397   */\n      dup1\n        /* \"#utility.yul\":4444:4446   */\n      0x40\n        /* \"#utility.yul\":4432:4441   */\n      dup4\n        /* \"#utility.yul\":4423:4430   */\n      dup6\n        /* \"#utility.yul\":4419:4442   */\n      sub\n        /* \"#utility.yul\":4415:4447   */\n      slt\n        /* \"#utility.yul\":4412:4464   */\n      iszero\n      tag_403\n      jumpi\n        /* \"#utility.yul\":4460:4461   */\n      0x00\n        /* \"#utility.yul\":4457:4458   */\n      dup1\n        /* \"#utility.yul\":4450:4462   */\n      revert\n        /* \"#utility.yul\":4412:4464   */\n    tag_403:\n        /* \"#utility.yul\":4499:4508   */\n      dup3\n        /* \"#utility.yul\":4486:4509   */\n      calldataload\n        /* \"#utility.yul\":4518:4549   */\n      tag_404\n        /* \"#utility.yul\":4543:4548   */\n      dup2\n        /* \"#utility.yul\":4518:4549   */\n      tag_363\n      jump\t// in\n    tag_404:\n        /* \"#utility.yul\":4568:4573   */\n      swap2\n      pop\n        /* \"#utility.yul\":4625:4627   */\n      0x20\n        /* \"#utility.yul\":4610:4628   */\n      dup4\n      add\n        /* \"#utility.yul\":4597:4629   */\n      calldataload\n        /* \"#utility.yul\":4638:4671   */\n      tag_405\n        /* \"#utility.yul\":4597:4629   */\n      dup2\n        /* \"#utility.yul\":4638:4671   */\n      tag_363\n      jump\t// in\n    tag_405:\n        /* \"#utility.yul\":4690:4697   */\n      dup1\n        /* \"#utility.yul\":4680:4697   */\n      swap2\n      pop\n      pop\n        /* \"#utility.yul\":4315:4703   */\n      swap3\n      pop\n      swap3\n      swap1\n      pop\n      jump\t// out\n        /* \"#utility.yul\":4708:4956   */\n    tag_156:\n        /* \"#utility.yul\":4776:4782   */\n      0x00\n        /* \"#utility.yul\":4784:4790   */\n      dup1\n        /* \"#utility.yul\":4837:4839   */\n      0x40\n        /* \"#utility.yul\":4825:4834   */\n      dup4\n        /* \"#utility.yul\":4816:4823   */\n      dup6\n        /* \"#utility.yul\":4812:4835   */\n      sub\n        /* \"#utility.yul\":4808:4840   */\n      slt\n        /* \"#utility.yul\":4805:4857   */\n      iszero\n      tag_407\n      jumpi\n        /* \"#utility.yul\":4853:4854   */\n      0x00\n        /* \"#utility.yul\":4850:4851   */\n      dup1\n        /* \"#utility.yul\":4843:4855   */\n      revert\n        /* \"#utility.yul\":4805:4857   */\n    tag_407:\n      pop\n      pop\n        /* \"#utility.yul\":4876:4899   */\n      dup1\n      calldataload\n      swap3\n        /* \"#utility.yul\":4946:4948   */\n      0x20\n        /* \"#utility.yul\":4931:4949   */\n      swap1\n      swap2\n      add\n        /* \"#utility.yul\":4918:4950   */\n      calldataload\n      swap2\n      pop\n        /* \"#utility.yul\":4708:4956   */\n      jump\t// out\n        /* \"#utility.yul\":4961:5341   */\n    tag_182:\n        /* \"#utility.yul\":5040:5041   */\n      0x01\n        /* \"#utility.yul\":5036:5048   */\n      dup2\n      dup2\n      shr\n      swap1\n        /* \"#utility.yul\":5083:5095   */\n      dup3\n      and\n      dup1\n        /* \"#utility.yul\":5104:5165   */\n      tag_409\n      jumpi\n        /* \"#utility.yul\":5158:5162   */\n      0x7f\n        /* \"#utility.yul\":5150:5156   */\n      dup3\n        /* \"#utility.yul\":5146:5163   */\n      and\n        /* \"#utility.yul\":5136:5163   */\n      swap2\n      pop\n        /* \"#utility.yul\":5104:5165   */\n    tag_409:\n        /* \"#utility.yul\":5211:5213   */\n      0x20\n        /* \"#utility.yul\":5203:5209   */\n      dup3\n        /* \"#utility.yul\":5200:5214   */\n      lt\n        /* \"#utility.yul\":5180:5198   */\n      dup2\n        /* \"#utility.yul\":5177:5215   */\n      sub\n        /* \"#utility.yul\":5174:5335   */\n      tag_410\n      jumpi\n        /* \"#utility.yul\":5257:5267   */\n      0x4e487b71\n        /* \"#utility.yul\":5252:5255   */\n      0xe0\n        /* \"#utility.yul\":5248:5268   */\n      shl\n        /* \"#utility.yul\":5245:5246   */\n      0x00\n        /* \"#utility.yul\":5238:5269   */\n      mstore\n        /* \"#utility.yul\":5292:5296   */\n      0x22\n        /* \"#utility.yul\":5289:5290   */\n      0x04\n        /* \"#utility.yul\":5282:5297   */\n      mstore\n        /* \"#utility.yul\":5320:5324   */\n      0x24\n        /* \"#utility.yul\":5317:5318   */\n      0x00\n        /* \"#utility.yul\":5310:5325   */\n      revert\n        /* \"#utility.yul\":5174:5335   */\n    tag_410:\n      pop\n        /* \"#utility.yul\":4961:5341   */\n      swap2\n      swap1\n      pop\n      jump\t// out\n        /* \"#utility.yul\":5346:5686   */\n    tag_203:\n        /* \"#utility.yul\":5548:5550   */\n      0x20\n        /* \"#utility.yul\":5530:5551   */\n      dup1\n      dup3\n      mstore\n        /* \"#utility.yul\":5587:5589   */\n      0x10\n        /* \"#utility.yul\":5567:5585   */\n      swap1\n      dup3\n      add\n        /* \"#utility.yul\":5560:5590   */\n      mstore\n      shl(0x81, 0x31b0b63632b9103737ba1037bbb732b9)\n        /* \"#utility.yul\":5621:5623   */\n      0x40\n        /* \"#utility.yul\":5606:5624   */\n      dup3\n      add\n        /* \"#utility.yul\":5599:5645   */\n      mstore\n        /* \"#utility.yul\":5677:5679   */\n      0x60\n        /* \"#utility.yul\":5662:5680   */\n      add\n      swap1\n        /* \"#utility.yul\":5346:5686   */\n      jump\t// out\n        /* \"#utility.yul\":5691:5818   */\n    tag_364:\n        /* \"#utility.yul\":5752:5762   */\n      0x4e487b71\n        /* \"#utility.yul\":5747:5750   */\n      0xe0\n        /* \"#utility.yul\":5743:5763   */\n      shl\n        /* \"#utility.yul\":5740:5741   */\n      0x00\n        /* \"#utility.yul\":5733:5764   */\n      mstore\n        /* \"#utility.yul\":5783:5787   */\n      0x11\n        /* \"#utility.yul\":5780:5781   */\n      0x04\n        /* \"#utility.yul\":5773:5788   */\n      mstore\n        /* \"#utility.yul\":5807:5811   */\n      0x24\n        /* \"#utility.yul\":5804:5805   */\n      0x00\n        /* \"#utility.yul\":5797:5812   */\n      revert\n        /* \"#utility.yul\":5823:5951   */\n    tag_211:\n        /* \"#utility.yul\":5863:5866   */\n      0x00\n        /* \"#utility.yul\":5894:5895   */\n      dup3\n        /* \"#utility.yul\":5890:5896   */\n      not\n        /* \"#utility.yul\":5887:5888   */\n      dup3\n        /* \"#utility.yul\":5884:5897   */\n      gt\n        /* \"#utility.yul\":5881:5920   */\n      iszero\n      tag_415\n      jumpi\n        /* \"#utility.yul\":5900:5918   */\n      tag_415\n      tag_364\n      jump\t// in\n    tag_415:\n      pop\n        /* \"#utility.yul\":5936:5945   */\n      add\n      swap1\n        /* \"#utility.yul\":5823:5951   */\n      jump\t// out\n        /* \"#utility.yul\":5956:6284   */\n    tag_219:\n        /* \"#utility.yul\":6158:6160   */\n      0x20\n        /* \"#utility.yul\":6140:6161   */\n      dup1\n      dup3\n      mstore\n        /* \"#utility.yul\":6197:6198   */\n      0x05\n        /* \"#utility.yul\":6177:6195   */\n      swap1\n      dup3\n      add\n        /* \"#utility.yul\":6170:6199   */\n      mstore\n      shl(0xd8, 0x5a65726f21)\n        /* \"#utility.yul\":6230:6232   */\n      0x40\n        /* \"#utility.yul\":6215:6233   */\n      dup3\n      add\n        /* \"#utility.yul\":6208:6243   */\n      mstore\n        /* \"#utility.yul\":6275:6277   */\n      0x60\n        /* \"#utility.yul\":6260:6278   */\n      add\n      swap1\n        /* \"#utility.yul\":5956:6284   */\n      jump\t// out\n        /* \"#utility.yul\":7587:8009   */\n    tag_365:\n        /* \"#utility.yul\":7676:7677   */\n      0x01\n        /* \"#utility.yul\":7719:7724   */\n      dup2\n        /* \"#utility.yul\":7676:7677   */\n      dup2\n        /* \"#utility.yul\":7733:8003   */\n    tag_422:\n        /* \"#utility.yul\":7754:7761   */\n      dup1\n        /* \"#utility.yul\":7744:7752   */\n      dup6\n        /* \"#utility.yul\":7741:7762   */\n      gt\n        /* \"#utility.yul\":7733:8003   */\n      iszero\n      tag_424\n      jumpi\n        /* \"#utility.yul\":7813:7817   */\n      dup2\n        /* \"#utility.yul\":7809:7810   */\n      0x00\n        /* \"#utility.yul\":7805:7811   */\n      not\n        /* \"#utility.yul\":7801:7818   */\n      div\n        /* \"#utility.yul\":7795:7799   */\n      dup3\n        /* \"#utility.yul\":7792:7819   */\n      gt\n        /* \"#utility.yul\":7789:7842   */\n      iszero\n      tag_426\n      jumpi\n        /* \"#utility.yul\":7822:7840   */\n      tag_426\n      tag_364\n      jump\t// in\n    tag_426:\n        /* \"#utility.yul\":7872:7879   */\n      dup1\n        /* \"#utility.yul\":7862:7870   */\n      dup6\n        /* \"#utility.yul\":7858:7880   */\n      and\n        /* \"#utility.yul\":7855:7910   */\n      iszero\n      tag_427\n      jumpi\n        /* \"#utility.yul\":7892:7908   */\n      swap2\n      dup2\n      mul\n      swap2\n        /* \"#utility.yul\":7855:7910   */\n    tag_427:\n        /* \"#utility.yul\":7971:7993   */\n      swap4\n      dup5\n      shr\n      swap4\n        /* \"#utility.yul\":7931:7946   */\n      swap1\n      dup1\n      mul\n      swap1\n        /* \"#utility.yul\":7733:8003   */\n      jump(tag_422)\n    tag_424:\n        /* \"#utility.yul\":7737:7740   */\n      pop\n        /* \"#utility.yul\":7587:8009   */\n      swap3\n      pop\n      swap3\n      swap1\n      pop\n      jump\t// out\n        /* \"#utility.yul\":8014:8820   */\n    tag_366:\n        /* \"#utility.yul\":8063:8068   */\n      0x00\n        /* \"#utility.yul\":8093:8101   */\n      dup3\n        /* \"#utility.yul\":8083:8163   */\n      tag_429\n      jumpi\n      pop\n        /* \"#utility.yul\":8134:8135   */\n      0x01\n        /* \"#utility.yul\":8148:8153   */\n      jump(tag_187)\n        /* \"#utility.yul\":8083:8163   */\n    tag_429:\n        /* \"#utility.yul\":8182:8186   */\n      dup2\n        /* \"#utility.yul\":8172:8248   */\n      tag_430\n      jumpi\n      pop\n        /* \"#utility.yul\":8219:8220   */\n      0x00\n        /* \"#utility.yul\":8233:8238   */\n      jump(tag_187)\n        /* \"#utility.yul\":8172:8248   */\n    tag_430:\n        /* \"#utility.yul\":8264:8268   */\n      dup2\n        /* \"#utility.yul\":8282:8283   */\n      0x01\n        /* \"#utility.yul\":8277:8336   */\n      dup2\n      eq\n      tag_432\n      jumpi\n        /* \"#utility.yul\":8350:8351   */\n      0x02\n        /* \"#utility.yul\":8345:8475   */\n      dup2\n      eq\n      tag_433\n      jumpi\n        /* \"#utility.yul\":8257:8475   */\n      jump(tag_431)\n        /* \"#utility.yul\":8277:8336   */\n    tag_432:\n        /* \"#utility.yul\":8307:8308   */\n      0x01\n        /* \"#utility.yul\":8298:8308   */\n      swap2\n      pop\n        /* \"#utility.yul\":8321:8326   */\n      pop\n      jump(tag_187)\n        /* \"#utility.yul\":8345:8475   */\n    tag_433:\n        /* \"#utility.yul\":8382:8385   */\n      0xff\n        /* \"#utility.yul\":8372:8380   */\n      dup5\n        /* \"#utility.yul\":8369:8386   */\n      gt\n        /* \"#utility.yul\":8366:8409   */\n      iszero\n      tag_435\n      jumpi\n        /* \"#utility.yul\":8389:8407   */\n      tag_435\n      tag_364\n      jump\t// in\n    tag_435:\n      pop\n      pop\n        /* \"#utility.yul\":8445:8446   */\n      0x01\n        /* \"#utility.yul\":8431:8447   */\n      dup3\n      shl\n        /* \"#utility.yul\":8460:8465   */\n      jump(tag_187)\n        /* \"#utility.yul\":8257:8475   */\n    tag_431:\n      pop\n        /* \"#utility.yul\":8559:8561   */\n      0x20\n        /* \"#utility.yul\":8549:8557   */\n      dup4\n        /* \"#utility.yul\":8546:8562   */\n      lt\n        /* \"#utility.yul\":8540:8543   */\n      0x0133\n        /* \"#utility.yul\":8534:8538   */\n      dup4\n        /* \"#utility.yul\":8531:8544   */\n      lt\n        /* \"#utility.yul\":8527:8563   */\n      and\n        /* \"#utility.yul\":8521:8523   */\n      0x4e\n        /* \"#utility.yul\":8511:8519   */\n      dup5\n        /* \"#utility.yul\":8508:8524   */\n      lt\n        /* \"#utility.yul\":8503:8505   */\n      0x0b\n        /* \"#utility.yul\":8497:8501   */\n      dup5\n        /* \"#utility.yul\":8494:8506   */\n      lt\n        /* \"#utility.yul\":8490:8525   */\n      and\n        /* \"#utility.yul\":8487:8564   */\n      or\n        /* \"#utility.yul\":8484:8643   */\n      iszero\n      tag_436\n      jumpi\n      pop\n        /* \"#utility.yul\":8596:8615   */\n      dup2\n      dup2\n      exp\n        /* \"#utility.yul\":8628:8633   */\n      jump(tag_187)\n        /* \"#utility.yul\":8484:8643   */\n    tag_436:\n        /* \"#utility.yul\":8675:8709   */\n      tag_437\n        /* \"#utility.yul\":8700:8708   */\n      dup4\n        /* \"#utility.yul\":8694:8698   */\n      dup4\n        /* \"#utility.yul\":8675:8709   */\n      tag_365\n      jump\t// in\n    tag_437:\n        /* \"#utility.yul\":8745:8751   */\n      dup1\n        /* \"#utility.yul\":8741:8742   */\n      0x00\n        /* \"#utility.yul\":8737:8743   */\n      not\n        /* \"#utility.yul\":8733:8752   */\n      div\n        /* \"#utility.yul\":8724:8731   */\n      dup3\n        /* \"#utility.yul\":8721:8753   */\n      gt\n        /* \"#utility.yul\":8718:8776   */\n      iszero\n      tag_439\n      jumpi\n        /* \"#utility.yul\":8756:8774   */\n      tag_439\n      tag_364\n      jump\t// in\n    tag_439:\n        /* \"#utility.yul\":8794:8814   */\n      mul\n      swap4\n        /* \"#utility.yul\":8014:8820   */\n      swap3\n      pop\n      pop\n      pop\n      jump\t// out\n        /* \"#utility.yul\":8825:8956   */\n    tag_255:\n        /* \"#utility.yul\":8885:8890   */\n      0x00\n        /* \"#utility.yul\":8914:8950   */\n      tag_325\n        /* \"#utility.yul\":8941:8949   */\n      dup4\n        /* \"#utility.yul\":8935:8939   */\n      dup4\n        /* \"#utility.yul\":8914:8950   */\n      tag_366\n      jump\t// in\n        /* \"#utility.yul\":9311:9479   */\n    tag_259:\n        /* \"#utility.yul\":9351:9358   */\n      0x00\n        /* \"#utility.yul\":9417:9418   */\n      dup2\n        /* \"#utility.yul\":9413:9414   */\n      0x00\n        /* \"#utility.yul\":9409:9415   */\n      not\n        /* \"#utility.yul\":9405:9419   */\n      div\n        /* \"#utility.yul\":9402:9403   */\n      dup4\n        /* \"#utility.yul\":9399:9420   */\n      gt\n        /* \"#utility.yul\":9394:9395   */\n      dup3\n        /* \"#utility.yul\":9387:9396   */\n      iszero\n        /* \"#utility.yul\":9380:9397   */\n      iszero\n        /* \"#utility.yul\":9376:9421   */\n      and\n        /* \"#utility.yul\":9373:9444   */\n      iszero\n      tag_445\n      jumpi\n        /* \"#utility.yul\":9424:9442   */\n      tag_445\n      tag_364\n      jump\t// in\n    tag_445:\n      pop\n        /* \"#utility.yul\":9464:9473   */\n      mul\n      swap1\n        /* \"#utility.yul\":9311:9479   */\n      jump\t// out\n        /* \"#utility.yul\":10557:10834   */\n    tag_278:\n        /* \"#utility.yul\":10624:10630   */\n      0x00\n        /* \"#utility.yul\":10677:10679   */\n      0x20\n        /* \"#utility.yul\":10665:10674   */\n      dup3\n        /* \"#utility.yul\":10656:10663   */\n      dup5\n        /* \"#utility.yul\":10652:10675   */\n      sub\n        /* \"#utility.yul\":10648:10680   */\n      slt\n        /* \"#utility.yul\":10645:10697   */\n      iszero\n      tag_450\n      jumpi\n        /* \"#utility.yul\":10693:10694   */\n      0x00\n        /* \"#utility.yul\":10690:10691   */\n      dup1\n        /* \"#utility.yul\":10683:10695   */\n      revert\n        /* \"#utility.yul\":10645:10697   */\n    tag_450:\n        /* \"#utility.yul\":10725:10734   */\n      dup2\n        /* \"#utility.yul\":10719:10735   */\n      mload\n        /* \"#utility.yul\":10778:10783   */\n      dup1\n        /* \"#utility.yul\":10771:10784   */\n      iszero\n        /* \"#utility.yul\":10764:10785   */\n      iszero\n        /* \"#utility.yul\":10757:10762   */\n      dup2\n        /* \"#utility.yul\":10754:10786   */\n      eq\n        /* \"#utility.yul\":10744:10804   */\n      tag_325\n      jumpi\n        /* \"#utility.yul\":10800:10801   */\n      0x00\n        /* \"#utility.yul\":10797:10798   */\n      dup1\n        /* \"#utility.yul\":10790:10802   */\n      revert\n        /* \"#utility.yul\":12315:12450   */\n    tag_307:\n        /* \"#utility.yul\":12354:12357   */\n      0x00\n        /* \"#utility.yul\":12375:12392   */\n      0x01\n      dup3\n      add\n        /* \"#utility.yul\":12372:12415   */\n      tag_458\n      jumpi\n        /* \"#utility.yul\":12395:12413   */\n      tag_458\n      tag_364\n      jump\t// in\n    tag_458:\n      pop\n        /* \"#utility.yul\":12442:12443   */\n      0x01\n        /* \"#utility.yul\":12431:12444   */\n      add\n      swap1\n        /* \"#utility.yul\":12315:12450   */\n      jump\t// out\n        /* \"#utility.yul\":12455:12672   */\n    tag_326:\n        /* \"#utility.yul\":12495:12496   */\n      0x00\n        /* \"#utility.yul\":12521:12522   */\n      dup3\n        /* \"#utility.yul\":12511:12643   */\n      tag_460\n      jumpi\n        /* \"#utility.yul\":12565:12575   */\n      0x4e487b71\n        /* \"#utility.yul\":12560:12563   */\n      0xe0\n        /* \"#utility.yul\":12556:12576   */\n      shl\n        /* \"#utility.yul\":12553:12554   */\n      0x00\n        /* \"#utility.yul\":12546:12577   */\n      mstore\n        /* \"#utility.yul\":12600:12604   */\n      0x12\n        /* \"#utility.yul\":12597:12598   */\n      0x04\n        /* \"#utility.yul\":12590:12605   */\n      mstore\n        /* \"#utility.yul\":12628:12632   */\n      0x24\n        /* \"#utility.yul\":12625:12626   */\n      0x00\n        /* \"#utility.yul\":12618:12633   */\n      revert\n        /* \"#utility.yul\":12511:12643   */\n    tag_460:\n      pop\n        /* \"#utility.yul\":12657:12666   */\n      div\n      swap1\n        /* \"#utility.yul\":12455:12672   */\n      jump\t// out\n\n    auxdata: 0xa26469706673582212200a963f3f13e8d262ea5b3eefd0d43cb3fd0d3285657c6dd13917b2294ea3dbe064736f6c634300080f0033\n}\n",
				"bytecode": {
					"linkReferences": {},
					"object": "6080604052600780546001600160a01b03191661dead17905562000021601290565b6200002e90600a620003a1565b600c81905562000040906014620003b2565b600d55620000606064600d546200017c60201b62000f4c1790919060201c565b600e55620f4240600f55600c546200007d90631dcd6500620003b2565b601055604051806040016040528060088152602001674d6574616363657360c01b81525060405180604001604052806005815260200164416363657360d81b8152508160039081620000d0919062000478565b506004620000df828262000478565b505060058054336001600160a01b03199091161781556010546200013a92503091620001349160649162000120919062000193602090811b62000f5f17901c565b6200017c60201b62000f4c1790919060201c565b620001a1565b6200017673c6e5347d1a5fe685160429705e9e26bd3bba8fea62000134606462000120605f6010546200019360201b62000f5f1790919060201c565b62000582565b60006200018a828462000544565b90505b92915050565b60006200018a8284620003b2565b6001600160a01b038216620001fc5760405162461bcd60e51b815260206004820152601f60248201527f45524332303a206d696e7420746f20746865207a65726f206164647265737300604482015260640160405180910390fd5b806002600082825462000210919062000567565b90915550506001600160a01b038216600090815260208190526040812080548392906200023f90849062000567565b90915550506040518181526001600160a01b038316906000907fddf252ad1be2c89b69c2b068fc378daa952ba7f163c4a11628f55a4df523b3ef9060200160405180910390a35050565b505050565b634e487b7160e01b600052601160045260246000fd5b600181815b80851115620002e5578160001904821115620002c957620002c96200028e565b80851615620002d757918102915b93841c9390800290620002a9565b509250929050565b600082620002fe575060016200018d565b816200030d575060006200018d565b8160018114620003265760028114620003315762000351565b60019150506200018d565b60ff8411156200034557620003456200028e565b50506001821b6200018d565b5060208310610133831016604e8410600b841016171562000376575081810a6200018d565b620003828383620002a4565b80600019048211156200039957620003996200028e565b029392505050565b60006200018a60ff841683620002ed565b6000816000190483118215151615620003cf57620003cf6200028e565b500290565b634e487b7160e01b600052604160045260246000fd5b600181811c90821680620003ff57607f821691505b6020821081036200042057634e487b7160e01b600052602260045260246000fd5b50919050565b601f8211156200028957600081815260208120601f850160051c810160208610156200044f5750805b601f850160051c820191505b8181101562000470578281556001016200045b565b505050505050565b81516001600160401b03811115620004945762000494620003d4565b620004ac81620004a58454620003ea565b8462000426565b602080601f831160018114620004e45760008415620004cb5750858301515b600019600386901b1c1916600185901b17855562000470565b600085815260208120601f198616915b828110156200051557888601518255948401946001909101908401620004f4565b5085821015620005345787850151600019600388901b60f8161c191681555b5050505050600190811b01905550565b6000826200056257634e487b7160e01b600052601260045260246000fd5b500490565b600082198211156200057d576200057d6200028e565b500190565b61171880620005926000396000f3fe6080604052600436106101c65760003560e01c80638dd14802116100f7578063dd62ed3e11610095578063e7d53fcb11610064578063e7d53fcb1461051b578063f2fde38b1461052e578063f4f3122e1461054e578063f88979451461056e57600080fd5b8063dd62ed3e1461049d578063deea800d146104bd578063e181203a146104d3578063e4993d8c146104f357600080fd5b8063a9059cbb116100d1578063a9059cbb14610427578063adbc7cee14610447578063b2938bee14610467578063d5abeb011461048757600080fd5b80638dd14802146103d257806395d89b41146103f2578063a457c2d71461040757600080fd5b80633950935111610164578063534b14421161013e578063534b1442146103465780635fa2ef10146103665780636ac5db191461038657806370a082311461039c57600080fd5b806339509351146102d75780633c3b7995146102f75780634d1d03d11461030d57600080fd5b806323b872dd116101a057806323b872dd1461024c57806327c8f8351461026c578063313ce567146102a4578063380d831b146102c057600080fd5b806306fdde03146101d2578063095ea7b3146101fd57806318160ddd1461022d57600080fd5b366101cd57005b600080fd5b3480156101de57600080fd5b506101e7610584565b6040516101f491906112d7565b60405180910390f35b34801561020957600080fd5b5061021d610218366004611344565b610616565b60405190151581526020016101f4565b34801561023957600080fd5b506002545b6040519081526020016101f4565b34801561025857600080fd5b5061021d610267366004611370565b610630565b34801561027857600080fd5b5060075461028c906001600160a01b031681565b6040516001600160a01b0390911681526020016101f4565b3480156102b057600080fd5b50604051601281526020016101f4565b3480156102cc57600080fd5b506102d5610654565b005b3480156102e357600080fd5b5061021d6102f2366004611344565b6106c0565b34801561030357600080fd5b5061023e600f5481565b34801561031957600080fd5b50600854600954600a54600b546040805194855260208501939093529183015260608201526080016101f4565b34801561035257600080fd5b506102d56103613660046113b1565b6106e2565b34801561037257600080fd5b5060065461028c906001600160a01b031681565b34801561039257600080fd5b5061023e600d5481565b3480156103a857600080fd5b5061023e6103b73660046113ca565b6001600160a01b031660009081526020819052604090205490565b3480156103de57600080fd5b506102d56103ed3660046113ca565b610767565b3480156103fe57600080fd5b506101e76107ef565b34801561041357600080fd5b5061021d610422366004611344565b6107fe565b34801561043357600080fd5b5061021d610442366004611344565b610879565b34801561045357600080fd5b506102d56104623660046113e7565b610887565b34801561047357600080fd5b506102d5610482366004611420565b6109cf565b34801561049357600080fd5b5061023e60105481565b3480156104a957600080fd5b5061023e6104b836600461146a565b610b34565b3480156104c957600080fd5b5061023e600c5481565b3480156104df57600080fd5b506102d56104ee3660046114a3565b610b5f565b3480156104ff57600080fd5b5061028c73c6e5347d1a5fe685160429705e9e26bd3bba8fea81565b61021d6105293660046113ca565b610c0f565b34801561053a57600080fd5b506102d56105493660046113ca565b610e03565b34801561055a57600080fd5b506102d56105693660046114a3565b610ebe565b34801561057a57600080fd5b5061023e600e5481565b606060038054610593906114c5565b80601f01602080910402602001604051908101604052809291908181526020018280546105bf906114c5565b801561060c5780601f106105e15761010080835404028352916020019161060c565b820191906000526020600020905b8154815290600101906020018083116105ef57829003601f168201915b5050505050905090565b600033610624818585610f6b565b60019150505b92915050565b60003361063e85828561108f565b610649858585611109565b506001949350505050565b6005546001600160a01b031633146106875760405162461bcd60e51b815260040161067e906114ff565b60405180910390fd5b436009556040514281527fb144be0f16f8d30f2e18ef8f7938d5e90207932d96650e592ff47725716818fb9060200160405180910390a1565b6000336106248185856106d38383610b34565b6106dd919061153f565b610f6b565b6005546001600160a01b0316331461070c5760405162461bcd60e51b815260040161067e906114ff565b8060000361072c5760405162461bcd60e51b815260040161067e90611557565b600f8190556040518181527f6d487f3988610155b3a9ef590f8ac170134d24e6505b9ddd3160e34abaa0edaf9060200160405180910390a150565b6005546001600160a01b031633146107915760405162461bcd60e51b815260040161067e906114ff565b6040516001600160a01b03821681527fe605ac02ea219003ec58fc9cf4d4b3c5f2d62ec39807b1c63886ddd47a6fcd6e9060200160405180910390a1600680546001600160a01b0319166001600160a01b0392909216919091179055565b606060048054610593906114c5565b6000338161080c8286610b34565b90508381101561086c5760405162461bcd60e51b815260206004820152602560248201527f45524332303a2064656372656173656420616c6c6f77616e63652062656c6f77604482015264207a65726f60d81b606482015260840161067e565b6106498286868403610f6b565b600033610624818585611109565b6005546001600160a01b031633146108b15760405162461bcd60e51b815260040161067e906114ff565b824710156108eb5760405162461bcd60e51b81526020600482015260076024820152664e6f20424e422160c81b604482015260640161067e565b6001600160a01b0381166109305760405162461bcd60e51b815260206004820152600c60248201526b5a65726f206164647265737360a01b604482015260640161067e565b600061093d83600a61165a565b60408051868152602081018690526001600160a01b0385168183015290519192507f4508977418b95bac209196e03356692c2d8f47957dec1c15af1a44cc40d39a04919081900360600190a16001600160a01b0382166108fc6109a08387611666565b6040518115909202916000818181858888f193505050501580156109c8573d6000803e3d6000fd5b5050505050565b6005546001600160a01b031633146109f95760405162461bcd60e51b815260040161067e906114ff565b6001600160a01b038416610a3f5760405162461bcd60e51b815260206004820152600d60248201526c61646472657373207a65726f2160981b604482015260640161067e565b6000610a4c83600a61165a565b604080516001600160a01b0388811682526020820188905281830187905285166060820152905191925086917f0206ca7f97d46974ed97b981f879b17e9e1fe17ead63770c806926d28aa5cbd59181900360800190a16001600160a01b03811663a9059cbb84610abc8589611666565b6040516001600160e01b031960e085901b1681526001600160a01b03909216600483015260248201526044016020604051808303816000875af1158015610b07573d6000803e3d6000fd5b505050506040513d601f19601f82011682018060405250810190610b2b9190611685565b50505050505050565b6001600160a01b03918216600090815260016020908152604080832093909416825291909152205490565b6005546001600160a01b03163314610b895760405162461bcd60e51b815260040161067e906114ff565b8115801590610b9757508015155b610bb35760405162461bcd60e51b815260040161067e90611557565b600e829055600c54610bc59082611666565b600d819055600e546040517f3b06ffd21bedfb2c375d7b1bcf74ca4fe1afe205699e39610b3aced7adf6b9e992610c03928252602082015260400190565b60405180910390a15050565b6000600c54600f54610c219190611666565b336000908152602081905260409020541115610c8b5760405162461bcd60e51b815260206004820152602360248201527f596f75207265616368656420796f757220707269766174652073616c65206c696044820152621b5a5d60ea1b606482015260840161067e565b4360085411158015610c9f57506009544311155b610cff5760405162461bcd60e51b815260206004820152602b60248201527f507269766174652053616c652068617320656e646564206f7220646964206e6f60448201526a1d081cdd185c9d081e595d60aa1b606482015260840161067e565b600e5434906000908210801590610d185750600d548211155b610d735760405162461bcd60e51b815260206004820152602660248201527f4c657373207468616e204d696e696d756d206f72204d6f7265207468616e204d6044820152656178696d756d60d01b606482015260840161067e565b610d9a670de0b6b3a7640000610d9484600b54610f5f90919063ffffffff16565b90610f4c565b600a80549192506000610dac836116a7565b9190505550610dbc303383611109565b600b546040805183815260208101929092527fb887e151dbfcc06b4ce4f67f9bbedaeb16ab224e34c6668858d0310c6d18ffc3910160405180910390a15060019392505050565b6005546001600160a01b03163314610e2d5760405162461bcd60e51b815260040161067e906114ff565b6001600160a01b038116610e725760405162461bcd60e51b815260206004820152600c60248201526b5a65726f206164647265737360a01b604482015260640161067e565b600580546001600160a01b0319166001600160a01b03831690811790915560405181907f8be0079c531659141344cd1fd0a4f28419497f9722a3daafe3b4186f6b6457e090600090a350565b6005546001600160a01b03163314610ee85760405162461bcd60e51b815260040161067e906114ff565b8115801590610ef657508015155b610f125760405162461bcd60e51b815260040161067e90611557565b6009829055600b8190556040518281527f1dc13bd033e49239661ba80e30ae191b1c31c79277b531e88246c7517971b85d90602001610c03565b6000610f5882846116c0565b9392505050565b6000610f588284611666565b6001600160a01b038316610fcd5760405162461bcd60e51b8152602060048201526024808201527f45524332303a20617070726f76652066726f6d20746865207a65726f206164646044820152637265737360e01b606482015260840161067e565b6001600160a01b03821661102e5760405162461bcd60e51b815260206004820152602260248201527f45524332303a20617070726f766520746f20746865207a65726f206164647265604482015261737360f01b606482015260840161067e565b6001600160a01b0383811660008181526001602090815260408083209487168084529482529182902085905590518481527f8c5be1e5ebec7d5bd14f71427d1e84f3dd0314c0f7b2291e5b200ac8c7c3b925910160405180910390a3505050565b600061109b8484610b34565b9050600019811461110357818110156110f65760405162461bcd60e51b815260206004820152601d60248201527f45524332303a20696e73756666696369656e7420616c6c6f77616e6365000000604482015260640161067e565b6111038484848403610f6b565b50505050565b6001600160a01b03831661116d5760405162461bcd60e51b815260206004820152602560248201527f45524332303a207472616e736665722066726f6d20746865207a65726f206164604482015264647265737360d81b606482015260840161067e565b6001600160a01b0382166111cf5760405162461bcd60e51b815260206004820152602360248201527f45524332303a207472616e7366657220746f20746865207a65726f206164647260448201526265737360e81b606482015260840161067e565b6001600160a01b038316600090815260208190526040902054818110156112475760405162461bcd60e51b815260206004820152602660248201527f45524332303a207472616e7366657220616d6f756e7420657863656564732062604482015265616c616e636560d01b606482015260840161067e565b6001600160a01b0380851660009081526020819052604080822085850390559185168152908120805484929061127e90849061153f565b92505081905550826001600160a01b0316846001600160a01b03167fddf252ad1be2c89b69c2b068fc378daa952ba7f163c4a11628f55a4df523b3ef846040516112ca91815260200190565b60405180910390a3611103565b600060208083528351808285015260005b81811015611304578581018301518582016040015282016112e8565b81811115611316576000604083870101525b50601f01601f1916929092016040019392505050565b6001600160a01b038116811461134157600080fd5b50565b6000806040838503121561135757600080fd5b82356113628161132c565b946020939093013593505050565b60008060006060848603121561138557600080fd5b83356113908161132c565b925060208401356113a08161132c565b929592945050506040919091013590565b6000602082840312156113c357600080fd5b5035919050565b6000602082840312156113dc57600080fd5b8135610f588161132c565b6000806000606084860312156113fc57600080fd5b833592506020840135915060408401356114158161132c565b809150509250925092565b6000806000806080858703121561143657600080fd5b84356114418161132c565b93506020850135925060408501359150606085013561145f8161132c565b939692955090935050565b6000806040838503121561147d57600080fd5b82356114888161132c565b915060208301356114988161132c565b809150509250929050565b600080604083850312156114b657600080fd5b50508035926020909101359150565b600181811c908216806114d957607f821691505b6020821081036114f957634e487b7160e01b600052602260045260246000fd5b50919050565b60208082526010908201526f31b0b63632b9103737ba1037bbb732b960811b604082015260600190565b634e487b7160e01b600052601160045260246000fd5b6000821982111561155257611552611529565b500190565b6020808252600590820152645a65726f2160d81b604082015260600190565b600181815b808511156115b157816000190482111561159757611597611529565b808516156115a457918102915b93841c939080029061157b565b509250929050565b6000826115c85750600161062a565b816115d55750600061062a565b81600181146115eb57600281146115f557611611565b600191505061062a565b60ff84111561160657611606611529565b50506001821b61062a565b5060208310610133831016604e8410600b8410161715611634575081810a61062a565b61163e8383611576565b806000190482111561165257611652611529565b029392505050565b6000610f5883836115b9565b600081600019048311821515161561168057611680611529565b500290565b60006020828403121561169757600080fd5b81518015158114610f5857600080fd5b6000600182016116b9576116b9611529565b5060010190565b6000826116dd57634e487b7160e01b600052601260045260246000fd5b50049056fea26469706673582212200a963f3f13e8d262ea5b3eefd0d43cb3fd0d3285657c6dd13917b2294ea3dbe064736f6c634300080f0033",
					"opcodes": "PUSH1 0x80 PUSH1 0x40 MSTORE PUSH1 0x7 DUP1 SLOAD PUSH1 0x1 PUSH1 0x1 PUSH1 0xA0 SHL SUB NOT AND PUSH2 0xDEAD OR SWAP1 SSTORE PUSH3 0x21 PUSH1 0x12 SWAP1 JUMP JUMPDEST PUSH3 0x2E SWAP1 PUSH1 0xA PUSH3 0x3A1 JUMP JUMPDEST PUSH1 0xC DUP2 SWAP1 SSTORE PUSH3 0x40 SWAP1 PUSH1 0x14 PUSH3 0x3B2 JUMP JUMPDEST PUSH1 0xD SSTORE PUSH3 0x60 PUSH1 0x64 PUSH1 0xD SLOAD PUSH3 0x17C PUSH1 0x20 SHL PUSH3 0xF4C OR SWAP1 SWAP2 SWAP1 PUSH1 0x20 SHR JUMP JUMPDEST PUSH1 0xE SSTORE PUSH3 0xF4240 PUSH1 0xF SSTORE PUSH1 0xC SLOAD PUSH3 0x7D SWAP1 PUSH4 0x1DCD6500 PUSH3 0x3B2 JUMP JUMPDEST PUSH1 0x10 SSTORE PUSH1 0x40 MLOAD DUP1 PUSH1 0x40 ADD PUSH1 0x40 MSTORE DUP1 PUSH1 0x8 DUP2 MSTORE PUSH1 0x20 ADD PUSH8 0x4D65746163636573 PUSH1 0xC0 SHL DUP2 MSTORE POP PUSH1 0x40 MLOAD DUP1 PUSH1 0x40 ADD PUSH1 0x40 MSTORE DUP1 PUSH1 0x5 DUP2 MSTORE PUSH1 0x20 ADD PUSH5 0x4163636573 PUSH1 0xD8 SHL DUP2 MSTORE POP DUP2 PUSH1 0x3 SWAP1 DUP2 PUSH3 0xD0 SWAP2 SWAP1 PUSH3 0x478 JUMP JUMPDEST POP PUSH1 0x4 PUSH3 0xDF DUP3 DUP3 PUSH3 0x478 JUMP JUMPDEST POP POP PUSH1 0x5 DUP1 SLOAD CALLER PUSH1 0x1 PUSH1 0x1 PUSH1 0xA0 SHL SUB NOT SWAP1 SWAP2 AND OR DUP2 SSTORE PUSH1 0x10 SLOAD PUSH3 0x13A SWAP3 POP ADDRESS SWAP2 PUSH3 0x134 SWAP2 PUSH1 0x64 SWAP2 PUSH3 0x120 SWAP2 SWAP1 PUSH3 0x193 PUSH1 0x20 SWAP1 DUP2 SHL PUSH3 0xF5F OR SWAP1 SHR JUMP JUMPDEST PUSH3 0x17C PUSH1 0x20 SHL PUSH3 0xF4C OR SWAP1 SWAP2 SWAP1 PUSH1 0x20 SHR JUMP JUMPDEST PUSH3 0x1A1 JUMP JUMPDEST PUSH3 0x176 PUSH20 0xC6E5347D1A5FE685160429705E9E26BD3BBA8FEA PUSH3 0x134 PUSH1 0x64 PUSH3 0x120 PUSH1 0x5F PUSH1 0x10 SLOAD PUSH3 0x193 PUSH1 0x20 SHL PUSH3 0xF5F OR SWAP1 SWAP2 SWAP1 PUSH1 0x20 SHR JUMP JUMPDEST PUSH3 0x582 JUMP JUMPDEST PUSH1 0x0 PUSH3 0x18A DUP3 DUP5 PUSH3 0x544 JUMP JUMPDEST SWAP1 POP JUMPDEST SWAP3 SWAP2 POP POP JUMP JUMPDEST PUSH1 0x0 PUSH3 0x18A DUP3 DUP5 PUSH3 0x3B2 JUMP JUMPDEST PUSH1 0x1 PUSH1 0x1 PUSH1 0xA0 SHL SUB DUP3 AND PUSH3 0x1FC JUMPI PUSH1 0x40 MLOAD PUSH3 0x461BCD PUSH1 0xE5 SHL DUP2 MSTORE PUSH1 0x20 PUSH1 0x4 DUP3 ADD MSTORE PUSH1 0x1F PUSH1 0x24 DUP3 ADD MSTORE PUSH32 0x45524332303A206D696E7420746F20746865207A65726F206164647265737300 PUSH1 0x44 DUP3 ADD MSTORE PUSH1 0x64 ADD PUSH1 0x40 MLOAD DUP1 SWAP2 SUB SWAP1 REVERT JUMPDEST DUP1 PUSH1 0x2 PUSH1 0x0 DUP3 DUP3 SLOAD PUSH3 0x210 SWAP2 SWAP1 PUSH3 0x567 JUMP JUMPDEST SWAP1 SWAP2 SSTORE POP POP PUSH1 0x1 PUSH1 0x1 PUSH1 0xA0 SHL SUB DUP3 AND PUSH1 0x0 SWAP1 DUP2 MSTORE PUSH1 0x20 DUP2 SWAP1 MSTORE PUSH1 0x40 DUP2 KECCAK256 DUP1 SLOAD DUP4 SWAP3 SWAP1 PUSH3 0x23F SWAP1 DUP5 SWAP1 PUSH3 0x567 JUMP JUMPDEST SWAP1 SWAP2 SSTORE POP POP PUSH1 0x40 MLOAD DUP2 DUP2 MSTORE PUSH1 0x1 PUSH1 0x1 PUSH1 0xA0 SHL SUB DUP4 AND SWAP1 PUSH1 0x0 SWAP1 PUSH32 0xDDF252AD1BE2C89B69C2B068FC378DAA952BA7F163C4A11628F55A4DF523B3EF SWAP1 PUSH1 0x20 ADD PUSH1 0x40 MLOAD DUP1 SWAP2 SUB SWAP1 LOG3 POP POP JUMP JUMPDEST POP POP POP JUMP JUMPDEST PUSH4 0x4E487B71 PUSH1 0xE0 SHL PUSH1 0x0 MSTORE PUSH1 0x11 PUSH1 0x4 MSTORE PUSH1 0x24 PUSH1 0x0 REVERT JUMPDEST PUSH1 0x1 DUP2 DUP2 JUMPDEST DUP1 DUP6 GT ISZERO PUSH3 0x2E5 JUMPI DUP2 PUSH1 0x0 NOT DIV DUP3 GT ISZERO PUSH3 0x2C9 JUMPI PUSH3 0x2C9 PUSH3 0x28E JUMP JUMPDEST DUP1 DUP6 AND ISZERO PUSH3 0x2D7 JUMPI SWAP2 DUP2 MUL SWAP2 JUMPDEST SWAP4 DUP5 SHR SWAP4 SWAP1 DUP1 MUL SWAP1 PUSH3 0x2A9 JUMP JUMPDEST POP SWAP3 POP SWAP3 SWAP1 POP JUMP JUMPDEST PUSH1 0x0 DUP3 PUSH3 0x2FE JUMPI POP PUSH1 0x1 PUSH3 0x18D JUMP JUMPDEST DUP2 PUSH3 0x30D JUMPI POP PUSH1 0x0 PUSH3 0x18D JUMP JUMPDEST DUP2 PUSH1 0x1 DUP2 EQ PUSH3 0x326 JUMPI PUSH1 0x2 DUP2 EQ PUSH3 0x331 JUMPI PUSH3 0x351 JUMP JUMPDEST PUSH1 0x1 SWAP2 POP POP PUSH3 0x18D JUMP JUMPDEST PUSH1 0xFF DUP5 GT ISZERO PUSH3 0x345 JUMPI PUSH3 0x345 PUSH3 0x28E JUMP JUMPDEST POP POP PUSH1 0x1 DUP3 SHL PUSH3 0x18D JUMP JUMPDEST POP PUSH1 0x20 DUP4 LT PUSH2 0x133 DUP4 LT AND PUSH1 0x4E DUP5 LT PUSH1 0xB DUP5 LT AND OR ISZERO PUSH3 0x376 JUMPI POP DUP2 DUP2 EXP PUSH3 0x18D JUMP JUMPDEST PUSH3 0x382 DUP4 DUP4 PUSH3 0x2A4 JUMP JUMPDEST DUP1 PUSH1 0x0 NOT DIV DUP3 GT ISZERO PUSH3 0x399 JUMPI PUSH3 0x399 PUSH3 0x28E JUMP JUMPDEST MUL SWAP4 SWAP3 POP POP POP JUMP JUMPDEST PUSH1 0x0 PUSH3 0x18A PUSH1 0xFF DUP5 AND DUP4 PUSH3 0x2ED JUMP JUMPDEST PUSH1 0x0 DUP2 PUSH1 0x0 NOT DIV DUP4 GT DUP3 ISZERO ISZERO AND ISZERO PUSH3 0x3CF JUMPI PUSH3 0x3CF PUSH3 0x28E JUMP JUMPDEST POP MUL SWAP1 JUMP JUMPDEST PUSH4 0x4E487B71 PUSH1 0xE0 SHL PUSH1 0x0 MSTORE PUSH1 0x41 PUSH1 0x4 MSTORE PUSH1 0x24 PUSH1 0x0 REVERT JUMPDEST PUSH1 0x1 DUP2 DUP2 SHR SWAP1 DUP3 AND DUP1 PUSH3 0x3FF JUMPI PUSH1 0x7F DUP3 AND SWAP2 POP JUMPDEST PUSH1 0x20 DUP3 LT DUP2 SUB PUSH3 0x420 JUMPI PUSH4 0x4E487B71 PUSH1 0xE0 SHL PUSH1 0x0 MSTORE PUSH1 0x22 PUSH1 0x4 MSTORE PUSH1 0x24 PUSH1 0x0 REVERT JUMPDEST POP SWAP2 SWAP1 POP JUMP JUMPDEST PUSH1 0x1F DUP3 GT ISZERO PUSH3 0x289 JUMPI PUSH1 0x0 DUP2 DUP2 MSTORE PUSH1 0x20 DUP2 KECCAK256 PUSH1 0x1F DUP6 ADD PUSH1 0x5 SHR DUP2 ADD PUSH1 0x20 DUP7 LT ISZERO PUSH3 0x44F JUMPI POP DUP1 JUMPDEST PUSH1 0x1F DUP6 ADD PUSH1 0x5 SHR DUP3 ADD SWAP2 POP JUMPDEST DUP2 DUP2 LT ISZERO PUSH3 0x470 JUMPI DUP3 DUP2 SSTORE PUSH1 0x1 ADD PUSH3 0x45B JUMP JUMPDEST POP POP POP POP POP POP JUMP JUMPDEST DUP2 MLOAD PUSH1 0x1 PUSH1 0x1 PUSH1 0x40 SHL SUB DUP2 GT ISZERO PUSH3 0x494 JUMPI PUSH3 0x494 PUSH3 0x3D4 JUMP JUMPDEST PUSH3 0x4AC DUP2 PUSH3 0x4A5 DUP5 SLOAD PUSH3 0x3EA JUMP JUMPDEST DUP5 PUSH3 0x426 JUMP JUMPDEST PUSH1 0x20 DUP1 PUSH1 0x1F DUP4 GT PUSH1 0x1 DUP2 EQ PUSH3 0x4E4 JUMPI PUSH1 0x0 DUP5 ISZERO PUSH3 0x4CB JUMPI POP DUP6 DUP4 ADD MLOAD JUMPDEST PUSH1 0x0 NOT PUSH1 0x3 DUP7 SWAP1 SHL SHR NOT AND PUSH1 0x1 DUP6 SWAP1 SHL OR DUP6 SSTORE PUSH3 0x470 JUMP JUMPDEST PUSH1 0x0 DUP6 DUP2 MSTORE PUSH1 0x20 DUP2 KECCAK256 PUSH1 0x1F NOT DUP7 AND SWAP2 JUMPDEST DUP3 DUP2 LT ISZERO PUSH3 0x515 JUMPI DUP9 DUP7 ADD MLOAD DUP3 SSTORE SWAP5 DUP5 ADD SWAP5 PUSH1 0x1 SWAP1 SWAP2 ADD SWAP1 DUP5 ADD PUSH3 0x4F4 JUMP JUMPDEST POP DUP6 DUP3 LT ISZERO PUSH3 0x534 JUMPI DUP8 DUP6 ADD MLOAD PUSH1 0x0 NOT PUSH1 0x3 DUP9 SWAP1 SHL PUSH1 0xF8 AND SHR NOT AND DUP2 SSTORE JUMPDEST POP POP POP POP POP PUSH1 0x1 SWAP1 DUP2 SHL ADD SWAP1 SSTORE POP JUMP JUMPDEST PUSH1 0x0 DUP3 PUSH3 0x562 JUMPI PUSH4 0x4E487B71 PUSH1 0xE0 SHL PUSH1 0x0 MSTORE PUSH1 0x12 PUSH1 0x4 MSTORE PUSH1 0x24 PUSH1 0x0 REVERT JUMPDEST POP DIV SWAP1 JUMP JUMPDEST PUSH1 0x0 DUP3 NOT DUP3 GT ISZERO PUSH3 0x57D JUMPI PUSH3 0x57D PUSH3 0x28E JUMP JUMPDEST POP ADD SWAP1 JUMP JUMPDEST PUSH2 0x1718 DUP1 PUSH3 0x592 PUSH1 0x0 CODECOPY PUSH1 0x0 RETURN INVALID PUSH1 0x80 PUSH1 0x40 MSTORE PUSH1 0x4 CALLDATASIZE LT PUSH2 0x1C6 JUMPI PUSH1 0x0 CALLDATALOAD PUSH1 0xE0 SHR DUP1 PUSH4 0x8DD14802 GT PUSH2 0xF7 JUMPI DUP1 PUSH4 0xDD62ED3E GT PUSH2 0x95 JUMPI DUP1 PUSH4 0xE7D53FCB GT PUSH2 0x64 JUMPI DUP1 PUSH4 0xE7D53FCB EQ PUSH2 0x51B JUMPI DUP1 PUSH4 0xF2FDE38B EQ PUSH2 0x52E JUMPI DUP1 PUSH4 0xF4F3122E EQ PUSH2 0x54E JUMPI DUP1 PUSH4 0xF8897945 EQ PUSH2 0x56E JUMPI PUSH1 0x0 DUP1 REVERT JUMPDEST DUP1 PUSH4 0xDD62ED3E EQ PUSH2 0x49D JUMPI DUP1 PUSH4 0xDEEA800D EQ PUSH2 0x4BD JUMPI DUP1 PUSH4 0xE181203A EQ PUSH2 0x4D3 JUMPI DUP1 PUSH4 0xE4993D8C EQ PUSH2 0x4F3 JUMPI PUSH1 0x0 DUP1 REVERT JUMPDEST DUP1 PUSH4 0xA9059CBB GT PUSH2 0xD1 JUMPI DUP1 PUSH4 0xA9059CBB EQ PUSH2 0x427 JUMPI DUP1 PUSH4 0xADBC7CEE EQ PUSH2 0x447 JUMPI DUP1 PUSH4 0xB2938BEE EQ PUSH2 0x467 JUMPI DUP1 PUSH4 0xD5ABEB01 EQ PUSH2 0x487 JUMPI PUSH1 0x0 DUP1 REVERT JUMPDEST DUP1 PUSH4 0x8DD14802 EQ PUSH2 0x3D2 JUMPI DUP1 PUSH4 0x95D89B41 EQ PUSH2 0x3F2 JUMPI DUP1 PUSH4 0xA457C2D7 EQ PUSH2 0x407 JUMPI PUSH1 0x0 DUP1 REVERT JUMPDEST DUP1 PUSH4 0x39509351 GT PUSH2 0x164 JUMPI DUP1 PUSH4 0x534B1442 GT PUSH2 0x13E JUMPI DUP1 PUSH4 0x534B1442 EQ PUSH2 0x346 JUMPI DUP1 PUSH4 0x5FA2EF10 EQ PUSH2 0x366 JUMPI DUP1 PUSH4 0x6AC5DB19 EQ PUSH2 0x386 JUMPI DUP1 PUSH4 0x70A08231 EQ PUSH2 0x39C JUMPI PUSH1 0x0 DUP1 REVERT JUMPDEST DUP1 PUSH4 0x39509351 EQ PUSH2 0x2D7 JUMPI DUP1 PUSH4 0x3C3B7995 EQ PUSH2 0x2F7 JUMPI DUP1 PUSH4 0x4D1D03D1 EQ PUSH2 0x30D JUMPI PUSH1 0x0 DUP1 REVERT JUMPDEST DUP1 PUSH4 0x23B872DD GT PUSH2 0x1A0 JUMPI DUP1 PUSH4 0x23B872DD EQ PUSH2 0x24C JUMPI DUP1 PUSH4 0x27C8F835 EQ PUSH2 0x26C JUMPI DUP1 PUSH4 0x313CE567 EQ PUSH2 0x2A4 JUMPI DUP1 PUSH4 0x380D831B EQ PUSH2 0x2C0 JUMPI PUSH1 0x0 DUP1 REVERT JUMPDEST DUP1 PUSH4 0x6FDDE03 EQ PUSH2 0x1D2 JUMPI DUP1 PUSH4 0x95EA7B3 EQ PUSH2 0x1FD JUMPI DUP1 PUSH4 0x18160DDD EQ PUSH2 0x22D JUMPI PUSH1 0x0 DUP1 REVERT JUMPDEST CALLDATASIZE PUSH2 0x1CD JUMPI STOP JUMPDEST PUSH1 0x0 DUP1 REVERT JUMPDEST CALLVALUE DUP1 ISZERO PUSH2 0x1DE JUMPI PUSH1 0x0 DUP1 REVERT JUMPDEST POP PUSH2 0x1E7 PUSH2 0x584 JUMP JUMPDEST PUSH1 0x40 MLOAD PUSH2 0x1F4 SWAP2 SWAP1 PUSH2 0x12D7 JUMP JUMPDEST PUSH1 0x40 MLOAD DUP1 SWAP2 SUB SWAP1 RETURN JUMPDEST CALLVALUE DUP1 ISZERO PUSH2 0x209 JUMPI PUSH1 0x0 DUP1 REVERT JUMPDEST POP PUSH2 0x21D PUSH2 0x218 CALLDATASIZE PUSH1 0x4 PUSH2 0x1344 JUMP JUMPDEST PUSH2 0x616 JUMP JUMPDEST PUSH1 0x40 MLOAD SWAP1 ISZERO ISZERO DUP2 MSTORE PUSH1 0x20 ADD PUSH2 0x1F4 JUMP JUMPDEST CALLVALUE DUP1 ISZERO PUSH2 0x239 JUMPI PUSH1 0x0 DUP1 REVERT JUMPDEST POP PUSH1 0x2 SLOAD JUMPDEST PUSH1 0x40 MLOAD SWAP1 DUP2 MSTORE PUSH1 0x20 ADD PUSH2 0x1F4 JUMP JUMPDEST CALLVALUE DUP1 ISZERO PUSH2 0x258 JUMPI PUSH1 0x0 DUP1 REVERT JUMPDEST POP PUSH2 0x21D PUSH2 0x267 CALLDATASIZE PUSH1 0x4 PUSH2 0x1370 JUMP JUMPDEST PUSH2 0x630 JUMP JUMPDEST CALLVALUE DUP1 ISZERO PUSH2 0x278 JUMPI PUSH1 0x0 DUP1 REVERT JUMPDEST POP PUSH1 0x7 SLOAD PUSH2 0x28C SWAP1 PUSH1 0x1 PUSH1 0x1 PUSH1 0xA0 SHL SUB AND DUP2 JUMP JUMPDEST PUSH1 0x40 MLOAD PUSH1 0x1 PUSH1 0x1 PUSH1 0xA0 SHL SUB SWAP1 SWAP2 AND DUP2 MSTORE PUSH1 0x20 ADD PUSH2 0x1F4 JUMP JUMPDEST CALLVALUE DUP1 ISZERO PUSH2 0x2B0 JUMPI PUSH1 0x0 DUP1 REVERT JUMPDEST POP PUSH1 0x40 MLOAD PUSH1 0x12 DUP2 MSTORE PUSH1 0x20 ADD PUSH2 0x1F4 JUMP JUMPDEST CALLVALUE DUP1 ISZERO PUSH2 0x2CC JUMPI PUSH1 0x0 DUP1 REVERT JUMPDEST POP PUSH2 0x2D5 PUSH2 0x654 JUMP JUMPDEST STOP JUMPDEST CALLVALUE DUP1 ISZERO PUSH2 0x2E3 JUMPI PUSH1 0x0 DUP1 REVERT JUMPDEST POP PUSH2 0x21D PUSH2 0x2F2 CALLDATASIZE PUSH1 0x4 PUSH2 0x1344 JUMP JUMPDEST PUSH2 0x6C0 JUMP JUMPDEST CALLVALUE DUP1 ISZERO PUSH2 0x303 JUMPI PUSH1 0x0 DUP1 REVERT JUMPDEST POP PUSH2 0x23E PUSH1 0xF SLOAD DUP2 JUMP JUMPDEST CALLVALUE DUP1 ISZERO PUSH2 0x319 JUMPI PUSH1 0x0 DUP1 REVERT JUMPDEST POP PUSH1 0x8 SLOAD PUSH1 0x9 SLOAD PUSH1 0xA SLOAD PUSH1 0xB SLOAD PUSH1 0x40 DUP1 MLOAD SWAP5 DUP6 MSTORE PUSH1 0x20 DUP6 ADD SWAP4 SWAP1 SWAP4 MSTORE SWAP2 DUP4 ADD MSTORE PUSH1 0x60 DUP3 ADD MSTORE PUSH1 0x80 ADD PUSH2 0x1F4 JUMP JUMPDEST CALLVALUE DUP1 ISZERO PUSH2 0x352 JUMPI PUSH1 0x0 DUP1 REVERT JUMPDEST POP PUSH2 0x2D5 PUSH2 0x361 CALLDATASIZE PUSH1 0x4 PUSH2 0x13B1 JUMP JUMPDEST PUSH2 0x6E2 JUMP JUMPDEST CALLVALUE DUP1 ISZERO PUSH2 0x372 JUMPI PUSH1 0x0 DUP1 REVERT JUMPDEST POP PUSH1 0x6 SLOAD PUSH2 0x28C SWAP1 PUSH1 0x1 PUSH1 0x1 PUSH1 0xA0 SHL SUB AND DUP2 JUMP JUMPDEST CALLVALUE DUP1 ISZERO PUSH2 0x392 JUMPI PUSH1 0x0 DUP1 REVERT JUMPDEST POP PUSH2 0x23E PUSH1 0xD SLOAD DUP2 JUMP JUMPDEST CALLVALUE DUP1 ISZERO PUSH2 0x3A8 JUMPI PUSH1 0x0 DUP1 REVERT JUMPDEST POP PUSH2 0x23E PUSH2 0x3B7 CALLDATASIZE PUSH1 0x4 PUSH2 0x13CA JUMP JUMPDEST PUSH1 0x1 PUSH1 0x1 PUSH1 0xA0 SHL SUB AND PUSH1 0x0 SWAP1 DUP2 MSTORE PUSH1 0x20 DUP2 SWAP1 MSTORE PUSH1 0x40 SWAP1 KECCAK256 SLOAD SWAP1 JUMP JUMPDEST CALLVALUE DUP1 ISZERO PUSH2 0x3DE JUMPI PUSH1 0x0 DUP1 REVERT JUMPDEST POP PUSH2 0x2D5 PUSH2 0x3ED CALLDATASIZE PUSH1 0x4 PUSH2 0x13CA JUMP JUMPDEST PUSH2 0x767 JUMP JUMPDEST CALLVALUE DUP1 ISZERO PUSH2 0x3FE JUMPI PUSH1 0x0 DUP1 REVERT JUMPDEST POP PUSH2 0x1E7 PUSH2 0x7EF JUMP JUMPDEST CALLVALUE DUP1 ISZERO PUSH2 0x413 JUMPI PUSH1 0x0 DUP1 REVERT JUMPDEST POP PUSH2 0x21D PUSH2 0x422 CALLDATASIZE PUSH1 0x4 PUSH2 0x1344 JUMP JUMPDEST PUSH2 0x7FE JUMP JUMPDEST CALLVALUE DUP1 ISZERO PUSH2 0x433 JUMPI PUSH1 0x0 DUP1 REVERT JUMPDEST POP PUSH2 0x21D PUSH2 0x442 CALLDATASIZE PUSH1 0x4 PUSH2 0x1344 JUMP JUMPDEST PUSH2 0x879 JUMP JUMPDEST CALLVALUE DUP1 ISZERO PUSH2 0x453 JUMPI PUSH1 0x0 DUP1 REVERT JUMPDEST POP PUSH2 0x2D5 PUSH2 0x462 CALLDATASIZE PUSH1 0x4 PUSH2 0x13E7 JUMP JUMPDEST PUSH2 0x887 JUMP JUMPDEST CALLVALUE DUP1 ISZERO PUSH2 0x473 JUMPI PUSH1 0x0 DUP1 REVERT JUMPDEST POP PUSH2 0x2D5 PUSH2 0x482 CALLDATASIZE PUSH1 0x4 PUSH2 0x1420 JUMP JUMPDEST PUSH2 0x9CF JUMP JUMPDEST CALLVALUE DUP1 ISZERO PUSH2 0x493 JUMPI PUSH1 0x0 DUP1 REVERT JUMPDEST POP PUSH2 0x23E PUSH1 0x10 SLOAD DUP2 JUMP JUMPDEST CALLVALUE DUP1 ISZERO PUSH2 0x4A9 JUMPI PUSH1 0x0 DUP1 REVERT JUMPDEST POP PUSH2 0x23E PUSH2 0x4B8 CALLDATASIZE PUSH1 0x4 PUSH2 0x146A JUMP JUMPDEST PUSH2 0xB34 JUMP JUMPDEST CALLVALUE DUP1 ISZERO PUSH2 0x4C9 JUMPI PUSH1 0x0 DUP1 REVERT JUMPDEST POP PUSH2 0x23E PUSH1 0xC SLOAD DUP2 JUMP JUMPDEST CALLVALUE DUP1 ISZERO PUSH2 0x4DF JUMPI PUSH1 0x0 DUP1 REVERT JUMPDEST POP PUSH2 0x2D5 PUSH2 0x4EE CALLDATASIZE PUSH1 0x4 PUSH2 0x14A3 JUMP JUMPDEST PUSH2 0xB5F JUMP JUMPDEST CALLVALUE DUP1 ISZERO PUSH2 0x4FF JUMPI PUSH1 0x0 DUP1 REVERT JUMPDEST POP PUSH2 0x28C PUSH20 0xC6E5347D1A5FE685160429705E9E26BD3BBA8FEA DUP2 JUMP JUMPDEST PUSH2 0x21D PUSH2 0x529 CALLDATASIZE PUSH1 0x4 PUSH2 0x13CA JUMP JUMPDEST PUSH2 0xC0F JUMP JUMPDEST CALLVALUE DUP1 ISZERO PUSH2 0x53A JUMPI PUSH1 0x0 DUP1 REVERT JUMPDEST POP PUSH2 0x2D5 PUSH2 0x549 CALLDATASIZE PUSH1 0x4 PUSH2 0x13CA JUMP JUMPDEST PUSH2 0xE03 JUMP JUMPDEST CALLVALUE DUP1 ISZERO PUSH2 0x55A JUMPI PUSH1 0x0 DUP1 REVERT JUMPDEST POP PUSH2 0x2D5 PUSH2 0x569 CALLDATASIZE PUSH1 0x4 PUSH2 0x14A3 JUMP JUMPDEST PUSH2 0xEBE JUMP JUMPDEST CALLVALUE DUP1 ISZERO PUSH2 0x57A JUMPI PUSH1 0x0 DUP1 REVERT JUMPDEST POP PUSH2 0x23E PUSH1 0xE SLOAD DUP2 JUMP JUMPDEST PUSH1 0x60 PUSH1 0x3 DUP1 SLOAD PUSH2 0x593 SWAP1 PUSH2 0x14C5 JUMP JUMPDEST DUP1 PUSH1 0x1F ADD PUSH1 0x20 DUP1 SWAP2 DIV MUL PUSH1 0x20 ADD PUSH1 0x40 MLOAD SWAP1 DUP2 ADD PUSH1 0x40 MSTORE DUP1 SWAP3 SWAP2 SWAP1 DUP2 DUP2 MSTORE PUSH1 0x20 ADD DUP3 DUP1 SLOAD PUSH2 0x5BF SWAP1 PUSH2 0x14C5 JUMP JUMPDEST DUP1 ISZERO PUSH2 0x60C JUMPI DUP1 PUSH1 0x1F LT PUSH2 0x5E1 JUMPI PUSH2 0x100 DUP1 DUP4 SLOAD DIV MUL DUP4 MSTORE SWAP2 PUSH1 0x20 ADD SWAP2 PUSH2 0x60C JUMP JUMPDEST DUP3 ADD SWAP2 SWAP1 PUSH1 0x0 MSTORE PUSH1 0x20 PUSH1 0x0 KECCAK256 SWAP1 JUMPDEST DUP2 SLOAD DUP2 MSTORE SWAP1 PUSH1 0x1 ADD SWAP1 PUSH1 0x20 ADD DUP1 DUP4 GT PUSH2 0x5EF JUMPI DUP3 SWAP1 SUB PUSH1 0x1F AND DUP3 ADD SWAP2 JUMPDEST POP POP POP POP POP SWAP1 POP SWAP1 JUMP JUMPDEST PUSH1 0x0 CALLER PUSH2 0x624 DUP2 DUP6 DUP6 PUSH2 0xF6B JUMP JUMPDEST PUSH1 0x1 SWAP2 POP POP JUMPDEST SWAP3 SWAP2 POP POP JUMP JUMPDEST PUSH1 0x0 CALLER PUSH2 0x63E DUP6 DUP3 DUP6 PUSH2 0x108F JUMP JUMPDEST PUSH2 0x649 DUP6 DUP6 DUP6 PUSH2 0x1109 JUMP JUMPDEST POP PUSH1 0x1 SWAP5 SWAP4 POP POP POP POP JUMP JUMPDEST PUSH1 0x5 SLOAD PUSH1 0x1 PUSH1 0x1 PUSH1 0xA0 SHL SUB AND CALLER EQ PUSH2 0x687 JUMPI PUSH1 0x40 MLOAD PUSH3 0x461BCD PUSH1 0xE5 SHL DUP2 MSTORE PUSH1 0x4 ADD PUSH2 0x67E SWAP1 PUSH2 0x14FF JUMP JUMPDEST PUSH1 0x40 MLOAD DUP1 SWAP2 SUB SWAP1 REVERT JUMPDEST NUMBER PUSH1 0x9 SSTORE PUSH1 0x40 MLOAD TIMESTAMP DUP2 MSTORE PUSH32 0xB144BE0F16F8D30F2E18EF8F7938D5E90207932D96650E592FF47725716818FB SWAP1 PUSH1 0x20 ADD PUSH1 0x40 MLOAD DUP1 SWAP2 SUB SWAP1 LOG1 JUMP JUMPDEST PUSH1 0x0 CALLER PUSH2 0x624 DUP2 DUP6 DUP6 PUSH2 0x6D3 DUP4 DUP4 PUSH2 0xB34 JUMP JUMPDEST PUSH2 0x6DD SWAP2 SWAP1 PUSH2 0x153F JUMP JUMPDEST PUSH2 0xF6B JUMP JUMPDEST PUSH1 0x5 SLOAD PUSH1 0x1 PUSH1 0x1 PUSH1 0xA0 SHL SUB AND CALLER EQ PUSH2 0x70C JUMPI PUSH1 0x40 MLOAD PUSH3 0x461BCD PUSH1 0xE5 SHL DUP2 MSTORE PUSH1 0x4 ADD PUSH2 0x67E SWAP1 PUSH2 0x14FF JUMP JUMPDEST DUP1 PUSH1 0x0 SUB PUSH2 0x72C JUMPI PUSH1 0x40 MLOAD PUSH3 0x461BCD PUSH1 0xE5 SHL DUP2 MSTORE PUSH1 0x4 ADD PUSH2 0x67E SWAP1 PUSH2 0x1557 JUMP JUMPDEST PUSH1 0xF DUP2 SWAP1 SSTORE PUSH1 0x40 MLOAD DUP2 DUP2 MSTORE PUSH32 0x6D487F3988610155B3A9EF590F8AC170134D24E6505B9DDD3160E34ABAA0EDAF SWAP1 PUSH1 0x20 ADD PUSH1 0x40 MLOAD DUP1 SWAP2 SUB SWAP1 LOG1 POP JUMP JUMPDEST PUSH1 0x5 SLOAD PUSH1 0x1 PUSH1 0x1 PUSH1 0xA0 SHL SUB AND CALLER EQ PUSH2 0x791 JUMPI PUSH1 0x40 MLOAD PUSH3 0x461BCD PUSH1 0xE5 SHL DUP2 MSTORE PUSH1 0x4 ADD PUSH2 0x67E SWAP1 PUSH2 0x14FF JUMP JUMPDEST PUSH1 0x40 MLOAD PUSH1 0x1 PUSH1 0x1 PUSH1 0xA0 SHL SUB DUP3 AND DUP2 MSTORE PUSH32 0xE605AC02EA219003EC58FC9CF4D4B3C5F2D62EC39807B1C63886DDD47A6FCD6E SWAP1 PUSH1 0x20 ADD PUSH1 0x40 MLOAD DUP1 SWAP2 SUB SWAP1 LOG1 PUSH1 0x6 DUP1 SLOAD PUSH1 0x1 PUSH1 0x1 PUSH1 0xA0 SHL SUB NOT AND PUSH1 0x1 PUSH1 0x1 PUSH1 0xA0 SHL SUB SWAP3 SWAP1 SWAP3 AND SWAP2 SWAP1 SWAP2 OR SWAP1 SSTORE JUMP JUMPDEST PUSH1 0x60 PUSH1 0x4 DUP1 SLOAD PUSH2 0x593 SWAP1 PUSH2 0x14C5 JUMP JUMPDEST PUSH1 0x0 CALLER DUP2 PUSH2 0x80C DUP3 DUP7 PUSH2 0xB34 JUMP JUMPDEST SWAP1 POP DUP4 DUP2 LT ISZERO PUSH2 0x86C JUMPI PUSH1 0x40 MLOAD PUSH3 0x461BCD PUSH1 0xE5 SHL DUP2 MSTORE PUSH1 0x20 PUSH1 0x4 DUP3 ADD MSTORE PUSH1 0x25 PUSH1 0x24 DUP3 ADD MSTORE PUSH32 0x45524332303A2064656372656173656420616C6C6F77616E63652062656C6F77 PUSH1 0x44 DUP3 ADD MSTORE PUSH5 0x207A65726F PUSH1 0xD8 SHL PUSH1 0x64 DUP3 ADD MSTORE PUSH1 0x84 ADD PUSH2 0x67E JUMP JUMPDEST PUSH2 0x649 DUP3 DUP7 DUP7 DUP5 SUB PUSH2 0xF6B JUMP JUMPDEST PUSH1 0x0 CALLER PUSH2 0x624 DUP2 DUP6 DUP6 PUSH2 0x1109 JUMP JUMPDEST PUSH1 0x5 SLOAD PUSH1 0x1 PUSH1 0x1 PUSH1 0xA0 SHL SUB AND CALLER EQ PUSH2 0x8B1 JUMPI PUSH1 0x40 MLOAD PUSH3 0x461BCD PUSH1 0xE5 SHL DUP2 MSTORE PUSH1 0x4 ADD PUSH2 0x67E SWAP1 PUSH2 0x14FF JUMP JUMPDEST DUP3 SELFBALANCE LT ISZERO PUSH2 0x8EB JUMPI PUSH1 0x40 MLOAD PUSH3 0x461BCD PUSH1 0xE5 SHL DUP2 MSTORE PUSH1 0x20 PUSH1 0x4 DUP3 ADD MSTORE PUSH1 0x7 PUSH1 0x24 DUP3 ADD MSTORE PUSH7 0x4E6F20424E4221 PUSH1 0xC8 SHL PUSH1 0x44 DUP3 ADD MSTORE PUSH1 0x64 ADD PUSH2 0x67E JUMP JUMPDEST PUSH1 0x1 PUSH1 0x1 PUSH1 0xA0 SHL SUB DUP2 AND PUSH2 0x930 JUMPI PUSH1 0x40 MLOAD PUSH3 0x461BCD PUSH1 0xE5 SHL DUP2 MSTORE PUSH1 0x20 PUSH1 0x4 DUP3 ADD MSTORE PUSH1 0xC PUSH1 0x24 DUP3 ADD MSTORE PUSH12 0x5A65726F2061646472657373 PUSH1 0xA0 SHL PUSH1 0x44 DUP3 ADD MSTORE PUSH1 0x64 ADD PUSH2 0x67E JUMP JUMPDEST PUSH1 0x0 PUSH2 0x93D DUP4 PUSH1 0xA PUSH2 0x165A JUMP JUMPDEST PUSH1 0x40 DUP1 MLOAD DUP7 DUP2 MSTORE PUSH1 0x20 DUP2 ADD DUP7 SWAP1 MSTORE PUSH1 0x1 PUSH1 0x1 PUSH1 0xA0 SHL SUB DUP6 AND DUP2 DUP4 ADD MSTORE SWAP1 MLOAD SWAP2 SWAP3 POP PUSH32 0x4508977418B95BAC209196E03356692C2D8F47957DEC1C15AF1A44CC40D39A04 SWAP2 SWAP1 DUP2 SWAP1 SUB PUSH1 0x60 ADD SWAP1 LOG1 PUSH1 0x1 PUSH1 0x1 PUSH1 0xA0 SHL SUB DUP3 AND PUSH2 0x8FC PUSH2 0x9A0 DUP4 DUP8 PUSH2 0x1666 JUMP JUMPDEST PUSH1 0x40 MLOAD DUP2 ISZERO SWAP1 SWAP3 MUL SWAP2 PUSH1 0x0 DUP2 DUP2 DUP2 DUP6 DUP9 DUP9 CALL SWAP4 POP POP POP POP ISZERO DUP1 ISZERO PUSH2 0x9C8 JUMPI RETURNDATASIZE PUSH1 0x0 DUP1 RETURNDATACOPY RETURNDATASIZE PUSH1 0x0 REVERT JUMPDEST POP POP POP POP POP JUMP JUMPDEST PUSH1 0x5 SLOAD PUSH1 0x1 PUSH1 0x1 PUSH1 0xA0 SHL SUB AND CALLER EQ PUSH2 0x9F9 JUMPI PUSH1 0x40 MLOAD PUSH3 0x461BCD PUSH1 0xE5 SHL DUP2 MSTORE PUSH1 0x4 ADD PUSH2 0x67E SWAP1 PUSH2 0x14FF JUMP JUMPDEST PUSH1 0x1 PUSH1 0x1 PUSH1 0xA0 SHL SUB DUP5 AND PUSH2 0xA3F JUMPI PUSH1 0x40 MLOAD PUSH3 0x461BCD PUSH1 0xE5 SHL DUP2 MSTORE PUSH1 0x20 PUSH1 0x4 DUP3 ADD MSTORE PUSH1 0xD PUSH1 0x24 DUP3 ADD MSTORE PUSH13 0x61646472657373207A65726F21 PUSH1 0x98 SHL PUSH1 0x44 DUP3 ADD MSTORE PUSH1 0x64 ADD PUSH2 0x67E JUMP JUMPDEST PUSH1 0x0 PUSH2 0xA4C DUP4 PUSH1 0xA PUSH2 0x165A JUMP JUMPDEST PUSH1 0x40 DUP1 MLOAD PUSH1 0x1 PUSH1 0x1 PUSH1 0xA0 SHL SUB DUP9 DUP2 AND DUP3 MSTORE PUSH1 0x20 DUP3 ADD DUP9 SWAP1 MSTORE DUP2 DUP4 ADD DUP8 SWAP1 MSTORE DUP6 AND PUSH1 0x60 DUP3 ADD MSTORE SWAP1 MLOAD SWAP2 SWAP3 POP DUP7 SWAP2 PUSH32 0x206CA7F97D46974ED97B981F879B17E9E1FE17EAD63770C806926D28AA5CBD5 SWAP2 DUP2 SWAP1 SUB PUSH1 0x80 ADD SWAP1 LOG1 PUSH1 0x1 PUSH1 0x1 PUSH1 0xA0 SHL SUB DUP2 AND PUSH4 0xA9059CBB DUP5 PUSH2 0xABC DUP6 DUP10 PUSH2 0x1666 JUMP JUMPDEST PUSH1 0x40 MLOAD PUSH1 0x1 PUSH1 0x1 PUSH1 0xE0 SHL SUB NOT PUSH1 0xE0 DUP6 SWAP1 SHL AND DUP2 MSTORE PUSH1 0x1 PUSH1 0x1 PUSH1 0xA0 SHL SUB SWAP1 SWAP3 AND PUSH1 0x4 DUP4 ADD MSTORE PUSH1 0x24 DUP3 ADD MSTORE PUSH1 0x44 ADD PUSH1 0x20 PUSH1 0x40 MLOAD DUP1 DUP4 SUB DUP2 PUSH1 0x0 DUP8 GAS CALL ISZERO DUP1 ISZERO PUSH2 0xB07 JUMPI RETURNDATASIZE PUSH1 0x0 DUP1 RETURNDATACOPY RETURNDATASIZE PUSH1 0x0 REVERT JUMPDEST POP POP POP POP PUSH1 0x40 MLOAD RETURNDATASIZE PUSH1 0x1F NOT PUSH1 0x1F DUP3 ADD AND DUP3 ADD DUP1 PUSH1 0x40 MSTORE POP DUP2 ADD SWAP1 PUSH2 0xB2B SWAP2 SWAP1 PUSH2 0x1685 JUMP JUMPDEST POP POP POP POP POP POP POP JUMP JUMPDEST PUSH1 0x1 PUSH1 0x1 PUSH1 0xA0 SHL SUB SWAP2 DUP3 AND PUSH1 0x0 SWAP1 DUP2 MSTORE PUSH1 0x1 PUSH1 0x20 SWAP1 DUP2 MSTORE PUSH1 0x40 DUP1 DUP4 KECCAK256 SWAP4 SWAP1 SWAP5 AND DUP3 MSTORE SWAP2 SWAP1 SWAP2 MSTORE KECCAK256 SLOAD SWAP1 JUMP JUMPDEST PUSH1 0x5 SLOAD PUSH1 0x1 PUSH1 0x1 PUSH1 0xA0 SHL SUB AND CALLER EQ PUSH2 0xB89 JUMPI PUSH1 0x40 MLOAD PUSH3 0x461BCD PUSH1 0xE5 SHL DUP2 MSTORE PUSH1 0x4 ADD PUSH2 0x67E SWAP1 PUSH2 0x14FF JUMP JUMPDEST DUP2 ISZERO DUP1 ISZERO SWAP1 PUSH2 0xB97 JUMPI POP DUP1 ISZERO ISZERO JUMPDEST PUSH2 0xBB3 JUMPI PUSH1 0x40 MLOAD PUSH3 0x461BCD PUSH1 0xE5 SHL DUP2 MSTORE PUSH1 0x4 ADD PUSH2 0x67E SWAP1 PUSH2 0x1557 JUMP JUMPDEST PUSH1 0xE DUP3 SWAP1 SSTORE PUSH1 0xC SLOAD PUSH2 0xBC5 SWAP1 DUP3 PUSH2 0x1666 JUMP JUMPDEST PUSH1 0xD DUP2 SWAP1 SSTORE PUSH1 0xE SLOAD PUSH1 0x40 MLOAD PUSH32 0x3B06FFD21BEDFB2C375D7B1BCF74CA4FE1AFE205699E39610B3ACED7ADF6B9E9 SWAP3 PUSH2 0xC03 SWAP3 DUP3 MSTORE PUSH1 0x20 DUP3 ADD MSTORE PUSH1 0x40 ADD SWAP1 JUMP JUMPDEST PUSH1 0x40 MLOAD DUP1 SWAP2 SUB SWAP1 LOG1 POP POP JUMP JUMPDEST PUSH1 0x0 PUSH1 0xC SLOAD PUSH1 0xF SLOAD PUSH2 0xC21 SWAP2 SWAP1 PUSH2 0x1666 JUMP JUMPDEST CALLER PUSH1 0x0 SWAP1 DUP2 MSTORE PUSH1 0x20 DUP2 SWAP1 MSTORE PUSH1 0x40 SWAP1 KECCAK256 SLOAD GT ISZERO PUSH2 0xC8B JUMPI PUSH1 0x40 MLOAD PUSH3 0x461BCD PUSH1 0xE5 SHL DUP2 MSTORE PUSH1 0x20 PUSH1 0x4 DUP3 ADD MSTORE PUSH1 0x23 PUSH1 0x24 DUP3 ADD MSTORE PUSH32 0x596F75207265616368656420796F757220707269766174652073616C65206C69 PUSH1 0x44 DUP3 ADD MSTORE PUSH3 0x1B5A5D PUSH1 0xEA SHL PUSH1 0x64 DUP3 ADD MSTORE PUSH1 0x84 ADD PUSH2 0x67E JUMP JUMPDEST NUMBER PUSH1 0x8 SLOAD GT ISZERO DUP1 ISZERO PUSH2 0xC9F JUMPI POP PUSH1 0x9 SLOAD NUMBER GT ISZERO JUMPDEST PUSH2 0xCFF JUMPI PUSH1 0x40 MLOAD PUSH3 0x461BCD PUSH1 0xE5 SHL DUP2 MSTORE PUSH1 0x20 PUSH1 0x4 DUP3 ADD MSTORE PUSH1 0x2B PUSH1 0x24 DUP3 ADD MSTORE PUSH32 0x507269766174652053616C652068617320656E646564206F7220646964206E6F PUSH1 0x44 DUP3 ADD MSTORE PUSH11 0x1D081CDD185C9D081E595D PUSH1 0xAA SHL PUSH1 0x64 DUP3 ADD MSTORE PUSH1 0x84 ADD PUSH2 0x67E JUMP JUMPDEST PUSH1 0xE SLOAD CALLVALUE SWAP1 PUSH1 0x0 SWAP1 DUP3 LT DUP1 ISZERO SWAP1 PUSH2 0xD18 JUMPI POP PUSH1 0xD SLOAD DUP3 GT ISZERO JUMPDEST PUSH2 0xD73 JUMPI PUSH1 0x40 MLOAD PUSH3 0x461BCD PUSH1 0xE5 SHL DUP2 MSTORE PUSH1 0x20 PUSH1 0x4 DUP3 ADD MSTORE PUSH1 0x26 PUSH1 0x24 DUP3 ADD MSTORE PUSH32 0x4C657373207468616E204D696E696D756D206F72204D6F7265207468616E204D PUSH1 0x44 DUP3 ADD MSTORE PUSH6 0x6178696D756D PUSH1 0xD0 SHL PUSH1 0x64 DUP3 ADD MSTORE PUSH1 0x84 ADD PUSH2 0x67E JUMP JUMPDEST PUSH2 0xD9A PUSH8 0xDE0B6B3A7640000 PUSH2 0xD94 DUP5 PUSH1 0xB SLOAD PUSH2 0xF5F SWAP1 SWAP2 SWAP1 PUSH4 0xFFFFFFFF AND JUMP JUMPDEST SWAP1 PUSH2 0xF4C JUMP JUMPDEST PUSH1 0xA DUP1 SLOAD SWAP2 SWAP3 POP PUSH1 0x0 PUSH2 0xDAC DUP4 PUSH2 0x16A7 JUMP JUMPDEST SWAP2 SWAP1 POP SSTORE POP PUSH2 0xDBC ADDRESS CALLER DUP4 PUSH2 0x1109 JUMP JUMPDEST PUSH1 0xB SLOAD PUSH1 0x40 DUP1 MLOAD DUP4 DUP2 MSTORE PUSH1 0x20 DUP2 ADD SWAP3 SWAP1 SWAP3 MSTORE PUSH32 0xB887E151DBFCC06B4CE4F67F9BBEDAEB16AB224E34C6668858D0310C6D18FFC3 SWAP2 ADD PUSH1 0x40 MLOAD DUP1 SWAP2 SUB SWAP1 LOG1 POP PUSH1 0x1 SWAP4 SWAP3 POP POP POP JUMP JUMPDEST PUSH1 0x5 SLOAD PUSH1 0x1 PUSH1 0x1 PUSH1 0xA0 SHL SUB AND CALLER EQ PUSH2 0xE2D JUMPI PUSH1 0x40 MLOAD PUSH3 0x461BCD PUSH1 0xE5 SHL DUP2 MSTORE PUSH1 0x4 ADD PUSH2 0x67E SWAP1 PUSH2 0x14FF JUMP JUMPDEST PUSH1 0x1 PUSH1 0x1 PUSH1 0xA0 SHL SUB DUP2 AND PUSH2 0xE72 JUMPI PUSH1 0x40 MLOAD PUSH3 0x461BCD PUSH1 0xE5 SHL DUP2 MSTORE PUSH1 0x20 PUSH1 0x4 DUP3 ADD MSTORE PUSH1 0xC PUSH1 0x24 DUP3 ADD MSTORE PUSH12 0x5A65726F2061646472657373 PUSH1 0xA0 SHL PUSH1 0x44 DUP3 ADD MSTORE PUSH1 0x64 ADD PUSH2 0x67E JUMP JUMPDEST PUSH1 0x5 DUP1 SLOAD PUSH1 0x1 PUSH1 0x1 PUSH1 0xA0 SHL SUB NOT AND PUSH1 0x1 PUSH1 0x1 PUSH1 0xA0 SHL SUB DUP4 AND SWAP1 DUP2 OR SWAP1 SWAP2 SSTORE PUSH1 0x40 MLOAD DUP2 SWAP1 PUSH32 0x8BE0079C531659141344CD1FD0A4F28419497F9722A3DAAFE3B4186F6B6457E0 SWAP1 PUSH1 0x0 SWAP1 LOG3 POP JUMP JUMPDEST PUSH1 0x5 SLOAD PUSH1 0x1 PUSH1 0x1 PUSH1 0xA0 SHL SUB AND CALLER EQ PUSH2 0xEE8 JUMPI PUSH1 0x40 MLOAD PUSH3 0x461BCD PUSH1 0xE5 SHL DUP2 MSTORE PUSH1 0x4 ADD PUSH2 0x67E SWAP1 PUSH2 0x14FF JUMP JUMPDEST DUP2 ISZERO DUP1 ISZERO SWAP1 PUSH2 0xEF6 JUMPI POP DUP1 ISZERO ISZERO JUMPDEST PUSH2 0xF12 JUMPI PUSH1 0x40 MLOAD PUSH3 0x461BCD PUSH1 0xE5 SHL DUP2 MSTORE PUSH1 0x4 ADD PUSH2 0x67E SWAP1 PUSH2 0x1557 JUMP JUMPDEST PUSH1 0x9 DUP3 SWAP1 SSTORE PUSH1 0xB DUP2 SWAP1 SSTORE PUSH1 0x40 MLOAD DUP3 DUP2 MSTORE PUSH32 0x1DC13BD033E49239661BA80E30AE191B1C31C79277B531E88246C7517971B85D SWAP1 PUSH1 0x20 ADD PUSH2 0xC03 JUMP JUMPDEST PUSH1 0x0 PUSH2 0xF58 DUP3 DUP5 PUSH2 0x16C0 JUMP JUMPDEST SWAP4 SWAP3 POP POP POP JUMP JUMPDEST PUSH1 0x0 PUSH2 0xF58 DUP3 DUP5 PUSH2 0x1666 JUMP JUMPDEST PUSH1 0x1 PUSH1 0x1 PUSH1 0xA0 SHL SUB DUP4 AND PUSH2 0xFCD JUMPI PUSH1 0x40 MLOAD PUSH3 0x461BCD PUSH1 0xE5 SHL DUP2 MSTORE PUSH1 0x20 PUSH1 0x4 DUP3 ADD MSTORE PUSH1 0x24 DUP1 DUP3 ADD MSTORE PUSH32 0x45524332303A20617070726F76652066726F6D20746865207A65726F20616464 PUSH1 0x44 DUP3 ADD MSTORE PUSH4 0x72657373 PUSH1 0xE0 SHL PUSH1 0x64 DUP3 ADD MSTORE PUSH1 0x84 ADD PUSH2 0x67E JUMP JUMPDEST PUSH1 0x1 PUSH1 0x1 PUSH1 0xA0 SHL SUB DUP3 AND PUSH2 0x102E JUMPI PUSH1 0x40 MLOAD PUSH3 0x461BCD PUSH1 0xE5 SHL DUP2 MSTORE PUSH1 0x20 PUSH1 0x4 DUP3 ADD MSTORE PUSH1 0x22 PUSH1 0x24 DUP3 ADD MSTORE PUSH32 0x45524332303A20617070726F766520746F20746865207A65726F206164647265 PUSH1 0x44 DUP3 ADD MSTORE PUSH2 0x7373 PUSH1 0xF0 SHL PUSH1 0x64 DUP3 ADD MSTORE PUSH1 0x84 ADD PUSH2 0x67E JUMP JUMPDEST PUSH1 0x1 PUSH1 0x1 PUSH1 0xA0 SHL SUB DUP4 DUP2 AND PUSH1 0x0 DUP2 DUP2 MSTORE PUSH1 0x1 PUSH1 0x20 SWAP1 DUP2 MSTORE PUSH1 0x40 DUP1 DUP4 KECCAK256 SWAP5 DUP8 AND DUP1 DUP5 MSTORE SWAP5 DUP3 MSTORE SWAP2 DUP3 SWAP1 KECCAK256 DUP6 SWAP1 SSTORE SWAP1 MLOAD DUP5 DUP2 MSTORE PUSH32 0x8C5BE1E5EBEC7D5BD14F71427D1E84F3DD0314C0F7B2291E5B200AC8C7C3B925 SWAP2 ADD PUSH1 0x40 MLOAD DUP1 SWAP2 SUB SWAP1 LOG3 POP POP POP JUMP JUMPDEST PUSH1 0x0 PUSH2 0x109B DUP5 DUP5 PUSH2 0xB34 JUMP JUMPDEST SWAP1 POP PUSH1 0x0 NOT DUP2 EQ PUSH2 0x1103 JUMPI DUP2 DUP2 LT ISZERO PUSH2 0x10F6 JUMPI PUSH1 0x40 MLOAD PUSH3 0x461BCD PUSH1 0xE5 SHL DUP2 MSTORE PUSH1 0x20 PUSH1 0x4 DUP3 ADD MSTORE PUSH1 0x1D PUSH1 0x24 DUP3 ADD MSTORE PUSH32 0x45524332303A20696E73756666696369656E7420616C6C6F77616E6365000000 PUSH1 0x44 DUP3 ADD MSTORE PUSH1 0x64 ADD PUSH2 0x67E JUMP JUMPDEST PUSH2 0x1103 DUP5 DUP5 DUP5 DUP5 SUB PUSH2 0xF6B JUMP JUMPDEST POP POP POP POP JUMP JUMPDEST PUSH1 0x1 PUSH1 0x1 PUSH1 0xA0 SHL SUB DUP4 AND PUSH2 0x116D JUMPI PUSH1 0x40 MLOAD PUSH3 0x461BCD PUSH1 0xE5 SHL DUP2 MSTORE PUSH1 0x20 PUSH1 0x4 DUP3 ADD MSTORE PUSH1 0x25 PUSH1 0x24 DUP3 ADD MSTORE PUSH32 0x45524332303A207472616E736665722066726F6D20746865207A65726F206164 PUSH1 0x44 DUP3 ADD MSTORE PUSH5 0x6472657373 PUSH1 0xD8 SHL PUSH1 0x64 DUP3 ADD MSTORE PUSH1 0x84 ADD PUSH2 0x67E JUMP JUMPDEST PUSH1 0x1 PUSH1 0x1 PUSH1 0xA0 SHL SUB DUP3 AND PUSH2 0x11CF JUMPI PUSH1 0x40 MLOAD PUSH3 0x461BCD PUSH1 0xE5 SHL DUP2 MSTORE PUSH1 0x20 PUSH1 0x4 DUP3 ADD MSTORE PUSH1 0x23 PUSH1 0x24 DUP3 ADD MSTORE PUSH32 0x45524332303A207472616E7366657220746F20746865207A65726F2061646472 PUSH1 0x44 DUP3 ADD MSTORE PUSH3 0x657373 PUSH1 0xE8 SHL PUSH1 0x64 DUP3 ADD MSTORE PUSH1 0x84 ADD PUSH2 0x67E JUMP JUMPDEST PUSH1 0x1 PUSH1 0x1 PUSH1 0xA0 SHL SUB DUP4 AND PUSH1 0x0 SWAP1 DUP2 MSTORE PUSH1 0x20 DUP2 SWAP1 MSTORE PUSH1 0x40 SWAP1 KECCAK256 SLOAD DUP2 DUP2 LT ISZERO PUSH2 0x1247 JUMPI PUSH1 0x40 MLOAD PUSH3 0x461BCD PUSH1 0xE5 SHL DUP2 MSTORE PUSH1 0x20 PUSH1 0x4 DUP3 ADD MSTORE PUSH1 0x26 PUSH1 0x24 DUP3 ADD MSTORE PUSH32 0x45524332303A207472616E7366657220616D6F756E7420657863656564732062 PUSH1 0x44 DUP3 ADD MSTORE PUSH6 0x616C616E6365 PUSH1 0xD0 SHL PUSH1 0x64 DUP3 ADD MSTORE PUSH1 0x84 ADD PUSH2 0x67E JUMP JUMPDEST PUSH1 0x1 PUSH1 0x1 PUSH1 0xA0 SHL SUB DUP1 DUP6 AND PUSH1 0x0 SWAP1 DUP2 MSTORE PUSH1 0x20 DUP2 SWAP1 MSTORE PUSH1 0x40 DUP1 DUP3 KECCAK256 DUP6 DUP6 SUB SWAP1 SSTORE SWAP2 DUP6 AND DUP2 MSTORE SWAP1 DUP2 KECCAK256 DUP1 SLOAD DUP5 SWAP3 SWAP1 PUSH2 0x127E SWAP1 DUP5 SWAP1 PUSH2 0x153F JUMP JUMPDEST SWAP3 POP POP DUP2 SWAP1 SSTORE POP DUP3 PUSH1 0x1 PUSH1 0x1 PUSH1 0xA0 SHL SUB AND DUP5 PUSH1 0x1 PUSH1 0x1 PUSH1 0xA0 SHL SUB AND PUSH32 0xDDF252AD1BE2C89B69C2B068FC378DAA952BA7F163C4A11628F55A4DF523B3EF DUP5 PUSH1 0x40 MLOAD PUSH2 0x12CA SWAP2 DUP2 MSTORE PUSH1 0x20 ADD SWAP1 JUMP JUMPDEST PUSH1 0x40 MLOAD DUP1 SWAP2 SUB SWAP1 LOG3 PUSH2 0x1103 JUMP JUMPDEST PUSH1 0x0 PUSH1 0x20 DUP1 DUP4 MSTORE DUP4 MLOAD DUP1 DUP3 DUP6 ADD MSTORE PUSH1 0x0 JUMPDEST DUP2 DUP2 LT ISZERO PUSH2 0x1304 JUMPI DUP6 DUP2 ADD DUP4 ADD MLOAD DUP6 DUP3 ADD PUSH1 0x40 ADD MSTORE DUP3 ADD PUSH2 0x12E8 JUMP JUMPDEST DUP2 DUP2 GT ISZERO PUSH2 0x1316 JUMPI PUSH1 0x0 PUSH1 0x40 DUP4 DUP8 ADD ADD MSTORE JUMPDEST POP PUSH1 0x1F ADD PUSH1 0x1F NOT AND SWAP3 SWAP1 SWAP3 ADD PUSH1 0x40 ADD SWAP4 SWAP3 POP POP POP JUMP JUMPDEST PUSH1 0x1 PUSH1 0x1 PUSH1 0xA0 SHL SUB DUP2 AND DUP2 EQ PUSH2 0x1341 JUMPI PUSH1 0x0 DUP1 REVERT JUMPDEST POP JUMP JUMPDEST PUSH1 0x0 DUP1 PUSH1 0x40 DUP4 DUP6 SUB SLT ISZERO PUSH2 0x1357 JUMPI PUSH1 0x0 DUP1 REVERT JUMPDEST DUP3 CALLDATALOAD PUSH2 0x1362 DUP2 PUSH2 0x132C JUMP JUMPDEST SWAP5 PUSH1 0x20 SWAP4 SWAP1 SWAP4 ADD CALLDATALOAD SWAP4 POP POP POP JUMP JUMPDEST PUSH1 0x0 DUP1 PUSH1 0x0 PUSH1 0x60 DUP5 DUP7 SUB SLT ISZERO PUSH2 0x1385 JUMPI PUSH1 0x0 DUP1 REVERT JUMPDEST DUP4 CALLDATALOAD PUSH2 0x1390 DUP2 PUSH2 0x132C JUMP JUMPDEST SWAP3 POP PUSH1 0x20 DUP5 ADD CALLDATALOAD PUSH2 0x13A0 DUP2 PUSH2 0x132C JUMP JUMPDEST SWAP3 SWAP6 SWAP3 SWAP5 POP POP POP PUSH1 0x40 SWAP2 SWAP1 SWAP2 ADD CALLDATALOAD SWAP1 JUMP JUMPDEST PUSH1 0x0 PUSH1 0x20 DUP3 DUP5 SUB SLT ISZERO PUSH2 0x13C3 JUMPI PUSH1 0x0 DUP1 REVERT JUMPDEST POP CALLDATALOAD SWAP2 SWAP1 POP JUMP JUMPDEST PUSH1 0x0 PUSH1 0x20 DUP3 DUP5 SUB SLT ISZERO PUSH2 0x13DC JUMPI PUSH1 0x0 DUP1 REVERT JUMPDEST DUP2 CALLDATALOAD PUSH2 0xF58 DUP2 PUSH2 0x132C JUMP JUMPDEST PUSH1 0x0 DUP1 PUSH1 0x0 PUSH1 0x60 DUP5 DUP7 SUB SLT ISZERO PUSH2 0x13FC JUMPI PUSH1 0x0 DUP1 REVERT JUMPDEST DUP4 CALLDATALOAD SWAP3 POP PUSH1 0x20 DUP5 ADD CALLDATALOAD SWAP2 POP PUSH1 0x40 DUP5 ADD CALLDATALOAD PUSH2 0x1415 DUP2 PUSH2 0x132C JUMP JUMPDEST DUP1 SWAP2 POP POP SWAP3 POP SWAP3 POP SWAP3 JUMP JUMPDEST PUSH1 0x0 DUP1 PUSH1 0x0 DUP1 PUSH1 0x80 DUP6 DUP8 SUB SLT ISZERO PUSH2 0x1436 JUMPI PUSH1 0x0 DUP1 REVERT JUMPDEST DUP5 CALLDATALOAD PUSH2 0x1441 DUP2 PUSH2 0x132C JUMP JUMPDEST SWAP4 POP PUSH1 0x20 DUP6 ADD CALLDATALOAD SWAP3 POP PUSH1 0x40 DUP6 ADD CALLDATALOAD SWAP2 POP PUSH1 0x60 DUP6 ADD CALLDATALOAD PUSH2 0x145F DUP2 PUSH2 0x132C JUMP JUMPDEST SWAP4 SWAP7 SWAP3 SWAP6 POP SWAP1 SWAP4 POP POP JUMP JUMPDEST PUSH1 0x0 DUP1 PUSH1 0x40 DUP4 DUP6 SUB SLT ISZERO PUSH2 0x147D JUMPI PUSH1 0x0 DUP1 REVERT JUMPDEST DUP3 CALLDATALOAD PUSH2 0x1488 DUP2 PUSH2 0x132C JUMP JUMPDEST SWAP2 POP PUSH1 0x20 DUP4 ADD CALLDATALOAD PUSH2 0x1498 DUP2 PUSH2 0x132C JUMP JUMPDEST DUP1 SWAP2 POP POP SWAP3 POP SWAP3 SWAP1 POP JUMP JUMPDEST PUSH1 0x0 DUP1 PUSH1 0x40 DUP4 DUP6 SUB SLT ISZERO PUSH2 0x14B6 JUMPI PUSH1 0x0 DUP1 REVERT JUMPDEST POP POP DUP1 CALLDATALOAD SWAP3 PUSH1 0x20 SWAP1 SWAP2 ADD CALLDATALOAD SWAP2 POP JUMP JUMPDEST PUSH1 0x1 DUP2 DUP2 SHR SWAP1 DUP3 AND DUP1 PUSH2 0x14D9 JUMPI PUSH1 0x7F DUP3 AND SWAP2 POP JUMPDEST PUSH1 0x20 DUP3 LT DUP2 SUB PUSH2 0x14F9 JUMPI PUSH4 0x4E487B71 PUSH1 0xE0 SHL PUSH1 0x0 MSTORE PUSH1 0x22 PUSH1 0x4 MSTORE PUSH1 0x24 PUSH1 0x0 REVERT JUMPDEST POP SWAP2 SWAP1 POP JUMP JUMPDEST PUSH1 0x20 DUP1 DUP3 MSTORE PUSH1 0x10 SWAP1 DUP3 ADD MSTORE PUSH16 0x31B0B63632B9103737BA1037BBB732B9 PUSH1 0x81 SHL PUSH1 0x40 DUP3 ADD MSTORE PUSH1 0x60 ADD SWAP1 JUMP JUMPDEST PUSH4 0x4E487B71 PUSH1 0xE0 SHL PUSH1 0x0 MSTORE PUSH1 0x11 PUSH1 0x4 MSTORE PUSH1 0x24 PUSH1 0x0 REVERT JUMPDEST PUSH1 0x0 DUP3 NOT DUP3 GT ISZERO PUSH2 0x1552 JUMPI PUSH2 0x1552 PUSH2 0x1529 JUMP JUMPDEST POP ADD SWAP1 JUMP JUMPDEST PUSH1 0x20 DUP1 DUP3 MSTORE PUSH1 0x5 SWAP1 DUP3 ADD MSTORE PUSH5 0x5A65726F21 PUSH1 0xD8 SHL PUSH1 0x40 DUP3 ADD MSTORE PUSH1 0x60 ADD SWAP1 JUMP JUMPDEST PUSH1 0x1 DUP2 DUP2 JUMPDEST DUP1 DUP6 GT ISZERO PUSH2 0x15B1 JUMPI DUP2 PUSH1 0x0 NOT DIV DUP3 GT ISZERO PUSH2 0x1597 JUMPI PUSH2 0x1597 PUSH2 0x1529 JUMP JUMPDEST DUP1 DUP6 AND ISZERO PUSH2 0x15A4 JUMPI SWAP2 DUP2 MUL SWAP2 JUMPDEST SWAP4 DUP5 SHR SWAP4 SWAP1 DUP1 MUL SWAP1 PUSH2 0x157B JUMP JUMPDEST POP SWAP3 POP SWAP3 SWAP1 POP JUMP JUMPDEST PUSH1 0x0 DUP3 PUSH2 0x15C8 JUMPI POP PUSH1 0x1 PUSH2 0x62A JUMP JUMPDEST DUP2 PUSH2 0x15D5 JUMPI POP PUSH1 0x0 PUSH2 0x62A JUMP JUMPDEST DUP2 PUSH1 0x1 DUP2 EQ PUSH2 0x15EB JUMPI PUSH1 0x2 DUP2 EQ PUSH2 0x15F5 JUMPI PUSH2 0x1611 JUMP JUMPDEST PUSH1 0x1 SWAP2 POP POP PUSH2 0x62A JUMP JUMPDEST PUSH1 0xFF DUP5 GT ISZERO PUSH2 0x1606 JUMPI PUSH2 0x1606 PUSH2 0x1529 JUMP JUMPDEST POP POP PUSH1 0x1 DUP3 SHL PUSH2 0x62A JUMP JUMPDEST POP PUSH1 0x20 DUP4 LT PUSH2 0x133 DUP4 LT AND PUSH1 0x4E DUP5 LT PUSH1 0xB DUP5 LT AND OR ISZERO PUSH2 0x1634 JUMPI POP DUP2 DUP2 EXP PUSH2 0x62A JUMP JUMPDEST PUSH2 0x163E DUP4 DUP4 PUSH2 0x1576 JUMP JUMPDEST DUP1 PUSH1 0x0 NOT DIV DUP3 GT ISZERO PUSH2 0x1652 JUMPI PUSH2 0x1652 PUSH2 0x1529 JUMP JUMPDEST MUL SWAP4 SWAP3 POP POP POP JUMP JUMPDEST PUSH1 0x0 PUSH2 0xF58 DUP4 DUP4 PUSH2 0x15B9 JUMP JUMPDEST PUSH1 0x0 DUP2 PUSH1 0x0 NOT DIV DUP4 GT DUP3 ISZERO ISZERO AND ISZERO PUSH2 0x1680 JUMPI PUSH2 0x1680 PUSH2 0x1529 JUMP JUMPDEST POP MUL SWAP1 JUMP JUMPDEST PUSH1 0x0 PUSH1 0x20 DUP3 DUP5 SUB SLT ISZERO PUSH2 0x1697 JUMPI PUSH1 0x0 DUP1 REVERT JUMPDEST DUP2 MLOAD DUP1 ISZERO ISZERO DUP2 EQ PUSH2 0xF58 JUMPI PUSH1 0x0 DUP1 REVERT JUMPDEST PUSH1 0x0 PUSH1 0x1 DUP3 ADD PUSH2 0x16B9 JUMPI PUSH2 0x16B9 PUSH2 0x1529 JUMP JUMPDEST POP PUSH1 0x1 ADD SWAP1 JUMP JUMPDEST PUSH1 0x0 DUP3 PUSH2 0x16DD JUMPI PUSH4 0x4E487B71 PUSH1 0xE0 SHL PUSH1 0x0 MSTORE PUSH1 0x12 PUSH1 0x4 MSTORE PUSH1 0x24 PUSH1 0x0 REVERT JUMPDEST POP DIV SWAP1 JUMP INVALID LOG2 PUSH5 0x6970667358 0x22 SLT KECCAK256 EXP SWAP7 EXTCODEHASH EXTCODEHASH SGT 0xE8 0xD2 PUSH3 0xEA5B3E 0xEF 0xD0 0xD4 EXTCODECOPY 0xB3 REVERT 0xD ORIGIN DUP6 PUSH6 0x7C6DD13917B2 0x29 0x4E LOG3 0xDB 0xE0 PUSH5 0x736F6C6343 STOP ADDMOD 0xF STOP CALLER "
				},
				"gasEstimates": {
					"creation": {
						"codeDepositCost": "1182400",
						"executionCost": "infinite",
						"totalCost": "infinite"
					},
					"external": {
						"Bridge()": "2404",
						"Path()": "2362",
						"allowance(address,address)": "infinite",
						"approve(address,uint256)": "24668",
						"balanceOf(address)": "2645",
						"changeMinMaxPrivateSale(uint256,uint256)": "52390",
						"deadAddress()": "2405",
						"decimals()": "267",
						"decreaseAllowance(address,uint256)": "27034",
						"endSale()": "25557",
						"increaseAllowance(address,uint256)": "27022",
						"max()": "2384",
						"maxSupply()": "2406",
						"min()": "2405",
						"name()": "infinite",
						"privateLimit()": "2363",
						"privateSale(address)": "infinite",
						"setBridge(address)": "27826",
						"setPrivateLimit(uint256)": "25597",
						"startSale(uint256,uint256)": "47817",
						"symbol()": "infinite",
						"theCompany()": "327",
						"totalSupply()": "2372",
						"transfer(address,uint256)": "51225",
						"transferFrom(address,address,uint256)": "infinite",
						"transferOwnership(address)": "28326",
						"viewSale()": "8736",
						"withdrawalBNB(uint256,uint256,address)": "infinite",
						"withdrawalToken(address,uint256,uint256,address)": "infinite"
					}
				},
				"methodIdentifiers": {
					"Bridge()": "5fa2ef10",
					"Path()": "deea800d",
					"allowance(address,address)": "dd62ed3e",
					"approve(address,uint256)": "095ea7b3",
					"balanceOf(address)": "70a08231",
					"changeMinMaxPrivateSale(uint256,uint256)": "e181203a",
					"deadAddress()": "27c8f835",
					"decimals()": "313ce567",
					"decreaseAllowance(address,uint256)": "a457c2d7",
					"endSale()": "380d831b",
					"increaseAllowance(address,uint256)": "39509351",
					"max()": "6ac5db19",
					"maxSupply()": "d5abeb01",
					"min()": "f8897945",
					"name()": "06fdde03",
					"privateLimit()": "3c3b7995",
					"privateSale(address)": "e7d53fcb",
					"setBridge(address)": "8dd14802",
					"setPrivateLimit(uint256)": "534b1442",
					"startSale(uint256,uint256)": "f4f3122e",
					"symbol()": "95d89b41",
					"theCompany()": "e4993d8c",
					"totalSupply()": "18160ddd",
					"transfer(address,uint256)": "a9059cbb",
					"transferFrom(address,address,uint256)": "23b872dd",
					"transferOwnership(address)": "f2fde38b",
					"viewSale()": "4d1d03d1",
					"withdrawalBNB(uint256,uint256,address)": "adbc7cee",
					"withdrawalToken(address,uint256,uint256,address)": "b2938bee"
				}
			},
			"storageLayout": {
				"storage": [
					{
						"astId": 15,
						"contract": "Contracts/AccessBSC.sol:Metacces",
						"label": "_balances",
						"offset": 0,
						"slot": "0",
						"type": "t_mapping(t_address,t_uint256)"
					},
					{
						"astId": 21,
						"contract": "Contracts/AccessBSC.sol:Metacces",
						"label": "_allowances",
						"offset": 0,
						"slot": "1",
						"type": "t_mapping(t_address,t_mapping(t_address,t_uint256))"
					},
					{
						"astId": 23,
						"contract": "Contracts/AccessBSC.sol:Metacces",
						"label": "_totalSupply",
						"offset": 0,
						"slot": "2",
						"type": "t_uint256"
					},
					{
						"astId": 25,
						"contract": "Contracts/AccessBSC.sol:Metacces",
						"label": "_name",
						"offset": 0,
						"slot": "3",
						"type": "t_string_storage"
					},
					{
						"astId": 27,
						"contract": "Contracts/AccessBSC.sol:Metacces",
						"label": "_symbol",
						"offset": 0,
						"slot": "4",
						"type": "t_string_storage"
					},
					{
						"astId": 1033,
						"contract": "Contracts/AccessBSC.sol:Metacces",
						"label": "owner",
						"offset": 0,
						"slot": "5",
						"type": "t_address"
					},
					{
						"astId": 1035,
						"contract": "Contracts/AccessBSC.sol:Metacces",
						"label": "Bridge",
						"offset": 0,
						"slot": "6",
						"type": "t_address"
					},
					{
						"astId": 1041,
						"contract": "Contracts/AccessBSC.sol:Metacces",
						"label": "deadAddress",
						"offset": 0,
						"slot": "7",
						"type": "t_address"
					},
					{
						"astId": 1043,
						"contract": "Contracts/AccessBSC.sol:Metacces",
						"label": "sSBlock",
						"offset": 0,
						"slot": "8",
						"type": "t_uint256"
					},
					{
						"astId": 1045,
						"contract": "Contracts/AccessBSC.sol:Metacces",
						"label": "sEBlock",
						"offset": 0,
						"slot": "9",
						"type": "t_uint256"
					},
					{
						"astId": 1047,
						"contract": "Contracts/AccessBSC.sol:Metacces",
						"label": "sTot",
						"offset": 0,
						"slot": "10",
						"type": "t_uint256"
					},
					{
						"astId": 1049,
						"contract": "Contracts/AccessBSC.sol:Metacces",
						"label": "sPrice",
						"offset": 0,
						"slot": "11",
						"type": "t_uint256"
					},
					{
						"astId": 1055,
						"contract": "Contracts/AccessBSC.sol:Metacces",
						"label": "Path",
						"offset": 0,
						"slot": "12",
						"type": "t_uint256"
					},
					{
						"astId": 1060,
						"contract": "Contracts/AccessBSC.sol:Metacces",
						"label": "max",
						"offset": 0,
						"slot": "13",
						"type": "t_uint256"
					},
					{
						"astId": 1066,
						"contract": "Contracts/AccessBSC.sol:Metacces",
						"label": "min",
						"offset": 0,
						"slot": "14",
						"type": "t_uint256"
					},
					{
						"astId": 1069,
						"contract": "Contracts/AccessBSC.sol:Metacces",
						"label": "privateLimit",
						"offset": 0,
						"slot": "15",
						"type": "t_uint256"
					},
					{
						"astId": 1074,
						"contract": "Contracts/AccessBSC.sol:Metacces",
						"label": "maxSupply",
						"offset": 0,
						"slot": "16",
						"type": "t_uint256"
					}
				],
				"types": {
					"t_address": {
						"encoding": "inplace",
						"label": "address",
						"numberOfBytes": "20"
					},
					"t_mapping(t_address,t_mapping(t_address,t_uint256))": {
						"encoding": "mapping",
						"key": "t_address",
						"label": "mapping(address => mapping(address => uint256))",
						"numberOfBytes": "32",
						"value": "t_mapping(t_address,t_uint256)"
					},
					"t_mapping(t_address,t_uint256)": {
						"encoding": "mapping",
						"key": "t_address",
						"label": "mapping(address => uint256)",
						"numberOfBytes": "32",
						"value": "t_uint256"
					},
					"t_string_storage": {
						"encoding": "bytes",
						"label": "string",
						"numberOfBytes": "32"
					},
					"t_uint256": {
						"encoding": "inplace",
						"label": "uint256",
						"numberOfBytes": "32"
					}
				}
			},
			"userdoc": {
				"kind": "user",
				"methods": {},
				"version": 1
			}
		}
	}
}