{
	"Contracts/AccesPolygon.sol": {
		"MetaccesPolygon": {
			"abi": [
				{
					"inputs": [
						{
							"internalType": "address",
							"name": "_bridge",
							"type": "address"
						}
					],
					"stateMutability": "payable",
					"type": "constructor"
				},
				{
					"anonymous": false,
					"inputs": [
						{
							"indexed": true,
							"internalType": "address",
							"name": "owner",
							"type": "address"
						},
						{
							"indexed": true,
							"internalType": "address",
							"name": "spender",
							"type": "address"
						},
						{
							"indexed": false,
							"internalType": "uint256",
							"name": "value",
							"type": "uint256"
						}
					],
					"name": "Approval",
					"type": "event"
				},
				{
					"anonymous": false,
					"inputs": [
						{
							"indexed": true,
							"internalType": "address",
							"name": "oldOwner",
							"type": "address"
						},
						{
							"indexed": true,
							"internalType": "address",
							"name": "newOwner",
							"type": "address"
						}
					],
					"name": "OwnershipTransferred",
					"type": "event"
				},
				{
					"anonymous": false,
					"inputs": [
						{
							"indexed": false,
							"internalType": "uint256",
							"name": "newLimit",
							"type": "uint256"
						}
					],
					"name": "PrivateLimit",
					"type": "event"
				},
				{
					"anonymous": false,
					"inputs": [
						{
							"indexed": false,
							"internalType": "uint256",
							"name": "Amount",
							"type": "uint256"
						},
						{
							"indexed": false,
							"internalType": "uint256",
							"name": "Price",
							"type": "uint256"
						}
					],
					"name": "PrivateSale",
					"type": "event"
				},
				{
					"anonymous": false,
					"inputs": [
						{
							"indexed": false,
							"internalType": "address",
							"name": "_bridge",
							"type": "address"
						}
					],
					"name": "SetBridge",
					"type": "event"
				},
				{
					"anonymous": false,
					"inputs": [
						{
							"indexed": true,
							"internalType": "address",
							"name": "from",
							"type": "address"
						},
						{
							"indexed": true,
							"internalType": "address",
							"name": "to",
							"type": "address"
						},
						{
							"indexed": false,
							"internalType": "uint256",
							"name": "value",
							"type": "uint256"
						}
					],
					"name": "Transfer",
					"type": "event"
				},
				{
					"anonymous": false,
					"inputs": [
						{
							"indexed": false,
							"internalType": "uint256",
							"name": "_amount",
							"type": "uint256"
						},
						{
							"indexed": false,
							"internalType": "uint256",
							"name": "decimal",
							"type": "uint256"
						},
						{
							"indexed": false,
							"internalType": "address",
							"name": "to",
							"type": "address"
						}
					],
					"name": "WithdrawalBNB",
					"type": "event"
				},
				{
					"anonymous": false,
					"inputs": [
						{
							"indexed": false,
							"internalType": "address",
							"name": "_tokenAddr",
							"type": "address"
						},
						{
							"indexed": false,
							"internalType": "uint256",
							"name": "_amount",
							"type": "uint256"
						},
						{
							"indexed": false,
							"internalType": "uint256",
							"name": "decimals",
							"type": "uint256"
						},
						{
							"indexed": false,
							"internalType": "address",
							"name": "to",
							"type": "address"
						}
					],
					"name": "WithdrawalToken",
					"type": "event"
				},
				{
					"anonymous": false,
					"inputs": [
						{
							"indexed": false,
							"internalType": "uint256",
							"name": "Min",
							"type": "uint256"
						},
						{
							"indexed": false,
							"internalType": "uint256",
							"name": "Max",
							"type": "uint256"
						}
					],
					"name": "minMax",
					"type": "event"
				},
				{
					"anonymous": false,
					"inputs": [
						{
							"indexed": false,
							"internalType": "uint256",
							"name": "Time",
							"type": "uint256"
						}
					],
					"name": "saleEnded",
					"type": "event"
				},
				{
					"anonymous": false,
					"inputs": [
						{
							"indexed": false,
							"internalType": "uint256",
							"name": "blockNumber",
							"type": "uint256"
						}
					],
					"name": "saleStarted",
					"type": "event"
				},
				{
					"inputs": [
						{
							"internalType": "address",
							"name": "owner",
							"type": "address"
						},
						{
							"internalType": "address",
							"name": "spender",
							"type": "address"
						}
					],
					"name": "allowance",
					"outputs": [
						{
							"internalType": "uint256",
							"name": "",
							"type": "uint256"
						}
					],
					"stateMutability": "view",
					"type": "function"
				},
				{
					"inputs": [
						{
							"internalType": "address",
							"name": "spender",
							"type": "address"
						},
						{
							"internalType": "uint256",
							"name": "amount",
							"type": "uint256"
						}
					],
					"name": "approve",
					"outputs": [
						{
							"internalType": "bool",
							"name": "",
							"type": "bool"
						}
					],
					"stateMutability": "nonpayable",
					"type": "function"
				},
				{
					"inputs": [
						{
							"internalType": "address",
							"name": "account",
							"type": "address"
						}
					],
					"name": "balanceOf",
					"outputs": [
						{
							"internalType": "uint256",
							"name": "",
							"type": "uint256"
						}
					],
					"stateMutability": "view",
					"type": "function"
				},
				{
					"inputs": [],
					"name": "bridge",
					"outputs": [
						{
							"internalType": "address",
							"name": "",
							"type": "address"
						}
					],
					"stateMutability": "view",
					"type": "function"
				},
				{
					"inputs": [
						{
							"internalType": "uint256",
							"name": "amount",
							"type": "uint256"
						}
					],
					"name": "burn",
					"outputs": [],
					"stateMutability": "nonpayable",
					"type": "function"
				},
				{
					"inputs": [
						{
							"internalType": "address",
							"name": "account",
							"type": "address"
						},
						{
							"internalType": "uint256",
							"name": "amount",
							"type": "uint256"
						}
					],
					"name": "burnFrom",
					"outputs": [],
					"stateMutability": "nonpayable",
					"type": "function"
				},
				{
					"inputs": [
						{
							"internalType": "uint256",
							"name": "minAmount",
							"type": "uint256"
						},
						{
							"internalType": "uint256",
							"name": "maxAmount",
							"type": "uint256"
						}
					],
					"name": "changeMinMaxPrivateSale",
					"outputs": [],
					"stateMutability": "nonpayable",
					"type": "function"
				},
				{
					"inputs": [],
					"name": "decimals",
					"outputs": [
						{
							"internalType": "uint8",
							"name": "",
							"type": "uint8"
						}
					],
					"stateMutability": "view",
					"type": "function"
				},
				{
					"inputs": [
						{
							"internalType": "address",
							"name": "spender",
							"type": "address"
						},
						{
							"internalType": "uint256",
							"name": "subtractedValue",
							"type": "uint256"
						}
					],
					"name": "decreaseAllowance",
					"outputs": [
						{
							"internalType": "bool",
							"name": "",
							"type": "bool"
						}
					],
					"stateMutability": "nonpayable",
					"type": "function"
				},
				{
					"inputs": [],
					"name": "endSale",
					"outputs": [],
					"stateMutability": "nonpayable",
					"type": "function"
				},
				{
					"inputs": [
						{
							"internalType": "address",
							"name": "spender",
							"type": "address"
						},
						{
							"internalType": "uint256",
							"name": "addedValue",
							"type": "uint256"
						}
					],
					"name": "increaseAllowance",
					"outputs": [
						{
							"internalType": "bool",
							"name": "",
							"type": "bool"
						}
					],
					"stateMutability": "nonpayable",
					"type": "function"
				},
				{
					"inputs": [],
					"name": "max",
					"outputs": [
						{
							"internalType": "uint256",
							"name": "",
							"type": "uint256"
						}
					],
					"stateMutability": "view",
					"type": "function"
				},
				{
					"inputs": [],
					"name": "min",
					"outputs": [
						{
							"internalType": "uint256",
							"name": "",
							"type": "uint256"
						}
					],
					"stateMutability": "view",
					"type": "function"
				},
				{
					"inputs": [
						{
							"internalType": "address",
							"name": "recipient",
							"type": "address"
						},
						{
							"internalType": "uint256",
							"name": "amount",
							"type": "uint256"
						}
					],
					"name": "mint",
					"outputs": [],
					"stateMutability": "nonpayable",
					"type": "function"
				},
				{
					"inputs": [],
					"name": "name",
					"outputs": [
						{
							"internalType": "string",
							"name": "",
							"type": "string"
						}
					],
					"stateMutability": "view",
					"type": "function"
				},
				{
					"inputs": [],
					"name": "privateLimit",
					"outputs": [
						{
							"internalType": "uint256",
							"name": "",
							"type": "uint256"
						}
					],
					"stateMutability": "view",
					"type": "function"
				},
				{
					"inputs": [
						{
							"internalType": "address",
							"name": "",
							"type": "address"
						}
					],
					"name": "privateSale",
					"outputs": [
						{
							"internalType": "bool",
							"name": "success",
							"type": "bool"
						}
					],
					"stateMutability": "payable",
					"type": "function"
				},
				{
					"inputs": [
						{
							"internalType": "address",
							"name": "_bridge",
							"type": "address"
						}
					],
					"name": "setBridge",
					"outputs": [],
					"stateMutability": "nonpayable",
					"type": "function"
				},
				{
					"inputs": [
						{
							"internalType": "uint256",
							"name": "_limit",
							"type": "uint256"
						}
					],
					"name": "setPrivateLimit",
					"outputs": [],
					"stateMutability": "nonpayable",
					"type": "function"
				},
				{
					"inputs": [
						{
							"internalType": "uint256",
							"name": "_sEBlock",
							"type": "uint256"
						},
						{
							"internalType": "uint256",
							"name": "_sPrice",
							"type": "uint256"
						}
					],
					"name": "startSale",
					"outputs": [],
					"stateMutability": "nonpayable",
					"type": "function"
				},
				{
					"inputs": [],
					"name": "symbol",
					"outputs": [
						{
							"internalType": "string",
							"name": "",
							"type": "string"
						}
					],
					"stateMutability": "view",
					"type": "function"
				},
				{
					"inputs": [],
					"name": "totalSupply",
					"outputs": [
						{
							"internalType": "uint256",
							"name": "",
							"type": "uint256"
						}
					],
					"stateMutability": "view",
					"type": "function"
				},
				{
					"inputs": [
						{
							"internalType": "address",
							"name": "to",
							"type": "address"
						},
						{
							"internalType": "uint256",
							"name": "amount",
							"type": "uint256"
						}
					],
					"name": "transfer",
					"outputs": [
						{
							"internalType": "bool",
							"name": "",
							"type": "bool"
						}
					],
					"stateMutability": "nonpayable",
					"type": "function"
				},
				{
					"inputs": [
						{
							"internalType": "address",
							"name": "from",
							"type": "address"
						},
						{
							"internalType": "address",
							"name": "to",
							"type": "address"
						},
						{
							"internalType": "uint256",
							"name": "amount",
							"type": "uint256"
						}
					],
					"name": "transferFrom",
					"outputs": [
						{
							"internalType": "bool",
							"name": "",
							"type": "bool"
						}
					],
					"stateMutability": "nonpayable",
					"type": "function"
				},
				{
					"inputs": [
						{
							"internalType": "address",
							"name": "_newOwner",
							"type": "address"
						}
					],
					"name": "transferOwnership",
					"outputs": [],
					"stateMutability": "nonpayable",
					"type": "function"
				},
				{
					"inputs": [],
					"name": "viewSale",
					"outputs": [
						{
							"internalType": "uint256",
							"name": "StartBlock",
							"type": "uint256"
						},
						{
							"internalType": "uint256",
							"name": "EndBlock",
							"type": "uint256"
						},
						{
							"internalType": "uint256",
							"name": "SaleCount",
							"type": "uint256"
						},
						{
							"internalType": "uint256",
							"name": "SalePrice",
							"type": "uint256"
						}
					],
					"stateMutability": "view",
					"type": "function"
				},
				{
					"inputs": [
						{
							"internalType": "uint256",
							"name": "_amount",
							"type": "uint256"
						},
						{
							"internalType": "uint256",
							"name": "decimal",
							"type": "uint256"
						},
						{
							"internalType": "address",
							"name": "to",
							"type": "address"
						}
					],
					"name": "withdrawalBNB",
					"outputs": [],
					"stateMutability": "nonpayable",
					"type": "function"
				},
				{
					"inputs": [
						{
							"internalType": "address",
							"name": "_tokenAddr",
							"type": "address"
						},
						{
							"internalType": "uint256",
							"name": "_amount",
							"type": "uint256"
						},
						{
							"internalType": "uint256",
							"name": "decimal",
							"type": "uint256"
						},
						{
							"internalType": "address",
							"name": "to",
							"type": "address"
						}
					],
					"name": "withdrawalToken",
					"outputs": [],
					"stateMutability": "nonpayable",
					"type": "function"
				},
				{
					"stateMutability": "payable",
					"type": "receive"
				}
			],
			"devdoc": {
				"kind": "dev",
				"methods": {
					"allowance(address,address)": {
						"details": "See {IERC20-allowance}."
					},
					"approve(address,uint256)": {
						"details": "See {IERC20-approve}. NOTE: If `amount` is the maximum `uint256`, the allowance is not updated on `transferFrom`. This is semantically equivalent to an infinite approval. Requirements: - `spender` cannot be the zero address."
					},
					"balanceOf(address)": {
						"details": "See {IERC20-balanceOf}."
					},
					"burn(uint256)": {
						"details": "Only callable by account with access (gateway role)"
					},
					"burnFrom(address,uint256)": {
						"details": "Only callable by account with access (gateway role)"
					},
					"decimals()": {
						"details": "Returns the number of decimals used to get its user representation. For example, if `decimals` equals `2`, a balance of `505` tokens should be displayed to a user as `5.05` (`505 / 10 ** 2`). Tokens usually opt for a value of 18, imitating the relationship between Ether and Wei. This is the value {ERC20} uses, unless this function is overridden; NOTE: This information is only used for _display_ purposes: it in no way affects any of the arithmetic of the contract, including {IERC20-balanceOf} and {IERC20-transfer}."
					},
					"decreaseAllowance(address,uint256)": {
						"details": "Atomically decreases the allowance granted to `spender` by the caller. This is an alternative to {approve} that can be used as a mitigation for problems described in {IERC20-approve}. Emits an {Approval} event indicating the updated allowance. Requirements: - `spender` cannot be the zero address. - `spender` must have allowance for the caller of at least `subtractedValue`."
					},
					"increaseAllowance(address,uint256)": {
						"details": "Atomically increases the allowance granted to `spender` by the caller. This is an alternative to {approve} that can be used as a mitigation for problems described in {IERC20-approve}. Emits an {Approval} event indicating the updated allowance. Requirements: - `spender` cannot be the zero address."
					},
					"mint(address,uint256)": {
						"details": "Only callable by account with access (gateway role)"
					},
					"name()": {
						"details": "Returns the name of the token."
					},
					"symbol()": {
						"details": "Returns the symbol of the token, usually a shorter version of the name."
					},
					"totalSupply()": {
						"details": "See {IERC20-totalSupply}."
					},
					"transfer(address,uint256)": {
						"details": "See {IERC20-transfer}. Requirements: - `to` cannot be the zero address. - the caller must have a balance of at least `amount`."
					},
					"transferFrom(address,address,uint256)": {
						"details": "See {IERC20-transferFrom}. Emits an {Approval} event indicating the updated allowance. This is not required by the EIP. See the note at the beginning of {ERC20}. NOTE: Does not update the allowance if the current allowance is the maximum `uint256`. Requirements: - `from` and `to` cannot be the zero address. - `from` must have a balance of at least `amount`. - the caller must have allowance for ``from``'s tokens of at least `amount`."
					}
				},
				"version": 1
			},
			"evm": {
				"assembly": "    /* \"Contracts/AccesPolygon.sol\":251:5053  contract MetaccesPolygon is ERC20, ERC20Burnable {... */\n  mstore(0x40, 0x80)\n    /* \"Contracts/AccesPolygon.sol\":523:538  10** decimals() */\n  tag_3\n    /* \"@openzeppelin/contracts/token/ERC20/ERC20.sol\":3175:3177  18 */\n  0x12\n    /* \"Contracts/AccesPolygon.sol\":523:525  10 */\n  0x0a\n    /* \"Contracts/AccesPolygon.sol\":523:538  10** decimals() */\n  tag_4\n  jump\t// in\ntag_3:\n    /* \"Contracts/AccesPolygon.sol\":499:538  uint256 internal path = 10** decimals() */\n  0x0b\n  dup2\n  swap1\n  sstore\n    /* \"Contracts/AccesPolygon.sol\":565:574  20 * path */\n  tag_5\n  swap1\n    /* \"Contracts/AccesPolygon.sol\":565:567  20 */\n  0x14\n    /* \"Contracts/AccesPolygon.sol\":565:574  20 * path */\n  tag_6\n  jump\t// in\ntag_5:\n    /* \"Contracts/AccesPolygon.sol\":544:574  uint256 public max = 20 * path */\n  0x0c\n  sstore\n    /* \"Contracts/AccesPolygon.sol\":601:613  max.div(100) */\n  tag_7\n    /* \"Contracts/AccesPolygon.sol\":609:612  100 */\n  0x64\n    /* \"Contracts/AccesPolygon.sol\":601:604  max */\n  sload(0x0c)\n    /* \"Contracts/AccesPolygon.sol\":601:608  max.div */\n  or(tag_0_172, shl(0x20, tag_8))\n  swap1\n    /* \"Contracts/AccesPolygon.sol\":601:613  max.div(100) */\n  swap2\n  swap1\n  0x20\n  shr\n  jump\t// in\ntag_7:\n    /* \"Contracts/AccesPolygon.sol\":580:613  uint256 public min = max.div(100) */\n  0x0d\n  sstore\n    /* \"Contracts/AccesPolygon.sol\":649:656  1000000 */\n  0x0f4240\n    /* \"Contracts/AccesPolygon.sol\":619:656  uint256 public privateLimit = 1000000 */\n  0x0e\n  sstore\n    /* \"Contracts/AccesPolygon.sol\":1270:1466  constructor (address _bridge) ERC20(\"Metacces\", \"Acces\") payable {... */\n  mload(0x40)\n  sub(codesize, bytecodeSize)\n  dup1\n  bytecodeSize\n  dup4\n  codecopy\n  dup2\n  add\n  0x40\n  dup2\n  swap1\n  mstore\n  tag_9\n  swap2\n  tag_10\n  jump\t// in\ntag_9:\n    /* \"@openzeppelin/contracts/token/ERC20/ERC20.sol\":1978:2091  constructor(string memory name_, string memory symbol_) {... */\n  mload(0x40)\n  dup1\n  0x40\n  add\n  0x40\n  mstore\n  dup1\n  0x08\n  dup2\n  mstore\n  0x20\n  add\n  shl(0xc0, 0x4d65746163636573)\n  dup2\n  mstore\n  pop\n  mload(0x40)\n  dup1\n  0x40\n  add\n  0x40\n  mstore\n  dup1\n  0x05\n  dup2\n  mstore\n  0x20\n  add\n  shl(0xd8, 0x4163636573)\n  dup2\n  mstore\n  pop\n    /* \"@openzeppelin/contracts/token/ERC20/ERC20.sol\":2052:2057  name_ */\n  dup2\n    /* \"@openzeppelin/contracts/token/ERC20/ERC20.sol\":2044:2049  _name */\n  0x03\n    /* \"@openzeppelin/contracts/token/ERC20/ERC20.sol\":2044:2057  _name = name_ */\n  swap1\n  dup2\n  tag_14\n  swap2\n  swap1\n  tag_15\n  jump\t// in\ntag_14:\n  pop\n    /* \"@openzeppelin/contracts/token/ERC20/ERC20.sol\":2067:2074  _symbol */\n  0x04\n    /* \"@openzeppelin/contracts/token/ERC20/ERC20.sol\":2067:2084  _symbol = symbol_ */\n  tag_16\n    /* \"@openzeppelin/contracts/token/ERC20/ERC20.sol\":2077:2084  symbol_ */\n  dup3\n    /* \"@openzeppelin/contracts/token/ERC20/ERC20.sol\":2067:2074  _symbol */\n  dup3\n    /* \"@openzeppelin/contracts/token/ERC20/ERC20.sol\":2067:2084  _symbol = symbol_ */\n  tag_15\n  jump\t// in\ntag_16:\n  pop\n  pop\n    /* \"Contracts/AccesPolygon.sol\":1341:1346  owner */\n  0x05\n    /* \"Contracts/AccesPolygon.sol\":1341:1359  owner = msg.sender */\n  dup1\n  sload\n    /* \"Contracts/AccesPolygon.sol\":1349:1359  msg.sender */\n  caller\n  not(sub(shl(0xa0, 0x01), 0x01))\n    /* \"Contracts/AccesPolygon.sol\":1341:1359  owner = msg.sender */\n  swap2\n  dup3\n  and\n  or\n  swap1\n  swap2\n  sstore\n    /* \"Contracts/AccesPolygon.sol\":1365:1371  bridge */\n  0x06\n    /* \"Contracts/AccesPolygon.sol\":1365:1381  bridge = _bridge */\n  dup1\n  sload\n  swap1\n  swap2\n  and\n  sub(shl(0xa0, 0x01), 0x01)\n  dup5\n  and\n  or\n  swap1\n  sstore\n  pop\n    /* \"Contracts/AccesPolygon.sol\":1422:1426  path */\n  sload(0x0b)\n    /* \"Contracts/AccesPolygon.sol\":1388:1427  _mint (address(this), 100000000 * path) */\n  tag_18\n  swap1\n    /* \"Contracts/AccesPolygon.sol\":1403:1407  this */\n  address\n  swap1\n    /* \"Contracts/AccesPolygon.sol\":1410:1426  100000000 * path */\n  tag_19\n  swap1\n    /* \"Contracts/AccesPolygon.sol\":1410:1419  100000000 */\n  0x05f5e100\n    /* \"Contracts/AccesPolygon.sol\":1410:1426  100000000 * path */\n  tag_6\n  jump\t// in\ntag_19:\n    /* \"Contracts/AccesPolygon.sol\":1388:1393  _mint */\n  tag_20\n    /* \"Contracts/AccesPolygon.sol\":1388:1427  _mint (address(this), 100000000 * path) */\n  jump\t// in\ntag_18:\n    /* \"Contracts/AccesPolygon.sol\":1270:1466  constructor (address _bridge) ERC20(\"Metacces\", \"Acces\") payable {... */\n  pop\n    /* \"Contracts/AccesPolygon.sol\":251:5053  contract MetaccesPolygon is ERC20, ERC20Burnable {... */\n  jump(tag_49)\n    /* \"@openzeppelin/contracts/utils/math/SafeMath.sol\":3850:3946  function div(uint256 a, uint256 b) internal pure returns (uint256) {... */\ntag_8:\n    /* \"@openzeppelin/contracts/utils/math/SafeMath.sol\":3908:3915  uint256 */\n  0x00\n    /* \"@openzeppelin/contracts/utils/math/SafeMath.sol\":3934:3939  a / b */\n  tag_24\n    /* \"@openzeppelin/contracts/utils/math/SafeMath.sol\":3938:3939  b */\n  dup3\n    /* \"@openzeppelin/contracts/utils/math/SafeMath.sol\":3934:3935  a */\n  dup5\n    /* \"@openzeppelin/contracts/utils/math/SafeMath.sol\":3934:3939  a / b */\n  tag_25\n  jump\t// in\ntag_24:\n    /* \"@openzeppelin/contracts/utils/math/SafeMath.sol\":3927:3939  return a / b */\n  swap1\n  pop\n    /* \"@openzeppelin/contracts/utils/math/SafeMath.sol\":3850:3946  function div(uint256 a, uint256 b) internal pure returns (uint256) {... */\ntag_23:\n  swap3\n  swap2\n  pop\n  pop\n  jump\t// out\n    /* \"@openzeppelin/contracts/token/ERC20/ERC20.sol\":8402:8791  function _mint(address account, uint256 amount) internal virtual {... */\ntag_20:\n  sub(shl(0xa0, 0x01), 0x01)\n    /* \"@openzeppelin/contracts/token/ERC20/ERC20.sol\":8485:8506  account != address(0) */\n  dup3\n  and\n    /* \"@openzeppelin/contracts/token/ERC20/ERC20.sol\":8477:8542  require(account != address(0), \"ERC20: mint to the zero address\") */\n  tag_27\n  jumpi\n  mload(0x40)\n  shl(0xe5, 0x461bcd)\n  dup2\n  mstore\n    /* \"#utility.yul\":5142:5144   */\n  0x20\n    /* \"@openzeppelin/contracts/token/ERC20/ERC20.sol\":8477:8542  require(account != address(0), \"ERC20: mint to the zero address\") */\n  0x04\n  dup3\n  add\n    /* \"#utility.yul\":5124:5145   */\n  mstore\n    /* \"#utility.yul\":5181:5183   */\n  0x1f\n    /* \"#utility.yul\":5161:5179   */\n  0x24\n  dup3\n  add\n    /* \"#utility.yul\":5154:5184   */\n  mstore\n    /* \"#utility.yul\":5220:5253   */\n  0x45524332303a206d696e7420746f20746865207a65726f206164647265737300\n    /* \"#utility.yul\":5200:5218   */\n  0x44\n  dup3\n  add\n    /* \"#utility.yul\":5193:5254   */\n  mstore\n    /* \"#utility.yul\":5271:5289   */\n  0x64\n  add\n    /* \"@openzeppelin/contracts/token/ERC20/ERC20.sol\":8477:8542  require(account != address(0), \"ERC20: mint to the zero address\") */\n  mload(0x40)\n  dup1\n  swap2\n  sub\n  swap1\n  revert\ntag_27:\n    /* \"@openzeppelin/contracts/token/ERC20/ERC20.sol\":8629:8635  amount */\n  dup1\n    /* \"@openzeppelin/contracts/token/ERC20/ERC20.sol\":8613:8625  _totalSupply */\n  0x02\n  0x00\n    /* \"@openzeppelin/contracts/token/ERC20/ERC20.sol\":8613:8635  _totalSupply += amount */\n  dup3\n  dup3\n  sload\n  tag_32\n  swap2\n  swap1\n  tag_33\n  jump\t// in\ntag_32:\n  swap1\n  swap2\n  sstore\n  pop\n  pop\n  sub(shl(0xa0, 0x01), 0x01)\n    /* \"@openzeppelin/contracts/token/ERC20/ERC20.sol\":8645:8663  _balances[account] */\n  dup3\n  and\n    /* \"@openzeppelin/contracts/token/ERC20/ERC20.sol\":8645:8654  _balances */\n  0x00\n    /* \"@openzeppelin/contracts/token/ERC20/ERC20.sol\":8645:8663  _balances[account] */\n  swap1\n  dup2\n  mstore\n  0x20\n  dup2\n  swap1\n  mstore\n  0x40\n  dup2\n  keccak256\n    /* \"@openzeppelin/contracts/token/ERC20/ERC20.sol\":8645:8673  _balances[account] += amount */\n  dup1\n  sload\n    /* \"@openzeppelin/contracts/token/ERC20/ERC20.sol\":8667:8673  amount */\n  dup4\n  swap3\n    /* \"@openzeppelin/contracts/token/ERC20/ERC20.sol\":8645:8654  _balances */\n  swap1\n    /* \"@openzeppelin/contracts/token/ERC20/ERC20.sol\":8645:8673  _balances[account] += amount */\n  tag_34\n  swap1\n    /* \"@openzeppelin/contracts/token/ERC20/ERC20.sol\":8667:8673  amount */\n  dup5\n  swap1\n    /* \"@openzeppelin/contracts/token/ERC20/ERC20.sol\":8645:8673  _balances[account] += amount */\n  tag_33\n  jump\t// in\ntag_34:\n  swap1\n  swap2\n  sstore\n  pop\n  pop\n    /* \"@openzeppelin/contracts/token/ERC20/ERC20.sol\":8688:8725  Transfer(address(0), account, amount) */\n  mload(0x40)\n    /* \"#utility.yul\":5579:5604   */\n  dup2\n  dup2\n  mstore\n  sub(shl(0xa0, 0x01), 0x01)\n    /* \"@openzeppelin/contracts/token/ERC20/ERC20.sol\":8688:8725  Transfer(address(0), account, amount) */\n  dup4\n  and\n  swap1\n    /* \"@openzeppelin/contracts/token/ERC20/ERC20.sol\":8705:8706  0 */\n  0x00\n  swap1\n    /* \"@openzeppelin/contracts/token/ERC20/ERC20.sol\":8688:8725  Transfer(address(0), account, amount) */\n  0xddf252ad1be2c89b69c2b068fc378daa952ba7f163c4a11628f55a4df523b3ef\n  swap1\n    /* \"#utility.yul\":5567:5569   */\n  0x20\n    /* \"#utility.yul\":5552:5570   */\n  add\n    /* \"@openzeppelin/contracts/token/ERC20/ERC20.sol\":8688:8725  Transfer(address(0), account, amount) */\n  mload(0x40)\n  dup1\n  swap2\n  sub\n  swap1\n  log3\n    /* \"@openzeppelin/contracts/token/ERC20/ERC20.sol\":8402:8791  function _mint(address account, uint256 amount) internal virtual {... */\n  pop\n  pop\n  jump\t// out\n    /* \"@openzeppelin/contracts/token/ERC20/ERC20.sol\":11786:11907  function _beforeTokenTransfer(... */\ntag_31:\n  pop\n  pop\n  pop\n  jump\t// out\n    /* \"#utility.yul\":14:141   */\ntag_41:\n    /* \"#utility.yul\":75:85   */\n  0x4e487b71\n    /* \"#utility.yul\":70:73   */\n  0xe0\n    /* \"#utility.yul\":66:86   */\n  shl\n    /* \"#utility.yul\":63:64   */\n  0x00\n    /* \"#utility.yul\":56:87   */\n  mstore\n    /* \"#utility.yul\":106:110   */\n  0x11\n    /* \"#utility.yul\":103:104   */\n  0x04\n    /* \"#utility.yul\":96:111   */\n  mstore\n    /* \"#utility.yul\":130:134   */\n  0x24\n    /* \"#utility.yul\":127:128   */\n  0x00\n    /* \"#utility.yul\":120:135   */\n  revert\n    /* \"#utility.yul\":146:568   */\ntag_42:\n    /* \"#utility.yul\":235:236   */\n  0x01\n    /* \"#utility.yul\":278:283   */\n  dup2\n    /* \"#utility.yul\":235:236   */\n  dup2\n    /* \"#utility.yul\":292:562   */\ntag_52:\n    /* \"#utility.yul\":313:320   */\n  dup1\n    /* \"#utility.yul\":303:311   */\n  dup6\n    /* \"#utility.yul\":300:321   */\n  gt\n    /* \"#utility.yul\":292:562   */\n  iszero\n  tag_54\n  jumpi\n    /* \"#utility.yul\":372:376   */\n  dup2\n    /* \"#utility.yul\":368:369   */\n  0x00\n    /* \"#utility.yul\":364:370   */\n  not\n    /* \"#utility.yul\":360:377   */\n  div\n    /* \"#utility.yul\":354:358   */\n  dup3\n    /* \"#utility.yul\":351:378   */\n  gt\n    /* \"#utility.yul\":348:401   */\n  iszero\n  tag_56\n  jumpi\n    /* \"#utility.yul\":381:399   */\n  tag_56\n  tag_41\n  jump\t// in\ntag_56:\n    /* \"#utility.yul\":431:438   */\n  dup1\n    /* \"#utility.yul\":421:429   */\n  dup6\n    /* \"#utility.yul\":417:439   */\n  and\n    /* \"#utility.yul\":414:469   */\n  iszero\n  tag_57\n  jumpi\n    /* \"#utility.yul\":451:467   */\n  swap2\n  dup2\n  mul\n  swap2\n    /* \"#utility.yul\":414:469   */\ntag_57:\n    /* \"#utility.yul\":530:552   */\n  swap4\n  dup5\n  shr\n  swap4\n    /* \"#utility.yul\":490:505   */\n  swap1\n  dup1\n  mul\n  swap1\n    /* \"#utility.yul\":292:562   */\n  jump(tag_52)\ntag_54:\n    /* \"#utility.yul\":296:299   */\n  pop\n    /* \"#utility.yul\":146:568   */\n  swap3\n  pop\n  swap3\n  swap1\n  pop\n  jump\t// out\n    /* \"#utility.yul\":573:1379   */\ntag_43:\n    /* \"#utility.yul\":622:627   */\n  0x00\n    /* \"#utility.yul\":652:660   */\n  dup3\n    /* \"#utility.yul\":642:722   */\n  tag_59\n  jumpi\n  pop\n    /* \"#utility.yul\":693:694   */\n  0x01\n    /* \"#utility.yul\":707:712   */\n  jump(tag_23)\n    /* \"#utility.yul\":642:722   */\ntag_59:\n    /* \"#utility.yul\":741:745   */\n  dup2\n    /* \"#utility.yul\":731:807   */\n  tag_60\n  jumpi\n  pop\n    /* \"#utility.yul\":778:779   */\n  0x00\n    /* \"#utility.yul\":792:797   */\n  jump(tag_23)\n    /* \"#utility.yul\":731:807   */\ntag_60:\n    /* \"#utility.yul\":823:827   */\n  dup2\n    /* \"#utility.yul\":841:842   */\n  0x01\n    /* \"#utility.yul\":836:895   */\n  dup2\n  eq\n  tag_62\n  jumpi\n    /* \"#utility.yul\":909:910   */\n  0x02\n    /* \"#utility.yul\":904:1034   */\n  dup2\n  eq\n  tag_63\n  jumpi\n    /* \"#utility.yul\":816:1034   */\n  jump(tag_61)\n    /* \"#utility.yul\":836:895   */\ntag_62:\n    /* \"#utility.yul\":866:867   */\n  0x01\n    /* \"#utility.yul\":857:867   */\n  swap2\n  pop\n    /* \"#utility.yul\":880:885   */\n  pop\n  jump(tag_23)\n    /* \"#utility.yul\":904:1034   */\ntag_63:\n    /* \"#utility.yul\":941:944   */\n  0xff\n    /* \"#utility.yul\":931:939   */\n  dup5\n    /* \"#utility.yul\":928:945   */\n  gt\n    /* \"#utility.yul\":925:968   */\n  iszero\n  tag_65\n  jumpi\n    /* \"#utility.yul\":948:966   */\n  tag_65\n  tag_41\n  jump\t// in\ntag_65:\n  pop\n  pop\n    /* \"#utility.yul\":1004:1005   */\n  0x01\n    /* \"#utility.yul\":990:1006   */\n  dup3\n  shl\n    /* \"#utility.yul\":1019:1024   */\n  jump(tag_23)\n    /* \"#utility.yul\":816:1034   */\ntag_61:\n  pop\n    /* \"#utility.yul\":1118:1120   */\n  0x20\n    /* \"#utility.yul\":1108:1116   */\n  dup4\n    /* \"#utility.yul\":1105:1121   */\n  lt\n    /* \"#utility.yul\":1099:1102   */\n  0x0133\n    /* \"#utility.yul\":1093:1097   */\n  dup4\n    /* \"#utility.yul\":1090:1103   */\n  lt\n    /* \"#utility.yul\":1086:1122   */\n  and\n    /* \"#utility.yul\":1080:1082   */\n  0x4e\n    /* \"#utility.yul\":1070:1078   */\n  dup5\n    /* \"#utility.yul\":1067:1083   */\n  lt\n    /* \"#utility.yul\":1062:1064   */\n  0x0b\n    /* \"#utility.yul\":1056:1060   */\n  dup5\n    /* \"#utility.yul\":1053:1065   */\n  lt\n    /* \"#utility.yul\":1049:1084   */\n  and\n    /* \"#utility.yul\":1046:1123   */\n  or\n    /* \"#utility.yul\":1043:1202   */\n  iszero\n  tag_66\n  jumpi\n  pop\n    /* \"#utility.yul\":1155:1174   */\n  dup2\n  dup2\n  exp\n    /* \"#utility.yul\":1187:1192   */\n  jump(tag_23)\n    /* \"#utility.yul\":1043:1202   */\ntag_66:\n    /* \"#utility.yul\":1234:1268   */\n  tag_67\n    /* \"#utility.yul\":1259:1267   */\n  dup4\n    /* \"#utility.yul\":1253:1257   */\n  dup4\n    /* \"#utility.yul\":1234:1268   */\n  tag_42\n  jump\t// in\ntag_67:\n    /* \"#utility.yul\":1304:1310   */\n  dup1\n    /* \"#utility.yul\":1300:1301   */\n  0x00\n    /* \"#utility.yul\":1296:1302   */\n  not\n    /* \"#utility.yul\":1292:1311   */\n  div\n    /* \"#utility.yul\":1283:1290   */\n  dup3\n    /* \"#utility.yul\":1280:1312   */\n  gt\n    /* \"#utility.yul\":1277:1335   */\n  iszero\n  tag_69\n  jumpi\n    /* \"#utility.yul\":1315:1333   */\n  tag_69\n  tag_41\n  jump\t// in\ntag_69:\n    /* \"#utility.yul\":1353:1373   */\n  mul\n  swap4\n    /* \"#utility.yul\":573:1379   */\n  swap3\n  pop\n  pop\n  pop\n  jump\t// out\n    /* \"#utility.yul\":1384:1524   */\ntag_4:\n    /* \"#utility.yul\":1442:1447   */\n  0x00\n    /* \"#utility.yul\":1471:1518   */\n  tag_24\n    /* \"#utility.yul\":1512:1516   */\n  0xff\n    /* \"#utility.yul\":1502:1510   */\n  dup5\n    /* \"#utility.yul\":1498:1517   */\n  and\n    /* \"#utility.yul\":1492:1496   */\n  dup4\n    /* \"#utility.yul\":1471:1518   */\n  tag_43\n  jump\t// in\n    /* \"#utility.yul\":1529:1697   */\ntag_6:\n    /* \"#utility.yul\":1569:1576   */\n  0x00\n    /* \"#utility.yul\":1635:1636   */\n  dup2\n    /* \"#utility.yul\":1631:1632   */\n  0x00\n    /* \"#utility.yul\":1627:1633   */\n  not\n    /* \"#utility.yul\":1623:1637   */\n  div\n    /* \"#utility.yul\":1620:1621   */\n  dup4\n    /* \"#utility.yul\":1617:1638   */\n  gt\n    /* \"#utility.yul\":1612:1613   */\n  dup3\n    /* \"#utility.yul\":1605:1614   */\n  iszero\n    /* \"#utility.yul\":1598:1615   */\n  iszero\n    /* \"#utility.yul\":1594:1639   */\n  and\n    /* \"#utility.yul\":1591:1662   */\n  iszero\n  tag_74\n  jumpi\n    /* \"#utility.yul\":1642:1660   */\n  tag_74\n  tag_41\n  jump\t// in\ntag_74:\n  pop\n    /* \"#utility.yul\":1682:1691   */\n  mul\n  swap1\n    /* \"#utility.yul\":1529:1697   */\n  jump\t// out\n    /* \"#utility.yul\":1702:1992   */\ntag_10:\n    /* \"#utility.yul\":1772:1778   */\n  0x00\n    /* \"#utility.yul\":1825:1827   */\n  0x20\n    /* \"#utility.yul\":1813:1822   */\n  dup3\n    /* \"#utility.yul\":1804:1811   */\n  dup5\n    /* \"#utility.yul\":1800:1823   */\n  sub\n    /* \"#utility.yul\":1796:1828   */\n  slt\n    /* \"#utility.yul\":1793:1845   */\n  iszero\n  tag_76\n  jumpi\n    /* \"#utility.yul\":1841:1842   */\n  0x00\n    /* \"#utility.yul\":1838:1839   */\n  dup1\n    /* \"#utility.yul\":1831:1843   */\n  revert\n    /* \"#utility.yul\":1793:1845   */\ntag_76:\n    /* \"#utility.yul\":1867:1883   */\n  dup2\n  mload\n  sub(shl(0xa0, 0x01), 0x01)\n    /* \"#utility.yul\":1912:1943   */\n  dup2\n  and\n    /* \"#utility.yul\":1902:1944   */\n  dup2\n  eq\n    /* \"#utility.yul\":1892:1962   */\n  tag_77\n  jumpi\n    /* \"#utility.yul\":1958:1959   */\n  0x00\n    /* \"#utility.yul\":1955:1956   */\n  dup1\n    /* \"#utility.yul\":1948:1960   */\n  revert\n    /* \"#utility.yul\":1892:1962   */\ntag_77:\n    /* \"#utility.yul\":1981:1986   */\n  swap4\n    /* \"#utility.yul\":1702:1992   */\n  swap3\n  pop\n  pop\n  pop\n  jump\t// out\n    /* \"#utility.yul\":1997:2124   */\ntag_44:\n    /* \"#utility.yul\":2058:2068   */\n  0x4e487b71\n    /* \"#utility.yul\":2053:2056   */\n  0xe0\n    /* \"#utility.yul\":2049:2069   */\n  shl\n    /* \"#utility.yul\":2046:2047   */\n  0x00\n    /* \"#utility.yul\":2039:2070   */\n  mstore\n    /* \"#utility.yul\":2089:2093   */\n  0x41\n    /* \"#utility.yul\":2086:2087   */\n  0x04\n    /* \"#utility.yul\":2079:2094   */\n  mstore\n    /* \"#utility.yul\":2113:2117   */\n  0x24\n    /* \"#utility.yul\":2110:2111   */\n  0x00\n    /* \"#utility.yul\":2103:2118   */\n  revert\n    /* \"#utility.yul\":2129:2509   */\ntag_45:\n    /* \"#utility.yul\":2208:2209   */\n  0x01\n    /* \"#utility.yul\":2204:2216   */\n  dup2\n  dup2\n  shr\n  swap1\n    /* \"#utility.yul\":2251:2263   */\n  dup3\n  and\n  dup1\n    /* \"#utility.yul\":2272:2333   */\n  tag_80\n  jumpi\n    /* \"#utility.yul\":2326:2330   */\n  0x7f\n    /* \"#utility.yul\":2318:2324   */\n  dup3\n    /* \"#utility.yul\":2314:2331   */\n  and\n    /* \"#utility.yul\":2304:2331   */\n  swap2\n  pop\n    /* \"#utility.yul\":2272:2333   */\ntag_80:\n    /* \"#utility.yul\":2379:2381   */\n  0x20\n    /* \"#utility.yul\":2371:2377   */\n  dup3\n    /* \"#utility.yul\":2368:2382   */\n  lt\n    /* \"#utility.yul\":2348:2366   */\n  dup2\n    /* \"#utility.yul\":2345:2383   */\n  sub\n    /* \"#utility.yul\":2342:2503   */\n  tag_81\n  jumpi\n    /* \"#utility.yul\":2425:2435   */\n  0x4e487b71\n    /* \"#utility.yul\":2420:2423   */\n  0xe0\n    /* \"#utility.yul\":2416:2436   */\n  shl\n    /* \"#utility.yul\":2413:2414   */\n  0x00\n    /* \"#utility.yul\":2406:2437   */\n  mstore\n    /* \"#utility.yul\":2460:2464   */\n  0x22\n    /* \"#utility.yul\":2457:2458   */\n  0x04\n    /* \"#utility.yul\":2450:2465   */\n  mstore\n    /* \"#utility.yul\":2488:2492   */\n  0x24\n    /* \"#utility.yul\":2485:2486   */\n  0x00\n    /* \"#utility.yul\":2478:2493   */\n  revert\n    /* \"#utility.yul\":2342:2503   */\ntag_81:\n  pop\n    /* \"#utility.yul\":2129:2509   */\n  swap2\n  swap1\n  pop\n  jump\t// out\n    /* \"#utility.yul\":2640:3185   */\ntag_47:\n    /* \"#utility.yul\":2742:2744   */\n  0x1f\n    /* \"#utility.yul\":2737:2740   */\n  dup3\n    /* \"#utility.yul\":2734:2745   */\n  gt\n    /* \"#utility.yul\":2731:3179   */\n  iszero\n  tag_31\n  jumpi\n    /* \"#utility.yul\":2778:2779   */\n  0x00\n    /* \"#utility.yul\":2803:2808   */\n  dup2\n    /* \"#utility.yul\":2799:2801   */\n  dup2\n    /* \"#utility.yul\":2792:2809   */\n  mstore\n    /* \"#utility.yul\":2848:2852   */\n  0x20\n    /* \"#utility.yul\":2844:2846   */\n  dup2\n    /* \"#utility.yul\":2834:2853   */\n  keccak256\n    /* \"#utility.yul\":2918:2920   */\n  0x1f\n    /* \"#utility.yul\":2906:2916   */\n  dup6\n    /* \"#utility.yul\":2902:2921   */\n  add\n    /* \"#utility.yul\":2899:2900   */\n  0x05\n    /* \"#utility.yul\":2895:2922   */\n  shr\n    /* \"#utility.yul\":2889:2893   */\n  dup2\n    /* \"#utility.yul\":2885:2923   */\n  add\n    /* \"#utility.yul\":2954:2958   */\n  0x20\n    /* \"#utility.yul\":2942:2952   */\n  dup7\n    /* \"#utility.yul\":2939:2959   */\n  lt\n    /* \"#utility.yul\":2936:2983   */\n  iszero\n  tag_85\n  jumpi\n  pop\n    /* \"#utility.yul\":2977:2981   */\n  dup1\n    /* \"#utility.yul\":2936:2983   */\ntag_85:\n    /* \"#utility.yul\":3032:3034   */\n  0x1f\n    /* \"#utility.yul\":3027:3030   */\n  dup6\n    /* \"#utility.yul\":3023:3035   */\n  add\n    /* \"#utility.yul\":3020:3021   */\n  0x05\n    /* \"#utility.yul\":3016:3036   */\n  shr\n    /* \"#utility.yul\":3010:3014   */\n  dup3\n    /* \"#utility.yul\":3006:3037   */\n  add\n    /* \"#utility.yul\":2996:3037   */\n  swap2\n  pop\n    /* \"#utility.yul\":3087:3169   */\ntag_86:\n    /* \"#utility.yul\":3105:3107   */\n  dup2\n    /* \"#utility.yul\":3098:3103   */\n  dup2\n    /* \"#utility.yul\":3095:3108   */\n  lt\n    /* \"#utility.yul\":3087:3169   */\n  iszero\n  tag_88\n  jumpi\n    /* \"#utility.yul\":3150:3167   */\n  dup3\n  dup2\n  sstore\n    /* \"#utility.yul\":3131:3132   */\n  0x01\n    /* \"#utility.yul\":3120:3133   */\n  add\n    /* \"#utility.yul\":3087:3169   */\n  jump(tag_86)\ntag_88:\n    /* \"#utility.yul\":3091:3094   */\n  pop\n  pop\n  pop\n    /* \"#utility.yul\":2640:3185   */\n  pop\n  pop\n  pop\n  jump\t// out\n    /* \"#utility.yul\":3361:4713   */\ntag_15:\n    /* \"#utility.yul\":3481:3491   */\n  dup2\n  mload\n  sub(shl(0x40, 0x01), 0x01)\n    /* \"#utility.yul\":3503:3533   */\n  dup2\n  gt\n    /* \"#utility.yul\":3500:3556   */\n  iszero\n  tag_92\n  jumpi\n    /* \"#utility.yul\":3536:3554   */\n  tag_92\n  tag_44\n  jump\t// in\ntag_92:\n    /* \"#utility.yul\":3565:3662   */\n  tag_93\n    /* \"#utility.yul\":3655:3661   */\n  dup2\n    /* \"#utility.yul\":3615:3653   */\n  tag_94\n    /* \"#utility.yul\":3647:3651   */\n  dup5\n    /* \"#utility.yul\":3641:3652   */\n  sload\n    /* \"#utility.yul\":3615:3653   */\n  tag_45\n  jump\t// in\ntag_94:\n    /* \"#utility.yul\":3609:3613   */\n  dup5\n    /* \"#utility.yul\":3565:3662   */\n  tag_47\n  jump\t// in\ntag_93:\n    /* \"#utility.yul\":3717:3721   */\n  0x20\n  dup1\n    /* \"#utility.yul\":3781:3783   */\n  0x1f\n    /* \"#utility.yul\":3770:3784   */\n  dup4\n  gt\n    /* \"#utility.yul\":3798:3799   */\n  0x01\n    /* \"#utility.yul\":3793:4456   */\n  dup2\n  eq\n  tag_96\n  jumpi\n    /* \"#utility.yul\":4500:4501   */\n  0x00\n    /* \"#utility.yul\":4517:4523   */\n  dup5\n    /* \"#utility.yul\":4514:4603   */\n  iszero\n  tag_97\n  jumpi\n  pop\n    /* \"#utility.yul\":4569:4588   */\n  dup6\n  dup4\n  add\n    /* \"#utility.yul\":4563:4589   */\n  mload\n    /* \"#utility.yul\":4514:4603   */\ntag_97:\n  not(0x00)\n    /* \"#utility.yul\":3318:3319   */\n  0x03\n    /* \"#utility.yul\":3314:3325   */\n  dup7\n  swap1\n  shl\n    /* \"#utility.yul\":3310:3334   */\n  shr\n    /* \"#utility.yul\":3306:3335   */\n  not\n    /* \"#utility.yul\":3296:3336   */\n  and\n    /* \"#utility.yul\":3342:3343   */\n  0x01\n    /* \"#utility.yul\":3338:3349   */\n  dup6\n  swap1\n  shl\n    /* \"#utility.yul\":3293:3350   */\n  or\n    /* \"#utility.yul\":4616:4697   */\n  dup6\n  sstore\n    /* \"#utility.yul\":3763:4707   */\n  jump(tag_88)\n    /* \"#utility.yul\":3793:4456   */\ntag_96:\n    /* \"#utility.yul\":2587:2588   */\n  0x00\n    /* \"#utility.yul\":2580:2594   */\n  dup6\n  dup2\n  mstore\n    /* \"#utility.yul\":2624:2628   */\n  0x20\n    /* \"#utility.yul\":2611:2629   */\n  dup2\n  keccak256\n  not(0x1f)\n    /* \"#utility.yul\":3829:3849   */\n  dup7\n  and\n  swap2\n    /* \"#utility.yul\":3947:4183   */\ntag_100:\n    /* \"#utility.yul\":3961:3968   */\n  dup3\n    /* \"#utility.yul\":3958:3959   */\n  dup2\n    /* \"#utility.yul\":3955:3969   */\n  lt\n    /* \"#utility.yul\":3947:4183   */\n  iszero\n  tag_102\n  jumpi\n    /* \"#utility.yul\":4050:4069   */\n  dup9\n  dup7\n  add\n    /* \"#utility.yul\":4044:4070   */\n  mload\n    /* \"#utility.yul\":4029:4071   */\n  dup3\n  sstore\n    /* \"#utility.yul\":4142:4169   */\n  swap5\n  dup5\n  add\n  swap5\n    /* \"#utility.yul\":4110:4111   */\n  0x01\n    /* \"#utility.yul\":4098:4112   */\n  swap1\n  swap2\n  add\n  swap1\n    /* \"#utility.yul\":3977:3996   */\n  dup5\n  add\n    /* \"#utility.yul\":3947:4183   */\n  jump(tag_100)\ntag_102:\n    /* \"#utility.yul\":3951:3954   */\n  pop\n    /* \"#utility.yul\":4211:4217   */\n  dup6\n    /* \"#utility.yul\":4202:4209   */\n  dup3\n    /* \"#utility.yul\":4199:4218   */\n  lt\n    /* \"#utility.yul\":4196:4397   */\n  iszero\n  tag_103\n  jumpi\n    /* \"#utility.yul\":4272:4291   */\n  dup8\n  dup6\n  add\n    /* \"#utility.yul\":4266:4292   */\n  mload\n  not(0x00)\n    /* \"#utility.yul\":4355:4356   */\n  0x03\n    /* \"#utility.yul\":4351:4365   */\n  dup9\n  swap1\n  shl\n    /* \"#utility.yul\":4367:4370   */\n  0xf8\n    /* \"#utility.yul\":4347:4371   */\n  and\n    /* \"#utility.yul\":4343:4380   */\n  shr\n    /* \"#utility.yul\":4339:4381   */\n  not\n    /* \"#utility.yul\":4324:4382   */\n  and\n    /* \"#utility.yul\":4309:4383   */\n  dup2\n  sstore\n    /* \"#utility.yul\":4196:4397   */\ntag_103:\n  pop\n  pop\n  pop\n  pop\n  pop\n    /* \"#utility.yul\":4443:4444   */\n  0x01\n    /* \"#utility.yul\":4427:4441   */\n  swap1\n  dup2\n  shl\n    /* \"#utility.yul\":4423:4445   */\n  add\n    /* \"#utility.yul\":4410:4446   */\n  swap1\n  sstore\n  pop\n    /* \"#utility.yul\":3361:4713   */\n  jump\t// out\n    /* \"#utility.yul\":4718:4935   */\ntag_25:\n    /* \"#utility.yul\":4758:4759   */\n  0x00\n    /* \"#utility.yul\":4784:4785   */\n  dup3\n    /* \"#utility.yul\":4774:4906   */\n  tag_105\n  jumpi\n    /* \"#utility.yul\":4828:4838   */\n  0x4e487b71\n    /* \"#utility.yul\":4823:4826   */\n  0xe0\n    /* \"#utility.yul\":4819:4839   */\n  shl\n    /* \"#utility.yul\":4816:4817   */\n  0x00\n    /* \"#utility.yul\":4809:4840   */\n  mstore\n    /* \"#utility.yul\":4863:4867   */\n  0x12\n    /* \"#utility.yul\":4860:4861   */\n  0x04\n    /* \"#utility.yul\":4853:4868   */\n  mstore\n    /* \"#utility.yul\":4891:4895   */\n  0x24\n    /* \"#utility.yul\":4888:4889   */\n  0x00\n    /* \"#utility.yul\":4881:4896   */\n  revert\n    /* \"#utility.yul\":4774:4906   */\ntag_105:\n  pop\n    /* \"#utility.yul\":4920:4929   */\n  div\n  swap1\n    /* \"#utility.yul\":4718:4935   */\n  jump\t// out\n    /* \"#utility.yul\":5300:5428   */\ntag_33:\n    /* \"#utility.yul\":5340:5343   */\n  0x00\n    /* \"#utility.yul\":5371:5372   */\n  dup3\n    /* \"#utility.yul\":5367:5373   */\n  not\n    /* \"#utility.yul\":5364:5365   */\n  dup3\n    /* \"#utility.yul\":5361:5374   */\n  gt\n    /* \"#utility.yul\":5358:5397   */\n  iszero\n  tag_109\n  jumpi\n    /* \"#utility.yul\":5377:5395   */\n  tag_109\n  tag_41\n  jump\t// in\ntag_109:\n  pop\n    /* \"#utility.yul\":5413:5422   */\n  add\n  swap1\n    /* \"#utility.yul\":5300:5428   */\n  jump\t// out\n    /* \"#utility.yul\":5433:5610   */\ntag_49:\n    /* \"Contracts/AccesPolygon.sol\":251:5053  contract MetaccesPolygon is ERC20, ERC20Burnable {... */\n  dataSize(sub_0)\n  dup1\n  dataOffset(sub_0)\n  0x00\n  codecopy\n  0x00\n  return\nstop\n\nsub_0: assembly {\n        /* \"Contracts/AccesPolygon.sol\":251:5053  contract MetaccesPolygon is ERC20, ERC20Burnable {... */\n      mstore(0x40, 0x80)\n      jumpi(tag_1, lt(calldatasize, 0x04))\n      shr(0xe0, calldataload(0x00))\n      dup1\n      0x79cc6790\n      gt\n      tag_31\n      jumpi\n      dup1\n      0xdd62ed3e\n      gt\n      tag_32\n      jumpi\n      dup1\n      0xe7d53fcb\n      gt\n      tag_33\n      jumpi\n      dup1\n      0xe7d53fcb\n      eq\n      tag_27\n      jumpi\n      dup1\n      0xf2fde38b\n      eq\n      tag_28\n      jumpi\n      dup1\n      0xf4f3122e\n      eq\n      tag_29\n      jumpi\n      dup1\n      0xf8897945\n      eq\n      tag_30\n      jumpi\n      0x00\n      dup1\n      revert\n    tag_33:\n      dup1\n      0xdd62ed3e\n      eq\n      tag_24\n      jumpi\n      dup1\n      0xe181203a\n      eq\n      tag_25\n      jumpi\n      dup1\n      0xe78cea92\n      eq\n      tag_26\n      jumpi\n      0x00\n      dup1\n      revert\n    tag_32:\n      dup1\n      0xa457c2d7\n      gt\n      tag_34\n      jumpi\n      dup1\n      0xa457c2d7\n      eq\n      tag_20\n      jumpi\n      dup1\n      0xa9059cbb\n      eq\n      tag_21\n      jumpi\n      dup1\n      0xadbc7cee\n      eq\n      tag_22\n      jumpi\n      dup1\n      0xb2938bee\n      eq\n      tag_23\n      jumpi\n      0x00\n      dup1\n      revert\n    tag_34:\n      dup1\n      0x79cc6790\n      eq\n      tag_17\n      jumpi\n      dup1\n      0x8dd14802\n      eq\n      tag_18\n      jumpi\n      dup1\n      0x95d89b41\n      eq\n      tag_19\n      jumpi\n      0x00\n      dup1\n      revert\n    tag_31:\n      dup1\n      0x3c3b7995\n      gt\n      tag_35\n      jumpi\n      dup1\n      0x4d1d03d1\n      gt\n      tag_36\n      jumpi\n      dup1\n      0x4d1d03d1\n      eq\n      tag_13\n      jumpi\n      dup1\n      0x534b1442\n      eq\n      tag_14\n      jumpi\n      dup1\n      0x6ac5db19\n      eq\n      tag_15\n      jumpi\n      dup1\n      0x70a08231\n      eq\n      tag_16\n      jumpi\n      0x00\n      dup1\n      revert\n    tag_36:\n      dup1\n      0x3c3b7995\n      eq\n      tag_10\n      jumpi\n      dup1\n      0x40c10f19\n      eq\n      tag_11\n      jumpi\n      dup1\n      0x42966c68\n      eq\n      tag_12\n      jumpi\n      0x00\n      dup1\n      revert\n    tag_35:\n      dup1\n      0x23b872dd\n      gt\n      tag_37\n      jumpi\n      dup1\n      0x23b872dd\n      eq\n      tag_6\n      jumpi\n      dup1\n      0x313ce567\n      eq\n      tag_7\n      jumpi\n      dup1\n      0x380d831b\n      eq\n      tag_8\n      jumpi\n      dup1\n      0x39509351\n      eq\n      tag_9\n      jumpi\n      0x00\n      dup1\n      revert\n    tag_37:\n      dup1\n      0x06fdde03\n      eq\n      tag_3\n      jumpi\n      dup1\n      0x095ea7b3\n      eq\n      tag_4\n      jumpi\n      dup1\n      0x18160ddd\n      eq\n      tag_5\n      jumpi\n      0x00\n      dup1\n      revert\n    tag_1:\n      jumpi(tag_2, calldatasize)\n      stop\n    tag_2:\n      0x00\n      dup1\n      revert\n        /* \"@openzeppelin/contracts/token/ERC20/ERC20.sol\":2156:2254  function name() public view virtual override returns (string memory) {... */\n    tag_3:\n      callvalue\n      dup1\n      iszero\n      tag_40\n      jumpi\n      0x00\n      dup1\n      revert\n    tag_40:\n      pop\n      tag_41\n      tag_42\n      jump\t// in\n    tag_41:\n      mload(0x40)\n      tag_43\n      swap2\n      swap1\n      tag_44\n      jump\t// in\n    tag_43:\n      mload(0x40)\n      dup1\n      swap2\n      sub\n      swap1\n      return\n        /* \"@openzeppelin/contracts/token/ERC20/ERC20.sol\":4433:4630  function approve(address spender, uint256 amount) public virtual override returns (bool) {... */\n    tag_4:\n      callvalue\n      dup1\n      iszero\n      tag_45\n      jumpi\n      0x00\n      dup1\n      revert\n    tag_45:\n      pop\n      tag_46\n      tag_47\n      calldatasize\n      0x04\n      tag_48\n      jump\t// in\n    tag_47:\n      tag_49\n      jump\t// in\n    tag_46:\n      mload(0x40)\n        /* \"#utility.yul\":1218:1232   */\n      swap1\n      iszero\n        /* \"#utility.yul\":1211:1233   */\n      iszero\n        /* \"#utility.yul\":1193:1234   */\n      dup2\n      mstore\n        /* \"#utility.yul\":1181:1183   */\n      0x20\n        /* \"#utility.yul\":1166:1184   */\n      add\n        /* \"@openzeppelin/contracts/token/ERC20/ERC20.sol\":4433:4630  function approve(address spender, uint256 amount) public virtual override returns (bool) {... */\n      tag_43\n        /* \"#utility.yul\":1053:1240   */\n      jump\n        /* \"@openzeppelin/contracts/token/ERC20/ERC20.sol\":3244:3350  function totalSupply() public view virtual override returns (uint256) {... */\n    tag_5:\n      callvalue\n      dup1\n      iszero\n      tag_52\n      jumpi\n      0x00\n      dup1\n      revert\n    tag_52:\n      pop\n        /* \"@openzeppelin/contracts/token/ERC20/ERC20.sol\":3331:3343  _totalSupply */\n      sload(0x02)\n        /* \"@openzeppelin/contracts/token/ERC20/ERC20.sol\":3244:3350  function totalSupply() public view virtual override returns (uint256) {... */\n    tag_53:\n      mload(0x40)\n        /* \"#utility.yul\":1391:1416   */\n      swap1\n      dup2\n      mstore\n        /* \"#utility.yul\":1379:1381   */\n      0x20\n        /* \"#utility.yul\":1364:1382   */\n      add\n        /* \"@openzeppelin/contracts/token/ERC20/ERC20.sol\":3244:3350  function totalSupply() public view virtual override returns (uint256) {... */\n      tag_43\n        /* \"#utility.yul\":1245:1422   */\n      jump\n        /* \"@openzeppelin/contracts/token/ERC20/ERC20.sol\":5192:5478  function transferFrom(... */\n    tag_6:\n      callvalue\n      dup1\n      iszero\n      tag_57\n      jumpi\n      0x00\n      dup1\n      revert\n    tag_57:\n      pop\n      tag_46\n      tag_59\n      calldatasize\n      0x04\n      tag_60\n      jump\t// in\n    tag_59:\n      tag_61\n      jump\t// in\n        /* \"@openzeppelin/contracts/token/ERC20/ERC20.sol\":3093:3184  function decimals() public view virtual override returns (uint8) {... */\n    tag_7:\n      callvalue\n      dup1\n      iszero\n      tag_63\n      jumpi\n      0x00\n      dup1\n      revert\n    tag_63:\n      pop\n      mload(0x40)\n        /* \"@openzeppelin/contracts/token/ERC20/ERC20.sol\":3175:3177  18 */\n      0x12\n        /* \"#utility.yul\":1902:1938   */\n      dup2\n      mstore\n        /* \"#utility.yul\":1890:1892   */\n      0x20\n        /* \"#utility.yul\":1875:1893   */\n      add\n        /* \"@openzeppelin/contracts/token/ERC20/ERC20.sol\":3093:3184  function decimals() public view virtual override returns (uint8) {... */\n      tag_43\n        /* \"#utility.yul\":1760:1944   */\n      jump\n        /* \"Contracts/AccesPolygon.sol\":2634:2752  function endSale () public onlyOwner{... */\n    tag_8:\n      callvalue\n      dup1\n      iszero\n      tag_68\n      jumpi\n      0x00\n      dup1\n      revert\n    tag_68:\n      pop\n      tag_69\n      tag_70\n      jump\t// in\n    tag_69:\n      stop\n        /* \"@openzeppelin/contracts/token/ERC20/ERC20.sol\":5873:6107  function increaseAllowance(address spender, uint256 addedValue) public virtual returns (bool) {... */\n    tag_9:\n      callvalue\n      dup1\n      iszero\n      tag_71\n      jumpi\n      0x00\n      dup1\n      revert\n    tag_71:\n      pop\n      tag_46\n      tag_73\n      calldatasize\n      0x04\n      tag_48\n      jump\t// in\n    tag_73:\n      tag_74\n      jump\t// in\n        /* \"Contracts/AccesPolygon.sol\":619:656  uint256 public privateLimit = 1000000 */\n    tag_10:\n      callvalue\n      dup1\n      iszero\n      tag_76\n      jumpi\n      0x00\n      dup1\n      revert\n    tag_76:\n      pop\n      tag_53\n      sload(0x0e)\n      dup2\n      jump\n        /* \"Contracts/AccesPolygon.sol\":4089:4263  function mint(... */\n    tag_11:\n      callvalue\n      dup1\n      iszero\n      tag_80\n      jumpi\n      0x00\n      dup1\n      revert\n    tag_80:\n      pop\n      tag_69\n      tag_82\n      calldatasize\n      0x04\n      tag_48\n      jump\t// in\n    tag_82:\n      tag_83\n      jump\t// in\n        /* \"Contracts/AccesPolygon.sol\":4379:4552  function burn(... */\n    tag_12:\n      callvalue\n      dup1\n      iszero\n      tag_84\n      jumpi\n      0x00\n      dup1\n      revert\n    tag_84:\n      pop\n      tag_69\n      tag_86\n      calldatasize\n      0x04\n      tag_87\n      jump\t// in\n    tag_86:\n      tag_88\n      jump\t// in\n        /* \"Contracts/AccesPolygon.sol\":2286:2451  function viewSale() public view returns(uint256 StartBlock, uint256 EndBlock, uint256 SaleCount, uint256 SalePrice){... */\n    tag_13:\n      callvalue\n      dup1\n      iszero\n      tag_89\n      jumpi\n      0x00\n      dup1\n      revert\n    tag_89:\n      pop\n        /* \"Contracts/AccesPolygon.sol\":2414:2421  sSBlock */\n      sload(0x07)\n        /* \"Contracts/AccesPolygon.sol\":2423:2430  sEBlock */\n      sload(0x08)\n        /* \"Contracts/AccesPolygon.sol\":2432:2436  sTot */\n      sload(0x09)\n        /* \"Contracts/AccesPolygon.sol\":2439:2445  sPrice */\n      sload(0x0a)\n        /* \"Contracts/AccesPolygon.sol\":2286:2451  function viewSale() public view returns(uint256 StartBlock, uint256 EndBlock, uint256 SaleCount, uint256 SalePrice){... */\n      0x40\n      dup1\n      mload\n        /* \"#utility.yul\":2365:2390   */\n      swap5\n      dup6\n      mstore\n        /* \"#utility.yul\":2421:2423   */\n      0x20\n        /* \"#utility.yul\":2406:2424   */\n      dup6\n      add\n        /* \"#utility.yul\":2399:2433   */\n      swap4\n      swap1\n      swap4\n      mstore\n        /* \"#utility.yul\":2449:2467   */\n      swap2\n      dup4\n      add\n        /* \"#utility.yul\":2442:2476   */\n      mstore\n        /* \"#utility.yul\":2507:2509   */\n      0x60\n        /* \"#utility.yul\":2492:2510   */\n      dup3\n      add\n        /* \"#utility.yul\":2485:2519   */\n      mstore\n        /* \"#utility.yul\":2352:2355   */\n      0x80\n        /* \"#utility.yul\":2337:2356   */\n      add\n        /* \"Contracts/AccesPolygon.sol\":2286:2451  function viewSale() public view returns(uint256 StartBlock, uint256 EndBlock, uint256 SaleCount, uint256 SalePrice){... */\n      tag_43\n        /* \"#utility.yul\":2134:2525   */\n      jump\n        /* \"Contracts/AccesPolygon.sol\":3005:3170  function setPrivateLimit (uint256 _limit) external onlyOwner {... */\n    tag_14:\n      callvalue\n      dup1\n      iszero\n      tag_94\n      jumpi\n      0x00\n      dup1\n      revert\n    tag_94:\n      pop\n      tag_69\n      tag_96\n      calldatasize\n      0x04\n      tag_87\n      jump\t// in\n    tag_96:\n      tag_97\n      jump\t// in\n        /* \"Contracts/AccesPolygon.sol\":544:574  uint256 public max = 20 * path */\n    tag_15:\n      callvalue\n      dup1\n      iszero\n      tag_98\n      jumpi\n      0x00\n      dup1\n      revert\n    tag_98:\n      pop\n      tag_53\n      sload(0x0c)\n      dup2\n      jump\n        /* \"@openzeppelin/contracts/token/ERC20/ERC20.sol\":3408:3533  function balanceOf(address account) public view virtual override returns (uint256) {... */\n    tag_16:\n      callvalue\n      dup1\n      iszero\n      tag_102\n      jumpi\n      0x00\n      dup1\n      revert\n    tag_102:\n      pop\n      tag_53\n      tag_104\n      calldatasize\n      0x04\n      tag_105\n      jump\t// in\n    tag_104:\n      sub(shl(0xa0, 0x01), 0x01)\n        /* \"@openzeppelin/contracts/token/ERC20/ERC20.sol\":3508:3526  _balances[account] */\n      and\n        /* \"@openzeppelin/contracts/token/ERC20/ERC20.sol\":3482:3489  uint256 */\n      0x00\n        /* \"@openzeppelin/contracts/token/ERC20/ERC20.sol\":3508:3526  _balances[account] */\n      swap1\n      dup2\n      mstore\n      0x20\n      dup2\n      swap1\n      mstore\n      0x40\n      swap1\n      keccak256\n      sload\n      swap1\n        /* \"@openzeppelin/contracts/token/ERC20/ERC20.sol\":3408:3533  function balanceOf(address account) public view virtual override returns (uint256) {... */\n      jump\n        /* \"Contracts/AccesPolygon.sol\":4668:4883  function burnFrom(... */\n    tag_17:\n      callvalue\n      dup1\n      iszero\n      tag_108\n      jumpi\n      0x00\n      dup1\n      revert\n    tag_108:\n      pop\n      tag_69\n      tag_110\n      calldatasize\n      0x04\n      tag_48\n      jump\t// in\n    tag_110:\n      tag_111\n      jump\t// in\n        /* \"Contracts/AccesPolygon.sol\":3834:4005  function setBridge(address _bridge) onlyOwner public {... */\n    tag_18:\n      callvalue\n      dup1\n      iszero\n      tag_112\n      jumpi\n      0x00\n      dup1\n      revert\n    tag_112:\n      pop\n      tag_69\n      tag_114\n      calldatasize\n      0x04\n      tag_105\n      jump\t// in\n    tag_114:\n      tag_115\n      jump\t// in\n        /* \"@openzeppelin/contracts/token/ERC20/ERC20.sol\":2367:2469  function symbol() public view virtual override returns (string memory) {... */\n    tag_19:\n      callvalue\n      dup1\n      iszero\n      tag_116\n      jumpi\n      0x00\n      dup1\n      revert\n    tag_116:\n      pop\n      tag_41\n      tag_118\n      jump\t// in\n        /* \"@openzeppelin/contracts/token/ERC20/ERC20.sol\":6594:7021  function decreaseAllowance(address spender, uint256 subtractedValue) public virtual returns (bool) {... */\n    tag_20:\n      callvalue\n      dup1\n      iszero\n      tag_120\n      jumpi\n      0x00\n      dup1\n      revert\n    tag_120:\n      pop\n      tag_46\n      tag_122\n      calldatasize\n      0x04\n      tag_48\n      jump\t// in\n    tag_122:\n      tag_123\n      jump\t// in\n        /* \"@openzeppelin/contracts/token/ERC20/ERC20.sol\":3729:3918  function transfer(address to, uint256 amount) public virtual override returns (bool) {... */\n    tag_21:\n      callvalue\n      dup1\n      iszero\n      tag_125\n      jumpi\n      0x00\n      dup1\n      revert\n    tag_125:\n      pop\n      tag_46\n      tag_127\n      calldatasize\n      0x04\n      tag_48\n      jump\t// in\n    tag_127:\n      tag_128\n      jump\t// in\n        /* \"Contracts/AccesPolygon.sol\":3544:3830  function withdrawalBNB(uint256 _amount, uint256 decimal, address to) external onlyOwner() {... */\n    tag_22:\n      callvalue\n      dup1\n      iszero\n      tag_130\n      jumpi\n      0x00\n      dup1\n      revert\n    tag_130:\n      pop\n      tag_69\n      tag_132\n      calldatasize\n      0x04\n      tag_133\n      jump\t// in\n    tag_132:\n      tag_134\n      jump\t// in\n        /* \"Contracts/AccesPolygon.sol\":3174:3536  function withdrawalToken(address _tokenAddr, uint256 _amount, uint256 decimal, address to) external onlyOwner() {... */\n    tag_23:\n      callvalue\n      dup1\n      iszero\n      tag_135\n      jumpi\n      0x00\n      dup1\n      revert\n    tag_135:\n      pop\n      tag_69\n      tag_137\n      calldatasize\n      0x04\n      tag_138\n      jump\t// in\n    tag_137:\n      tag_139\n      jump\t// in\n        /* \"@openzeppelin/contracts/token/ERC20/ERC20.sol\":3976:4125  function allowance(address owner, address spender) public view virtual override returns (uint256) {... */\n    tag_24:\n      callvalue\n      dup1\n      iszero\n      tag_140\n      jumpi\n      0x00\n      dup1\n      revert\n    tag_140:\n      pop\n      tag_53\n      tag_142\n      calldatasize\n      0x04\n      tag_143\n      jump\t// in\n    tag_142:\n      tag_144\n      jump\t// in\n        /* \"Contracts/AccesPolygon.sol\":2756:3001  function changeMinMaxPrivateSale(uint256 minAmount, uint256 maxAmount) external onlyOwner {... */\n    tag_25:\n      callvalue\n      dup1\n      iszero\n      tag_146\n      jumpi\n      0x00\n      dup1\n      revert\n    tag_146:\n      pop\n      tag_69\n      tag_148\n      calldatasize\n      0x04\n      tag_149\n      jump\t// in\n    tag_148:\n      tag_150\n      jump\t// in\n        /* \"Contracts/AccesPolygon.sol\":365:386  address public bridge */\n    tag_26:\n      callvalue\n      dup1\n      iszero\n      tag_151\n      jumpi\n      0x00\n      dup1\n      revert\n    tag_151:\n      pop\n      sload(0x06)\n      tag_152\n      swap1\n      sub(shl(0xa0, 0x01), 0x01)\n      and\n      dup2\n      jump\n    tag_152:\n      mload(0x40)\n      sub(shl(0xa0, 0x01), 0x01)\n        /* \"#utility.yul\":4132:4164   */\n      swap1\n      swap2\n      and\n        /* \"#utility.yul\":4114:4165   */\n      dup2\n      mstore\n        /* \"#utility.yul\":4102:4104   */\n      0x20\n        /* \"#utility.yul\":4087:4105   */\n      add\n        /* \"Contracts/AccesPolygon.sol\":365:386  address public bridge */\n      tag_43\n        /* \"#utility.yul\":3968:4171   */\n      jump\n        /* \"Contracts/AccesPolygon.sol\":1680:2282  function privateSale(address) public payable returns (bool success){... */\n    tag_27:\n      tag_46\n      tag_157\n      calldatasize\n      0x04\n      tag_105\n      jump\t// in\n    tag_157:\n      tag_158\n      jump\t// in\n        /* \"Contracts/AccesPolygon.sol\":1470:1675  function transferOwnership(address _newOwner) external onlyOwner{... */\n    tag_28:\n      callvalue\n      dup1\n      iszero\n      tag_160\n      jumpi\n      0x00\n      dup1\n      revert\n    tag_160:\n      pop\n      tag_69\n      tag_162\n      calldatasize\n      0x04\n      tag_105\n      jump\t// in\n    tag_162:\n      tag_163\n      jump\t// in\n        /* \"Contracts/AccesPolygon.sol\":2457:2628  function startSale(uint256 _sEBlock, uint256 _sPrice) public onlyOwner{... */\n    tag_29:\n      callvalue\n      dup1\n      iszero\n      tag_164\n      jumpi\n      0x00\n      dup1\n      revert\n    tag_164:\n      pop\n      tag_69\n      tag_166\n      calldatasize\n      0x04\n      tag_149\n      jump\t// in\n    tag_166:\n      tag_167\n      jump\t// in\n        /* \"Contracts/AccesPolygon.sol\":580:613  uint256 public min = max.div(100) */\n    tag_30:\n      callvalue\n      dup1\n      iszero\n      tag_168\n      jumpi\n      0x00\n      dup1\n      revert\n    tag_168:\n      pop\n      tag_53\n      sload(0x0d)\n      dup2\n      jump\n        /* \"@openzeppelin/contracts/token/ERC20/ERC20.sol\":2156:2254  function name() public view virtual override returns (string memory) {... */\n    tag_42:\n        /* \"@openzeppelin/contracts/token/ERC20/ERC20.sol\":2210:2223  string memory */\n      0x60\n        /* \"@openzeppelin/contracts/token/ERC20/ERC20.sol\":2242:2247  _name */\n      0x03\n        /* \"@openzeppelin/contracts/token/ERC20/ERC20.sol\":2235:2247  return _name */\n      dup1\n      sload\n      tag_174\n      swap1\n      tag_175\n      jump\t// in\n    tag_174:\n      dup1\n      0x1f\n      add\n      0x20\n      dup1\n      swap2\n      div\n      mul\n      0x20\n      add\n      mload(0x40)\n      swap1\n      dup2\n      add\n      0x40\n      mstore\n      dup1\n      swap3\n      swap2\n      swap1\n      dup2\n      dup2\n      mstore\n      0x20\n      add\n      dup3\n      dup1\n      sload\n      tag_176\n      swap1\n      tag_175\n      jump\t// in\n    tag_176:\n      dup1\n      iszero\n      tag_177\n      jumpi\n      dup1\n      0x1f\n      lt\n      tag_178\n      jumpi\n      0x0100\n      dup1\n      dup4\n      sload\n      div\n      mul\n      dup4\n      mstore\n      swap2\n      0x20\n      add\n      swap2\n      jump(tag_177)\n    tag_178:\n      dup3\n      add\n      swap2\n      swap1\n      0x00\n      mstore\n      keccak256(0x00, 0x20)\n      swap1\n    tag_179:\n      dup2\n      sload\n      dup2\n      mstore\n      swap1\n      0x01\n      add\n      swap1\n      0x20\n      add\n      dup1\n      dup4\n      gt\n      tag_179\n      jumpi\n      dup3\n      swap1\n      sub\n      0x1f\n      and\n      dup3\n      add\n      swap2\n    tag_177:\n      pop\n      pop\n      pop\n      pop\n      pop\n      swap1\n      pop\n        /* \"@openzeppelin/contracts/token/ERC20/ERC20.sol\":2156:2254  function name() public view virtual override returns (string memory) {... */\n      swap1\n      jump\t// out\n        /* \"@openzeppelin/contracts/token/ERC20/ERC20.sol\":4433:4630  function approve(address spender, uint256 amount) public virtual override returns (bool) {... */\n    tag_49:\n        /* \"@openzeppelin/contracts/token/ERC20/ERC20.sol\":4516:4520  bool */\n      0x00\n        /* \"@openzeppelin/contracts/utils/Context.sol\":719:729  msg.sender */\n      caller\n        /* \"@openzeppelin/contracts/token/ERC20/ERC20.sol\":4570:4602  _approve(owner, spender, amount) */\n      tag_183\n        /* \"@openzeppelin/contracts/utils/Context.sol\":719:729  msg.sender */\n      dup2\n        /* \"@openzeppelin/contracts/token/ERC20/ERC20.sol\":4586:4593  spender */\n      dup6\n        /* \"@openzeppelin/contracts/token/ERC20/ERC20.sol\":4595:4601  amount */\n      dup6\n        /* \"@openzeppelin/contracts/token/ERC20/ERC20.sol\":4570:4578  _approve */\n      tag_184\n        /* \"@openzeppelin/contracts/token/ERC20/ERC20.sol\":4570:4602  _approve(owner, spender, amount) */\n      jump\t// in\n    tag_183:\n        /* \"@openzeppelin/contracts/token/ERC20/ERC20.sol\":4619:4623  true */\n      0x01\n        /* \"@openzeppelin/contracts/token/ERC20/ERC20.sol\":4612:4623  return true */\n      swap2\n      pop\n      pop\n        /* \"@openzeppelin/contracts/token/ERC20/ERC20.sol\":4433:4630  function approve(address spender, uint256 amount) public virtual override returns (bool) {... */\n    tag_180:\n      swap3\n      swap2\n      pop\n      pop\n      jump\t// out\n        /* \"@openzeppelin/contracts/token/ERC20/ERC20.sol\":5192:5478  function transferFrom(... */\n    tag_61:\n        /* \"@openzeppelin/contracts/token/ERC20/ERC20.sol\":5319:5323  bool */\n      0x00\n        /* \"@openzeppelin/contracts/utils/Context.sol\":719:729  msg.sender */\n      caller\n        /* \"@openzeppelin/contracts/token/ERC20/ERC20.sol\":5375:5413  _spendAllowance(from, spender, amount) */\n      tag_188\n        /* \"@openzeppelin/contracts/token/ERC20/ERC20.sol\":5391:5395  from */\n      dup6\n        /* \"@openzeppelin/contracts/utils/Context.sol\":719:729  msg.sender */\n      dup3\n        /* \"@openzeppelin/contracts/token/ERC20/ERC20.sol\":5406:5412  amount */\n      dup6\n        /* \"@openzeppelin/contracts/token/ERC20/ERC20.sol\":5375:5390  _spendAllowance */\n      tag_189\n        /* \"@openzeppelin/contracts/token/ERC20/ERC20.sol\":5375:5413  _spendAllowance(from, spender, amount) */\n      jump\t// in\n    tag_188:\n        /* \"@openzeppelin/contracts/token/ERC20/ERC20.sol\":5423:5450  _transfer(from, to, amount) */\n      tag_190\n        /* \"@openzeppelin/contracts/token/ERC20/ERC20.sol\":5433:5437  from */\n      dup6\n        /* \"@openzeppelin/contracts/token/ERC20/ERC20.sol\":5439:5441  to */\n      dup6\n        /* \"@openzeppelin/contracts/token/ERC20/ERC20.sol\":5443:5449  amount */\n      dup6\n        /* \"@openzeppelin/contracts/token/ERC20/ERC20.sol\":5423:5432  _transfer */\n      tag_191\n        /* \"@openzeppelin/contracts/token/ERC20/ERC20.sol\":5423:5450  _transfer(from, to, amount) */\n      jump\t// in\n    tag_190:\n      pop\n        /* \"@openzeppelin/contracts/token/ERC20/ERC20.sol\":5467:5471  true */\n      0x01\n      swap5\n        /* \"@openzeppelin/contracts/token/ERC20/ERC20.sol\":5192:5478  function transferFrom(... */\n      swap4\n      pop\n      pop\n      pop\n      pop\n      jump\t// out\n        /* \"Contracts/AccesPolygon.sol\":2634:2752  function endSale () public onlyOwner{... */\n    tag_70:\n        /* \"Contracts/AccesPolygon.sol\":1222:1227  owner */\n      and(sub(shl(0xa0, 0x01), 0x01), sload(0x05))\n        /* \"Contracts/AccesPolygon.sol\":1208:1218  msg.sender */\n      caller\n        /* \"Contracts/AccesPolygon.sol\":1208:1227  msg.sender == owner */\n      eq\n        /* \"Contracts/AccesPolygon.sol\":1200:1248  require(msg.sender == owner,\"caller not owner!\") */\n      tag_194\n      jumpi\n      mload(0x40)\n      shl(0xe5, 0x461bcd)\n      dup2\n      mstore\n      0x04\n      add\n      tag_195\n      swap1\n      tag_196\n      jump\t// in\n    tag_195:\n      mload(0x40)\n      dup1\n      swap2\n      sub\n      swap1\n      revert\n    tag_194:\n        /* \"Contracts/AccesPolygon.sol\":2692:2704  block.number */\n      number\n        /* \"Contracts/AccesPolygon.sol\":2682:2689  sEBlock */\n      0x08\n        /* \"Contracts/AccesPolygon.sol\":2682:2704  sEBlock = block.number */\n      sstore\n        /* \"Contracts/AccesPolygon.sol\":2721:2747  saleEnded(block.timestamp) */\n      mload(0x40)\n        /* \"Contracts/AccesPolygon.sol\":2731:2746  block.timestamp */\n      timestamp\n        /* \"#utility.yul\":1391:1416   */\n      dup2\n      mstore\n        /* \"Contracts/AccesPolygon.sol\":2721:2747  saleEnded(block.timestamp) */\n      0xb144be0f16f8d30f2e18ef8f7938d5e90207932d96650e592ff47725716818fb\n      swap1\n        /* \"#utility.yul\":1379:1381   */\n      0x20\n        /* \"#utility.yul\":1364:1382   */\n      add\n        /* \"Contracts/AccesPolygon.sol\":2721:2747  saleEnded(block.timestamp) */\n      mload(0x40)\n      dup1\n      swap2\n      sub\n      swap1\n      log1\n        /* \"Contracts/AccesPolygon.sol\":2634:2752  function endSale () public onlyOwner{... */\n      jump\t// out\n        /* \"@openzeppelin/contracts/token/ERC20/ERC20.sol\":5873:6107  function increaseAllowance(address spender, uint256 addedValue) public virtual returns (bool) {... */\n    tag_74:\n        /* \"@openzeppelin/contracts/token/ERC20/ERC20.sol\":5961:5965  bool */\n      0x00\n        /* \"@openzeppelin/contracts/utils/Context.sol\":719:729  msg.sender */\n      caller\n        /* \"@openzeppelin/contracts/token/ERC20/ERC20.sol\":6015:6079  _approve(owner, spender, allowance(owner, spender) + addedValue) */\n      tag_183\n        /* \"@openzeppelin/contracts/utils/Context.sol\":719:729  msg.sender */\n      dup2\n        /* \"@openzeppelin/contracts/token/ERC20/ERC20.sol\":6031:6038  spender */\n      dup6\n        /* \"@openzeppelin/contracts/token/ERC20/ERC20.sol\":6068:6078  addedValue */\n      dup6\n        /* \"@openzeppelin/contracts/token/ERC20/ERC20.sol\":6040:6065  allowance(owner, spender) */\n      tag_202\n        /* \"@openzeppelin/contracts/utils/Context.sol\":719:729  msg.sender */\n      dup4\n        /* \"@openzeppelin/contracts/token/ERC20/ERC20.sol\":6031:6038  spender */\n      dup4\n        /* \"@openzeppelin/contracts/token/ERC20/ERC20.sol\":6040:6049  allowance */\n      tag_144\n        /* \"@openzeppelin/contracts/token/ERC20/ERC20.sol\":6040:6065  allowance(owner, spender) */\n      jump\t// in\n    tag_202:\n        /* \"@openzeppelin/contracts/token/ERC20/ERC20.sol\":6040:6078  allowance(owner, spender) + addedValue */\n      tag_203\n      swap2\n      swap1\n      tag_204\n      jump\t// in\n    tag_203:\n        /* \"@openzeppelin/contracts/token/ERC20/ERC20.sol\":6015:6023  _approve */\n      tag_184\n        /* \"@openzeppelin/contracts/token/ERC20/ERC20.sol\":6015:6079  _approve(owner, spender, allowance(owner, spender) + addedValue) */\n      jump\t// in\n        /* \"Contracts/AccesPolygon.sol\":4089:4263  function mint(... */\n    tag_83:\n        /* \"Contracts/AccesPolygon.sol\":4939:4945  bridge */\n      and(sub(shl(0xa0, 0x01), 0x01), sload(0x06))\n        /* \"Contracts/AccesPolygon.sol\":4925:4935  msg.sender */\n      caller\n        /* \"Contracts/AccesPolygon.sol\":4925:4945  msg.sender == bridge */\n      eq\n        /* \"Contracts/AccesPolygon.sol\":4917:5001  require(msg.sender == bridge, \"only bridge has access to this child token function\") */\n      tag_206\n      jumpi\n      mload(0x40)\n      shl(0xe5, 0x461bcd)\n      dup2\n      mstore\n      0x04\n      add\n      tag_195\n      swap1\n      tag_208\n      jump\t// in\n    tag_206:\n        /* \"Contracts/AccesPolygon.sol\":4232:4256  _mint(recipient, amount) */\n      tag_210\n        /* \"Contracts/AccesPolygon.sol\":4238:4247  recipient */\n      dup3\n        /* \"Contracts/AccesPolygon.sol\":4249:4255  amount */\n      dup3\n        /* \"Contracts/AccesPolygon.sol\":4232:4237  _mint */\n      tag_211\n        /* \"Contracts/AccesPolygon.sol\":4232:4256  _mint(recipient, amount) */\n      jump\t// in\n    tag_210:\n        /* \"Contracts/AccesPolygon.sol\":4089:4263  function mint(... */\n      pop\n      pop\n      jump\t// out\n        /* \"Contracts/AccesPolygon.sol\":4379:4552  function burn(... */\n    tag_88:\n        /* \"Contracts/AccesPolygon.sol\":4939:4945  bridge */\n      and(sub(shl(0xa0, 0x01), 0x01), sload(0x06))\n        /* \"Contracts/AccesPolygon.sol\":4925:4935  msg.sender */\n      caller\n        /* \"Contracts/AccesPolygon.sol\":4925:4945  msg.sender == bridge */\n      eq\n        /* \"Contracts/AccesPolygon.sol\":4917:5001  require(msg.sender == bridge, \"only bridge has access to this child token function\") */\n      tag_213\n      jumpi\n      mload(0x40)\n      shl(0xe5, 0x461bcd)\n      dup2\n      mstore\n      0x04\n      add\n      tag_195\n      swap1\n      tag_208\n      jump\t// in\n    tag_213:\n        /* \"Contracts/AccesPolygon.sol\":4527:4545  super.burn(amount) */\n      tag_216\n        /* \"Contracts/AccesPolygon.sol\":4538:4544  amount */\n      dup2\n        /* \"Contracts/AccesPolygon.sol\":4527:4537  super.burn */\n      tag_217\n        /* \"Contracts/AccesPolygon.sol\":4527:4545  super.burn(amount) */\n      jump\t// in\n    tag_216:\n        /* \"Contracts/AccesPolygon.sol\":4379:4552  function burn(... */\n      pop\n      jump\t// out\n        /* \"Contracts/AccesPolygon.sol\":3005:3170  function setPrivateLimit (uint256 _limit) external onlyOwner {... */\n    tag_97:\n        /* \"Contracts/AccesPolygon.sol\":1222:1227  owner */\n      and(sub(shl(0xa0, 0x01), 0x01), sload(0x05))\n        /* \"Contracts/AccesPolygon.sol\":1208:1218  msg.sender */\n      caller\n        /* \"Contracts/AccesPolygon.sol\":1208:1227  msg.sender == owner */\n      eq\n        /* \"Contracts/AccesPolygon.sol\":1200:1248  require(msg.sender == owner,\"caller not owner!\") */\n      tag_220\n      jumpi\n      mload(0x40)\n      shl(0xe5, 0x461bcd)\n      dup2\n      mstore\n      0x04\n      add\n      tag_195\n      swap1\n      tag_196\n      jump\t// in\n    tag_220:\n        /* \"Contracts/AccesPolygon.sol\":3082:3088  _limit */\n      dup1\n        /* \"Contracts/AccesPolygon.sol\":3092:3093  0 */\n      0x00\n        /* \"Contracts/AccesPolygon.sol\":3082:3093  _limit != 0 */\n      sub\n        /* \"Contracts/AccesPolygon.sol\":3074:3103  require(_limit != 0, \"zero!\") */\n      tag_223\n      jumpi\n      mload(0x40)\n      shl(0xe5, 0x461bcd)\n      dup2\n      mstore\n        /* \"#utility.yul\":5794:5796   */\n      0x20\n        /* \"Contracts/AccesPolygon.sol\":3074:3103  require(_limit != 0, \"zero!\") */\n      0x04\n      dup3\n      add\n        /* \"#utility.yul\":5776:5797   */\n      mstore\n        /* \"#utility.yul\":5833:5834   */\n      0x05\n        /* \"#utility.yul\":5813:5831   */\n      0x24\n      dup3\n      add\n        /* \"#utility.yul\":5806:5835   */\n      mstore\n      shl(0xd8, 0x7a65726f21)\n        /* \"#utility.yul\":5851:5869   */\n      0x44\n      dup3\n      add\n        /* \"#utility.yul\":5844:5879   */\n      mstore\n        /* \"#utility.yul\":5896:5914   */\n      0x64\n      add\n        /* \"Contracts/AccesPolygon.sol\":3074:3103  require(_limit != 0, \"zero!\") */\n      tag_195\n        /* \"#utility.yul\":5592:5920   */\n      jump\n        /* \"Contracts/AccesPolygon.sol\":3074:3103  require(_limit != 0, \"zero!\") */\n    tag_223:\n        /* \"Contracts/AccesPolygon.sol\":3111:3123  privateLimit */\n      0x0e\n        /* \"Contracts/AccesPolygon.sol\":3111:3132  privateLimit = _limit */\n      dup2\n      swap1\n      sstore\n        /* \"Contracts/AccesPolygon.sol\":3145:3165  PrivateLimit(_limit) */\n      mload(0x40)\n        /* \"#utility.yul\":1391:1416   */\n      dup2\n      dup2\n      mstore\n        /* \"Contracts/AccesPolygon.sol\":3145:3165  PrivateLimit(_limit) */\n      0x6d487f3988610155b3a9ef590f8ac170134d24e6505b9ddd3160e34abaa0edaf\n      swap1\n        /* \"#utility.yul\":1379:1381   */\n      0x20\n        /* \"#utility.yul\":1364:1382   */\n      add\n        /* \"Contracts/AccesPolygon.sol\":3145:3165  PrivateLimit(_limit) */\n      mload(0x40)\n      dup1\n      swap2\n      sub\n      swap1\n      log1\n        /* \"Contracts/AccesPolygon.sol\":3005:3170  function setPrivateLimit (uint256 _limit) external onlyOwner {... */\n      pop\n      jump\t// out\n        /* \"Contracts/AccesPolygon.sol\":4668:4883  function burnFrom(... */\n    tag_111:\n        /* \"Contracts/AccesPolygon.sol\":4939:4945  bridge */\n      and(sub(shl(0xa0, 0x01), 0x01), sload(0x06))\n        /* \"Contracts/AccesPolygon.sol\":4925:4935  msg.sender */\n      caller\n        /* \"Contracts/AccesPolygon.sol\":4925:4945  msg.sender == bridge */\n      eq\n        /* \"Contracts/AccesPolygon.sol\":4917:5001  require(msg.sender == bridge, \"only bridge has access to this child token function\") */\n      tag_229\n      jumpi\n      mload(0x40)\n      shl(0xe5, 0x461bcd)\n      dup2\n      mstore\n      0x04\n      add\n      tag_195\n      swap1\n      tag_208\n      jump\t// in\n    tag_229:\n        /* \"Contracts/AccesPolygon.sol\":4845:4876  super.burnFrom(account, amount) */\n      tag_210\n        /* \"Contracts/AccesPolygon.sol\":4860:4867  account */\n      dup3\n        /* \"Contracts/AccesPolygon.sol\":4869:4875  amount */\n      dup3\n        /* \"Contracts/AccesPolygon.sol\":4845:4859  super.burnFrom */\n      tag_233\n        /* \"Contracts/AccesPolygon.sol\":4845:4876  super.burnFrom(account, amount) */\n      jump\t// in\n        /* \"Contracts/AccesPolygon.sol\":3834:4005  function setBridge(address _bridge) onlyOwner public {... */\n    tag_115:\n        /* \"Contracts/AccesPolygon.sol\":1222:1227  owner */\n      and(sub(shl(0xa0, 0x01), 0x01), sload(0x05))\n        /* \"Contracts/AccesPolygon.sol\":1208:1218  msg.sender */\n      caller\n        /* \"Contracts/AccesPolygon.sol\":1208:1227  msg.sender == owner */\n      eq\n        /* \"Contracts/AccesPolygon.sol\":1200:1248  require(msg.sender == owner,\"caller not owner!\") */\n      tag_235\n      jumpi\n      mload(0x40)\n      shl(0xe5, 0x461bcd)\n      dup2\n      mstore\n      0x04\n      add\n      tag_195\n      swap1\n      tag_196\n      jump\t// in\n    tag_235:\n      sub(shl(0xa0, 0x01), 0x01)\n        /* \"Contracts/AccesPolygon.sol\":3903:3924  _bridge != address(0) */\n      dup2\n      and\n        /* \"Contracts/AccesPolygon.sol\":3895:3941  require(_bridge != address(0),\"zero address!\") */\n      tag_238\n      jumpi\n      mload(0x40)\n      shl(0xe5, 0x461bcd)\n      dup2\n      mstore\n        /* \"#utility.yul\":6127:6129   */\n      0x20\n        /* \"Contracts/AccesPolygon.sol\":3895:3941  require(_bridge != address(0),\"zero address!\") */\n      0x04\n      dup3\n      add\n        /* \"#utility.yul\":6109:6130   */\n      mstore\n        /* \"#utility.yul\":6166:6168   */\n      0x0d\n        /* \"#utility.yul\":6146:6164   */\n      0x24\n      dup3\n      add\n        /* \"#utility.yul\":6139:6169   */\n      mstore\n      shl(0x98, 0x7a65726f206164647265737321)\n        /* \"#utility.yul\":6185:6203   */\n      0x44\n      dup3\n      add\n        /* \"#utility.yul\":6178:6221   */\n      mstore\n        /* \"#utility.yul\":6238:6256   */\n      0x64\n      add\n        /* \"Contracts/AccesPolygon.sol\":3895:3941  require(_bridge != address(0),\"zero address!\") */\n      tag_195\n        /* \"#utility.yul\":5925:6262   */\n      jump\n        /* \"Contracts/AccesPolygon.sol\":3895:3941  require(_bridge != address(0),\"zero address!\") */\n    tag_238:\n        /* \"Contracts/AccesPolygon.sol\":3954:3972  SetBridge(_bridge) */\n      mload(0x40)\n      sub(shl(0xa0, 0x01), 0x01)\n        /* \"#utility.yul\":4132:4164   */\n      dup3\n      and\n        /* \"#utility.yul\":4114:4165   */\n      dup2\n      mstore\n        /* \"Contracts/AccesPolygon.sol\":3954:3972  SetBridge(_bridge) */\n      0xe605ac02ea219003ec58fc9cf4d4b3c5f2d62ec39807b1c63886ddd47a6fcd6e\n      swap1\n        /* \"#utility.yul\":4102:4104   */\n      0x20\n        /* \"#utility.yul\":4087:4105   */\n      add\n        /* \"Contracts/AccesPolygon.sol\":3954:3972  SetBridge(_bridge) */\n      mload(0x40)\n      dup1\n      swap2\n      sub\n      swap1\n      log1\n        /* \"Contracts/AccesPolygon.sol\":3982:3988  bridge */\n      0x06\n        /* \"Contracts/AccesPolygon.sol\":3982:3998  bridge = _bridge */\n      dup1\n      sload\n      not(sub(shl(0xa0, 0x01), 0x01))\n      and\n      sub(shl(0xa0, 0x01), 0x01)\n      swap3\n      swap1\n      swap3\n      and\n      swap2\n      swap1\n      swap2\n      or\n      swap1\n      sstore\n        /* \"Contracts/AccesPolygon.sol\":3834:4005  function setBridge(address _bridge) onlyOwner public {... */\n      jump\t// out\n        /* \"@openzeppelin/contracts/token/ERC20/ERC20.sol\":2367:2469  function symbol() public view virtual override returns (string memory) {... */\n    tag_118:\n        /* \"@openzeppelin/contracts/token/ERC20/ERC20.sol\":2423:2436  string memory */\n      0x60\n        /* \"@openzeppelin/contracts/token/ERC20/ERC20.sol\":2455:2462  _symbol */\n      0x04\n        /* \"@openzeppelin/contracts/token/ERC20/ERC20.sol\":2448:2462  return _symbol */\n      dup1\n      sload\n      tag_174\n      swap1\n      tag_175\n      jump\t// in\n        /* \"@openzeppelin/contracts/token/ERC20/ERC20.sol\":6594:7021  function decreaseAllowance(address spender, uint256 subtractedValue) public virtual returns (bool) {... */\n    tag_123:\n        /* \"@openzeppelin/contracts/token/ERC20/ERC20.sol\":6687:6691  bool */\n      0x00\n        /* \"@openzeppelin/contracts/utils/Context.sol\":719:729  msg.sender */\n      caller\n        /* \"@openzeppelin/contracts/token/ERC20/ERC20.sol\":6687:6691  bool */\n      dup2\n        /* \"@openzeppelin/contracts/token/ERC20/ERC20.sol\":6768:6793  allowance(owner, spender) */\n      tag_250\n        /* \"@openzeppelin/contracts/utils/Context.sol\":719:729  msg.sender */\n      dup3\n        /* \"@openzeppelin/contracts/token/ERC20/ERC20.sol\":6785:6792  spender */\n      dup7\n        /* \"@openzeppelin/contracts/token/ERC20/ERC20.sol\":6768:6777  allowance */\n      tag_144\n        /* \"@openzeppelin/contracts/token/ERC20/ERC20.sol\":6768:6793  allowance(owner, spender) */\n      jump\t// in\n    tag_250:\n        /* \"@openzeppelin/contracts/token/ERC20/ERC20.sol\":6741:6793  uint256 currentAllowance = allowance(owner, spender) */\n      swap1\n      pop\n        /* \"@openzeppelin/contracts/token/ERC20/ERC20.sol\":6831:6846  subtractedValue */\n      dup4\n        /* \"@openzeppelin/contracts/token/ERC20/ERC20.sol\":6811:6827  currentAllowance */\n      dup2\n        /* \"@openzeppelin/contracts/token/ERC20/ERC20.sol\":6811:6846  currentAllowance >= subtractedValue */\n      lt\n      iszero\n        /* \"@openzeppelin/contracts/token/ERC20/ERC20.sol\":6803:6888  require(currentAllowance >= subtractedValue, \"ERC20: decreased allowance below zero\") */\n      tag_251\n      jumpi\n      mload(0x40)\n      shl(0xe5, 0x461bcd)\n      dup2\n      mstore\n        /* \"#utility.yul\":6469:6471   */\n      0x20\n        /* \"@openzeppelin/contracts/token/ERC20/ERC20.sol\":6803:6888  require(currentAllowance >= subtractedValue, \"ERC20: decreased allowance below zero\") */\n      0x04\n      dup3\n      add\n        /* \"#utility.yul\":6451:6472   */\n      mstore\n        /* \"#utility.yul\":6508:6510   */\n      0x25\n        /* \"#utility.yul\":6488:6506   */\n      0x24\n      dup3\n      add\n        /* \"#utility.yul\":6481:6511   */\n      mstore\n        /* \"#utility.yul\":6547:6581   */\n      0x45524332303a2064656372656173656420616c6c6f77616e63652062656c6f77\n        /* \"#utility.yul\":6527:6545   */\n      0x44\n      dup3\n      add\n        /* \"#utility.yul\":6520:6582   */\n      mstore\n      shl(0xd8, 0x207a65726f)\n        /* \"#utility.yul\":6598:6616   */\n      0x64\n      dup3\n      add\n        /* \"#utility.yul\":6591:6626   */\n      mstore\n        /* \"#utility.yul\":6643:6662   */\n      0x84\n      add\n        /* \"@openzeppelin/contracts/token/ERC20/ERC20.sol\":6803:6888  require(currentAllowance >= subtractedValue, \"ERC20: decreased allowance below zero\") */\n      tag_195\n        /* \"#utility.yul\":6267:6668   */\n      jump\n        /* \"@openzeppelin/contracts/token/ERC20/ERC20.sol\":6803:6888  require(currentAllowance >= subtractedValue, \"ERC20: decreased allowance below zero\") */\n    tag_251:\n        /* \"@openzeppelin/contracts/token/ERC20/ERC20.sol\":6922:6982  _approve(owner, spender, currentAllowance - subtractedValue) */\n      tag_190\n        /* \"@openzeppelin/contracts/token/ERC20/ERC20.sol\":6931:6936  owner */\n      dup3\n        /* \"@openzeppelin/contracts/token/ERC20/ERC20.sol\":6938:6945  spender */\n      dup7\n        /* \"@openzeppelin/contracts/token/ERC20/ERC20.sol\":6966:6981  subtractedValue */\n      dup7\n        /* \"@openzeppelin/contracts/token/ERC20/ERC20.sol\":6947:6963  currentAllowance */\n      dup5\n        /* \"@openzeppelin/contracts/token/ERC20/ERC20.sol\":6947:6981  currentAllowance - subtractedValue */\n      sub\n        /* \"@openzeppelin/contracts/token/ERC20/ERC20.sol\":6922:6930  _approve */\n      tag_184\n        /* \"@openzeppelin/contracts/token/ERC20/ERC20.sol\":6922:6982  _approve(owner, spender, currentAllowance - subtractedValue) */\n      jump\t// in\n        /* \"@openzeppelin/contracts/token/ERC20/ERC20.sol\":3729:3918  function transfer(address to, uint256 amount) public virtual override returns (bool) {... */\n    tag_128:\n        /* \"@openzeppelin/contracts/token/ERC20/ERC20.sol\":3808:3812  bool */\n      0x00\n        /* \"@openzeppelin/contracts/utils/Context.sol\":719:729  msg.sender */\n      caller\n        /* \"@openzeppelin/contracts/token/ERC20/ERC20.sol\":3862:3890  _transfer(owner, to, amount) */\n      tag_183\n        /* \"@openzeppelin/contracts/utils/Context.sol\":719:729  msg.sender */\n      dup2\n        /* \"@openzeppelin/contracts/token/ERC20/ERC20.sol\":3879:3881  to */\n      dup6\n        /* \"@openzeppelin/contracts/token/ERC20/ERC20.sol\":3883:3889  amount */\n      dup6\n        /* \"@openzeppelin/contracts/token/ERC20/ERC20.sol\":3862:3871  _transfer */\n      tag_191\n        /* \"@openzeppelin/contracts/token/ERC20/ERC20.sol\":3862:3890  _transfer(owner, to, amount) */\n      jump\t// in\n        /* \"Contracts/AccesPolygon.sol\":3544:3830  function withdrawalBNB(uint256 _amount, uint256 decimal, address to) external onlyOwner() {... */\n    tag_134:\n        /* \"Contracts/AccesPolygon.sol\":1222:1227  owner */\n      and(sub(shl(0xa0, 0x01), 0x01), sload(0x05))\n        /* \"Contracts/AccesPolygon.sol\":1208:1218  msg.sender */\n      caller\n        /* \"Contracts/AccesPolygon.sol\":1208:1227  msg.sender == owner */\n      eq\n        /* \"Contracts/AccesPolygon.sol\":1200:1248  require(msg.sender == owner,\"caller not owner!\") */\n      tag_259\n      jumpi\n      mload(0x40)\n      shl(0xe5, 0x461bcd)\n      dup2\n      mstore\n      0x04\n      add\n      tag_195\n      swap1\n      tag_196\n      jump\t// in\n    tag_259:\n        /* \"Contracts/AccesPolygon.sol\":3677:3684  _amount */\n      dup3\n        /* \"Contracts/AccesPolygon.sol\":3652:3673  address(this).balance */\n      selfbalance\n        /* \"Contracts/AccesPolygon.sol\":3652:3684  address(this).balance >= _amount */\n      lt\n      iszero\n        /* \"Contracts/AccesPolygon.sol\":3644:3685  require(address(this).balance >= _amount) */\n      tag_262\n      jumpi\n      0x00\n      dup1\n      revert\n    tag_262:\n        /* \"Contracts/AccesPolygon.sol\":3695:3707  uint256 dcml */\n      0x00\n        /* \"Contracts/AccesPolygon.sol\":3710:3723  10 ** decimal */\n      tag_263\n        /* \"Contracts/AccesPolygon.sol\":3716:3723  decimal */\n      dup4\n        /* \"Contracts/AccesPolygon.sol\":3710:3712  10 */\n      0x0a\n        /* \"Contracts/AccesPolygon.sol\":3710:3723  10 ** decimal */\n      tag_264\n      jump\t// in\n    tag_263:\n        /* \"Contracts/AccesPolygon.sol\":3738:3773  WithdrawalBNB(_amount, decimal, to) */\n      0x40\n      dup1\n      mload\n        /* \"#utility.yul\":8249:8274   */\n      dup7\n      dup2\n      mstore\n        /* \"#utility.yul\":8305:8307   */\n      0x20\n        /* \"#utility.yul\":8290:8308   */\n      dup2\n      add\n        /* \"#utility.yul\":8283:8317   */\n      dup7\n      swap1\n      mstore\n      sub(shl(0xa0, 0x01), 0x01)\n        /* \"#utility.yul\":8353:8385   */\n      dup6\n      and\n        /* \"#utility.yul\":8333:8351   */\n      dup2\n      dup4\n      add\n        /* \"#utility.yul\":8326:8386   */\n      mstore\n        /* \"Contracts/AccesPolygon.sol\":3738:3773  WithdrawalBNB(_amount, decimal, to) */\n      swap1\n      mload\n        /* \"Contracts/AccesPolygon.sol\":3695:3723  uint256 dcml = 10 ** decimal */\n      swap2\n      swap3\n      pop\n        /* \"Contracts/AccesPolygon.sol\":3738:3773  WithdrawalBNB(_amount, decimal, to) */\n      0x4508977418b95bac209196e03356692c2d8f47957dec1c15af1a44cc40d39a04\n      swap2\n      swap1\n      dup2\n      swap1\n      sub\n        /* \"#utility.yul\":8237:8239   */\n      0x60\n        /* \"Contracts/AccesPolygon.sol\":3738:3773  WithdrawalBNB(_amount, decimal, to) */\n      add\n      swap1\n      log1\n      sub(shl(0xa0, 0x01), 0x01)\n        /* \"Contracts/AccesPolygon.sol\":3783:3803  payable(to).transfer */\n      dup3\n      and\n        /* \"Contracts/AccesPolygon.sol\":3783:3817  payable(to).transfer(_amount*dcml) */\n      0x08fc\n        /* \"Contracts/AccesPolygon.sol\":3804:3816  _amount*dcml */\n      tag_267\n        /* \"Contracts/AccesPolygon.sol\":3812:3816  dcml */\n      dup4\n        /* \"Contracts/AccesPolygon.sol\":3804:3811  _amount */\n      dup8\n        /* \"Contracts/AccesPolygon.sol\":3804:3816  _amount*dcml */\n      tag_268\n      jump\t// in\n    tag_267:\n        /* \"Contracts/AccesPolygon.sol\":3783:3817  payable(to).transfer(_amount*dcml) */\n      mload(0x40)\n      dup2\n      iszero\n      swap1\n      swap3\n      mul\n      swap2\n      0x00\n      dup2\n      dup2\n      dup2\n      dup6\n      dup9\n      dup9\n      call\n      swap4\n      pop\n      pop\n      pop\n      pop\n      iszero\n      dup1\n      iszero\n      tag_270\n      jumpi\n      returndatasize\n      0x00\n      dup1\n      returndatacopy\n      revert(0x00, returndatasize)\n    tag_270:\n      pop\n        /* \"Contracts/AccesPolygon.sol\":3634:3830  {... */\n      pop\n        /* \"Contracts/AccesPolygon.sol\":3544:3830  function withdrawalBNB(uint256 _amount, uint256 decimal, address to) external onlyOwner() {... */\n      pop\n      pop\n      pop\n      jump\t// out\n        /* \"Contracts/AccesPolygon.sol\":3174:3536  function withdrawalToken(address _tokenAddr, uint256 _amount, uint256 decimal, address to) external onlyOwner() {... */\n    tag_139:\n        /* \"Contracts/AccesPolygon.sol\":1222:1227  owner */\n      and(sub(shl(0xa0, 0x01), 0x01), sload(0x05))\n        /* \"Contracts/AccesPolygon.sol\":1208:1218  msg.sender */\n      caller\n        /* \"Contracts/AccesPolygon.sol\":1208:1227  msg.sender == owner */\n      eq\n        /* \"Contracts/AccesPolygon.sol\":1200:1248  require(msg.sender == owner,\"caller not owner!\") */\n      tag_272\n      jumpi\n      mload(0x40)\n      shl(0xe5, 0x461bcd)\n      dup2\n      mstore\n      0x04\n      add\n      tag_195\n      swap1\n      tag_196\n      jump\t// in\n    tag_272:\n      sub(shl(0xa0, 0x01), 0x01)\n        /* \"Contracts/AccesPolygon.sol\":3302:3326  _tokenAddr != address(0) */\n      dup5\n      and\n        /* \"Contracts/AccesPolygon.sol\":3294:3343  require(_tokenAddr != address(0),\"address zero!\") */\n      tag_275\n      jumpi\n      mload(0x40)\n      shl(0xe5, 0x461bcd)\n      dup2\n      mstore\n        /* \"#utility.yul\":8772:8774   */\n      0x20\n        /* \"Contracts/AccesPolygon.sol\":3294:3343  require(_tokenAddr != address(0),\"address zero!\") */\n      0x04\n      dup3\n      add\n        /* \"#utility.yul\":8754:8775   */\n      mstore\n        /* \"#utility.yul\":8811:8813   */\n      0x0d\n        /* \"#utility.yul\":8791:8809   */\n      0x24\n      dup3\n      add\n        /* \"#utility.yul\":8784:8814   */\n      mstore\n      shl(0x98, 0x61646472657373207a65726f21)\n        /* \"#utility.yul\":8830:8848   */\n      0x44\n      dup3\n      add\n        /* \"#utility.yul\":8823:8866   */\n      mstore\n        /* \"#utility.yul\":8883:8901   */\n      0x64\n      add\n        /* \"Contracts/AccesPolygon.sol\":3294:3343  require(_tokenAddr != address(0),\"address zero!\") */\n      tag_195\n        /* \"#utility.yul\":8570:8907   */\n      jump\n        /* \"Contracts/AccesPolygon.sol\":3294:3343  require(_tokenAddr != address(0),\"address zero!\") */\n    tag_275:\n        /* \"Contracts/AccesPolygon.sol\":3353:3365  uint256 dcml */\n      0x00\n        /* \"Contracts/AccesPolygon.sol\":3368:3381  10 ** decimal */\n      tag_278\n        /* \"Contracts/AccesPolygon.sol\":3374:3381  decimal */\n      dup4\n        /* \"Contracts/AccesPolygon.sol\":3368:3370  10 */\n      0x0a\n        /* \"Contracts/AccesPolygon.sol\":3368:3381  10 ** decimal */\n      tag_264\n      jump\t// in\n    tag_278:\n        /* \"Contracts/AccesPolygon.sol\":3437:3486  WithdrawalToken(_tokenAddr, _amount, decimal, to) */\n      0x40\n      dup1\n      mload\n      sub(shl(0xa0, 0x01), 0x01)\n        /* \"#utility.yul\":9199:9214   */\n      dup9\n      dup2\n      and\n        /* \"#utility.yul\":9181:9215   */\n      dup3\n      mstore\n        /* \"#utility.yul\":9246:9248   */\n      0x20\n        /* \"#utility.yul\":9231:9249   */\n      dup3\n      add\n        /* \"#utility.yul\":9224:9258   */\n      dup9\n      swap1\n      mstore\n        /* \"#utility.yul\":9274:9292   */\n      dup2\n      dup4\n      add\n        /* \"#utility.yul\":9267:9301   */\n      dup8\n      swap1\n      mstore\n        /* \"#utility.yul\":9337:9352   */\n      dup6\n      and\n        /* \"#utility.yul\":9332:9334   */\n      0x60\n        /* \"#utility.yul\":9317:9335   */\n      dup3\n      add\n        /* \"#utility.yul\":9310:9353   */\n      mstore\n        /* \"Contracts/AccesPolygon.sol\":3437:3486  WithdrawalToken(_tokenAddr, _amount, decimal, to) */\n      swap1\n      mload\n        /* \"Contracts/AccesPolygon.sol\":3353:3381  uint256 dcml = 10 ** decimal */\n      swap2\n      swap3\n      pop\n        /* \"#utility.yul\":9199:9214   */\n      dup7\n      swap2\n        /* \"Contracts/AccesPolygon.sol\":3437:3486  WithdrawalToken(_tokenAddr, _amount, decimal, to) */\n      0x0206ca7f97d46974ed97b981f879b17e9e1fe17ead63770c806926d28aa5cbd5\n      swap2\n      dup2\n      swap1\n      sub\n        /* \"#utility.yul\":9130:9133   */\n      0x80\n        /* \"Contracts/AccesPolygon.sol\":3437:3486  WithdrawalToken(_tokenAddr, _amount, decimal, to) */\n      add\n      swap1\n      log1\n      sub(shl(0xa0, 0x01), 0x01)\n        /* \"Contracts/AccesPolygon.sol\":3496:3510  token.transfer */\n      dup2\n      and\n      0xa9059cbb\n        /* \"Contracts/AccesPolygon.sol\":3511:3513  to */\n      dup5\n        /* \"Contracts/AccesPolygon.sol\":3515:3527  _amount*dcml */\n      tag_281\n        /* \"Contracts/AccesPolygon.sol\":3523:3527  dcml */\n      dup6\n        /* \"Contracts/AccesPolygon.sol\":3515:3522  _amount */\n      dup10\n        /* \"Contracts/AccesPolygon.sol\":3515:3527  _amount*dcml */\n      tag_268\n      jump\t// in\n    tag_281:\n        /* \"Contracts/AccesPolygon.sol\":3496:3528  token.transfer(to, _amount*dcml) */\n      mload(0x40)\n      not(sub(shl(0xe0, 0x01), 0x01))\n      0xe0\n      dup6\n      swap1\n      shl\n      and\n      dup2\n      mstore\n      sub(shl(0xa0, 0x01), 0x01)\n        /* \"#utility.yul\":9556:9588   */\n      swap1\n      swap3\n      and\n        /* \"Contracts/AccesPolygon.sol\":3496:3528  token.transfer(to, _amount*dcml) */\n      0x04\n      dup4\n      add\n        /* \"#utility.yul\":9538:9589   */\n      mstore\n        /* \"#utility.yul\":9605:9623   */\n      0x24\n      dup3\n      add\n        /* \"#utility.yul\":9598:9632   */\n      mstore\n        /* \"#utility.yul\":9511:9529   */\n      0x44\n      add\n        /* \"Contracts/AccesPolygon.sol\":3496:3528  token.transfer(to, _amount*dcml) */\n      0x20\n      mload(0x40)\n      dup1\n      dup4\n      sub\n      dup2\n      0x00\n      dup8\n      gas\n      call\n      iszero\n      dup1\n      iszero\n      tag_285\n      jumpi\n      returndatasize\n      0x00\n      dup1\n      returndatacopy\n      revert(0x00, returndatasize)\n    tag_285:\n      pop\n      pop\n      pop\n      pop\n      mload(0x40)\n      returndatasize\n      not(0x1f)\n      0x1f\n      dup3\n      add\n      and\n      dup3\n      add\n      dup1\n      0x40\n      mstore\n      pop\n      dup2\n      add\n      swap1\n      tag_286\n      swap2\n      swap1\n      tag_287\n      jump\t// in\n    tag_286:\n      pop\n        /* \"Contracts/AccesPolygon.sol\":3286:3536  {... */\n      pop\n      pop\n        /* \"Contracts/AccesPolygon.sol\":3174:3536  function withdrawalToken(address _tokenAddr, uint256 _amount, uint256 decimal, address to) external onlyOwner() {... */\n      pop\n      pop\n      pop\n      pop\n      jump\t// out\n        /* \"@openzeppelin/contracts/token/ERC20/ERC20.sol\":3976:4125  function allowance(address owner, address spender) public view virtual override returns (uint256) {... */\n    tag_144:\n      sub(shl(0xa0, 0x01), 0x01)\n        /* \"@openzeppelin/contracts/token/ERC20/ERC20.sol\":4091:4109  _allowances[owner] */\n      swap2\n      dup3\n      and\n        /* \"@openzeppelin/contracts/token/ERC20/ERC20.sol\":4065:4072  uint256 */\n      0x00\n        /* \"@openzeppelin/contracts/token/ERC20/ERC20.sol\":4091:4109  _allowances[owner] */\n      swap1\n      dup2\n      mstore\n        /* \"@openzeppelin/contracts/token/ERC20/ERC20.sol\":4091:4102  _allowances */\n      0x01\n        /* \"@openzeppelin/contracts/token/ERC20/ERC20.sol\":4091:4109  _allowances[owner] */\n      0x20\n      swap1\n      dup2\n      mstore\n      0x40\n      dup1\n      dup4\n      keccak256\n        /* \"@openzeppelin/contracts/token/ERC20/ERC20.sol\":4091:4118  _allowances[owner][spender] */\n      swap4\n      swap1\n      swap5\n      and\n      dup3\n      mstore\n      swap2\n      swap1\n      swap2\n      mstore\n      keccak256\n      sload\n      swap1\n        /* \"@openzeppelin/contracts/token/ERC20/ERC20.sol\":3976:4125  function allowance(address owner, address spender) public view virtual override returns (uint256) {... */\n      jump\t// out\n        /* \"Contracts/AccesPolygon.sol\":2756:3001  function changeMinMaxPrivateSale(uint256 minAmount, uint256 maxAmount) external onlyOwner {... */\n    tag_150:\n        /* \"Contracts/AccesPolygon.sol\":1222:1227  owner */\n      and(sub(shl(0xa0, 0x01), 0x01), sload(0x05))\n        /* \"Contracts/AccesPolygon.sol\":1208:1218  msg.sender */\n      caller\n        /* \"Contracts/AccesPolygon.sol\":1208:1227  msg.sender == owner */\n      eq\n        /* \"Contracts/AccesPolygon.sol\":1200:1248  require(msg.sender == owner,\"caller not owner!\") */\n      tag_290\n      jumpi\n      mload(0x40)\n      shl(0xe5, 0x461bcd)\n      dup2\n      mstore\n      0x04\n      add\n      tag_195\n      swap1\n      tag_196\n      jump\t// in\n    tag_290:\n        /* \"Contracts/AccesPolygon.sol\":2862:2876  minAmount != 0 */\n      dup2\n      iszero\n      dup1\n      iszero\n      swap1\n        /* \"Contracts/AccesPolygon.sol\":2862:2893  minAmount != 0 && maxAmount !=0 */\n      tag_293\n      jumpi\n      pop\n        /* \"Contracts/AccesPolygon.sol\":2880:2893  maxAmount !=0 */\n      dup1\n      iszero\n      iszero\n        /* \"Contracts/AccesPolygon.sol\":2862:2893  minAmount != 0 && maxAmount !=0 */\n    tag_293:\n        /* \"Contracts/AccesPolygon.sol\":2854:2902  require(minAmount != 0 && maxAmount !=0,\"Zero!\") */\n      tag_294\n      jumpi\n      mload(0x40)\n      shl(0xe5, 0x461bcd)\n      dup2\n      mstore\n        /* \"#utility.yul\":10127:10129   */\n      0x20\n        /* \"Contracts/AccesPolygon.sol\":2854:2902  require(minAmount != 0 && maxAmount !=0,\"Zero!\") */\n      0x04\n      dup3\n      add\n        /* \"#utility.yul\":10109:10130   */\n      mstore\n        /* \"#utility.yul\":10166:10167   */\n      0x05\n        /* \"#utility.yul\":10146:10164   */\n      0x24\n      dup3\n      add\n        /* \"#utility.yul\":10139:10168   */\n      mstore\n      shl(0xd8, 0x5a65726f21)\n        /* \"#utility.yul\":10184:10202   */\n      0x44\n      dup3\n      add\n        /* \"#utility.yul\":10177:10212   */\n      mstore\n        /* \"#utility.yul\":10229:10247   */\n      0x64\n      add\n        /* \"Contracts/AccesPolygon.sol\":2854:2902  require(minAmount != 0 && maxAmount !=0,\"Zero!\") */\n      tag_195\n        /* \"#utility.yul\":9925:10253   */\n      jump\n        /* \"Contracts/AccesPolygon.sol\":2854:2902  require(minAmount != 0 && maxAmount !=0,\"Zero!\") */\n    tag_294:\n        /* \"Contracts/AccesPolygon.sol\":2910:2913  min */\n      0x0d\n        /* \"Contracts/AccesPolygon.sol\":2910:2925  min = minAmount */\n      dup3\n      swap1\n      sstore\n        /* \"Contracts/AccesPolygon.sol\":2951:2955  path */\n      sload(0x0b)\n        /* \"Contracts/AccesPolygon.sol\":2939:2955  maxAmount * path */\n      tag_297\n      swap1\n        /* \"Contracts/AccesPolygon.sol\":2939:2948  maxAmount */\n      dup3\n        /* \"Contracts/AccesPolygon.sol\":2939:2955  maxAmount * path */\n      tag_268\n      jump\t// in\n    tag_297:\n        /* \"Contracts/AccesPolygon.sol\":2933:2936  max */\n      0x0c\n        /* \"Contracts/AccesPolygon.sol\":2933:2955  max = maxAmount * path */\n      sstore\n        /* \"Contracts/AccesPolygon.sol\":2968:2996  minMax(minAmount, maxAmount) */\n      0x40\n      dup1\n      mload\n        /* \"#utility.yul\":10432:10457   */\n      dup4\n      dup2\n      mstore\n        /* \"#utility.yul\":10488:10490   */\n      0x20\n        /* \"#utility.yul\":10473:10491   */\n      dup2\n      add\n        /* \"#utility.yul\":10466:10500   */\n      dup4\n      swap1\n      mstore\n        /* \"Contracts/AccesPolygon.sol\":2968:2996  minMax(minAmount, maxAmount) */\n      0x3b06ffd21bedfb2c375d7b1bcf74ca4fe1afe205699e39610b3aced7adf6b9e9\n      swap2\n        /* \"#utility.yul\":10405:10423   */\n      add\n        /* \"Contracts/AccesPolygon.sol\":2968:2996  minMax(minAmount, maxAmount) */\n      mload(0x40)\n      dup1\n      swap2\n      sub\n      swap1\n      log1\n        /* \"Contracts/AccesPolygon.sol\":2756:3001  function changeMinMaxPrivateSale(uint256 minAmount, uint256 maxAmount) external onlyOwner {... */\n      pop\n      pop\n      jump\t// out\n        /* \"Contracts/AccesPolygon.sol\":1680:2282  function privateSale(address) public payable returns (bool success){... */\n    tag_158:\n        /* \"Contracts/AccesPolygon.sol\":1734:1746  bool success */\n      0x00\n        /* \"Contracts/AccesPolygon.sol\":1810:1814  path */\n      sload(0x0b)\n        /* \"Contracts/AccesPolygon.sol\":1795:1807  privateLimit */\n      sload(0x0e)\n        /* \"Contracts/AccesPolygon.sol\":1795:1814  privateLimit * path */\n      tag_301\n      swap2\n      swap1\n      tag_268\n      jump\t// in\n    tag_301:\n        /* \"Contracts/AccesPolygon.sol\":1779:1789  msg.sender */\n      caller\n        /* \"@openzeppelin/contracts/token/ERC20/ERC20.sol\":3482:3489  uint256 */\n      0x00\n        /* \"@openzeppelin/contracts/token/ERC20/ERC20.sol\":3508:3526  _balances[account] */\n      swap1\n      dup2\n      mstore\n      0x20\n      dup2\n      swap1\n      mstore\n      0x40\n      swap1\n      keccak256\n      sload\n        /* \"Contracts/AccesPolygon.sol\":1761:1814  balanceOf(address(msg.sender)) <= privateLimit * path */\n      gt\n      iszero\n        /* \"Contracts/AccesPolygon.sol\":1753:1855  require(balanceOf(address(msg.sender)) <= privateLimit * path , \"You reached your private sale limit\") */\n      tag_303\n      jumpi\n      mload(0x40)\n      shl(0xe5, 0x461bcd)\n      dup2\n      mstore\n        /* \"#utility.yul\":10713:10715   */\n      0x20\n        /* \"Contracts/AccesPolygon.sol\":1753:1855  require(balanceOf(address(msg.sender)) <= privateLimit * path , \"You reached your private sale limit\") */\n      0x04\n      dup3\n      add\n        /* \"#utility.yul\":10695:10716   */\n      mstore\n        /* \"#utility.yul\":10752:10754   */\n      0x23\n        /* \"#utility.yul\":10732:10750   */\n      0x24\n      dup3\n      add\n        /* \"#utility.yul\":10725:10755   */\n      mstore\n        /* \"#utility.yul\":10791:10825   */\n      0x596f75207265616368656420796f757220707269766174652073616c65206c69\n        /* \"#utility.yul\":10771:10789   */\n      0x44\n      dup3\n      add\n        /* \"#utility.yul\":10764:10826   */\n      mstore\n      shl(0xea, 0x1b5a5d)\n        /* \"#utility.yul\":10842:10860   */\n      0x64\n      dup3\n      add\n        /* \"#utility.yul\":10835:10868   */\n      mstore\n        /* \"#utility.yul\":10885:10904   */\n      0x84\n      add\n        /* \"Contracts/AccesPolygon.sol\":1753:1855  require(balanceOf(address(msg.sender)) <= privateLimit * path , \"You reached your private sale limit\") */\n      tag_195\n        /* \"#utility.yul\":10511:10910   */\n      jump\n        /* \"Contracts/AccesPolygon.sol\":1753:1855  require(balanceOf(address(msg.sender)) <= privateLimit * path , \"You reached your private sale limit\") */\n    tag_303:\n        /* \"Contracts/AccesPolygon.sol\":1882:1894  block.number */\n      number\n        /* \"Contracts/AccesPolygon.sol\":1871:1878  sSBlock */\n      sload(0x07)\n        /* \"Contracts/AccesPolygon.sol\":1871:1894  sSBlock <= block.number */\n      gt\n      iszero\n        /* \"Contracts/AccesPolygon.sol\":1871:1921  sSBlock <= block.number && block.number <= sEBlock */\n      dup1\n      iszero\n      tag_306\n      jumpi\n      pop\n        /* \"Contracts/AccesPolygon.sol\":1914:1921  sEBlock */\n      sload(0x08)\n        /* \"Contracts/AccesPolygon.sol\":1898:1910  block.number */\n      number\n        /* \"Contracts/AccesPolygon.sol\":1898:1921  block.number <= sEBlock */\n      gt\n      iszero\n        /* \"Contracts/AccesPolygon.sol\":1871:1921  sSBlock <= block.number && block.number <= sEBlock */\n    tag_306:\n        /* \"Contracts/AccesPolygon.sol\":1863:1969  require(sSBlock <= block.number && block.number <= sEBlock, \"Private Sale has ended or did not start yet\") */\n      tag_307\n      jumpi\n      mload(0x40)\n      shl(0xe5, 0x461bcd)\n      dup2\n      mstore\n        /* \"#utility.yul\":11117:11119   */\n      0x20\n        /* \"Contracts/AccesPolygon.sol\":1863:1969  require(sSBlock <= block.number && block.number <= sEBlock, \"Private Sale has ended or did not start yet\") */\n      0x04\n      dup3\n      add\n        /* \"#utility.yul\":11099:11120   */\n      mstore\n        /* \"#utility.yul\":11156:11158   */\n      0x2b\n        /* \"#utility.yul\":11136:11154   */\n      0x24\n      dup3\n      add\n        /* \"#utility.yul\":11129:11159   */\n      mstore\n        /* \"#utility.yul\":11195:11229   */\n      0x507269766174652053616c652068617320656e646564206f7220646964206e6f\n        /* \"#utility.yul\":11175:11193   */\n      0x44\n      dup3\n      add\n        /* \"#utility.yul\":11168:11230   */\n      mstore\n      shl(0xaa, 0x1d081cdd185c9d081e595d)\n        /* \"#utility.yul\":11246:11264   */\n      0x64\n      dup3\n      add\n        /* \"#utility.yul\":11239:11280   */\n      mstore\n        /* \"#utility.yul\":11297:11316   */\n      0x84\n      add\n        /* \"Contracts/AccesPolygon.sol\":1863:1969  require(sSBlock <= block.number && block.number <= sEBlock, \"Private Sale has ended or did not start yet\") */\n      tag_195\n        /* \"#utility.yul\":10915:11322   */\n      jump\n        /* \"Contracts/AccesPolygon.sol\":1863:1969  require(sSBlock <= block.number && block.number <= sEBlock, \"Private Sale has ended or did not start yet\") */\n    tag_307:\n        /* \"Contracts/AccesPolygon.sol\":2048:2051  min */\n      sload(0x0d)\n        /* \"Contracts/AccesPolygon.sol\":1991:2000  msg.value */\n      callvalue\n      swap1\n        /* \"Contracts/AccesPolygon.sol\":1976:1988  uint256 _eth */\n      0x00\n      swap1\n        /* \"Contracts/AccesPolygon.sol\":2040:2051  _eth >= min */\n      dup3\n      lt\n      dup1\n      iszero\n      swap1\n        /* \"Contracts/AccesPolygon.sol\":2040:2066  _eth >= min && _eth <= max */\n      tag_310\n      jumpi\n      pop\n        /* \"Contracts/AccesPolygon.sol\":2063:2066  max */\n      sload(0x0c)\n        /* \"Contracts/AccesPolygon.sol\":2055:2059  _eth */\n      dup3\n        /* \"Contracts/AccesPolygon.sol\":2055:2066  _eth <= max */\n      gt\n      iszero\n        /* \"Contracts/AccesPolygon.sol\":2040:2066  _eth >= min && _eth <= max */\n    tag_310:\n        /* \"Contracts/AccesPolygon.sol\":2030:2110  require ( _eth >= min && _eth <= max , \"Less than Minimum or More than Maximum\") */\n      tag_311\n      jumpi\n      mload(0x40)\n      shl(0xe5, 0x461bcd)\n      dup2\n      mstore\n        /* \"#utility.yul\":11529:11531   */\n      0x20\n        /* \"Contracts/AccesPolygon.sol\":2030:2110  require ( _eth >= min && _eth <= max , \"Less than Minimum or More than Maximum\") */\n      0x04\n      dup3\n      add\n        /* \"#utility.yul\":11511:11532   */\n      mstore\n        /* \"#utility.yul\":11568:11570   */\n      0x26\n        /* \"#utility.yul\":11548:11566   */\n      0x24\n      dup3\n      add\n        /* \"#utility.yul\":11541:11571   */\n      mstore\n        /* \"#utility.yul\":11607:11641   */\n      0x4c657373207468616e204d696e696d756d206f72204d6f7265207468616e204d\n        /* \"#utility.yul\":11587:11605   */\n      0x44\n      dup3\n      add\n        /* \"#utility.yul\":11580:11642   */\n      mstore\n      shl(0xd0, 0x6178696d756d)\n        /* \"#utility.yul\":11658:11676   */\n      0x64\n      dup3\n      add\n        /* \"#utility.yul\":11651:11687   */\n      mstore\n        /* \"#utility.yul\":11704:11723   */\n      0x84\n      add\n        /* \"Contracts/AccesPolygon.sol\":2030:2110  require ( _eth >= min && _eth <= max , \"Less than Minimum or More than Maximum\") */\n      tag_195\n        /* \"#utility.yul\":11327:11729   */\n      jump\n        /* \"Contracts/AccesPolygon.sol\":2030:2110  require ( _eth >= min && _eth <= max , \"Less than Minimum or More than Maximum\") */\n    tag_311:\n        /* \"Contracts/AccesPolygon.sol\":2124:2155  (sPrice.mul(_eth)).div(1 ether) */\n      tag_314\n        /* \"Contracts/AccesPolygon.sol\":2147:2154  1 ether */\n      0x0de0b6b3a7640000\n        /* \"Contracts/AccesPolygon.sol\":2125:2141  sPrice.mul(_eth) */\n      tag_315\n        /* \"Contracts/AccesPolygon.sol\":2136:2140  _eth */\n      dup5\n        /* \"Contracts/AccesPolygon.sol\":2125:2131  sPrice */\n      sload(0x0a)\n        /* \"Contracts/AccesPolygon.sol\":2125:2135  sPrice.mul */\n      tag_316\n      swap1\n        /* \"Contracts/AccesPolygon.sol\":2125:2141  sPrice.mul(_eth) */\n      swap2\n      swap1\n      0xffffffff\n      and\n      jump\t// in\n    tag_315:\n        /* \"Contracts/AccesPolygon.sol\":2124:2146  (sPrice.mul(_eth)).div */\n      swap1\n      tag_172\n        /* \"Contracts/AccesPolygon.sol\":2124:2155  (sPrice.mul(_eth)).div(1 ether) */\n      jump\t// in\n    tag_314:\n        /* \"Contracts/AccesPolygon.sol\":2161:2165  sTot */\n      0x09\n        /* \"Contracts/AccesPolygon.sol\":2161:2168  sTot ++ */\n      dup1\n      sload\n        /* \"Contracts/AccesPolygon.sol\":2116:2155  _tkns = (sPrice.mul(_eth)).div(1 ether) */\n      swap2\n      swap3\n      pop\n        /* \"Contracts/AccesPolygon.sol\":2161:2165  sTot */\n      0x00\n        /* \"Contracts/AccesPolygon.sol\":2161:2168  sTot ++ */\n      tag_317\n      dup4\n      tag_318\n      jump\t// in\n    tag_317:\n      swap2\n      swap1\n      pop\n      sstore\n      pop\n        /* \"Contracts/AccesPolygon.sol\":2179:2222  _transfer(address(this), msg.sender, _tkns) */\n      tag_319\n        /* \"Contracts/AccesPolygon.sol\":2197:2201  this */\n      address\n        /* \"Contracts/AccesPolygon.sol\":2204:2214  msg.sender */\n      caller\n        /* \"Contracts/AccesPolygon.sol\":2216:2221  _tkns */\n      dup4\n        /* \"Contracts/AccesPolygon.sol\":2179:2188  _transfer */\n      tag_191\n        /* \"Contracts/AccesPolygon.sol\":2179:2222  _transfer(address(this), msg.sender, _tkns) */\n      jump\t// in\n    tag_319:\n        /* \"Contracts/AccesPolygon.sol\":2253:2259  sPrice */\n      sload(0x0a)\n        /* \"Contracts/AccesPolygon.sol\":2234:2260  PrivateSale(_tkns, sPrice) */\n      0x40\n      dup1\n      mload\n        /* \"#utility.yul\":10432:10457   */\n      dup4\n      dup2\n      mstore\n        /* \"#utility.yul\":10488:10490   */\n      0x20\n        /* \"#utility.yul\":10473:10491   */\n      dup2\n      add\n        /* \"#utility.yul\":10466:10500   */\n      swap3\n      swap1\n      swap3\n      mstore\n        /* \"Contracts/AccesPolygon.sol\":2234:2260  PrivateSale(_tkns, sPrice) */\n      0xb887e151dbfcc06b4ce4f67f9bbedaeb16ab224e34c6668858d0310c6d18ffc3\n      swap2\n        /* \"#utility.yul\":10405:10423   */\n      add\n        /* \"Contracts/AccesPolygon.sol\":2234:2260  PrivateSale(_tkns, sPrice) */\n      mload(0x40)\n      dup1\n      swap2\n      sub\n      swap1\n      log1\n      pop\n        /* \"Contracts/AccesPolygon.sol\":2273:2277  true */\n      0x01\n      swap4\n        /* \"Contracts/AccesPolygon.sol\":1680:2282  function privateSale(address) public payable returns (bool success){... */\n      swap3\n      pop\n      pop\n      pop\n      jump\t// out\n        /* \"Contracts/AccesPolygon.sol\":1470:1675  function transferOwnership(address _newOwner) external onlyOwner{... */\n    tag_163:\n        /* \"Contracts/AccesPolygon.sol\":1222:1227  owner */\n      and(sub(shl(0xa0, 0x01), 0x01), sload(0x05))\n        /* \"Contracts/AccesPolygon.sol\":1208:1218  msg.sender */\n      caller\n        /* \"Contracts/AccesPolygon.sol\":1208:1227  msg.sender == owner */\n      eq\n        /* \"Contracts/AccesPolygon.sol\":1200:1248  require(msg.sender == owner,\"caller not owner!\") */\n      tag_322\n      jumpi\n      mload(0x40)\n      shl(0xe5, 0x461bcd)\n      dup2\n      mstore\n      0x04\n      add\n      tag_195\n      swap1\n      tag_196\n      jump\t// in\n    tag_322:\n      sub(shl(0xa0, 0x01), 0x01)\n        /* \"Contracts/AccesPolygon.sol\":1551:1574  _newOwner != address(0) */\n      dup2\n      and\n        /* \"Contracts/AccesPolygon.sol\":1543:1591  require(_newOwner != address(0),\"address zero!\") */\n      tag_325\n      jumpi\n      mload(0x40)\n      shl(0xe5, 0x461bcd)\n      dup2\n      mstore\n        /* \"#utility.yul\":8772:8774   */\n      0x20\n        /* \"Contracts/AccesPolygon.sol\":1543:1591  require(_newOwner != address(0),\"address zero!\") */\n      0x04\n      dup3\n      add\n        /* \"#utility.yul\":8754:8775   */\n      mstore\n        /* \"#utility.yul\":8811:8813   */\n      0x0d\n        /* \"#utility.yul\":8791:8809   */\n      0x24\n      dup3\n      add\n        /* \"#utility.yul\":8784:8814   */\n      mstore\n      shl(0x98, 0x61646472657373207a65726f21)\n        /* \"#utility.yul\":8830:8848   */\n      0x44\n      dup3\n      add\n        /* \"#utility.yul\":8823:8866   */\n      mstore\n        /* \"#utility.yul\":8883:8901   */\n      0x64\n      add\n        /* \"Contracts/AccesPolygon.sol\":1543:1591  require(_newOwner != address(0),\"address zero!\") */\n      tag_195\n        /* \"#utility.yul\":8570:8907   */\n      jump\n        /* \"Contracts/AccesPolygon.sol\":1543:1591  require(_newOwner != address(0),\"address zero!\") */\n    tag_325:\n        /* \"Contracts/AccesPolygon.sol\":1600:1605  owner */\n      0x05\n        /* \"Contracts/AccesPolygon.sol\":1600:1617  owner = _newOwner */\n      dup1\n      sload\n      not(sub(shl(0xa0, 0x01), 0x01))\n      and\n      sub(shl(0xa0, 0x01), 0x01)\n      dup4\n      and\n      swap1\n      dup2\n      or\n      swap1\n      swap2\n      sstore\n        /* \"Contracts/AccesPolygon.sol\":1631:1669  OwnershipTransferred(owner, _newOwner) */\n      mload(0x40)\n        /* \"Contracts/AccesPolygon.sol\":1600:1617  owner = _newOwner */\n      dup2\n      swap1\n        /* \"Contracts/AccesPolygon.sol\":1631:1669  OwnershipTransferred(owner, _newOwner) */\n      0x8be0079c531659141344cd1fd0a4f28419497f9722a3daafe3b4186f6b6457e0\n      swap1\n      0x00\n      swap1\n      log3\n        /* \"Contracts/AccesPolygon.sol\":1470:1675  function transferOwnership(address _newOwner) external onlyOwner{... */\n      pop\n      jump\t// out\n        /* \"Contracts/AccesPolygon.sol\":2457:2628  function startSale(uint256 _sEBlock, uint256 _sPrice) public onlyOwner{... */\n    tag_167:\n        /* \"Contracts/AccesPolygon.sol\":1222:1227  owner */\n      and(sub(shl(0xa0, 0x01), 0x01), sload(0x05))\n        /* \"Contracts/AccesPolygon.sol\":1208:1218  msg.sender */\n      caller\n        /* \"Contracts/AccesPolygon.sol\":1208:1227  msg.sender == owner */\n      eq\n        /* \"Contracts/AccesPolygon.sol\":1200:1248  require(msg.sender == owner,\"caller not owner!\") */\n      tag_328\n      jumpi\n      mload(0x40)\n      shl(0xe5, 0x461bcd)\n      dup2\n      mstore\n      0x04\n      add\n      tag_195\n      swap1\n      tag_196\n      jump\t// in\n    tag_328:\n        /* \"Contracts/AccesPolygon.sol\":2543:2555  _sEBlock !=0 */\n      dup2\n      iszero\n      dup1\n      iszero\n      swap1\n        /* \"Contracts/AccesPolygon.sol\":2543:2570  _sEBlock !=0 && _sPrice !=0 */\n      tag_331\n      jumpi\n      pop\n        /* \"Contracts/AccesPolygon.sol\":2559:2570  _sPrice !=0 */\n      dup1\n      iszero\n      iszero\n        /* \"Contracts/AccesPolygon.sol\":2543:2570  _sEBlock !=0 && _sPrice !=0 */\n    tag_331:\n        /* \"Contracts/AccesPolygon.sol\":2535:2579  require(_sEBlock !=0 && _sPrice !=0,\"Zero!\") */\n      tag_332\n      jumpi\n      mload(0x40)\n      shl(0xe5, 0x461bcd)\n      dup2\n      mstore\n        /* \"#utility.yul\":10127:10129   */\n      0x20\n        /* \"Contracts/AccesPolygon.sol\":2535:2579  require(_sEBlock !=0 && _sPrice !=0,\"Zero!\") */\n      0x04\n      dup3\n      add\n        /* \"#utility.yul\":10109:10130   */\n      mstore\n        /* \"#utility.yul\":10166:10167   */\n      0x05\n        /* \"#utility.yul\":10146:10164   */\n      0x24\n      dup3\n      add\n        /* \"#utility.yul\":10139:10168   */\n      mstore\n      shl(0xd8, 0x5a65726f21)\n        /* \"#utility.yul\":10184:10202   */\n      0x44\n      dup3\n      add\n        /* \"#utility.yul\":10177:10212   */\n      mstore\n        /* \"#utility.yul\":10229:10247   */\n      0x64\n      add\n        /* \"Contracts/AccesPolygon.sol\":2535:2579  require(_sEBlock !=0 && _sPrice !=0,\"Zero!\") */\n      tag_195\n        /* \"#utility.yul\":9925:10253   */\n      jump\n        /* \"Contracts/AccesPolygon.sol\":2535:2579  require(_sEBlock !=0 && _sPrice !=0,\"Zero!\") */\n    tag_332:\n        /* \"Contracts/AccesPolygon.sol\":2584:2591  sEBlock */\n      0x08\n        /* \"Contracts/AccesPolygon.sol\":2584:2602  sEBlock = _sEBlock */\n      swap2\n      swap1\n      swap2\n      sstore\n        /* \"Contracts/AccesPolygon.sol\":2608:2614  sPrice */\n      0x0a\n        /* \"Contracts/AccesPolygon.sol\":2608:2623  sPrice =_sPrice */\n      sstore\n        /* \"Contracts/AccesPolygon.sol\":2457:2628  function startSale(uint256 _sEBlock, uint256 _sPrice) public onlyOwner{... */\n      jump\t// out\n        /* \"@openzeppelin/contracts/utils/math/SafeMath.sol\":3850:3946  function div(uint256 a, uint256 b) internal pure returns (uint256) {... */\n    tag_172:\n        /* \"@openzeppelin/contracts/utils/math/SafeMath.sol\":3908:3915  uint256 */\n      0x00\n        /* \"@openzeppelin/contracts/utils/math/SafeMath.sol\":3934:3939  a / b */\n      tag_335\n        /* \"@openzeppelin/contracts/utils/math/SafeMath.sol\":3938:3939  b */\n      dup3\n        /* \"@openzeppelin/contracts/utils/math/SafeMath.sol\":3934:3935  a */\n      dup5\n        /* \"@openzeppelin/contracts/utils/math/SafeMath.sol\":3934:3939  a / b */\n      tag_336\n      jump\t// in\n    tag_335:\n        /* \"@openzeppelin/contracts/utils/math/SafeMath.sol\":3927:3939  return a / b */\n      swap4\n        /* \"@openzeppelin/contracts/utils/math/SafeMath.sol\":3850:3946  function div(uint256 a, uint256 b) internal pure returns (uint256) {... */\n      swap3\n      pop\n      pop\n      pop\n      jump\t// out\n        /* \"@openzeppelin/contracts/token/ERC20/ERC20.sol\":10110:10480  function _approve(... */\n    tag_184:\n      sub(shl(0xa0, 0x01), 0x01)\n        /* \"@openzeppelin/contracts/token/ERC20/ERC20.sol\":10241:10260  owner != address(0) */\n      dup4\n      and\n        /* \"@openzeppelin/contracts/token/ERC20/ERC20.sol\":10233:10301  require(owner != address(0), \"ERC20: approve from the zero address\") */\n      tag_339\n      jumpi\n      mload(0x40)\n      shl(0xe5, 0x461bcd)\n      dup2\n      mstore\n        /* \"#utility.yul\":12298:12300   */\n      0x20\n        /* \"@openzeppelin/contracts/token/ERC20/ERC20.sol\":10233:10301  require(owner != address(0), \"ERC20: approve from the zero address\") */\n      0x04\n      dup3\n      add\n        /* \"#utility.yul\":12280:12301   */\n      mstore\n        /* \"#utility.yul\":12337:12339   */\n      0x24\n        /* \"#utility.yul\":12317:12335   */\n      dup1\n      dup3\n      add\n        /* \"#utility.yul\":12310:12340   */\n      mstore\n        /* \"#utility.yul\":12376:12410   */\n      0x45524332303a20617070726f76652066726f6d20746865207a65726f20616464\n        /* \"#utility.yul\":12356:12374   */\n      0x44\n      dup3\n      add\n        /* \"#utility.yul\":12349:12411   */\n      mstore\n      shl(0xe0, 0x72657373)\n        /* \"#utility.yul\":12427:12445   */\n      0x64\n      dup3\n      add\n        /* \"#utility.yul\":12420:12454   */\n      mstore\n        /* \"#utility.yul\":12471:12490   */\n      0x84\n      add\n        /* \"@openzeppelin/contracts/token/ERC20/ERC20.sol\":10233:10301  require(owner != address(0), \"ERC20: approve from the zero address\") */\n      tag_195\n        /* \"#utility.yul\":12096:12496   */\n      jump\n        /* \"@openzeppelin/contracts/token/ERC20/ERC20.sol\":10233:10301  require(owner != address(0), \"ERC20: approve from the zero address\") */\n    tag_339:\n      sub(shl(0xa0, 0x01), 0x01)\n        /* \"@openzeppelin/contracts/token/ERC20/ERC20.sol\":10319:10340  spender != address(0) */\n      dup3\n      and\n        /* \"@openzeppelin/contracts/token/ERC20/ERC20.sol\":10311:10379  require(spender != address(0), \"ERC20: approve to the zero address\") */\n      tag_342\n      jumpi\n      mload(0x40)\n      shl(0xe5, 0x461bcd)\n      dup2\n      mstore\n        /* \"#utility.yul\":12703:12705   */\n      0x20\n        /* \"@openzeppelin/contracts/token/ERC20/ERC20.sol\":10311:10379  require(spender != address(0), \"ERC20: approve to the zero address\") */\n      0x04\n      dup3\n      add\n        /* \"#utility.yul\":12685:12706   */\n      mstore\n        /* \"#utility.yul\":12742:12744   */\n      0x22\n        /* \"#utility.yul\":12722:12740   */\n      0x24\n      dup3\n      add\n        /* \"#utility.yul\":12715:12745   */\n      mstore\n        /* \"#utility.yul\":12781:12815   */\n      0x45524332303a20617070726f766520746f20746865207a65726f206164647265\n        /* \"#utility.yul\":12761:12779   */\n      0x44\n      dup3\n      add\n        /* \"#utility.yul\":12754:12816   */\n      mstore\n      shl(0xf0, 0x7373)\n        /* \"#utility.yul\":12832:12850   */\n      0x64\n      dup3\n      add\n        /* \"#utility.yul\":12825:12857   */\n      mstore\n        /* \"#utility.yul\":12874:12893   */\n      0x84\n      add\n        /* \"@openzeppelin/contracts/token/ERC20/ERC20.sol\":10311:10379  require(spender != address(0), \"ERC20: approve to the zero address\") */\n      tag_195\n        /* \"#utility.yul\":12501:12899   */\n      jump\n        /* \"@openzeppelin/contracts/token/ERC20/ERC20.sol\":10311:10379  require(spender != address(0), \"ERC20: approve to the zero address\") */\n    tag_342:\n      sub(shl(0xa0, 0x01), 0x01)\n        /* \"@openzeppelin/contracts/token/ERC20/ERC20.sol\":10390:10408  _allowances[owner] */\n      dup4\n      dup2\n      and\n      0x00\n      dup2\n      dup2\n      mstore\n        /* \"@openzeppelin/contracts/token/ERC20/ERC20.sol\":10390:10401  _allowances */\n      0x01\n        /* \"@openzeppelin/contracts/token/ERC20/ERC20.sol\":10390:10408  _allowances[owner] */\n      0x20\n      swap1\n      dup2\n      mstore\n      0x40\n      dup1\n      dup4\n      keccak256\n        /* \"@openzeppelin/contracts/token/ERC20/ERC20.sol\":10390:10417  _allowances[owner][spender] */\n      swap5\n      dup8\n      and\n      dup1\n      dup5\n      mstore\n      swap5\n      dup3\n      mstore\n      swap2\n      dup3\n      swap1\n      keccak256\n        /* \"@openzeppelin/contracts/token/ERC20/ERC20.sol\":10390:10426  _allowances[owner][spender] = amount */\n      dup6\n      swap1\n      sstore\n        /* \"@openzeppelin/contracts/token/ERC20/ERC20.sol\":10441:10473  Approval(owner, spender, amount) */\n      swap1\n      mload\n        /* \"#utility.yul\":1391:1416   */\n      dup5\n      dup2\n      mstore\n        /* \"@openzeppelin/contracts/token/ERC20/ERC20.sol\":10441:10473  Approval(owner, spender, amount) */\n      0x8c5be1e5ebec7d5bd14f71427d1e84f3dd0314c0f7b2291e5b200ac8c7c3b925\n      swap2\n        /* \"#utility.yul\":1364:1382   */\n      add\n        /* \"@openzeppelin/contracts/token/ERC20/ERC20.sol\":10441:10473  Approval(owner, spender, amount) */\n      mload(0x40)\n      dup1\n      swap2\n      sub\n      swap1\n      log3\n        /* \"@openzeppelin/contracts/token/ERC20/ERC20.sol\":10110:10480  function _approve(... */\n      pop\n      pop\n      pop\n      jump\t// out\n        /* \"@openzeppelin/contracts/token/ERC20/ERC20.sol\":10761:11202  function _spendAllowance(... */\n    tag_189:\n        /* \"@openzeppelin/contracts/token/ERC20/ERC20.sol\":10891:10915  uint256 currentAllowance */\n      0x00\n        /* \"@openzeppelin/contracts/token/ERC20/ERC20.sol\":10918:10943  allowance(owner, spender) */\n      tag_347\n        /* \"@openzeppelin/contracts/token/ERC20/ERC20.sol\":10928:10933  owner */\n      dup5\n        /* \"@openzeppelin/contracts/token/ERC20/ERC20.sol\":10935:10942  spender */\n      dup5\n        /* \"@openzeppelin/contracts/token/ERC20/ERC20.sol\":10918:10927  allowance */\n      tag_144\n        /* \"@openzeppelin/contracts/token/ERC20/ERC20.sol\":10918:10943  allowance(owner, spender) */\n      jump\t// in\n    tag_347:\n        /* \"@openzeppelin/contracts/token/ERC20/ERC20.sol\":10891:10943  uint256 currentAllowance = allowance(owner, spender) */\n      swap1\n      pop\n      not(0x00)\n        /* \"@openzeppelin/contracts/token/ERC20/ERC20.sol\":10957:10973  currentAllowance */\n      dup2\n        /* \"@openzeppelin/contracts/token/ERC20/ERC20.sol\":10957:10994  currentAllowance != type(uint256).max */\n      eq\n        /* \"@openzeppelin/contracts/token/ERC20/ERC20.sol\":10953:11196  if (currentAllowance != type(uint256).max) {... */\n      tag_352\n      jumpi\n        /* \"@openzeppelin/contracts/token/ERC20/ERC20.sol\":11038:11044  amount */\n      dup2\n        /* \"@openzeppelin/contracts/token/ERC20/ERC20.sol\":11018:11034  currentAllowance */\n      dup2\n        /* \"@openzeppelin/contracts/token/ERC20/ERC20.sol\":11018:11044  currentAllowance >= amount */\n      lt\n      iszero\n        /* \"@openzeppelin/contracts/token/ERC20/ERC20.sol\":11010:11078  require(currentAllowance >= amount, \"ERC20: insufficient allowance\") */\n      tag_349\n      jumpi\n      mload(0x40)\n      shl(0xe5, 0x461bcd)\n      dup2\n      mstore\n        /* \"#utility.yul\":13106:13108   */\n      0x20\n        /* \"@openzeppelin/contracts/token/ERC20/ERC20.sol\":11010:11078  require(currentAllowance >= amount, \"ERC20: insufficient allowance\") */\n      0x04\n      dup3\n      add\n        /* \"#utility.yul\":13088:13109   */\n      mstore\n        /* \"#utility.yul\":13145:13147   */\n      0x1d\n        /* \"#utility.yul\":13125:13143   */\n      0x24\n      dup3\n      add\n        /* \"#utility.yul\":13118:13148   */\n      mstore\n        /* \"#utility.yul\":13184:13215   */\n      0x45524332303a20696e73756666696369656e7420616c6c6f77616e6365000000\n        /* \"#utility.yul\":13164:13182   */\n      0x44\n      dup3\n      add\n        /* \"#utility.yul\":13157:13216   */\n      mstore\n        /* \"#utility.yul\":13233:13251   */\n      0x64\n      add\n        /* \"@openzeppelin/contracts/token/ERC20/ERC20.sol\":11010:11078  require(currentAllowance >= amount, \"ERC20: insufficient allowance\") */\n      tag_195\n        /* \"#utility.yul\":12904:13257   */\n      jump\n        /* \"@openzeppelin/contracts/token/ERC20/ERC20.sol\":11010:11078  require(currentAllowance >= amount, \"ERC20: insufficient allowance\") */\n    tag_349:\n        /* \"@openzeppelin/contracts/token/ERC20/ERC20.sol\":11120:11171  _approve(owner, spender, currentAllowance - amount) */\n      tag_352\n        /* \"@openzeppelin/contracts/token/ERC20/ERC20.sol\":11129:11134  owner */\n      dup5\n        /* \"@openzeppelin/contracts/token/ERC20/ERC20.sol\":11136:11143  spender */\n      dup5\n        /* \"@openzeppelin/contracts/token/ERC20/ERC20.sol\":11164:11170  amount */\n      dup5\n        /* \"@openzeppelin/contracts/token/ERC20/ERC20.sol\":11145:11161  currentAllowance */\n      dup5\n        /* \"@openzeppelin/contracts/token/ERC20/ERC20.sol\":11145:11170  currentAllowance - amount */\n      sub\n        /* \"@openzeppelin/contracts/token/ERC20/ERC20.sol\":11120:11128  _approve */\n      tag_184\n        /* \"@openzeppelin/contracts/token/ERC20/ERC20.sol\":11120:11171  _approve(owner, spender, currentAllowance - amount) */\n      jump\t// in\n    tag_352:\n        /* \"@openzeppelin/contracts/token/ERC20/ERC20.sol\":10881:11202  {... */\n      pop\n        /* \"@openzeppelin/contracts/token/ERC20/ERC20.sol\":10761:11202  function _spendAllowance(... */\n      pop\n      pop\n      pop\n      jump\t// out\n        /* \"@openzeppelin/contracts/token/ERC20/ERC20.sol\":7475:8126  function _transfer(... */\n    tag_191:\n      sub(shl(0xa0, 0x01), 0x01)\n        /* \"@openzeppelin/contracts/token/ERC20/ERC20.sol\":7601:7619  from != address(0) */\n      dup4\n      and\n        /* \"@openzeppelin/contracts/token/ERC20/ERC20.sol\":7593:7661  require(from != address(0), \"ERC20: transfer from the zero address\") */\n      tag_354\n      jumpi\n      mload(0x40)\n      shl(0xe5, 0x461bcd)\n      dup2\n      mstore\n        /* \"#utility.yul\":13464:13466   */\n      0x20\n        /* \"@openzeppelin/contracts/token/ERC20/ERC20.sol\":7593:7661  require(from != address(0), \"ERC20: transfer from the zero address\") */\n      0x04\n      dup3\n      add\n        /* \"#utility.yul\":13446:13467   */\n      mstore\n        /* \"#utility.yul\":13503:13505   */\n      0x25\n        /* \"#utility.yul\":13483:13501   */\n      0x24\n      dup3\n      add\n        /* \"#utility.yul\":13476:13506   */\n      mstore\n        /* \"#utility.yul\":13542:13576   */\n      0x45524332303a207472616e736665722066726f6d20746865207a65726f206164\n        /* \"#utility.yul\":13522:13540   */\n      0x44\n      dup3\n      add\n        /* \"#utility.yul\":13515:13577   */\n      mstore\n      shl(0xd8, 0x6472657373)\n        /* \"#utility.yul\":13593:13611   */\n      0x64\n      dup3\n      add\n        /* \"#utility.yul\":13586:13621   */\n      mstore\n        /* \"#utility.yul\":13638:13657   */\n      0x84\n      add\n        /* \"@openzeppelin/contracts/token/ERC20/ERC20.sol\":7593:7661  require(from != address(0), \"ERC20: transfer from the zero address\") */\n      tag_195\n        /* \"#utility.yul\":13262:13663   */\n      jump\n        /* \"@openzeppelin/contracts/token/ERC20/ERC20.sol\":7593:7661  require(from != address(0), \"ERC20: transfer from the zero address\") */\n    tag_354:\n      sub(shl(0xa0, 0x01), 0x01)\n        /* \"@openzeppelin/contracts/token/ERC20/ERC20.sol\":7679:7695  to != address(0) */\n      dup3\n      and\n        /* \"@openzeppelin/contracts/token/ERC20/ERC20.sol\":7671:7735  require(to != address(0), \"ERC20: transfer to the zero address\") */\n      tag_357\n      jumpi\n      mload(0x40)\n      shl(0xe5, 0x461bcd)\n      dup2\n      mstore\n        /* \"#utility.yul\":13870:13872   */\n      0x20\n        /* \"@openzeppelin/contracts/token/ERC20/ERC20.sol\":7671:7735  require(to != address(0), \"ERC20: transfer to the zero address\") */\n      0x04\n      dup3\n      add\n        /* \"#utility.yul\":13852:13873   */\n      mstore\n        /* \"#utility.yul\":13909:13911   */\n      0x23\n        /* \"#utility.yul\":13889:13907   */\n      0x24\n      dup3\n      add\n        /* \"#utility.yul\":13882:13912   */\n      mstore\n        /* \"#utility.yul\":13948:13982   */\n      0x45524332303a207472616e7366657220746f20746865207a65726f2061646472\n        /* \"#utility.yul\":13928:13946   */\n      0x44\n      dup3\n      add\n        /* \"#utility.yul\":13921:13983   */\n      mstore\n      shl(0xe8, 0x657373)\n        /* \"#utility.yul\":13999:14017   */\n      0x64\n      dup3\n      add\n        /* \"#utility.yul\":13992:14025   */\n      mstore\n        /* \"#utility.yul\":14042:14061   */\n      0x84\n      add\n        /* \"@openzeppelin/contracts/token/ERC20/ERC20.sol\":7671:7735  require(to != address(0), \"ERC20: transfer to the zero address\") */\n      tag_195\n        /* \"#utility.yul\":13668:14067   */\n      jump\n        /* \"@openzeppelin/contracts/token/ERC20/ERC20.sol\":7671:7735  require(to != address(0), \"ERC20: transfer to the zero address\") */\n    tag_357:\n      sub(shl(0xa0, 0x01), 0x01)\n        /* \"@openzeppelin/contracts/token/ERC20/ERC20.sol\":7817:7832  _balances[from] */\n      dup4\n      and\n        /* \"@openzeppelin/contracts/token/ERC20/ERC20.sol\":7795:7814  uint256 fromBalance */\n      0x00\n        /* \"@openzeppelin/contracts/token/ERC20/ERC20.sol\":7817:7832  _balances[from] */\n      swap1\n      dup2\n      mstore\n      0x20\n      dup2\n      swap1\n      mstore\n      0x40\n      swap1\n      keccak256\n      sload\n        /* \"@openzeppelin/contracts/token/ERC20/ERC20.sol\":7850:7871  fromBalance >= amount */\n      dup2\n      dup2\n      lt\n      iszero\n        /* \"@openzeppelin/contracts/token/ERC20/ERC20.sol\":7842:7914  require(fromBalance >= amount, \"ERC20: transfer amount exceeds balance\") */\n      tag_362\n      jumpi\n      mload(0x40)\n      shl(0xe5, 0x461bcd)\n      dup2\n      mstore\n        /* \"#utility.yul\":14274:14276   */\n      0x20\n        /* \"@openzeppelin/contracts/token/ERC20/ERC20.sol\":7842:7914  require(fromBalance >= amount, \"ERC20: transfer amount exceeds balance\") */\n      0x04\n      dup3\n      add\n        /* \"#utility.yul\":14256:14277   */\n      mstore\n        /* \"#utility.yul\":14313:14315   */\n      0x26\n        /* \"#utility.yul\":14293:14311   */\n      0x24\n      dup3\n      add\n        /* \"#utility.yul\":14286:14316   */\n      mstore\n        /* \"#utility.yul\":14352:14386   */\n      0x45524332303a207472616e7366657220616d6f756e7420657863656564732062\n        /* \"#utility.yul\":14332:14350   */\n      0x44\n      dup3\n      add\n        /* \"#utility.yul\":14325:14387   */\n      mstore\n      shl(0xd0, 0x616c616e6365)\n        /* \"#utility.yul\":14403:14421   */\n      0x64\n      dup3\n      add\n        /* \"#utility.yul\":14396:14432   */\n      mstore\n        /* \"#utility.yul\":14449:14468   */\n      0x84\n      add\n        /* \"@openzeppelin/contracts/token/ERC20/ERC20.sol\":7842:7914  require(fromBalance >= amount, \"ERC20: transfer amount exceeds balance\") */\n      tag_195\n        /* \"#utility.yul\":14072:14474   */\n      jump\n        /* \"@openzeppelin/contracts/token/ERC20/ERC20.sol\":7842:7914  require(fromBalance >= amount, \"ERC20: transfer amount exceeds balance\") */\n    tag_362:\n      sub(shl(0xa0, 0x01), 0x01)\n        /* \"@openzeppelin/contracts/token/ERC20/ERC20.sol\":7948:7963  _balances[from] */\n      dup1\n      dup6\n      and\n        /* \"@openzeppelin/contracts/token/ERC20/ERC20.sol\":7948:7957  _balances */\n      0x00\n        /* \"@openzeppelin/contracts/token/ERC20/ERC20.sol\":7948:7963  _balances[from] */\n      swap1\n      dup2\n      mstore\n      0x20\n      dup2\n      swap1\n      mstore\n      0x40\n      dup1\n      dup3\n      keccak256\n        /* \"@openzeppelin/contracts/token/ERC20/ERC20.sol\":7966:7986  fromBalance - amount */\n      dup6\n      dup6\n      sub\n        /* \"@openzeppelin/contracts/token/ERC20/ERC20.sol\":7948:7986  _balances[from] = fromBalance - amount */\n      swap1\n      sstore\n        /* \"@openzeppelin/contracts/token/ERC20/ERC20.sol\":8006:8019  _balances[to] */\n      swap2\n      dup6\n      and\n      dup2\n      mstore\n      swap1\n      dup2\n      keccak256\n        /* \"@openzeppelin/contracts/token/ERC20/ERC20.sol\":8006:8029  _balances[to] += amount */\n      dup1\n      sload\n        /* \"@openzeppelin/contracts/token/ERC20/ERC20.sol\":7980:7986  amount */\n      dup5\n      swap3\n        /* \"@openzeppelin/contracts/token/ERC20/ERC20.sol\":7948:7957  _balances */\n      swap1\n        /* \"@openzeppelin/contracts/token/ERC20/ERC20.sol\":8006:8029  _balances[to] += amount */\n      tag_365\n      swap1\n        /* \"@openzeppelin/contracts/token/ERC20/ERC20.sol\":7980:7986  amount */\n      dup5\n      swap1\n        /* \"@openzeppelin/contracts/token/ERC20/ERC20.sol\":8006:8029  _balances[to] += amount */\n      tag_204\n      jump\t// in\n    tag_365:\n      swap3\n      pop\n      pop\n      dup2\n      swap1\n      sstore\n      pop\n        /* \"@openzeppelin/contracts/token/ERC20/ERC20.sol\":8060:8062  to */\n      dup3\n      sub(shl(0xa0, 0x01), 0x01)\n        /* \"@openzeppelin/contracts/token/ERC20/ERC20.sol\":8045:8071  Transfer(from, to, amount) */\n      and\n        /* \"@openzeppelin/contracts/token/ERC20/ERC20.sol\":8054:8058  from */\n      dup5\n      sub(shl(0xa0, 0x01), 0x01)\n        /* \"@openzeppelin/contracts/token/ERC20/ERC20.sol\":8045:8071  Transfer(from, to, amount) */\n      and\n      0xddf252ad1be2c89b69c2b068fc378daa952ba7f163c4a11628f55a4df523b3ef\n        /* \"@openzeppelin/contracts/token/ERC20/ERC20.sol\":8064:8070  amount */\n      dup5\n        /* \"@openzeppelin/contracts/token/ERC20/ERC20.sol\":8045:8071  Transfer(from, to, amount) */\n      mload(0x40)\n      tag_366\n      swap2\n        /* \"#utility.yul\":1391:1416   */\n      dup2\n      mstore\n        /* \"#utility.yul\":1379:1381   */\n      0x20\n        /* \"#utility.yul\":1364:1382   */\n      add\n      swap1\n        /* \"#utility.yul\":1245:1422   */\n      jump\n        /* \"@openzeppelin/contracts/token/ERC20/ERC20.sol\":8045:8071  Transfer(from, to, amount) */\n    tag_366:\n      mload(0x40)\n      dup1\n      swap2\n      sub\n      swap1\n      log3\n        /* \"@openzeppelin/contracts/token/ERC20/ERC20.sol\":8082:8119  _afterTokenTransfer(from, to, amount) */\n      tag_352\n        /* \"@openzeppelin/contracts/token/ERC20/ERC20.sol\":11786:11907  function _beforeTokenTransfer(... */\n      jump\n        /* \"@openzeppelin/contracts/token/ERC20/ERC20.sol\":8402:8791  function _mint(address account, uint256 amount) internal virtual {... */\n    tag_211:\n      sub(shl(0xa0, 0x01), 0x01)\n        /* \"@openzeppelin/contracts/token/ERC20/ERC20.sol\":8485:8506  account != address(0) */\n      dup3\n      and\n        /* \"@openzeppelin/contracts/token/ERC20/ERC20.sol\":8477:8542  require(account != address(0), \"ERC20: mint to the zero address\") */\n      tag_370\n      jumpi\n      mload(0x40)\n      shl(0xe5, 0x461bcd)\n      dup2\n      mstore\n        /* \"#utility.yul\":14681:14683   */\n      0x20\n        /* \"@openzeppelin/contracts/token/ERC20/ERC20.sol\":8477:8542  require(account != address(0), \"ERC20: mint to the zero address\") */\n      0x04\n      dup3\n      add\n        /* \"#utility.yul\":14663:14684   */\n      mstore\n        /* \"#utility.yul\":14720:14722   */\n      0x1f\n        /* \"#utility.yul\":14700:14718   */\n      0x24\n      dup3\n      add\n        /* \"#utility.yul\":14693:14723   */\n      mstore\n        /* \"#utility.yul\":14759:14792   */\n      0x45524332303a206d696e7420746f20746865207a65726f206164647265737300\n        /* \"#utility.yul\":14739:14757   */\n      0x44\n      dup3\n      add\n        /* \"#utility.yul\":14732:14793   */\n      mstore\n        /* \"#utility.yul\":14810:14828   */\n      0x64\n      add\n        /* \"@openzeppelin/contracts/token/ERC20/ERC20.sol\":8477:8542  require(account != address(0), \"ERC20: mint to the zero address\") */\n      tag_195\n        /* \"#utility.yul\":14479:14834   */\n      jump\n        /* \"@openzeppelin/contracts/token/ERC20/ERC20.sol\":8477:8542  require(account != address(0), \"ERC20: mint to the zero address\") */\n    tag_370:\n        /* \"@openzeppelin/contracts/token/ERC20/ERC20.sol\":8629:8635  amount */\n      dup1\n        /* \"@openzeppelin/contracts/token/ERC20/ERC20.sol\":8613:8625  _totalSupply */\n      0x02\n      0x00\n        /* \"@openzeppelin/contracts/token/ERC20/ERC20.sol\":8613:8635  _totalSupply += amount */\n      dup3\n      dup3\n      sload\n      tag_374\n      swap2\n      swap1\n      tag_204\n      jump\t// in\n    tag_374:\n      swap1\n      swap2\n      sstore\n      pop\n      pop\n      sub(shl(0xa0, 0x01), 0x01)\n        /* \"@openzeppelin/contracts/token/ERC20/ERC20.sol\":8645:8663  _balances[account] */\n      dup3\n      and\n        /* \"@openzeppelin/contracts/token/ERC20/ERC20.sol\":8645:8654  _balances */\n      0x00\n        /* \"@openzeppelin/contracts/token/ERC20/ERC20.sol\":8645:8663  _balances[account] */\n      swap1\n      dup2\n      mstore\n      0x20\n      dup2\n      swap1\n      mstore\n      0x40\n      dup2\n      keccak256\n        /* \"@openzeppelin/contracts/token/ERC20/ERC20.sol\":8645:8673  _balances[account] += amount */\n      dup1\n      sload\n        /* \"@openzeppelin/contracts/token/ERC20/ERC20.sol\":8667:8673  amount */\n      dup4\n      swap3\n        /* \"@openzeppelin/contracts/token/ERC20/ERC20.sol\":8645:8654  _balances */\n      swap1\n        /* \"@openzeppelin/contracts/token/ERC20/ERC20.sol\":8645:8673  _balances[account] += amount */\n      tag_375\n      swap1\n        /* \"@openzeppelin/contracts/token/ERC20/ERC20.sol\":8667:8673  amount */\n      dup5\n      swap1\n        /* \"@openzeppelin/contracts/token/ERC20/ERC20.sol\":8645:8673  _balances[account] += amount */\n      tag_204\n      jump\t// in\n    tag_375:\n      swap1\n      swap2\n      sstore\n      pop\n      pop\n        /* \"@openzeppelin/contracts/token/ERC20/ERC20.sol\":8688:8725  Transfer(address(0), account, amount) */\n      mload(0x40)\n        /* \"#utility.yul\":1391:1416   */\n      dup2\n      dup2\n      mstore\n      sub(shl(0xa0, 0x01), 0x01)\n        /* \"@openzeppelin/contracts/token/ERC20/ERC20.sol\":8688:8725  Transfer(address(0), account, amount) */\n      dup4\n      and\n      swap1\n        /* \"@openzeppelin/contracts/token/ERC20/ERC20.sol\":8705:8706  0 */\n      0x00\n      swap1\n        /* \"@openzeppelin/contracts/token/ERC20/ERC20.sol\":8688:8725  Transfer(address(0), account, amount) */\n      0xddf252ad1be2c89b69c2b068fc378daa952ba7f163c4a11628f55a4df523b3ef\n      swap1\n        /* \"#utility.yul\":1379:1381   */\n      0x20\n        /* \"#utility.yul\":1364:1382   */\n      add\n        /* \"@openzeppelin/contracts/token/ERC20/ERC20.sol\":8688:8725  Transfer(address(0), account, amount) */\n      mload(0x40)\n      dup1\n      swap2\n      sub\n      swap1\n      log3\n        /* \"Contracts/AccesPolygon.sol\":4089:4263  function mint(... */\n      pop\n      pop\n      jump\t// out\n        /* \"@openzeppelin/contracts/token/ERC20/extensions/ERC20Burnable.sol\":578:667  function burn(uint256 amount) public virtual {... */\n    tag_217:\n        /* \"@openzeppelin/contracts/token/ERC20/extensions/ERC20Burnable.sol\":633:660  _burn(_msgSender(), amount) */\n      tag_216\n        /* \"@openzeppelin/contracts/utils/Context.sol\":719:729  msg.sender */\n      caller\n        /* \"@openzeppelin/contracts/token/ERC20/extensions/ERC20Burnable.sol\":653:659  amount */\n      dup3\n        /* \"@openzeppelin/contracts/token/ERC20/extensions/ERC20Burnable.sol\":633:638  _burn */\n      tag_381\n        /* \"@openzeppelin/contracts/token/ERC20/extensions/ERC20Burnable.sol\":633:660  _burn(_msgSender(), amount) */\n      jump\t// in\n        /* \"@openzeppelin/contracts/token/ERC20/extensions/ERC20Burnable.sol\":973:1134  function burnFrom(address account, uint256 amount) public virtual {... */\n    tag_233:\n        /* \"@openzeppelin/contracts/token/ERC20/extensions/ERC20Burnable.sol\":1049:1095  _spendAllowance(account, _msgSender(), amount) */\n      tag_383\n        /* \"@openzeppelin/contracts/token/ERC20/extensions/ERC20Burnable.sol\":1065:1072  account */\n      dup3\n        /* \"@openzeppelin/contracts/utils/Context.sol\":719:729  msg.sender */\n      caller\n        /* \"@openzeppelin/contracts/token/ERC20/extensions/ERC20Burnable.sol\":1088:1094  amount */\n      dup4\n        /* \"@openzeppelin/contracts/token/ERC20/extensions/ERC20Burnable.sol\":1049:1064  _spendAllowance */\n      tag_189\n        /* \"@openzeppelin/contracts/token/ERC20/extensions/ERC20Burnable.sol\":1049:1095  _spendAllowance(account, _msgSender(), amount) */\n      jump\t// in\n    tag_383:\n        /* \"@openzeppelin/contracts/token/ERC20/extensions/ERC20Burnable.sol\":1105:1127  _burn(account, amount) */\n      tag_210\n        /* \"@openzeppelin/contracts/token/ERC20/extensions/ERC20Burnable.sol\":1111:1118  account */\n      dup3\n        /* \"@openzeppelin/contracts/token/ERC20/extensions/ERC20Burnable.sol\":1120:1126  amount */\n      dup3\n        /* \"@openzeppelin/contracts/token/ERC20/extensions/ERC20Burnable.sol\":1105:1110  _burn */\n      tag_381\n        /* \"@openzeppelin/contracts/token/ERC20/extensions/ERC20Burnable.sol\":1105:1127  _burn(account, amount) */\n      jump\t// in\n        /* \"@openzeppelin/contracts/utils/math/SafeMath.sol\":3465:3561  function mul(uint256 a, uint256 b) internal pure returns (uint256) {... */\n    tag_316:\n        /* \"@openzeppelin/contracts/utils/math/SafeMath.sol\":3523:3530  uint256 */\n      0x00\n        /* \"@openzeppelin/contracts/utils/math/SafeMath.sol\":3549:3554  a * b */\n      tag_335\n        /* \"@openzeppelin/contracts/utils/math/SafeMath.sol\":3553:3554  b */\n      dup3\n        /* \"@openzeppelin/contracts/utils/math/SafeMath.sol\":3549:3550  a */\n      dup5\n        /* \"@openzeppelin/contracts/utils/math/SafeMath.sol\":3549:3554  a * b */\n      tag_268\n      jump\t// in\n        /* \"@openzeppelin/contracts/token/ERC20/ERC20.sol\":9111:9687  function _burn(address account, uint256 amount) internal virtual {... */\n    tag_381:\n      sub(shl(0xa0, 0x01), 0x01)\n        /* \"@openzeppelin/contracts/token/ERC20/ERC20.sol\":9194:9215  account != address(0) */\n      dup3\n      and\n        /* \"@openzeppelin/contracts/token/ERC20/ERC20.sol\":9186:9253  require(account != address(0), \"ERC20: burn from the zero address\") */\n      tag_391\n      jumpi\n      mload(0x40)\n      shl(0xe5, 0x461bcd)\n      dup2\n      mstore\n        /* \"#utility.yul\":15041:15043   */\n      0x20\n        /* \"@openzeppelin/contracts/token/ERC20/ERC20.sol\":9186:9253  require(account != address(0), \"ERC20: burn from the zero address\") */\n      0x04\n      dup3\n      add\n        /* \"#utility.yul\":15023:15044   */\n      mstore\n        /* \"#utility.yul\":15080:15082   */\n      0x21\n        /* \"#utility.yul\":15060:15078   */\n      0x24\n      dup3\n      add\n        /* \"#utility.yul\":15053:15083   */\n      mstore\n        /* \"#utility.yul\":15119:15153   */\n      0x45524332303a206275726e2066726f6d20746865207a65726f20616464726573\n        /* \"#utility.yul\":15099:15117   */\n      0x44\n      dup3\n      add\n        /* \"#utility.yul\":15092:15154   */\n      mstore\n      shl(0xf8, 0x73)\n        /* \"#utility.yul\":15170:15188   */\n      0x64\n      dup3\n      add\n        /* \"#utility.yul\":15163:15194   */\n      mstore\n        /* \"#utility.yul\":15211:15230   */\n      0x84\n      add\n        /* \"@openzeppelin/contracts/token/ERC20/ERC20.sol\":9186:9253  require(account != address(0), \"ERC20: burn from the zero address\") */\n      tag_195\n        /* \"#utility.yul\":14839:15236   */\n      jump\n        /* \"@openzeppelin/contracts/token/ERC20/ERC20.sol\":9186:9253  require(account != address(0), \"ERC20: burn from the zero address\") */\n    tag_391:\n      sub(shl(0xa0, 0x01), 0x01)\n        /* \"@openzeppelin/contracts/token/ERC20/ERC20.sol\":9349:9367  _balances[account] */\n      dup3\n      and\n        /* \"@openzeppelin/contracts/token/ERC20/ERC20.sol\":9324:9346  uint256 accountBalance */\n      0x00\n        /* \"@openzeppelin/contracts/token/ERC20/ERC20.sol\":9349:9367  _balances[account] */\n      swap1\n      dup2\n      mstore\n      0x20\n      dup2\n      swap1\n      mstore\n      0x40\n      swap1\n      keccak256\n      sload\n        /* \"@openzeppelin/contracts/token/ERC20/ERC20.sol\":9385:9409  accountBalance >= amount */\n      dup2\n      dup2\n      lt\n      iszero\n        /* \"@openzeppelin/contracts/token/ERC20/ERC20.sol\":9377:9448  require(accountBalance >= amount, \"ERC20: burn amount exceeds balance\") */\n      tag_395\n      jumpi\n      mload(0x40)\n      shl(0xe5, 0x461bcd)\n      dup2\n      mstore\n        /* \"#utility.yul\":15443:15445   */\n      0x20\n        /* \"@openzeppelin/contracts/token/ERC20/ERC20.sol\":9377:9448  require(accountBalance >= amount, \"ERC20: burn amount exceeds balance\") */\n      0x04\n      dup3\n      add\n        /* \"#utility.yul\":15425:15446   */\n      mstore\n        /* \"#utility.yul\":15482:15484   */\n      0x22\n        /* \"#utility.yul\":15462:15480   */\n      0x24\n      dup3\n      add\n        /* \"#utility.yul\":15455:15485   */\n      mstore\n        /* \"#utility.yul\":15521:15555   */\n      0x45524332303a206275726e20616d6f756e7420657863656564732062616c616e\n        /* \"#utility.yul\":15501:15519   */\n      0x44\n      dup3\n      add\n        /* \"#utility.yul\":15494:15556   */\n      mstore\n      shl(0xf0, 0x6365)\n        /* \"#utility.yul\":15572:15590   */\n      0x64\n      dup3\n      add\n        /* \"#utility.yul\":15565:15597   */\n      mstore\n        /* \"#utility.yul\":15614:15633   */\n      0x84\n      add\n        /* \"@openzeppelin/contracts/token/ERC20/ERC20.sol\":9377:9448  require(accountBalance >= amount, \"ERC20: burn amount exceeds balance\") */\n      tag_195\n        /* \"#utility.yul\":15241:15639   */\n      jump\n        /* \"@openzeppelin/contracts/token/ERC20/ERC20.sol\":9377:9448  require(accountBalance >= amount, \"ERC20: burn amount exceeds balance\") */\n    tag_395:\n      sub(shl(0xa0, 0x01), 0x01)\n        /* \"@openzeppelin/contracts/token/ERC20/ERC20.sol\":9482:9500  _balances[account] */\n      dup4\n      and\n        /* \"@openzeppelin/contracts/token/ERC20/ERC20.sol\":9482:9491  _balances */\n      0x00\n        /* \"@openzeppelin/contracts/token/ERC20/ERC20.sol\":9482:9500  _balances[account] */\n      swap1\n      dup2\n      mstore\n      0x20\n      dup2\n      swap1\n      mstore\n      0x40\n      dup2\n      keccak256\n        /* \"@openzeppelin/contracts/token/ERC20/ERC20.sol\":9503:9526  accountBalance - amount */\n      dup4\n      dup4\n      sub\n        /* \"@openzeppelin/contracts/token/ERC20/ERC20.sol\":9482:9526  _balances[account] = accountBalance - amount */\n      swap1\n      sstore\n        /* \"@openzeppelin/contracts/token/ERC20/ERC20.sol\":9546:9558  _totalSupply */\n      0x02\n        /* \"@openzeppelin/contracts/token/ERC20/ERC20.sol\":9546:9568  _totalSupply -= amount */\n      dup1\n      sload\n        /* \"@openzeppelin/contracts/token/ERC20/ERC20.sol\":9520:9526  amount */\n      dup5\n      swap3\n        /* \"@openzeppelin/contracts/token/ERC20/ERC20.sol\":9482:9491  _balances */\n      swap1\n        /* \"@openzeppelin/contracts/token/ERC20/ERC20.sol\":9546:9568  _totalSupply -= amount */\n      tag_398\n      swap1\n        /* \"@openzeppelin/contracts/token/ERC20/ERC20.sol\":9520:9526  amount */\n      dup5\n      swap1\n        /* \"@openzeppelin/contracts/token/ERC20/ERC20.sol\":9546:9568  _totalSupply -= amount */\n      tag_399\n      jump\t// in\n    tag_398:\n      swap1\n      swap2\n      sstore\n      pop\n      pop\n        /* \"@openzeppelin/contracts/token/ERC20/ERC20.sol\":9584:9621  Transfer(account, address(0), amount) */\n      mload(0x40)\n        /* \"#utility.yul\":1391:1416   */\n      dup3\n      dup2\n      mstore\n        /* \"@openzeppelin/contracts/token/ERC20/ERC20.sol\":9610:9611  0 */\n      0x00\n      swap1\n      sub(shl(0xa0, 0x01), 0x01)\n        /* \"@openzeppelin/contracts/token/ERC20/ERC20.sol\":9584:9621  Transfer(account, address(0), amount) */\n      dup6\n      and\n      swap1\n      0xddf252ad1be2c89b69c2b068fc378daa952ba7f163c4a11628f55a4df523b3ef\n      swap1\n        /* \"#utility.yul\":1379:1381   */\n      0x20\n        /* \"#utility.yul\":1364:1382   */\n      add\n        /* \"@openzeppelin/contracts/token/ERC20/ERC20.sol\":9584:9621  Transfer(account, address(0), amount) */\n      mload(0x40)\n      dup1\n      swap2\n      sub\n      swap1\n      log3\n        /* \"@openzeppelin/contracts/token/ERC20/ERC20.sol\":11786:11907  function _beforeTokenTransfer(... */\n      pop\n      pop\n      pop\n      jump\t// out\n        /* \"#utility.yul\":14:611   */\n    tag_44:\n        /* \"#utility.yul\":126:130   */\n      0x00\n        /* \"#utility.yul\":155:157   */\n      0x20\n        /* \"#utility.yul\":184:186   */\n      dup1\n        /* \"#utility.yul\":173:182   */\n      dup4\n        /* \"#utility.yul\":166:187   */\n      mstore\n        /* \"#utility.yul\":216:222   */\n      dup4\n        /* \"#utility.yul\":210:223   */\n      mload\n        /* \"#utility.yul\":259:265   */\n      dup1\n        /* \"#utility.yul\":254:256   */\n      dup3\n        /* \"#utility.yul\":243:252   */\n      dup6\n        /* \"#utility.yul\":239:257   */\n      add\n        /* \"#utility.yul\":232:266   */\n      mstore\n        /* \"#utility.yul\":284:285   */\n      0x00\n        /* \"#utility.yul\":294:434   */\n    tag_408:\n        /* \"#utility.yul\":308:314   */\n      dup2\n        /* \"#utility.yul\":305:306   */\n      dup2\n        /* \"#utility.yul\":302:315   */\n      lt\n        /* \"#utility.yul\":294:434   */\n      iszero\n      tag_410\n      jumpi\n        /* \"#utility.yul\":403:417   */\n      dup6\n      dup2\n      add\n        /* \"#utility.yul\":399:422   */\n      dup4\n      add\n        /* \"#utility.yul\":393:423   */\n      mload\n        /* \"#utility.yul\":369:386   */\n      dup6\n      dup3\n      add\n        /* \"#utility.yul\":388:390   */\n      0x40\n        /* \"#utility.yul\":365:391   */\n      add\n        /* \"#utility.yul\":358:424   */\n      mstore\n        /* \"#utility.yul\":323:333   */\n      dup3\n      add\n        /* \"#utility.yul\":294:434   */\n      jump(tag_408)\n    tag_410:\n        /* \"#utility.yul\":452:458   */\n      dup2\n        /* \"#utility.yul\":449:450   */\n      dup2\n        /* \"#utility.yul\":446:459   */\n      gt\n        /* \"#utility.yul\":443:534   */\n      iszero\n      tag_411\n      jumpi\n        /* \"#utility.yul\":522:523   */\n      0x00\n        /* \"#utility.yul\":517:519   */\n      0x40\n        /* \"#utility.yul\":508:514   */\n      dup4\n        /* \"#utility.yul\":497:506   */\n      dup8\n        /* \"#utility.yul\":493:515   */\n      add\n        /* \"#utility.yul\":489:520   */\n      add\n        /* \"#utility.yul\":482:524   */\n      mstore\n        /* \"#utility.yul\":443:534   */\n    tag_411:\n      pop\n        /* \"#utility.yul\":595:597   */\n      0x1f\n        /* \"#utility.yul\":574:589   */\n      add\n      not(0x1f)\n        /* \"#utility.yul\":570:599   */\n      and\n        /* \"#utility.yul\":555:600   */\n      swap3\n      swap1\n      swap3\n      add\n        /* \"#utility.yul\":602:604   */\n      0x40\n        /* \"#utility.yul\":551:605   */\n      add\n      swap4\n        /* \"#utility.yul\":14:611   */\n      swap3\n      pop\n      pop\n      pop\n      jump\t// out\n        /* \"#utility.yul\":616:789   */\n    tag_402:\n        /* \"#utility.yul\":684:704   */\n      dup1\n      calldataload\n      sub(shl(0xa0, 0x01), 0x01)\n        /* \"#utility.yul\":733:764   */\n      dup2\n      and\n        /* \"#utility.yul\":723:765   */\n      dup2\n      eq\n        /* \"#utility.yul\":713:783   */\n      tag_413\n      jumpi\n        /* \"#utility.yul\":779:780   */\n      0x00\n        /* \"#utility.yul\":776:777   */\n      dup1\n        /* \"#utility.yul\":769:781   */\n      revert\n        /* \"#utility.yul\":713:783   */\n    tag_413:\n        /* \"#utility.yul\":616:789   */\n      swap2\n      swap1\n      pop\n      jump\t// out\n        /* \"#utility.yul\":794:1048   */\n    tag_48:\n        /* \"#utility.yul\":862:868   */\n      0x00\n        /* \"#utility.yul\":870:876   */\n      dup1\n        /* \"#utility.yul\":923:925   */\n      0x40\n        /* \"#utility.yul\":911:920   */\n      dup4\n        /* \"#utility.yul\":902:909   */\n      dup6\n        /* \"#utility.yul\":898:921   */\n      sub\n        /* \"#utility.yul\":894:926   */\n      slt\n        /* \"#utility.yul\":891:943   */\n      iszero\n      tag_415\n      jumpi\n        /* \"#utility.yul\":939:940   */\n      0x00\n        /* \"#utility.yul\":936:937   */\n      dup1\n        /* \"#utility.yul\":929:941   */\n      revert\n        /* \"#utility.yul\":891:943   */\n    tag_415:\n        /* \"#utility.yul\":962:991   */\n      tag_416\n        /* \"#utility.yul\":981:990   */\n      dup4\n        /* \"#utility.yul\":962:991   */\n      tag_402\n      jump\t// in\n    tag_416:\n        /* \"#utility.yul\":952:991   */\n      swap5\n        /* \"#utility.yul\":1038:1040   */\n      0x20\n        /* \"#utility.yul\":1023:1041   */\n      swap4\n      swap1\n      swap4\n      add\n        /* \"#utility.yul\":1010:1042   */\n      calldataload\n      swap4\n      pop\n      pop\n      pop\n        /* \"#utility.yul\":794:1048   */\n      jump\t// out\n        /* \"#utility.yul\":1427:1755   */\n    tag_60:\n        /* \"#utility.yul\":1504:1510   */\n      0x00\n        /* \"#utility.yul\":1512:1518   */\n      dup1\n        /* \"#utility.yul\":1520:1526   */\n      0x00\n        /* \"#utility.yul\":1573:1575   */\n      0x60\n        /* \"#utility.yul\":1561:1570   */\n      dup5\n        /* \"#utility.yul\":1552:1559   */\n      dup7\n        /* \"#utility.yul\":1548:1571   */\n      sub\n        /* \"#utility.yul\":1544:1576   */\n      slt\n        /* \"#utility.yul\":1541:1593   */\n      iszero\n      tag_420\n      jumpi\n        /* \"#utility.yul\":1589:1590   */\n      0x00\n        /* \"#utility.yul\":1586:1587   */\n      dup1\n        /* \"#utility.yul\":1579:1591   */\n      revert\n        /* \"#utility.yul\":1541:1593   */\n    tag_420:\n        /* \"#utility.yul\":1612:1641   */\n      tag_421\n        /* \"#utility.yul\":1631:1640   */\n      dup5\n        /* \"#utility.yul\":1612:1641   */\n      tag_402\n      jump\t// in\n    tag_421:\n        /* \"#utility.yul\":1602:1641   */\n      swap3\n      pop\n        /* \"#utility.yul\":1660:1698   */\n      tag_422\n        /* \"#utility.yul\":1694:1696   */\n      0x20\n        /* \"#utility.yul\":1683:1692   */\n      dup6\n        /* \"#utility.yul\":1679:1697   */\n      add\n        /* \"#utility.yul\":1660:1698   */\n      tag_402\n      jump\t// in\n    tag_422:\n        /* \"#utility.yul\":1650:1698   */\n      swap2\n      pop\n        /* \"#utility.yul\":1745:1747   */\n      0x40\n        /* \"#utility.yul\":1734:1743   */\n      dup5\n        /* \"#utility.yul\":1730:1748   */\n      add\n        /* \"#utility.yul\":1717:1749   */\n      calldataload\n        /* \"#utility.yul\":1707:1749   */\n      swap1\n      pop\n        /* \"#utility.yul\":1427:1755   */\n      swap3\n      pop\n      swap3\n      pop\n      swap3\n      jump\t// out\n        /* \"#utility.yul\":1949:2129   */\n    tag_87:\n        /* \"#utility.yul\":2008:2014   */\n      0x00\n        /* \"#utility.yul\":2061:2063   */\n      0x20\n        /* \"#utility.yul\":2049:2058   */\n      dup3\n        /* \"#utility.yul\":2040:2047   */\n      dup5\n        /* \"#utility.yul\":2036:2059   */\n      sub\n        /* \"#utility.yul\":2032:2064   */\n      slt\n        /* \"#utility.yul\":2029:2081   */\n      iszero\n      tag_425\n      jumpi\n        /* \"#utility.yul\":2077:2078   */\n      0x00\n        /* \"#utility.yul\":2074:2075   */\n      dup1\n        /* \"#utility.yul\":2067:2079   */\n      revert\n        /* \"#utility.yul\":2029:2081   */\n    tag_425:\n      pop\n        /* \"#utility.yul\":2100:2123   */\n      calldataload\n      swap2\n        /* \"#utility.yul\":1949:2129   */\n      swap1\n      pop\n      jump\t// out\n        /* \"#utility.yul\":2530:2716   */\n    tag_105:\n        /* \"#utility.yul\":2589:2595   */\n      0x00\n        /* \"#utility.yul\":2642:2644   */\n      0x20\n        /* \"#utility.yul\":2630:2639   */\n      dup3\n        /* \"#utility.yul\":2621:2628   */\n      dup5\n        /* \"#utility.yul\":2617:2640   */\n      sub\n        /* \"#utility.yul\":2613:2645   */\n      slt\n        /* \"#utility.yul\":2610:2662   */\n      iszero\n      tag_428\n      jumpi\n        /* \"#utility.yul\":2658:2659   */\n      0x00\n        /* \"#utility.yul\":2655:2656   */\n      dup1\n        /* \"#utility.yul\":2648:2660   */\n      revert\n        /* \"#utility.yul\":2610:2662   */\n    tag_428:\n        /* \"#utility.yul\":2681:2710   */\n      tag_335\n        /* \"#utility.yul\":2700:2709   */\n      dup3\n        /* \"#utility.yul\":2681:2710   */\n      tag_402\n      jump\t// in\n        /* \"#utility.yul\":2721:3043   */\n    tag_133:\n        /* \"#utility.yul\":2798:2804   */\n      0x00\n        /* \"#utility.yul\":2806:2812   */\n      dup1\n        /* \"#utility.yul\":2814:2820   */\n      0x00\n        /* \"#utility.yul\":2867:2869   */\n      0x60\n        /* \"#utility.yul\":2855:2864   */\n      dup5\n        /* \"#utility.yul\":2846:2853   */\n      dup7\n        /* \"#utility.yul\":2842:2865   */\n      sub\n        /* \"#utility.yul\":2838:2870   */\n      slt\n        /* \"#utility.yul\":2835:2887   */\n      iszero\n      tag_431\n      jumpi\n        /* \"#utility.yul\":2883:2884   */\n      0x00\n        /* \"#utility.yul\":2880:2881   */\n      dup1\n        /* \"#utility.yul\":2873:2885   */\n      revert\n        /* \"#utility.yul\":2835:2887   */\n    tag_431:\n        /* \"#utility.yul\":2919:2928   */\n      dup4\n        /* \"#utility.yul\":2906:2929   */\n      calldataload\n        /* \"#utility.yul\":2896:2929   */\n      swap3\n      pop\n        /* \"#utility.yul\":2976:2978   */\n      0x20\n        /* \"#utility.yul\":2965:2974   */\n      dup5\n        /* \"#utility.yul\":2961:2979   */\n      add\n        /* \"#utility.yul\":2948:2980   */\n      calldataload\n        /* \"#utility.yul\":2938:2980   */\n      swap2\n      pop\n        /* \"#utility.yul\":2999:3037   */\n      tag_432\n        /* \"#utility.yul\":3033:3035   */\n      0x40\n        /* \"#utility.yul\":3022:3031   */\n      dup6\n        /* \"#utility.yul\":3018:3036   */\n      add\n        /* \"#utility.yul\":2999:3037   */\n      tag_402\n      jump\t// in\n    tag_432:\n        /* \"#utility.yul\":2989:3037   */\n      swap1\n      pop\n        /* \"#utility.yul\":2721:3043   */\n      swap3\n      pop\n      swap3\n      pop\n      swap3\n      jump\t// out\n        /* \"#utility.yul\":3048:3445   */\n    tag_138:\n        /* \"#utility.yul\":3134:3140   */\n      0x00\n        /* \"#utility.yul\":3142:3148   */\n      dup1\n        /* \"#utility.yul\":3150:3156   */\n      0x00\n        /* \"#utility.yul\":3158:3164   */\n      dup1\n        /* \"#utility.yul\":3211:3214   */\n      0x80\n        /* \"#utility.yul\":3199:3208   */\n      dup6\n        /* \"#utility.yul\":3190:3197   */\n      dup8\n        /* \"#utility.yul\":3186:3209   */\n      sub\n        /* \"#utility.yul\":3182:3215   */\n      slt\n        /* \"#utility.yul\":3179:3232   */\n      iszero\n      tag_434\n      jumpi\n        /* \"#utility.yul\":3228:3229   */\n      0x00\n        /* \"#utility.yul\":3225:3226   */\n      dup1\n        /* \"#utility.yul\":3218:3230   */\n      revert\n        /* \"#utility.yul\":3179:3232   */\n    tag_434:\n        /* \"#utility.yul\":3251:3280   */\n      tag_435\n        /* \"#utility.yul\":3270:3279   */\n      dup6\n        /* \"#utility.yul\":3251:3280   */\n      tag_402\n      jump\t// in\n    tag_435:\n        /* \"#utility.yul\":3241:3280   */\n      swap4\n      pop\n        /* \"#utility.yul\":3327:3329   */\n      0x20\n        /* \"#utility.yul\":3316:3325   */\n      dup6\n        /* \"#utility.yul\":3312:3330   */\n      add\n        /* \"#utility.yul\":3299:3331   */\n      calldataload\n        /* \"#utility.yul\":3289:3331   */\n      swap3\n      pop\n        /* \"#utility.yul\":3378:3380   */\n      0x40\n        /* \"#utility.yul\":3367:3376   */\n      dup6\n        /* \"#utility.yul\":3363:3381   */\n      add\n        /* \"#utility.yul\":3350:3382   */\n      calldataload\n        /* \"#utility.yul\":3340:3382   */\n      swap2\n      pop\n        /* \"#utility.yul\":3401:3439   */\n      tag_436\n        /* \"#utility.yul\":3435:3437   */\n      0x60\n        /* \"#utility.yul\":3424:3433   */\n      dup7\n        /* \"#utility.yul\":3420:3438   */\n      add\n        /* \"#utility.yul\":3401:3439   */\n      tag_402\n      jump\t// in\n    tag_436:\n        /* \"#utility.yul\":3391:3439   */\n      swap1\n      pop\n        /* \"#utility.yul\":3048:3445   */\n      swap3\n      swap6\n      swap2\n      swap5\n      pop\n      swap3\n      pop\n      jump\t// out\n        /* \"#utility.yul\":3450:3710   */\n    tag_143:\n        /* \"#utility.yul\":3518:3524   */\n      0x00\n        /* \"#utility.yul\":3526:3532   */\n      dup1\n        /* \"#utility.yul\":3579:3581   */\n      0x40\n        /* \"#utility.yul\":3567:3576   */\n      dup4\n        /* \"#utility.yul\":3558:3565   */\n      dup6\n        /* \"#utility.yul\":3554:3577   */\n      sub\n        /* \"#utility.yul\":3550:3582   */\n      slt\n        /* \"#utility.yul\":3547:3599   */\n      iszero\n      tag_438\n      jumpi\n        /* \"#utility.yul\":3595:3596   */\n      0x00\n        /* \"#utility.yul\":3592:3593   */\n      dup1\n        /* \"#utility.yul\":3585:3597   */\n      revert\n        /* \"#utility.yul\":3547:3599   */\n    tag_438:\n        /* \"#utility.yul\":3618:3647   */\n      tag_439\n        /* \"#utility.yul\":3637:3646   */\n      dup4\n        /* \"#utility.yul\":3618:3647   */\n      tag_402\n      jump\t// in\n    tag_439:\n        /* \"#utility.yul\":3608:3647   */\n      swap2\n      pop\n        /* \"#utility.yul\":3666:3704   */\n      tag_440\n        /* \"#utility.yul\":3700:3702   */\n      0x20\n        /* \"#utility.yul\":3689:3698   */\n      dup5\n        /* \"#utility.yul\":3685:3703   */\n      add\n        /* \"#utility.yul\":3666:3704   */\n      tag_402\n      jump\t// in\n    tag_440:\n        /* \"#utility.yul\":3656:3704   */\n      swap1\n      pop\n        /* \"#utility.yul\":3450:3710   */\n      swap3\n      pop\n      swap3\n      swap1\n      pop\n      jump\t// out\n        /* \"#utility.yul\":3715:3963   */\n    tag_149:\n        /* \"#utility.yul\":3783:3789   */\n      0x00\n        /* \"#utility.yul\":3791:3797   */\n      dup1\n        /* \"#utility.yul\":3844:3846   */\n      0x40\n        /* \"#utility.yul\":3832:3841   */\n      dup4\n        /* \"#utility.yul\":3823:3830   */\n      dup6\n        /* \"#utility.yul\":3819:3842   */\n      sub\n        /* \"#utility.yul\":3815:3847   */\n      slt\n        /* \"#utility.yul\":3812:3864   */\n      iszero\n      tag_442\n      jumpi\n        /* \"#utility.yul\":3860:3861   */\n      0x00\n        /* \"#utility.yul\":3857:3858   */\n      dup1\n        /* \"#utility.yul\":3850:3862   */\n      revert\n        /* \"#utility.yul\":3812:3864   */\n    tag_442:\n      pop\n      pop\n        /* \"#utility.yul\":3883:3906   */\n      dup1\n      calldataload\n      swap3\n        /* \"#utility.yul\":3953:3955   */\n      0x20\n        /* \"#utility.yul\":3938:3956   */\n      swap1\n      swap2\n      add\n        /* \"#utility.yul\":3925:3957   */\n      calldataload\n      swap2\n      pop\n        /* \"#utility.yul\":3715:3963   */\n      jump\t// out\n        /* \"#utility.yul\":4176:4556   */\n    tag_175:\n        /* \"#utility.yul\":4255:4256   */\n      0x01\n        /* \"#utility.yul\":4251:4263   */\n      dup2\n      dup2\n      shr\n      swap1\n        /* \"#utility.yul\":4298:4310   */\n      dup3\n      and\n      dup1\n        /* \"#utility.yul\":4319:4380   */\n      tag_445\n      jumpi\n        /* \"#utility.yul\":4373:4377   */\n      0x7f\n        /* \"#utility.yul\":4365:4371   */\n      dup3\n        /* \"#utility.yul\":4361:4378   */\n      and\n        /* \"#utility.yul\":4351:4378   */\n      swap2\n      pop\n        /* \"#utility.yul\":4319:4380   */\n    tag_445:\n        /* \"#utility.yul\":4426:4428   */\n      0x20\n        /* \"#utility.yul\":4418:4424   */\n      dup3\n        /* \"#utility.yul\":4415:4429   */\n      lt\n        /* \"#utility.yul\":4395:4413   */\n      dup2\n        /* \"#utility.yul\":4392:4430   */\n      sub\n        /* \"#utility.yul\":4389:4550   */\n      tag_446\n      jumpi\n        /* \"#utility.yul\":4472:4482   */\n      0x4e487b71\n        /* \"#utility.yul\":4467:4470   */\n      0xe0\n        /* \"#utility.yul\":4463:4483   */\n      shl\n        /* \"#utility.yul\":4460:4461   */\n      0x00\n        /* \"#utility.yul\":4453:4484   */\n      mstore\n        /* \"#utility.yul\":4507:4511   */\n      0x22\n        /* \"#utility.yul\":4504:4505   */\n      0x04\n        /* \"#utility.yul\":4497:4512   */\n      mstore\n        /* \"#utility.yul\":4535:4539   */\n      0x24\n        /* \"#utility.yul\":4532:4533   */\n      0x00\n        /* \"#utility.yul\":4525:4540   */\n      revert\n        /* \"#utility.yul\":4389:4550   */\n    tag_446:\n      pop\n        /* \"#utility.yul\":4176:4556   */\n      swap2\n      swap1\n      pop\n      jump\t// out\n        /* \"#utility.yul\":4561:4902   */\n    tag_196:\n        /* \"#utility.yul\":4763:4765   */\n      0x20\n        /* \"#utility.yul\":4745:4766   */\n      dup1\n      dup3\n      mstore\n        /* \"#utility.yul\":4802:4804   */\n      0x11\n        /* \"#utility.yul\":4782:4800   */\n      swap1\n      dup3\n      add\n        /* \"#utility.yul\":4775:4805   */\n      mstore\n      shl(0x78, 0x63616c6c6572206e6f74206f776e657221)\n        /* \"#utility.yul\":4836:4838   */\n      0x40\n        /* \"#utility.yul\":4821:4839   */\n      dup3\n      add\n        /* \"#utility.yul\":4814:4861   */\n      mstore\n        /* \"#utility.yul\":4893:4895   */\n      0x60\n        /* \"#utility.yul\":4878:4896   */\n      add\n      swap1\n        /* \"#utility.yul\":4561:4902   */\n      jump\t// out\n        /* \"#utility.yul\":4907:5034   */\n    tag_403:\n        /* \"#utility.yul\":4968:4978   */\n      0x4e487b71\n        /* \"#utility.yul\":4963:4966   */\n      0xe0\n        /* \"#utility.yul\":4959:4979   */\n      shl\n        /* \"#utility.yul\":4956:4957   */\n      0x00\n        /* \"#utility.yul\":4949:4980   */\n      mstore\n        /* \"#utility.yul\":4999:5003   */\n      0x11\n        /* \"#utility.yul\":4996:4997   */\n      0x04\n        /* \"#utility.yul\":4989:5004   */\n      mstore\n        /* \"#utility.yul\":5023:5027   */\n      0x24\n        /* \"#utility.yul\":5020:5021   */\n      0x00\n        /* \"#utility.yul\":5013:5028   */\n      revert\n        /* \"#utility.yul\":5039:5167   */\n    tag_204:\n        /* \"#utility.yul\":5079:5082   */\n      0x00\n        /* \"#utility.yul\":5110:5111   */\n      dup3\n        /* \"#utility.yul\":5106:5112   */\n      not\n        /* \"#utility.yul\":5103:5104   */\n      dup3\n        /* \"#utility.yul\":5100:5113   */\n      gt\n        /* \"#utility.yul\":5097:5136   */\n      iszero\n      tag_451\n      jumpi\n        /* \"#utility.yul\":5116:5134   */\n      tag_451\n      tag_403\n      jump\t// in\n    tag_451:\n      pop\n        /* \"#utility.yul\":5152:5161   */\n      add\n      swap1\n        /* \"#utility.yul\":5039:5167   */\n      jump\t// out\n        /* \"#utility.yul\":5172:5587   */\n    tag_208:\n        /* \"#utility.yul\":5374:5376   */\n      0x20\n        /* \"#utility.yul\":5356:5377   */\n      dup1\n      dup3\n      mstore\n        /* \"#utility.yul\":5413:5415   */\n      0x33\n        /* \"#utility.yul\":5393:5411   */\n      swap1\n      dup3\n      add\n        /* \"#utility.yul\":5386:5416   */\n      mstore\n        /* \"#utility.yul\":5452:5486   */\n      0x6f6e6c7920627269646765206861732061636365737320746f20746869732063\n        /* \"#utility.yul\":5447:5449   */\n      0x40\n        /* \"#utility.yul\":5432:5450   */\n      dup3\n      add\n        /* \"#utility.yul\":5425:5487   */\n      mstore\n      shl(0x69, 0x3434b632103a37b5b2b710333ab731ba34b7b7)\n        /* \"#utility.yul\":5518:5520   */\n      0x60\n        /* \"#utility.yul\":5503:5521   */\n      dup3\n      add\n        /* \"#utility.yul\":5496:5545   */\n      mstore\n        /* \"#utility.yul\":5577:5580   */\n      0x80\n        /* \"#utility.yul\":5562:5581   */\n      add\n      swap1\n        /* \"#utility.yul\":5172:5587   */\n      jump\t// out\n        /* \"#utility.yul\":6673:7095   */\n    tag_404:\n        /* \"#utility.yul\":6762:6763   */\n      0x01\n        /* \"#utility.yul\":6805:6810   */\n      dup2\n        /* \"#utility.yul\":6762:6763   */\n      dup2\n        /* \"#utility.yul\":6819:7089   */\n    tag_457:\n        /* \"#utility.yul\":6840:6847   */\n      dup1\n        /* \"#utility.yul\":6830:6838   */\n      dup6\n        /* \"#utility.yul\":6827:6848   */\n      gt\n        /* \"#utility.yul\":6819:7089   */\n      iszero\n      tag_459\n      jumpi\n        /* \"#utility.yul\":6899:6903   */\n      dup2\n        /* \"#utility.yul\":6895:6896   */\n      0x00\n        /* \"#utility.yul\":6891:6897   */\n      not\n        /* \"#utility.yul\":6887:6904   */\n      div\n        /* \"#utility.yul\":6881:6885   */\n      dup3\n        /* \"#utility.yul\":6878:6905   */\n      gt\n        /* \"#utility.yul\":6875:6928   */\n      iszero\n      tag_461\n      jumpi\n        /* \"#utility.yul\":6908:6926   */\n      tag_461\n      tag_403\n      jump\t// in\n    tag_461:\n        /* \"#utility.yul\":6958:6965   */\n      dup1\n        /* \"#utility.yul\":6948:6956   */\n      dup6\n        /* \"#utility.yul\":6944:6966   */\n      and\n        /* \"#utility.yul\":6941:6996   */\n      iszero\n      tag_462\n      jumpi\n        /* \"#utility.yul\":6978:6994   */\n      swap2\n      dup2\n      mul\n      swap2\n        /* \"#utility.yul\":6941:6996   */\n    tag_462:\n        /* \"#utility.yul\":7057:7079   */\n      swap4\n      dup5\n      shr\n      swap4\n        /* \"#utility.yul\":7017:7032   */\n      swap1\n      dup1\n      mul\n      swap1\n        /* \"#utility.yul\":6819:7089   */\n      jump(tag_457)\n    tag_459:\n        /* \"#utility.yul\":6823:6826   */\n      pop\n        /* \"#utility.yul\":6673:7095   */\n      swap3\n      pop\n      swap3\n      swap1\n      pop\n      jump\t// out\n        /* \"#utility.yul\":7100:7906   */\n    tag_405:\n        /* \"#utility.yul\":7149:7154   */\n      0x00\n        /* \"#utility.yul\":7179:7187   */\n      dup3\n        /* \"#utility.yul\":7169:7249   */\n      tag_464\n      jumpi\n      pop\n        /* \"#utility.yul\":7220:7221   */\n      0x01\n        /* \"#utility.yul\":7234:7239   */\n      jump(tag_180)\n        /* \"#utility.yul\":7169:7249   */\n    tag_464:\n        /* \"#utility.yul\":7268:7272   */\n      dup2\n        /* \"#utility.yul\":7258:7334   */\n      tag_465\n      jumpi\n      pop\n        /* \"#utility.yul\":7305:7306   */\n      0x00\n        /* \"#utility.yul\":7319:7324   */\n      jump(tag_180)\n        /* \"#utility.yul\":7258:7334   */\n    tag_465:\n        /* \"#utility.yul\":7350:7354   */\n      dup2\n        /* \"#utility.yul\":7368:7369   */\n      0x01\n        /* \"#utility.yul\":7363:7422   */\n      dup2\n      eq\n      tag_467\n      jumpi\n        /* \"#utility.yul\":7436:7437   */\n      0x02\n        /* \"#utility.yul\":7431:7561   */\n      dup2\n      eq\n      tag_468\n      jumpi\n        /* \"#utility.yul\":7343:7561   */\n      jump(tag_466)\n        /* \"#utility.yul\":7363:7422   */\n    tag_467:\n        /* \"#utility.yul\":7393:7394   */\n      0x01\n        /* \"#utility.yul\":7384:7394   */\n      swap2\n      pop\n        /* \"#utility.yul\":7407:7412   */\n      pop\n      jump(tag_180)\n        /* \"#utility.yul\":7431:7561   */\n    tag_468:\n        /* \"#utility.yul\":7468:7471   */\n      0xff\n        /* \"#utility.yul\":7458:7466   */\n      dup5\n        /* \"#utility.yul\":7455:7472   */\n      gt\n        /* \"#utility.yul\":7452:7495   */\n      iszero\n      tag_470\n      jumpi\n        /* \"#utility.yul\":7475:7493   */\n      tag_470\n      tag_403\n      jump\t// in\n    tag_470:\n      pop\n      pop\n        /* \"#utility.yul\":7531:7532   */\n      0x01\n        /* \"#utility.yul\":7517:7533   */\n      dup3\n      shl\n        /* \"#utility.yul\":7546:7551   */\n      jump(tag_180)\n        /* \"#utility.yul\":7343:7561   */\n    tag_466:\n      pop\n        /* \"#utility.yul\":7645:7647   */\n      0x20\n        /* \"#utility.yul\":7635:7643   */\n      dup4\n        /* \"#utility.yul\":7632:7648   */\n      lt\n        /* \"#utility.yul\":7626:7629   */\n      0x0133\n        /* \"#utility.yul\":7620:7624   */\n      dup4\n        /* \"#utility.yul\":7617:7630   */\n      lt\n        /* \"#utility.yul\":7613:7649   */\n      and\n        /* \"#utility.yul\":7607:7609   */\n      0x4e\n        /* \"#utility.yul\":7597:7605   */\n      dup5\n        /* \"#utility.yul\":7594:7610   */\n      lt\n        /* \"#utility.yul\":7589:7591   */\n      0x0b\n        /* \"#utility.yul\":7583:7587   */\n      dup5\n        /* \"#utility.yul\":7580:7592   */\n      lt\n        /* \"#utility.yul\":7576:7611   */\n      and\n        /* \"#utility.yul\":7573:7650   */\n      or\n        /* \"#utility.yul\":7570:7729   */\n      iszero\n      tag_471\n      jumpi\n      pop\n        /* \"#utility.yul\":7682:7701   */\n      dup2\n      dup2\n      exp\n        /* \"#utility.yul\":7714:7719   */\n      jump(tag_180)\n        /* \"#utility.yul\":7570:7729   */\n    tag_471:\n        /* \"#utility.yul\":7761:7795   */\n      tag_472\n        /* \"#utility.yul\":7786:7794   */\n      dup4\n        /* \"#utility.yul\":7780:7784   */\n      dup4\n        /* \"#utility.yul\":7761:7795   */\n      tag_404\n      jump\t// in\n    tag_472:\n        /* \"#utility.yul\":7831:7837   */\n      dup1\n        /* \"#utility.yul\":7827:7828   */\n      0x00\n        /* \"#utility.yul\":7823:7829   */\n      not\n        /* \"#utility.yul\":7819:7838   */\n      div\n        /* \"#utility.yul\":7810:7817   */\n      dup3\n        /* \"#utility.yul\":7807:7839   */\n      gt\n        /* \"#utility.yul\":7804:7862   */\n      iszero\n      tag_474\n      jumpi\n        /* \"#utility.yul\":7842:7860   */\n      tag_474\n      tag_403\n      jump\t// in\n    tag_474:\n        /* \"#utility.yul\":7880:7900   */\n      mul\n      swap4\n        /* \"#utility.yul\":7100:7906   */\n      swap3\n      pop\n      pop\n      pop\n      jump\t// out\n        /* \"#utility.yul\":7911:8042   */\n    tag_264:\n        /* \"#utility.yul\":7971:7976   */\n      0x00\n        /* \"#utility.yul\":8000:8036   */\n      tag_335\n        /* \"#utility.yul\":8027:8035   */\n      dup4\n        /* \"#utility.yul\":8021:8025   */\n      dup4\n        /* \"#utility.yul\":8000:8036   */\n      tag_405\n      jump\t// in\n        /* \"#utility.yul\":8397:8565   */\n    tag_268:\n        /* \"#utility.yul\":8437:8444   */\n      0x00\n        /* \"#utility.yul\":8503:8504   */\n      dup2\n        /* \"#utility.yul\":8499:8500   */\n      0x00\n        /* \"#utility.yul\":8495:8501   */\n      not\n        /* \"#utility.yul\":8491:8505   */\n      div\n        /* \"#utility.yul\":8488:8489   */\n      dup4\n        /* \"#utility.yul\":8485:8506   */\n      gt\n        /* \"#utility.yul\":8480:8481   */\n      dup3\n        /* \"#utility.yul\":8473:8482   */\n      iszero\n        /* \"#utility.yul\":8466:8483   */\n      iszero\n        /* \"#utility.yul\":8462:8507   */\n      and\n        /* \"#utility.yul\":8459:8530   */\n      iszero\n      tag_480\n      jumpi\n        /* \"#utility.yul\":8510:8528   */\n      tag_480\n      tag_403\n      jump\t// in\n    tag_480:\n      pop\n        /* \"#utility.yul\":8550:8559   */\n      mul\n      swap1\n        /* \"#utility.yul\":8397:8565   */\n      jump\t// out\n        /* \"#utility.yul\":9643:9920   */\n    tag_287:\n        /* \"#utility.yul\":9710:9716   */\n      0x00\n        /* \"#utility.yul\":9763:9765   */\n      0x20\n        /* \"#utility.yul\":9751:9760   */\n      dup3\n        /* \"#utility.yul\":9742:9749   */\n      dup5\n        /* \"#utility.yul\":9738:9761   */\n      sub\n        /* \"#utility.yul\":9734:9766   */\n      slt\n        /* \"#utility.yul\":9731:9783   */\n      iszero\n      tag_485\n      jumpi\n        /* \"#utility.yul\":9779:9780   */\n      0x00\n        /* \"#utility.yul\":9776:9777   */\n      dup1\n        /* \"#utility.yul\":9769:9781   */\n      revert\n        /* \"#utility.yul\":9731:9783   */\n    tag_485:\n        /* \"#utility.yul\":9811:9820   */\n      dup2\n        /* \"#utility.yul\":9805:9821   */\n      mload\n        /* \"#utility.yul\":9864:9869   */\n      dup1\n        /* \"#utility.yul\":9857:9870   */\n      iszero\n        /* \"#utility.yul\":9850:9871   */\n      iszero\n        /* \"#utility.yul\":9843:9848   */\n      dup2\n        /* \"#utility.yul\":9840:9872   */\n      eq\n        /* \"#utility.yul\":9830:9890   */\n      tag_335\n      jumpi\n        /* \"#utility.yul\":9886:9887   */\n      0x00\n        /* \"#utility.yul\":9883:9884   */\n      dup1\n        /* \"#utility.yul\":9876:9888   */\n      revert\n        /* \"#utility.yul\":11734:11869   */\n    tag_318:\n        /* \"#utility.yul\":11773:11776   */\n      0x00\n        /* \"#utility.yul\":11794:11811   */\n      0x01\n      dup3\n      add\n        /* \"#utility.yul\":11791:11834   */\n      tag_494\n      jumpi\n        /* \"#utility.yul\":11814:11832   */\n      tag_494\n      tag_403\n      jump\t// in\n    tag_494:\n      pop\n        /* \"#utility.yul\":11861:11862   */\n      0x01\n        /* \"#utility.yul\":11850:11863   */\n      add\n      swap1\n        /* \"#utility.yul\":11734:11869   */\n      jump\t// out\n        /* \"#utility.yul\":11874:12091   */\n    tag_336:\n        /* \"#utility.yul\":11914:11915   */\n      0x00\n        /* \"#utility.yul\":11940:11941   */\n      dup3\n        /* \"#utility.yul\":11930:12062   */\n      tag_496\n      jumpi\n        /* \"#utility.yul\":11984:11994   */\n      0x4e487b71\n        /* \"#utility.yul\":11979:11982   */\n      0xe0\n        /* \"#utility.yul\":11975:11995   */\n      shl\n        /* \"#utility.yul\":11972:11973   */\n      0x00\n        /* \"#utility.yul\":11965:11996   */\n      mstore\n        /* \"#utility.yul\":12019:12023   */\n      0x12\n        /* \"#utility.yul\":12016:12017   */\n      0x04\n        /* \"#utility.yul\":12009:12024   */\n      mstore\n        /* \"#utility.yul\":12047:12051   */\n      0x24\n        /* \"#utility.yul\":12044:12045   */\n      0x00\n        /* \"#utility.yul\":12037:12052   */\n      revert\n        /* \"#utility.yul\":11930:12062   */\n    tag_496:\n      pop\n        /* \"#utility.yul\":12076:12085   */\n      div\n      swap1\n        /* \"#utility.yul\":11874:12091   */\n      jump\t// out\n        /* \"#utility.yul\":15644:15769   */\n    tag_399:\n        /* \"#utility.yul\":15684:15688   */\n      0x00\n        /* \"#utility.yul\":15712:15713   */\n      dup3\n        /* \"#utility.yul\":15709:15710   */\n      dup3\n        /* \"#utility.yul\":15706:15714   */\n      lt\n        /* \"#utility.yul\":15703:15737   */\n      iszero\n      tag_508\n      jumpi\n        /* \"#utility.yul\":15717:15735   */\n      tag_508\n      tag_403\n      jump\t// in\n    tag_508:\n      pop\n        /* \"#utility.yul\":15754:15763   */\n      sub\n      swap1\n        /* \"#utility.yul\":15644:15769   */\n      jump\t// out\n\n    auxdata: 0xa26469706673582212209dc78c23c26b4a7e1a8d367240374e6cc55f28cffcc146fb8ebb6d0c2857364264736f6c634300080f0033\n}\n",
				"bytecode": {
					"linkReferences": {},
					"object": "6080604052620000126012600a62000339565b600b819055620000249060146200034a565b600c55620000446064600c546200012260201b62000fb31790919060201c565b600d55620f4240600e5560405162001f6038038062001f6083398101604081905262000070916200036c565b604051806040016040528060088152602001674d6574616363657360c01b81525060405180604001604052806005815260200164416363657360d81b8152508160039081620000c0919062000442565b506004620000cf828262000442565b505060058054336001600160a01b031991821617909155600680549091166001600160a01b03841617905550600b546200011b90309062000115906305f5e1006200034a565b62000139565b506200054c565b60006200013082846200050e565b90505b92915050565b6001600160a01b038216620001945760405162461bcd60e51b815260206004820152601f60248201527f45524332303a206d696e7420746f20746865207a65726f206164647265737300604482015260640160405180910390fd5b8060026000828254620001a8919062000531565b90915550506001600160a01b03821660009081526020819052604081208054839290620001d790849062000531565b90915550506040518181526001600160a01b038316906000907fddf252ad1be2c89b69c2b068fc378daa952ba7f163c4a11628f55a4df523b3ef9060200160405180910390a35050565b505050565b634e487b7160e01b600052601160045260246000fd5b600181815b808511156200027d57816000190482111562000261576200026162000226565b808516156200026f57918102915b93841c939080029062000241565b509250929050565b600082620002965750600162000133565b81620002a55750600062000133565b8160018114620002be5760028114620002c957620002e9565b600191505062000133565b60ff841115620002dd57620002dd62000226565b50506001821b62000133565b5060208310610133831016604e8410600b84101617156200030e575081810a62000133565b6200031a83836200023c565b806000190482111562000331576200033162000226565b029392505050565b60006200013060ff84168362000285565b600081600019048311821515161562000367576200036762000226565b500290565b6000602082840312156200037f57600080fd5b81516001600160a01b03811681146200039757600080fd5b9392505050565b634e487b7160e01b600052604160045260246000fd5b600181811c90821680620003c957607f821691505b602082108103620003ea57634e487b7160e01b600052602260045260246000fd5b50919050565b601f8211156200022157600081815260208120601f850160051c81016020861015620004195750805b601f850160051c820191505b818110156200043a5782815560010162000425565b505050505050565b81516001600160401b038111156200045e576200045e6200039e565b62000476816200046f8454620003b4565b84620003f0565b602080601f831160018114620004ae5760008415620004955750858301515b600019600386901b1c1916600185901b1785556200043a565b600085815260208120601f198616915b82811015620004df57888601518255948401946001909101908401620004be565b5085821015620004fe5787850151600019600388901b60f8161c191681555b5050505050600190811b01905550565b6000826200052c57634e487b7160e01b600052601260045260246000fd5b500490565b6000821982111562000547576200054762000226565b500190565b611a04806200055c6000396000f3fe6080604052600436106101bb5760003560e01c806379cc6790116100ec578063dd62ed3e1161008a578063e7d53fcb11610064578063e7d53fcb146104fc578063f2fde38b1461050f578063f4f3122e1461052f578063f88979451461054f57600080fd5b8063dd62ed3e14610484578063e181203a146104a4578063e78cea92146104c457600080fd5b8063a457c2d7116100c6578063a457c2d714610404578063a9059cbb14610424578063adbc7cee14610444578063b2938bee1461046457600080fd5b806379cc6790146103af5780638dd14802146103cf57806395d89b41146103ef57600080fd5b80633c3b7995116101595780634d1d03d1116101335780634d1d03d11461030a578063534b1442146103435780636ac5db191461036357806370a082311461037957600080fd5b80633c3b7995146102b457806340c10f19146102ca57806342966c68146102ea57600080fd5b806323b872dd1161019557806323b872dd14610241578063313ce56714610261578063380d831b1461027d578063395093511461029457600080fd5b806306fdde03146101c7578063095ea7b3146101f257806318160ddd1461022257600080fd5b366101c257005b600080fd5b3480156101d357600080fd5b506101dc610565565b6040516101e9919061158a565b60405180910390f35b3480156101fe57600080fd5b5061021261020d3660046115fb565b6105f7565b60405190151581526020016101e9565b34801561022e57600080fd5b506002545b6040519081526020016101e9565b34801561024d57600080fd5b5061021261025c366004611625565b610611565b34801561026d57600080fd5b50604051601281526020016101e9565b34801561028957600080fd5b50610292610635565b005b3480156102a057600080fd5b506102126102af3660046115fb565b6106a1565b3480156102c057600080fd5b50610233600e5481565b3480156102d657600080fd5b506102926102e53660046115fb565b6106c3565b3480156102f657600080fd5b50610292610305366004611661565b6106fb565b34801561031657600080fd5b50600754600854600954600a546040805194855260208501939093529183015260608201526080016101e9565b34801561034f57600080fd5b5061029261035e366004611661565b610731565b34801561036f57600080fd5b50610233600c5481565b34801561038557600080fd5b5061023361039436600461167a565b6001600160a01b031660009081526020819052604090205490565b3480156103bb57600080fd5b506102926103ca3660046115fb565b6107ce565b3480156103db57600080fd5b506102926103ea36600461167a565b610802565b3480156103fb57600080fd5b506101dc6108d0565b34801561041057600080fd5b5061021261041f3660046115fb565b6108df565b34801561043057600080fd5b5061021261043f3660046115fb565b61095a565b34801561045057600080fd5b5061029261045f366004611695565b610968565b34801561047057600080fd5b5061029261047f3660046116ca565b610a3e565b34801561049057600080fd5b5061023361049f366004611710565b610ba3565b3480156104b057600080fd5b506102926104bf366004611743565b610bce565b3480156104d057600080fd5b506006546104e4906001600160a01b031681565b6040516001600160a01b0390911681526020016101e9565b61021261050a36600461167a565b610c8c565b34801561051b57600080fd5b5061029261052a36600461167a565b610e80565b34801561053b57600080fd5b5061029261054a366004611743565b610f3c565b34801561055b57600080fd5b50610233600d5481565b60606003805461057490611765565b80601f01602080910402602001604051908101604052809291908181526020018280546105a090611765565b80156105ed5780601f106105c2576101008083540402835291602001916105ed565b820191906000526020600020905b8154815290600101906020018083116105d057829003601f168201915b5050505050905090565b600033610605818585610fc6565b60019150505b92915050565b60003361061f8582856110ea565b61062a858585611164565b506001949350505050565b6005546001600160a01b031633146106685760405162461bcd60e51b815260040161065f9061179f565b60405180910390fd5b436008556040514281527fb144be0f16f8d30f2e18ef8f7938d5e90207932d96650e592ff47725716818fb9060200160405180910390a1565b6000336106058185856106b48383610ba3565b6106be91906117e0565b610fc6565b6006546001600160a01b031633146106ed5760405162461bcd60e51b815260040161065f906117f8565b6106f78282611332565b5050565b6006546001600160a01b031633146107255760405162461bcd60e51b815260040161065f906117f8565b61072e81611411565b50565b6005546001600160a01b0316331461075b5760405162461bcd60e51b815260040161065f9061179f565b806000036107935760405162461bcd60e51b81526020600482015260056024820152647a65726f2160d81b604482015260640161065f565b600e8190556040518181527f6d487f3988610155b3a9ef590f8ac170134d24e6505b9ddd3160e34abaa0edaf9060200160405180910390a150565b6006546001600160a01b031633146107f85760405162461bcd60e51b815260040161065f906117f8565b6106f7828261141b565b6005546001600160a01b0316331461082c5760405162461bcd60e51b815260040161065f9061179f565b6001600160a01b0381166108725760405162461bcd60e51b815260206004820152600d60248201526c7a65726f20616464726573732160981b604482015260640161065f565b6040516001600160a01b03821681527fe605ac02ea219003ec58fc9cf4d4b3c5f2d62ec39807b1c63886ddd47a6fcd6e9060200160405180910390a1600680546001600160a01b0319166001600160a01b0392909216919091179055565b60606004805461057490611765565b600033816108ed8286610ba3565b90508381101561094d5760405162461bcd60e51b815260206004820152602560248201527f45524332303a2064656372656173656420616c6c6f77616e63652062656c6f77604482015264207a65726f60d81b606482015260840161065f565b61062a8286868403610fc6565b600033610605818585611164565b6005546001600160a01b031633146109925760405162461bcd60e51b815260040161065f9061179f565b8247101561099f57600080fd5b60006109ac83600a61192f565b60408051868152602081018690526001600160a01b0385168183015290519192507f4508977418b95bac209196e03356692c2d8f47957dec1c15af1a44cc40d39a04919081900360600190a16001600160a01b0382166108fc610a0f838761193b565b6040518115909202916000818181858888f19350505050158015610a37573d6000803e3d6000fd5b5050505050565b6005546001600160a01b03163314610a685760405162461bcd60e51b815260040161065f9061179f565b6001600160a01b038416610aae5760405162461bcd60e51b815260206004820152600d60248201526c61646472657373207a65726f2160981b604482015260640161065f565b6000610abb83600a61192f565b604080516001600160a01b0388811682526020820188905281830187905285166060820152905191925086917f0206ca7f97d46974ed97b981f879b17e9e1fe17ead63770c806926d28aa5cbd59181900360800190a16001600160a01b03811663a9059cbb84610b2b858961193b565b6040516001600160e01b031960e085901b1681526001600160a01b03909216600483015260248201526044016020604051808303816000875af1158015610b76573d6000803e3d6000fd5b505050506040513d601f19601f82011682018060405250810190610b9a919061195a565b50505050505050565b6001600160a01b03918216600090815260016020908152604080832093909416825291909152205490565b6005546001600160a01b03163314610bf85760405162461bcd60e51b815260040161065f9061179f565b8115801590610c0657508015155b610c3a5760405162461bcd60e51b81526020600482015260056024820152645a65726f2160d81b604482015260640161065f565b600d829055600b54610c4c908261193b565b600c5560408051838152602081018390527f3b06ffd21bedfb2c375d7b1bcf74ca4fe1afe205699e39610b3aced7adf6b9e9910160405180910390a15050565b6000600b54600e54610c9e919061193b565b336000908152602081905260409020541115610d085760405162461bcd60e51b815260206004820152602360248201527f596f75207265616368656420796f757220707269766174652073616c65206c696044820152621b5a5d60ea1b606482015260840161065f565b4360075411158015610d1c57506008544311155b610d7c5760405162461bcd60e51b815260206004820152602b60248201527f507269766174652053616c652068617320656e646564206f7220646964206e6f60448201526a1d081cdd185c9d081e595d60aa1b606482015260840161065f565b600d5434906000908210801590610d955750600c548211155b610df05760405162461bcd60e51b815260206004820152602660248201527f4c657373207468616e204d696e696d756d206f72204d6f7265207468616e204d6044820152656178696d756d60d01b606482015260840161065f565b610e17670de0b6b3a7640000610e1184600a5461143090919063ffffffff16565b90610fb3565b600980549192506000610e298361197c565b9190505550610e39303383611164565b600a546040805183815260208101929092527fb887e151dbfcc06b4ce4f67f9bbedaeb16ab224e34c6668858d0310c6d18ffc3910160405180910390a15060019392505050565b6005546001600160a01b03163314610eaa5760405162461bcd60e51b815260040161065f9061179f565b6001600160a01b038116610ef05760405162461bcd60e51b815260206004820152600d60248201526c61646472657373207a65726f2160981b604482015260640161065f565b600580546001600160a01b0319166001600160a01b03831690811790915560405181907f8be0079c531659141344cd1fd0a4f28419497f9722a3daafe3b4186f6b6457e090600090a350565b6005546001600160a01b03163314610f665760405162461bcd60e51b815260040161065f9061179f565b8115801590610f7457508015155b610fa85760405162461bcd60e51b81526020600482015260056024820152645a65726f2160d81b604482015260640161065f565b600891909155600a55565b6000610fbf8284611995565b9392505050565b6001600160a01b0383166110285760405162461bcd60e51b8152602060048201526024808201527f45524332303a20617070726f76652066726f6d20746865207a65726f206164646044820152637265737360e01b606482015260840161065f565b6001600160a01b0382166110895760405162461bcd60e51b815260206004820152602260248201527f45524332303a20617070726f766520746f20746865207a65726f206164647265604482015261737360f01b606482015260840161065f565b6001600160a01b0383811660008181526001602090815260408083209487168084529482529182902085905590518481527f8c5be1e5ebec7d5bd14f71427d1e84f3dd0314c0f7b2291e5b200ac8c7c3b925910160405180910390a3505050565b60006110f68484610ba3565b9050600019811461115e57818110156111515760405162461bcd60e51b815260206004820152601d60248201527f45524332303a20696e73756666696369656e7420616c6c6f77616e6365000000604482015260640161065f565b61115e8484848403610fc6565b50505050565b6001600160a01b0383166111c85760405162461bcd60e51b815260206004820152602560248201527f45524332303a207472616e736665722066726f6d20746865207a65726f206164604482015264647265737360d81b606482015260840161065f565b6001600160a01b03821661122a5760405162461bcd60e51b815260206004820152602360248201527f45524332303a207472616e7366657220746f20746865207a65726f206164647260448201526265737360e81b606482015260840161065f565b6001600160a01b038316600090815260208190526040902054818110156112a25760405162461bcd60e51b815260206004820152602660248201527f45524332303a207472616e7366657220616d6f756e7420657863656564732062604482015265616c616e636560d01b606482015260840161065f565b6001600160a01b038085166000908152602081905260408082208585039055918516815290812080548492906112d99084906117e0565b92505081905550826001600160a01b0316846001600160a01b03167fddf252ad1be2c89b69c2b068fc378daa952ba7f163c4a11628f55a4df523b3ef8460405161132591815260200190565b60405180910390a361115e565b6001600160a01b0382166113885760405162461bcd60e51b815260206004820152601f60248201527f45524332303a206d696e7420746f20746865207a65726f206164647265737300604482015260640161065f565b806002600082825461139a91906117e0565b90915550506001600160a01b038216600090815260208190526040812080548392906113c79084906117e0565b90915550506040518181526001600160a01b038316906000907fddf252ad1be2c89b69c2b068fc378daa952ba7f163c4a11628f55a4df523b3ef9060200160405180910390a35050565b61072e338261143c565b6114268233836110ea565b6106f7828261143c565b6000610fbf828461193b565b6001600160a01b03821661149c5760405162461bcd60e51b815260206004820152602160248201527f45524332303a206275726e2066726f6d20746865207a65726f206164647265736044820152607360f81b606482015260840161065f565b6001600160a01b038216600090815260208190526040902054818110156115105760405162461bcd60e51b815260206004820152602260248201527f45524332303a206275726e20616d6f756e7420657863656564732062616c616e604482015261636560f01b606482015260840161065f565b6001600160a01b038316600090815260208190526040812083830390556002805484929061153f9084906119b7565b90915550506040518281526000906001600160a01b038516907fddf252ad1be2c89b69c2b068fc378daa952ba7f163c4a11628f55a4df523b3ef9060200160405180910390a3505050565b600060208083528351808285015260005b818110156115b75785810183015185820160400152820161159b565b818111156115c9576000604083870101525b50601f01601f1916929092016040019392505050565b80356001600160a01b03811681146115f657600080fd5b919050565b6000806040838503121561160e57600080fd5b611617836115df565b946020939093013593505050565b60008060006060848603121561163a57600080fd5b611643846115df565b9250611651602085016115df565b9150604084013590509250925092565b60006020828403121561167357600080fd5b5035919050565b60006020828403121561168c57600080fd5b610fbf826115df565b6000806000606084860312156116aa57600080fd5b83359250602084013591506116c1604085016115df565b90509250925092565b600080600080608085870312156116e057600080fd5b6116e9856115df565b93506020850135925060408501359150611705606086016115df565b905092959194509250565b6000806040838503121561172357600080fd5b61172c836115df565b915061173a602084016115df565b90509250929050565b6000806040838503121561175657600080fd5b50508035926020909101359150565b600181811c9082168061177957607f821691505b60208210810361179957634e487b7160e01b600052602260045260246000fd5b50919050565b60208082526011908201527063616c6c6572206e6f74206f776e65722160781b604082015260600190565b634e487b7160e01b600052601160045260246000fd5b600082198211156117f3576117f36117ca565b500190565b60208082526033908201527f6f6e6c7920627269646765206861732061636365737320746f207468697320636040820152723434b632103a37b5b2b710333ab731ba34b7b760691b606082015260800190565b600181815b8085111561188657816000190482111561186c5761186c6117ca565b8085161561187957918102915b93841c9390800290611850565b509250929050565b60008261189d5750600161060b565b816118aa5750600061060b565b81600181146118c057600281146118ca576118e6565b600191505061060b565b60ff8411156118db576118db6117ca565b50506001821b61060b565b5060208310610133831016604e8410600b8410161715611909575081810a61060b565b611913838361184b565b8060001904821115611927576119276117ca565b029392505050565b6000610fbf838361188e565b6000816000190483118215151615611955576119556117ca565b500290565b60006020828403121561196c57600080fd5b81518015158114610fbf57600080fd5b60006001820161198e5761198e6117ca565b5060010190565b6000826119b257634e487b7160e01b600052601260045260246000fd5b500490565b6000828210156119c9576119c96117ca565b50039056fea26469706673582212209dc78c23c26b4a7e1a8d367240374e6cc55f28cffcc146fb8ebb6d0c2857364264736f6c634300080f0033",
					"opcodes": "PUSH1 0x80 PUSH1 0x40 MSTORE PUSH3 0x12 PUSH1 0x12 PUSH1 0xA PUSH3 0x339 JUMP JUMPDEST PUSH1 0xB DUP2 SWAP1 SSTORE PUSH3 0x24 SWAP1 PUSH1 0x14 PUSH3 0x34A JUMP JUMPDEST PUSH1 0xC SSTORE PUSH3 0x44 PUSH1 0x64 PUSH1 0xC SLOAD PUSH3 0x122 PUSH1 0x20 SHL PUSH3 0xFB3 OR SWAP1 SWAP2 SWAP1 PUSH1 0x20 SHR JUMP JUMPDEST PUSH1 0xD SSTORE PUSH3 0xF4240 PUSH1 0xE SSTORE PUSH1 0x40 MLOAD PUSH3 0x1F60 CODESIZE SUB DUP1 PUSH3 0x1F60 DUP4 CODECOPY DUP2 ADD PUSH1 0x40 DUP2 SWAP1 MSTORE PUSH3 0x70 SWAP2 PUSH3 0x36C JUMP JUMPDEST PUSH1 0x40 MLOAD DUP1 PUSH1 0x40 ADD PUSH1 0x40 MSTORE DUP1 PUSH1 0x8 DUP2 MSTORE PUSH1 0x20 ADD PUSH8 0x4D65746163636573 PUSH1 0xC0 SHL DUP2 MSTORE POP PUSH1 0x40 MLOAD DUP1 PUSH1 0x40 ADD PUSH1 0x40 MSTORE DUP1 PUSH1 0x5 DUP2 MSTORE PUSH1 0x20 ADD PUSH5 0x4163636573 PUSH1 0xD8 SHL DUP2 MSTORE POP DUP2 PUSH1 0x3 SWAP1 DUP2 PUSH3 0xC0 SWAP2 SWAP1 PUSH3 0x442 JUMP JUMPDEST POP PUSH1 0x4 PUSH3 0xCF DUP3 DUP3 PUSH3 0x442 JUMP JUMPDEST POP POP PUSH1 0x5 DUP1 SLOAD CALLER PUSH1 0x1 PUSH1 0x1 PUSH1 0xA0 SHL SUB NOT SWAP2 DUP3 AND OR SWAP1 SWAP2 SSTORE PUSH1 0x6 DUP1 SLOAD SWAP1 SWAP2 AND PUSH1 0x1 PUSH1 0x1 PUSH1 0xA0 SHL SUB DUP5 AND OR SWAP1 SSTORE POP PUSH1 0xB SLOAD PUSH3 0x11B SWAP1 ADDRESS SWAP1 PUSH3 0x115 SWAP1 PUSH4 0x5F5E100 PUSH3 0x34A JUMP JUMPDEST PUSH3 0x139 JUMP JUMPDEST POP PUSH3 0x54C JUMP JUMPDEST PUSH1 0x0 PUSH3 0x130 DUP3 DUP5 PUSH3 0x50E JUMP JUMPDEST SWAP1 POP JUMPDEST SWAP3 SWAP2 POP POP JUMP JUMPDEST PUSH1 0x1 PUSH1 0x1 PUSH1 0xA0 SHL SUB DUP3 AND PUSH3 0x194 JUMPI PUSH1 0x40 MLOAD PUSH3 0x461BCD PUSH1 0xE5 SHL DUP2 MSTORE PUSH1 0x20 PUSH1 0x4 DUP3 ADD MSTORE PUSH1 0x1F PUSH1 0x24 DUP3 ADD MSTORE PUSH32 0x45524332303A206D696E7420746F20746865207A65726F206164647265737300 PUSH1 0x44 DUP3 ADD MSTORE PUSH1 0x64 ADD PUSH1 0x40 MLOAD DUP1 SWAP2 SUB SWAP1 REVERT JUMPDEST DUP1 PUSH1 0x2 PUSH1 0x0 DUP3 DUP3 SLOAD PUSH3 0x1A8 SWAP2 SWAP1 PUSH3 0x531 JUMP JUMPDEST SWAP1 SWAP2 SSTORE POP POP PUSH1 0x1 PUSH1 0x1 PUSH1 0xA0 SHL SUB DUP3 AND PUSH1 0x0 SWAP1 DUP2 MSTORE PUSH1 0x20 DUP2 SWAP1 MSTORE PUSH1 0x40 DUP2 KECCAK256 DUP1 SLOAD DUP4 SWAP3 SWAP1 PUSH3 0x1D7 SWAP1 DUP5 SWAP1 PUSH3 0x531 JUMP JUMPDEST SWAP1 SWAP2 SSTORE POP POP PUSH1 0x40 MLOAD DUP2 DUP2 MSTORE PUSH1 0x1 PUSH1 0x1 PUSH1 0xA0 SHL SUB DUP4 AND SWAP1 PUSH1 0x0 SWAP1 PUSH32 0xDDF252AD1BE2C89B69C2B068FC378DAA952BA7F163C4A11628F55A4DF523B3EF SWAP1 PUSH1 0x20 ADD PUSH1 0x40 MLOAD DUP1 SWAP2 SUB SWAP1 LOG3 POP POP JUMP JUMPDEST POP POP POP JUMP JUMPDEST PUSH4 0x4E487B71 PUSH1 0xE0 SHL PUSH1 0x0 MSTORE PUSH1 0x11 PUSH1 0x4 MSTORE PUSH1 0x24 PUSH1 0x0 REVERT JUMPDEST PUSH1 0x1 DUP2 DUP2 JUMPDEST DUP1 DUP6 GT ISZERO PUSH3 0x27D JUMPI DUP2 PUSH1 0x0 NOT DIV DUP3 GT ISZERO PUSH3 0x261 JUMPI PUSH3 0x261 PUSH3 0x226 JUMP JUMPDEST DUP1 DUP6 AND ISZERO PUSH3 0x26F JUMPI SWAP2 DUP2 MUL SWAP2 JUMPDEST SWAP4 DUP5 SHR SWAP4 SWAP1 DUP1 MUL SWAP1 PUSH3 0x241 JUMP JUMPDEST POP SWAP3 POP SWAP3 SWAP1 POP JUMP JUMPDEST PUSH1 0x0 DUP3 PUSH3 0x296 JUMPI POP PUSH1 0x1 PUSH3 0x133 JUMP JUMPDEST DUP2 PUSH3 0x2A5 JUMPI POP PUSH1 0x0 PUSH3 0x133 JUMP JUMPDEST DUP2 PUSH1 0x1 DUP2 EQ PUSH3 0x2BE JUMPI PUSH1 0x2 DUP2 EQ PUSH3 0x2C9 JUMPI PUSH3 0x2E9 JUMP JUMPDEST PUSH1 0x1 SWAP2 POP POP PUSH3 0x133 JUMP JUMPDEST PUSH1 0xFF DUP5 GT ISZERO PUSH3 0x2DD JUMPI PUSH3 0x2DD PUSH3 0x226 JUMP JUMPDEST POP POP PUSH1 0x1 DUP3 SHL PUSH3 0x133 JUMP JUMPDEST POP PUSH1 0x20 DUP4 LT PUSH2 0x133 DUP4 LT AND PUSH1 0x4E DUP5 LT PUSH1 0xB DUP5 LT AND OR ISZERO PUSH3 0x30E JUMPI POP DUP2 DUP2 EXP PUSH3 0x133 JUMP JUMPDEST PUSH3 0x31A DUP4 DUP4 PUSH3 0x23C JUMP JUMPDEST DUP1 PUSH1 0x0 NOT DIV DUP3 GT ISZERO PUSH3 0x331 JUMPI PUSH3 0x331 PUSH3 0x226 JUMP JUMPDEST MUL SWAP4 SWAP3 POP POP POP JUMP JUMPDEST PUSH1 0x0 PUSH3 0x130 PUSH1 0xFF DUP5 AND DUP4 PUSH3 0x285 JUMP JUMPDEST PUSH1 0x0 DUP2 PUSH1 0x0 NOT DIV DUP4 GT DUP3 ISZERO ISZERO AND ISZERO PUSH3 0x367 JUMPI PUSH3 0x367 PUSH3 0x226 JUMP JUMPDEST POP MUL SWAP1 JUMP JUMPDEST PUSH1 0x0 PUSH1 0x20 DUP3 DUP5 SUB SLT ISZERO PUSH3 0x37F JUMPI PUSH1 0x0 DUP1 REVERT JUMPDEST DUP2 MLOAD PUSH1 0x1 PUSH1 0x1 PUSH1 0xA0 SHL SUB DUP2 AND DUP2 EQ PUSH3 0x397 JUMPI PUSH1 0x0 DUP1 REVERT JUMPDEST SWAP4 SWAP3 POP POP POP JUMP JUMPDEST PUSH4 0x4E487B71 PUSH1 0xE0 SHL PUSH1 0x0 MSTORE PUSH1 0x41 PUSH1 0x4 MSTORE PUSH1 0x24 PUSH1 0x0 REVERT JUMPDEST PUSH1 0x1 DUP2 DUP2 SHR SWAP1 DUP3 AND DUP1 PUSH3 0x3C9 JUMPI PUSH1 0x7F DUP3 AND SWAP2 POP JUMPDEST PUSH1 0x20 DUP3 LT DUP2 SUB PUSH3 0x3EA JUMPI PUSH4 0x4E487B71 PUSH1 0xE0 SHL PUSH1 0x0 MSTORE PUSH1 0x22 PUSH1 0x4 MSTORE PUSH1 0x24 PUSH1 0x0 REVERT JUMPDEST POP SWAP2 SWAP1 POP JUMP JUMPDEST PUSH1 0x1F DUP3 GT ISZERO PUSH3 0x221 JUMPI PUSH1 0x0 DUP2 DUP2 MSTORE PUSH1 0x20 DUP2 KECCAK256 PUSH1 0x1F DUP6 ADD PUSH1 0x5 SHR DUP2 ADD PUSH1 0x20 DUP7 LT ISZERO PUSH3 0x419 JUMPI POP DUP1 JUMPDEST PUSH1 0x1F DUP6 ADD PUSH1 0x5 SHR DUP3 ADD SWAP2 POP JUMPDEST DUP2 DUP2 LT ISZERO PUSH3 0x43A JUMPI DUP3 DUP2 SSTORE PUSH1 0x1 ADD PUSH3 0x425 JUMP JUMPDEST POP POP POP POP POP POP JUMP JUMPDEST DUP2 MLOAD PUSH1 0x1 PUSH1 0x1 PUSH1 0x40 SHL SUB DUP2 GT ISZERO PUSH3 0x45E JUMPI PUSH3 0x45E PUSH3 0x39E JUMP JUMPDEST PUSH3 0x476 DUP2 PUSH3 0x46F DUP5 SLOAD PUSH3 0x3B4 JUMP JUMPDEST DUP5 PUSH3 0x3F0 JUMP JUMPDEST PUSH1 0x20 DUP1 PUSH1 0x1F DUP4 GT PUSH1 0x1 DUP2 EQ PUSH3 0x4AE JUMPI PUSH1 0x0 DUP5 ISZERO PUSH3 0x495 JUMPI POP DUP6 DUP4 ADD MLOAD JUMPDEST PUSH1 0x0 NOT PUSH1 0x3 DUP7 SWAP1 SHL SHR NOT AND PUSH1 0x1 DUP6 SWAP1 SHL OR DUP6 SSTORE PUSH3 0x43A JUMP JUMPDEST PUSH1 0x0 DUP6 DUP2 MSTORE PUSH1 0x20 DUP2 KECCAK256 PUSH1 0x1F NOT DUP7 AND SWAP2 JUMPDEST DUP3 DUP2 LT ISZERO PUSH3 0x4DF JUMPI DUP9 DUP7 ADD MLOAD DUP3 SSTORE SWAP5 DUP5 ADD SWAP5 PUSH1 0x1 SWAP1 SWAP2 ADD SWAP1 DUP5 ADD PUSH3 0x4BE JUMP JUMPDEST POP DUP6 DUP3 LT ISZERO PUSH3 0x4FE JUMPI DUP8 DUP6 ADD MLOAD PUSH1 0x0 NOT PUSH1 0x3 DUP9 SWAP1 SHL PUSH1 0xF8 AND SHR NOT AND DUP2 SSTORE JUMPDEST POP POP POP POP POP PUSH1 0x1 SWAP1 DUP2 SHL ADD SWAP1 SSTORE POP JUMP JUMPDEST PUSH1 0x0 DUP3 PUSH3 0x52C JUMPI PUSH4 0x4E487B71 PUSH1 0xE0 SHL PUSH1 0x0 MSTORE PUSH1 0x12 PUSH1 0x4 MSTORE PUSH1 0x24 PUSH1 0x0 REVERT JUMPDEST POP DIV SWAP1 JUMP JUMPDEST PUSH1 0x0 DUP3 NOT DUP3 GT ISZERO PUSH3 0x547 JUMPI PUSH3 0x547 PUSH3 0x226 JUMP JUMPDEST POP ADD SWAP1 JUMP JUMPDEST PUSH2 0x1A04 DUP1 PUSH3 0x55C PUSH1 0x0 CODECOPY PUSH1 0x0 RETURN INVALID PUSH1 0x80 PUSH1 0x40 MSTORE PUSH1 0x4 CALLDATASIZE LT PUSH2 0x1BB JUMPI PUSH1 0x0 CALLDATALOAD PUSH1 0xE0 SHR DUP1 PUSH4 0x79CC6790 GT PUSH2 0xEC JUMPI DUP1 PUSH4 0xDD62ED3E GT PUSH2 0x8A JUMPI DUP1 PUSH4 0xE7D53FCB GT PUSH2 0x64 JUMPI DUP1 PUSH4 0xE7D53FCB EQ PUSH2 0x4FC JUMPI DUP1 PUSH4 0xF2FDE38B EQ PUSH2 0x50F JUMPI DUP1 PUSH4 0xF4F3122E EQ PUSH2 0x52F JUMPI DUP1 PUSH4 0xF8897945 EQ PUSH2 0x54F JUMPI PUSH1 0x0 DUP1 REVERT JUMPDEST DUP1 PUSH4 0xDD62ED3E EQ PUSH2 0x484 JUMPI DUP1 PUSH4 0xE181203A EQ PUSH2 0x4A4 JUMPI DUP1 PUSH4 0xE78CEA92 EQ PUSH2 0x4C4 JUMPI PUSH1 0x0 DUP1 REVERT JUMPDEST DUP1 PUSH4 0xA457C2D7 GT PUSH2 0xC6 JUMPI DUP1 PUSH4 0xA457C2D7 EQ PUSH2 0x404 JUMPI DUP1 PUSH4 0xA9059CBB EQ PUSH2 0x424 JUMPI DUP1 PUSH4 0xADBC7CEE EQ PUSH2 0x444 JUMPI DUP1 PUSH4 0xB2938BEE EQ PUSH2 0x464 JUMPI PUSH1 0x0 DUP1 REVERT JUMPDEST DUP1 PUSH4 0x79CC6790 EQ PUSH2 0x3AF JUMPI DUP1 PUSH4 0x8DD14802 EQ PUSH2 0x3CF JUMPI DUP1 PUSH4 0x95D89B41 EQ PUSH2 0x3EF JUMPI PUSH1 0x0 DUP1 REVERT JUMPDEST DUP1 PUSH4 0x3C3B7995 GT PUSH2 0x159 JUMPI DUP1 PUSH4 0x4D1D03D1 GT PUSH2 0x133 JUMPI DUP1 PUSH4 0x4D1D03D1 EQ PUSH2 0x30A JUMPI DUP1 PUSH4 0x534B1442 EQ PUSH2 0x343 JUMPI DUP1 PUSH4 0x6AC5DB19 EQ PUSH2 0x363 JUMPI DUP1 PUSH4 0x70A08231 EQ PUSH2 0x379 JUMPI PUSH1 0x0 DUP1 REVERT JUMPDEST DUP1 PUSH4 0x3C3B7995 EQ PUSH2 0x2B4 JUMPI DUP1 PUSH4 0x40C10F19 EQ PUSH2 0x2CA JUMPI DUP1 PUSH4 0x42966C68 EQ PUSH2 0x2EA JUMPI PUSH1 0x0 DUP1 REVERT JUMPDEST DUP1 PUSH4 0x23B872DD GT PUSH2 0x195 JUMPI DUP1 PUSH4 0x23B872DD EQ PUSH2 0x241 JUMPI DUP1 PUSH4 0x313CE567 EQ PUSH2 0x261 JUMPI DUP1 PUSH4 0x380D831B EQ PUSH2 0x27D JUMPI DUP1 PUSH4 0x39509351 EQ PUSH2 0x294 JUMPI PUSH1 0x0 DUP1 REVERT JUMPDEST DUP1 PUSH4 0x6FDDE03 EQ PUSH2 0x1C7 JUMPI DUP1 PUSH4 0x95EA7B3 EQ PUSH2 0x1F2 JUMPI DUP1 PUSH4 0x18160DDD EQ PUSH2 0x222 JUMPI PUSH1 0x0 DUP1 REVERT JUMPDEST CALLDATASIZE PUSH2 0x1C2 JUMPI STOP JUMPDEST PUSH1 0x0 DUP1 REVERT JUMPDEST CALLVALUE DUP1 ISZERO PUSH2 0x1D3 JUMPI PUSH1 0x0 DUP1 REVERT JUMPDEST POP PUSH2 0x1DC PUSH2 0x565 JUMP JUMPDEST PUSH1 0x40 MLOAD PUSH2 0x1E9 SWAP2 SWAP1 PUSH2 0x158A JUMP JUMPDEST PUSH1 0x40 MLOAD DUP1 SWAP2 SUB SWAP1 RETURN JUMPDEST CALLVALUE DUP1 ISZERO PUSH2 0x1FE JUMPI PUSH1 0x0 DUP1 REVERT JUMPDEST POP PUSH2 0x212 PUSH2 0x20D CALLDATASIZE PUSH1 0x4 PUSH2 0x15FB JUMP JUMPDEST PUSH2 0x5F7 JUMP JUMPDEST PUSH1 0x40 MLOAD SWAP1 ISZERO ISZERO DUP2 MSTORE PUSH1 0x20 ADD PUSH2 0x1E9 JUMP JUMPDEST CALLVALUE DUP1 ISZERO PUSH2 0x22E JUMPI PUSH1 0x0 DUP1 REVERT JUMPDEST POP PUSH1 0x2 SLOAD JUMPDEST PUSH1 0x40 MLOAD SWAP1 DUP2 MSTORE PUSH1 0x20 ADD PUSH2 0x1E9 JUMP JUMPDEST CALLVALUE DUP1 ISZERO PUSH2 0x24D JUMPI PUSH1 0x0 DUP1 REVERT JUMPDEST POP PUSH2 0x212 PUSH2 0x25C CALLDATASIZE PUSH1 0x4 PUSH2 0x1625 JUMP JUMPDEST PUSH2 0x611 JUMP JUMPDEST CALLVALUE DUP1 ISZERO PUSH2 0x26D JUMPI PUSH1 0x0 DUP1 REVERT JUMPDEST POP PUSH1 0x40 MLOAD PUSH1 0x12 DUP2 MSTORE PUSH1 0x20 ADD PUSH2 0x1E9 JUMP JUMPDEST CALLVALUE DUP1 ISZERO PUSH2 0x289 JUMPI PUSH1 0x0 DUP1 REVERT JUMPDEST POP PUSH2 0x292 PUSH2 0x635 JUMP JUMPDEST STOP JUMPDEST CALLVALUE DUP1 ISZERO PUSH2 0x2A0 JUMPI PUSH1 0x0 DUP1 REVERT JUMPDEST POP PUSH2 0x212 PUSH2 0x2AF CALLDATASIZE PUSH1 0x4 PUSH2 0x15FB JUMP JUMPDEST PUSH2 0x6A1 JUMP JUMPDEST CALLVALUE DUP1 ISZERO PUSH2 0x2C0 JUMPI PUSH1 0x0 DUP1 REVERT JUMPDEST POP PUSH2 0x233 PUSH1 0xE SLOAD DUP2 JUMP JUMPDEST CALLVALUE DUP1 ISZERO PUSH2 0x2D6 JUMPI PUSH1 0x0 DUP1 REVERT JUMPDEST POP PUSH2 0x292 PUSH2 0x2E5 CALLDATASIZE PUSH1 0x4 PUSH2 0x15FB JUMP JUMPDEST PUSH2 0x6C3 JUMP JUMPDEST CALLVALUE DUP1 ISZERO PUSH2 0x2F6 JUMPI PUSH1 0x0 DUP1 REVERT JUMPDEST POP PUSH2 0x292 PUSH2 0x305 CALLDATASIZE PUSH1 0x4 PUSH2 0x1661 JUMP JUMPDEST PUSH2 0x6FB JUMP JUMPDEST CALLVALUE DUP1 ISZERO PUSH2 0x316 JUMPI PUSH1 0x0 DUP1 REVERT JUMPDEST POP PUSH1 0x7 SLOAD PUSH1 0x8 SLOAD PUSH1 0x9 SLOAD PUSH1 0xA SLOAD PUSH1 0x40 DUP1 MLOAD SWAP5 DUP6 MSTORE PUSH1 0x20 DUP6 ADD SWAP4 SWAP1 SWAP4 MSTORE SWAP2 DUP4 ADD MSTORE PUSH1 0x60 DUP3 ADD MSTORE PUSH1 0x80 ADD PUSH2 0x1E9 JUMP JUMPDEST CALLVALUE DUP1 ISZERO PUSH2 0x34F JUMPI PUSH1 0x0 DUP1 REVERT JUMPDEST POP PUSH2 0x292 PUSH2 0x35E CALLDATASIZE PUSH1 0x4 PUSH2 0x1661 JUMP JUMPDEST PUSH2 0x731 JUMP JUMPDEST CALLVALUE DUP1 ISZERO PUSH2 0x36F JUMPI PUSH1 0x0 DUP1 REVERT JUMPDEST POP PUSH2 0x233 PUSH1 0xC SLOAD DUP2 JUMP JUMPDEST CALLVALUE DUP1 ISZERO PUSH2 0x385 JUMPI PUSH1 0x0 DUP1 REVERT JUMPDEST POP PUSH2 0x233 PUSH2 0x394 CALLDATASIZE PUSH1 0x4 PUSH2 0x167A JUMP JUMPDEST PUSH1 0x1 PUSH1 0x1 PUSH1 0xA0 SHL SUB AND PUSH1 0x0 SWAP1 DUP2 MSTORE PUSH1 0x20 DUP2 SWAP1 MSTORE PUSH1 0x40 SWAP1 KECCAK256 SLOAD SWAP1 JUMP JUMPDEST CALLVALUE DUP1 ISZERO PUSH2 0x3BB JUMPI PUSH1 0x0 DUP1 REVERT JUMPDEST POP PUSH2 0x292 PUSH2 0x3CA CALLDATASIZE PUSH1 0x4 PUSH2 0x15FB JUMP JUMPDEST PUSH2 0x7CE JUMP JUMPDEST CALLVALUE DUP1 ISZERO PUSH2 0x3DB JUMPI PUSH1 0x0 DUP1 REVERT JUMPDEST POP PUSH2 0x292 PUSH2 0x3EA CALLDATASIZE PUSH1 0x4 PUSH2 0x167A JUMP JUMPDEST PUSH2 0x802 JUMP JUMPDEST CALLVALUE DUP1 ISZERO PUSH2 0x3FB JUMPI PUSH1 0x0 DUP1 REVERT JUMPDEST POP PUSH2 0x1DC PUSH2 0x8D0 JUMP JUMPDEST CALLVALUE DUP1 ISZERO PUSH2 0x410 JUMPI PUSH1 0x0 DUP1 REVERT JUMPDEST POP PUSH2 0x212 PUSH2 0x41F CALLDATASIZE PUSH1 0x4 PUSH2 0x15FB JUMP JUMPDEST PUSH2 0x8DF JUMP JUMPDEST CALLVALUE DUP1 ISZERO PUSH2 0x430 JUMPI PUSH1 0x0 DUP1 REVERT JUMPDEST POP PUSH2 0x212 PUSH2 0x43F CALLDATASIZE PUSH1 0x4 PUSH2 0x15FB JUMP JUMPDEST PUSH2 0x95A JUMP JUMPDEST CALLVALUE DUP1 ISZERO PUSH2 0x450 JUMPI PUSH1 0x0 DUP1 REVERT JUMPDEST POP PUSH2 0x292 PUSH2 0x45F CALLDATASIZE PUSH1 0x4 PUSH2 0x1695 JUMP JUMPDEST PUSH2 0x968 JUMP JUMPDEST CALLVALUE DUP1 ISZERO PUSH2 0x470 JUMPI PUSH1 0x0 DUP1 REVERT JUMPDEST POP PUSH2 0x292 PUSH2 0x47F CALLDATASIZE PUSH1 0x4 PUSH2 0x16CA JUMP JUMPDEST PUSH2 0xA3E JUMP JUMPDEST CALLVALUE DUP1 ISZERO PUSH2 0x490 JUMPI PUSH1 0x0 DUP1 REVERT JUMPDEST POP PUSH2 0x233 PUSH2 0x49F CALLDATASIZE PUSH1 0x4 PUSH2 0x1710 JUMP JUMPDEST PUSH2 0xBA3 JUMP JUMPDEST CALLVALUE DUP1 ISZERO PUSH2 0x4B0 JUMPI PUSH1 0x0 DUP1 REVERT JUMPDEST POP PUSH2 0x292 PUSH2 0x4BF CALLDATASIZE PUSH1 0x4 PUSH2 0x1743 JUMP JUMPDEST PUSH2 0xBCE JUMP JUMPDEST CALLVALUE DUP1 ISZERO PUSH2 0x4D0 JUMPI PUSH1 0x0 DUP1 REVERT JUMPDEST POP PUSH1 0x6 SLOAD PUSH2 0x4E4 SWAP1 PUSH1 0x1 PUSH1 0x1 PUSH1 0xA0 SHL SUB AND DUP2 JUMP JUMPDEST PUSH1 0x40 MLOAD PUSH1 0x1 PUSH1 0x1 PUSH1 0xA0 SHL SUB SWAP1 SWAP2 AND DUP2 MSTORE PUSH1 0x20 ADD PUSH2 0x1E9 JUMP JUMPDEST PUSH2 0x212 PUSH2 0x50A CALLDATASIZE PUSH1 0x4 PUSH2 0x167A JUMP JUMPDEST PUSH2 0xC8C JUMP JUMPDEST CALLVALUE DUP1 ISZERO PUSH2 0x51B JUMPI PUSH1 0x0 DUP1 REVERT JUMPDEST POP PUSH2 0x292 PUSH2 0x52A CALLDATASIZE PUSH1 0x4 PUSH2 0x167A JUMP JUMPDEST PUSH2 0xE80 JUMP JUMPDEST CALLVALUE DUP1 ISZERO PUSH2 0x53B JUMPI PUSH1 0x0 DUP1 REVERT JUMPDEST POP PUSH2 0x292 PUSH2 0x54A CALLDATASIZE PUSH1 0x4 PUSH2 0x1743 JUMP JUMPDEST PUSH2 0xF3C JUMP JUMPDEST CALLVALUE DUP1 ISZERO PUSH2 0x55B JUMPI PUSH1 0x0 DUP1 REVERT JUMPDEST POP PUSH2 0x233 PUSH1 0xD SLOAD DUP2 JUMP JUMPDEST PUSH1 0x60 PUSH1 0x3 DUP1 SLOAD PUSH2 0x574 SWAP1 PUSH2 0x1765 JUMP JUMPDEST DUP1 PUSH1 0x1F ADD PUSH1 0x20 DUP1 SWAP2 DIV MUL PUSH1 0x20 ADD PUSH1 0x40 MLOAD SWAP1 DUP2 ADD PUSH1 0x40 MSTORE DUP1 SWAP3 SWAP2 SWAP1 DUP2 DUP2 MSTORE PUSH1 0x20 ADD DUP3 DUP1 SLOAD PUSH2 0x5A0 SWAP1 PUSH2 0x1765 JUMP JUMPDEST DUP1 ISZERO PUSH2 0x5ED JUMPI DUP1 PUSH1 0x1F LT PUSH2 0x5C2 JUMPI PUSH2 0x100 DUP1 DUP4 SLOAD DIV MUL DUP4 MSTORE SWAP2 PUSH1 0x20 ADD SWAP2 PUSH2 0x5ED JUMP JUMPDEST DUP3 ADD SWAP2 SWAP1 PUSH1 0x0 MSTORE PUSH1 0x20 PUSH1 0x0 KECCAK256 SWAP1 JUMPDEST DUP2 SLOAD DUP2 MSTORE SWAP1 PUSH1 0x1 ADD SWAP1 PUSH1 0x20 ADD DUP1 DUP4 GT PUSH2 0x5D0 JUMPI DUP3 SWAP1 SUB PUSH1 0x1F AND DUP3 ADD SWAP2 JUMPDEST POP POP POP POP POP SWAP1 POP SWAP1 JUMP JUMPDEST PUSH1 0x0 CALLER PUSH2 0x605 DUP2 DUP6 DUP6 PUSH2 0xFC6 JUMP JUMPDEST PUSH1 0x1 SWAP2 POP POP JUMPDEST SWAP3 SWAP2 POP POP JUMP JUMPDEST PUSH1 0x0 CALLER PUSH2 0x61F DUP6 DUP3 DUP6 PUSH2 0x10EA JUMP JUMPDEST PUSH2 0x62A DUP6 DUP6 DUP6 PUSH2 0x1164 JUMP JUMPDEST POP PUSH1 0x1 SWAP5 SWAP4 POP POP POP POP JUMP JUMPDEST PUSH1 0x5 SLOAD PUSH1 0x1 PUSH1 0x1 PUSH1 0xA0 SHL SUB AND CALLER EQ PUSH2 0x668 JUMPI PUSH1 0x40 MLOAD PUSH3 0x461BCD PUSH1 0xE5 SHL DUP2 MSTORE PUSH1 0x4 ADD PUSH2 0x65F SWAP1 PUSH2 0x179F JUMP JUMPDEST PUSH1 0x40 MLOAD DUP1 SWAP2 SUB SWAP1 REVERT JUMPDEST NUMBER PUSH1 0x8 SSTORE PUSH1 0x40 MLOAD TIMESTAMP DUP2 MSTORE PUSH32 0xB144BE0F16F8D30F2E18EF8F7938D5E90207932D96650E592FF47725716818FB SWAP1 PUSH1 0x20 ADD PUSH1 0x40 MLOAD DUP1 SWAP2 SUB SWAP1 LOG1 JUMP JUMPDEST PUSH1 0x0 CALLER PUSH2 0x605 DUP2 DUP6 DUP6 PUSH2 0x6B4 DUP4 DUP4 PUSH2 0xBA3 JUMP JUMPDEST PUSH2 0x6BE SWAP2 SWAP1 PUSH2 0x17E0 JUMP JUMPDEST PUSH2 0xFC6 JUMP JUMPDEST PUSH1 0x6 SLOAD PUSH1 0x1 PUSH1 0x1 PUSH1 0xA0 SHL SUB AND CALLER EQ PUSH2 0x6ED JUMPI PUSH1 0x40 MLOAD PUSH3 0x461BCD PUSH1 0xE5 SHL DUP2 MSTORE PUSH1 0x4 ADD PUSH2 0x65F SWAP1 PUSH2 0x17F8 JUMP JUMPDEST PUSH2 0x6F7 DUP3 DUP3 PUSH2 0x1332 JUMP JUMPDEST POP POP JUMP JUMPDEST PUSH1 0x6 SLOAD PUSH1 0x1 PUSH1 0x1 PUSH1 0xA0 SHL SUB AND CALLER EQ PUSH2 0x725 JUMPI PUSH1 0x40 MLOAD PUSH3 0x461BCD PUSH1 0xE5 SHL DUP2 MSTORE PUSH1 0x4 ADD PUSH2 0x65F SWAP1 PUSH2 0x17F8 JUMP JUMPDEST PUSH2 0x72E DUP2 PUSH2 0x1411 JUMP JUMPDEST POP JUMP JUMPDEST PUSH1 0x5 SLOAD PUSH1 0x1 PUSH1 0x1 PUSH1 0xA0 SHL SUB AND CALLER EQ PUSH2 0x75B JUMPI PUSH1 0x40 MLOAD PUSH3 0x461BCD PUSH1 0xE5 SHL DUP2 MSTORE PUSH1 0x4 ADD PUSH2 0x65F SWAP1 PUSH2 0x179F JUMP JUMPDEST DUP1 PUSH1 0x0 SUB PUSH2 0x793 JUMPI PUSH1 0x40 MLOAD PUSH3 0x461BCD PUSH1 0xE5 SHL DUP2 MSTORE PUSH1 0x20 PUSH1 0x4 DUP3 ADD MSTORE PUSH1 0x5 PUSH1 0x24 DUP3 ADD MSTORE PUSH5 0x7A65726F21 PUSH1 0xD8 SHL PUSH1 0x44 DUP3 ADD MSTORE PUSH1 0x64 ADD PUSH2 0x65F JUMP JUMPDEST PUSH1 0xE DUP2 SWAP1 SSTORE PUSH1 0x40 MLOAD DUP2 DUP2 MSTORE PUSH32 0x6D487F3988610155B3A9EF590F8AC170134D24E6505B9DDD3160E34ABAA0EDAF SWAP1 PUSH1 0x20 ADD PUSH1 0x40 MLOAD DUP1 SWAP2 SUB SWAP1 LOG1 POP JUMP JUMPDEST PUSH1 0x6 SLOAD PUSH1 0x1 PUSH1 0x1 PUSH1 0xA0 SHL SUB AND CALLER EQ PUSH2 0x7F8 JUMPI PUSH1 0x40 MLOAD PUSH3 0x461BCD PUSH1 0xE5 SHL DUP2 MSTORE PUSH1 0x4 ADD PUSH2 0x65F SWAP1 PUSH2 0x17F8 JUMP JUMPDEST PUSH2 0x6F7 DUP3 DUP3 PUSH2 0x141B JUMP JUMPDEST PUSH1 0x5 SLOAD PUSH1 0x1 PUSH1 0x1 PUSH1 0xA0 SHL SUB AND CALLER EQ PUSH2 0x82C JUMPI PUSH1 0x40 MLOAD PUSH3 0x461BCD PUSH1 0xE5 SHL DUP2 MSTORE PUSH1 0x4 ADD PUSH2 0x65F SWAP1 PUSH2 0x179F JUMP JUMPDEST PUSH1 0x1 PUSH1 0x1 PUSH1 0xA0 SHL SUB DUP2 AND PUSH2 0x872 JUMPI PUSH1 0x40 MLOAD PUSH3 0x461BCD PUSH1 0xE5 SHL DUP2 MSTORE PUSH1 0x20 PUSH1 0x4 DUP3 ADD MSTORE PUSH1 0xD PUSH1 0x24 DUP3 ADD MSTORE PUSH13 0x7A65726F206164647265737321 PUSH1 0x98 SHL PUSH1 0x44 DUP3 ADD MSTORE PUSH1 0x64 ADD PUSH2 0x65F JUMP JUMPDEST PUSH1 0x40 MLOAD PUSH1 0x1 PUSH1 0x1 PUSH1 0xA0 SHL SUB DUP3 AND DUP2 MSTORE PUSH32 0xE605AC02EA219003EC58FC9CF4D4B3C5F2D62EC39807B1C63886DDD47A6FCD6E SWAP1 PUSH1 0x20 ADD PUSH1 0x40 MLOAD DUP1 SWAP2 SUB SWAP1 LOG1 PUSH1 0x6 DUP1 SLOAD PUSH1 0x1 PUSH1 0x1 PUSH1 0xA0 SHL SUB NOT AND PUSH1 0x1 PUSH1 0x1 PUSH1 0xA0 SHL SUB SWAP3 SWAP1 SWAP3 AND SWAP2 SWAP1 SWAP2 OR SWAP1 SSTORE JUMP JUMPDEST PUSH1 0x60 PUSH1 0x4 DUP1 SLOAD PUSH2 0x574 SWAP1 PUSH2 0x1765 JUMP JUMPDEST PUSH1 0x0 CALLER DUP2 PUSH2 0x8ED DUP3 DUP7 PUSH2 0xBA3 JUMP JUMPDEST SWAP1 POP DUP4 DUP2 LT ISZERO PUSH2 0x94D JUMPI PUSH1 0x40 MLOAD PUSH3 0x461BCD PUSH1 0xE5 SHL DUP2 MSTORE PUSH1 0x20 PUSH1 0x4 DUP3 ADD MSTORE PUSH1 0x25 PUSH1 0x24 DUP3 ADD MSTORE PUSH32 0x45524332303A2064656372656173656420616C6C6F77616E63652062656C6F77 PUSH1 0x44 DUP3 ADD MSTORE PUSH5 0x207A65726F PUSH1 0xD8 SHL PUSH1 0x64 DUP3 ADD MSTORE PUSH1 0x84 ADD PUSH2 0x65F JUMP JUMPDEST PUSH2 0x62A DUP3 DUP7 DUP7 DUP5 SUB PUSH2 0xFC6 JUMP JUMPDEST PUSH1 0x0 CALLER PUSH2 0x605 DUP2 DUP6 DUP6 PUSH2 0x1164 JUMP JUMPDEST PUSH1 0x5 SLOAD PUSH1 0x1 PUSH1 0x1 PUSH1 0xA0 SHL SUB AND CALLER EQ PUSH2 0x992 JUMPI PUSH1 0x40 MLOAD PUSH3 0x461BCD PUSH1 0xE5 SHL DUP2 MSTORE PUSH1 0x4 ADD PUSH2 0x65F SWAP1 PUSH2 0x179F JUMP JUMPDEST DUP3 SELFBALANCE LT ISZERO PUSH2 0x99F JUMPI PUSH1 0x0 DUP1 REVERT JUMPDEST PUSH1 0x0 PUSH2 0x9AC DUP4 PUSH1 0xA PUSH2 0x192F JUMP JUMPDEST PUSH1 0x40 DUP1 MLOAD DUP7 DUP2 MSTORE PUSH1 0x20 DUP2 ADD DUP7 SWAP1 MSTORE PUSH1 0x1 PUSH1 0x1 PUSH1 0xA0 SHL SUB DUP6 AND DUP2 DUP4 ADD MSTORE SWAP1 MLOAD SWAP2 SWAP3 POP PUSH32 0x4508977418B95BAC209196E03356692C2D8F47957DEC1C15AF1A44CC40D39A04 SWAP2 SWAP1 DUP2 SWAP1 SUB PUSH1 0x60 ADD SWAP1 LOG1 PUSH1 0x1 PUSH1 0x1 PUSH1 0xA0 SHL SUB DUP3 AND PUSH2 0x8FC PUSH2 0xA0F DUP4 DUP8 PUSH2 0x193B JUMP JUMPDEST PUSH1 0x40 MLOAD DUP2 ISZERO SWAP1 SWAP3 MUL SWAP2 PUSH1 0x0 DUP2 DUP2 DUP2 DUP6 DUP9 DUP9 CALL SWAP4 POP POP POP POP ISZERO DUP1 ISZERO PUSH2 0xA37 JUMPI RETURNDATASIZE PUSH1 0x0 DUP1 RETURNDATACOPY RETURNDATASIZE PUSH1 0x0 REVERT JUMPDEST POP POP POP POP POP JUMP JUMPDEST PUSH1 0x5 SLOAD PUSH1 0x1 PUSH1 0x1 PUSH1 0xA0 SHL SUB AND CALLER EQ PUSH2 0xA68 JUMPI PUSH1 0x40 MLOAD PUSH3 0x461BCD PUSH1 0xE5 SHL DUP2 MSTORE PUSH1 0x4 ADD PUSH2 0x65F SWAP1 PUSH2 0x179F JUMP JUMPDEST PUSH1 0x1 PUSH1 0x1 PUSH1 0xA0 SHL SUB DUP5 AND PUSH2 0xAAE JUMPI PUSH1 0x40 MLOAD PUSH3 0x461BCD PUSH1 0xE5 SHL DUP2 MSTORE PUSH1 0x20 PUSH1 0x4 DUP3 ADD MSTORE PUSH1 0xD PUSH1 0x24 DUP3 ADD MSTORE PUSH13 0x61646472657373207A65726F21 PUSH1 0x98 SHL PUSH1 0x44 DUP3 ADD MSTORE PUSH1 0x64 ADD PUSH2 0x65F JUMP JUMPDEST PUSH1 0x0 PUSH2 0xABB DUP4 PUSH1 0xA PUSH2 0x192F JUMP JUMPDEST PUSH1 0x40 DUP1 MLOAD PUSH1 0x1 PUSH1 0x1 PUSH1 0xA0 SHL SUB DUP9 DUP2 AND DUP3 MSTORE PUSH1 0x20 DUP3 ADD DUP9 SWAP1 MSTORE DUP2 DUP4 ADD DUP8 SWAP1 MSTORE DUP6 AND PUSH1 0x60 DUP3 ADD MSTORE SWAP1 MLOAD SWAP2 SWAP3 POP DUP7 SWAP2 PUSH32 0x206CA7F97D46974ED97B981F879B17E9E1FE17EAD63770C806926D28AA5CBD5 SWAP2 DUP2 SWAP1 SUB PUSH1 0x80 ADD SWAP1 LOG1 PUSH1 0x1 PUSH1 0x1 PUSH1 0xA0 SHL SUB DUP2 AND PUSH4 0xA9059CBB DUP5 PUSH2 0xB2B DUP6 DUP10 PUSH2 0x193B JUMP JUMPDEST PUSH1 0x40 MLOAD PUSH1 0x1 PUSH1 0x1 PUSH1 0xE0 SHL SUB NOT PUSH1 0xE0 DUP6 SWAP1 SHL AND DUP2 MSTORE PUSH1 0x1 PUSH1 0x1 PUSH1 0xA0 SHL SUB SWAP1 SWAP3 AND PUSH1 0x4 DUP4 ADD MSTORE PUSH1 0x24 DUP3 ADD MSTORE PUSH1 0x44 ADD PUSH1 0x20 PUSH1 0x40 MLOAD DUP1 DUP4 SUB DUP2 PUSH1 0x0 DUP8 GAS CALL ISZERO DUP1 ISZERO PUSH2 0xB76 JUMPI RETURNDATASIZE PUSH1 0x0 DUP1 RETURNDATACOPY RETURNDATASIZE PUSH1 0x0 REVERT JUMPDEST POP POP POP POP PUSH1 0x40 MLOAD RETURNDATASIZE PUSH1 0x1F NOT PUSH1 0x1F DUP3 ADD AND DUP3 ADD DUP1 PUSH1 0x40 MSTORE POP DUP2 ADD SWAP1 PUSH2 0xB9A SWAP2 SWAP1 PUSH2 0x195A JUMP JUMPDEST POP POP POP POP POP POP POP JUMP JUMPDEST PUSH1 0x1 PUSH1 0x1 PUSH1 0xA0 SHL SUB SWAP2 DUP3 AND PUSH1 0x0 SWAP1 DUP2 MSTORE PUSH1 0x1 PUSH1 0x20 SWAP1 DUP2 MSTORE PUSH1 0x40 DUP1 DUP4 KECCAK256 SWAP4 SWAP1 SWAP5 AND DUP3 MSTORE SWAP2 SWAP1 SWAP2 MSTORE KECCAK256 SLOAD SWAP1 JUMP JUMPDEST PUSH1 0x5 SLOAD PUSH1 0x1 PUSH1 0x1 PUSH1 0xA0 SHL SUB AND CALLER EQ PUSH2 0xBF8 JUMPI PUSH1 0x40 MLOAD PUSH3 0x461BCD PUSH1 0xE5 SHL DUP2 MSTORE PUSH1 0x4 ADD PUSH2 0x65F SWAP1 PUSH2 0x179F JUMP JUMPDEST DUP2 ISZERO DUP1 ISZERO SWAP1 PUSH2 0xC06 JUMPI POP DUP1 ISZERO ISZERO JUMPDEST PUSH2 0xC3A JUMPI PUSH1 0x40 MLOAD PUSH3 0x461BCD PUSH1 0xE5 SHL DUP2 MSTORE PUSH1 0x20 PUSH1 0x4 DUP3 ADD MSTORE PUSH1 0x5 PUSH1 0x24 DUP3 ADD MSTORE PUSH5 0x5A65726F21 PUSH1 0xD8 SHL PUSH1 0x44 DUP3 ADD MSTORE PUSH1 0x64 ADD PUSH2 0x65F JUMP JUMPDEST PUSH1 0xD DUP3 SWAP1 SSTORE PUSH1 0xB SLOAD PUSH2 0xC4C SWAP1 DUP3 PUSH2 0x193B JUMP JUMPDEST PUSH1 0xC SSTORE PUSH1 0x40 DUP1 MLOAD DUP4 DUP2 MSTORE PUSH1 0x20 DUP2 ADD DUP4 SWAP1 MSTORE PUSH32 0x3B06FFD21BEDFB2C375D7B1BCF74CA4FE1AFE205699E39610B3ACED7ADF6B9E9 SWAP2 ADD PUSH1 0x40 MLOAD DUP1 SWAP2 SUB SWAP1 LOG1 POP POP JUMP JUMPDEST PUSH1 0x0 PUSH1 0xB SLOAD PUSH1 0xE SLOAD PUSH2 0xC9E SWAP2 SWAP1 PUSH2 0x193B JUMP JUMPDEST CALLER PUSH1 0x0 SWAP1 DUP2 MSTORE PUSH1 0x20 DUP2 SWAP1 MSTORE PUSH1 0x40 SWAP1 KECCAK256 SLOAD GT ISZERO PUSH2 0xD08 JUMPI PUSH1 0x40 MLOAD PUSH3 0x461BCD PUSH1 0xE5 SHL DUP2 MSTORE PUSH1 0x20 PUSH1 0x4 DUP3 ADD MSTORE PUSH1 0x23 PUSH1 0x24 DUP3 ADD MSTORE PUSH32 0x596F75207265616368656420796F757220707269766174652073616C65206C69 PUSH1 0x44 DUP3 ADD MSTORE PUSH3 0x1B5A5D PUSH1 0xEA SHL PUSH1 0x64 DUP3 ADD MSTORE PUSH1 0x84 ADD PUSH2 0x65F JUMP JUMPDEST NUMBER PUSH1 0x7 SLOAD GT ISZERO DUP1 ISZERO PUSH2 0xD1C JUMPI POP PUSH1 0x8 SLOAD NUMBER GT ISZERO JUMPDEST PUSH2 0xD7C JUMPI PUSH1 0x40 MLOAD PUSH3 0x461BCD PUSH1 0xE5 SHL DUP2 MSTORE PUSH1 0x20 PUSH1 0x4 DUP3 ADD MSTORE PUSH1 0x2B PUSH1 0x24 DUP3 ADD MSTORE PUSH32 0x507269766174652053616C652068617320656E646564206F7220646964206E6F PUSH1 0x44 DUP3 ADD MSTORE PUSH11 0x1D081CDD185C9D081E595D PUSH1 0xAA SHL PUSH1 0x64 DUP3 ADD MSTORE PUSH1 0x84 ADD PUSH2 0x65F JUMP JUMPDEST PUSH1 0xD SLOAD CALLVALUE SWAP1 PUSH1 0x0 SWAP1 DUP3 LT DUP1 ISZERO SWAP1 PUSH2 0xD95 JUMPI POP PUSH1 0xC SLOAD DUP3 GT ISZERO JUMPDEST PUSH2 0xDF0 JUMPI PUSH1 0x40 MLOAD PUSH3 0x461BCD PUSH1 0xE5 SHL DUP2 MSTORE PUSH1 0x20 PUSH1 0x4 DUP3 ADD MSTORE PUSH1 0x26 PUSH1 0x24 DUP3 ADD MSTORE PUSH32 0x4C657373207468616E204D696E696D756D206F72204D6F7265207468616E204D PUSH1 0x44 DUP3 ADD MSTORE PUSH6 0x6178696D756D PUSH1 0xD0 SHL PUSH1 0x64 DUP3 ADD MSTORE PUSH1 0x84 ADD PUSH2 0x65F JUMP JUMPDEST PUSH2 0xE17 PUSH8 0xDE0B6B3A7640000 PUSH2 0xE11 DUP5 PUSH1 0xA SLOAD PUSH2 0x1430 SWAP1 SWAP2 SWAP1 PUSH4 0xFFFFFFFF AND JUMP JUMPDEST SWAP1 PUSH2 0xFB3 JUMP JUMPDEST PUSH1 0x9 DUP1 SLOAD SWAP2 SWAP3 POP PUSH1 0x0 PUSH2 0xE29 DUP4 PUSH2 0x197C JUMP JUMPDEST SWAP2 SWAP1 POP SSTORE POP PUSH2 0xE39 ADDRESS CALLER DUP4 PUSH2 0x1164 JUMP JUMPDEST PUSH1 0xA SLOAD PUSH1 0x40 DUP1 MLOAD DUP4 DUP2 MSTORE PUSH1 0x20 DUP2 ADD SWAP3 SWAP1 SWAP3 MSTORE PUSH32 0xB887E151DBFCC06B4CE4F67F9BBEDAEB16AB224E34C6668858D0310C6D18FFC3 SWAP2 ADD PUSH1 0x40 MLOAD DUP1 SWAP2 SUB SWAP1 LOG1 POP PUSH1 0x1 SWAP4 SWAP3 POP POP POP JUMP JUMPDEST PUSH1 0x5 SLOAD PUSH1 0x1 PUSH1 0x1 PUSH1 0xA0 SHL SUB AND CALLER EQ PUSH2 0xEAA JUMPI PUSH1 0x40 MLOAD PUSH3 0x461BCD PUSH1 0xE5 SHL DUP2 MSTORE PUSH1 0x4 ADD PUSH2 0x65F SWAP1 PUSH2 0x179F JUMP JUMPDEST PUSH1 0x1 PUSH1 0x1 PUSH1 0xA0 SHL SUB DUP2 AND PUSH2 0xEF0 JUMPI PUSH1 0x40 MLOAD PUSH3 0x461BCD PUSH1 0xE5 SHL DUP2 MSTORE PUSH1 0x20 PUSH1 0x4 DUP3 ADD MSTORE PUSH1 0xD PUSH1 0x24 DUP3 ADD MSTORE PUSH13 0x61646472657373207A65726F21 PUSH1 0x98 SHL PUSH1 0x44 DUP3 ADD MSTORE PUSH1 0x64 ADD PUSH2 0x65F JUMP JUMPDEST PUSH1 0x5 DUP1 SLOAD PUSH1 0x1 PUSH1 0x1 PUSH1 0xA0 SHL SUB NOT AND PUSH1 0x1 PUSH1 0x1 PUSH1 0xA0 SHL SUB DUP4 AND SWAP1 DUP2 OR SWAP1 SWAP2 SSTORE PUSH1 0x40 MLOAD DUP2 SWAP1 PUSH32 0x8BE0079C531659141344CD1FD0A4F28419497F9722A3DAAFE3B4186F6B6457E0 SWAP1 PUSH1 0x0 SWAP1 LOG3 POP JUMP JUMPDEST PUSH1 0x5 SLOAD PUSH1 0x1 PUSH1 0x1 PUSH1 0xA0 SHL SUB AND CALLER EQ PUSH2 0xF66 JUMPI PUSH1 0x40 MLOAD PUSH3 0x461BCD PUSH1 0xE5 SHL DUP2 MSTORE PUSH1 0x4 ADD PUSH2 0x65F SWAP1 PUSH2 0x179F JUMP JUMPDEST DUP2 ISZERO DUP1 ISZERO SWAP1 PUSH2 0xF74 JUMPI POP DUP1 ISZERO ISZERO JUMPDEST PUSH2 0xFA8 JUMPI PUSH1 0x40 MLOAD PUSH3 0x461BCD PUSH1 0xE5 SHL DUP2 MSTORE PUSH1 0x20 PUSH1 0x4 DUP3 ADD MSTORE PUSH1 0x5 PUSH1 0x24 DUP3 ADD MSTORE PUSH5 0x5A65726F21 PUSH1 0xD8 SHL PUSH1 0x44 DUP3 ADD MSTORE PUSH1 0x64 ADD PUSH2 0x65F JUMP JUMPDEST PUSH1 0x8 SWAP2 SWAP1 SWAP2 SSTORE PUSH1 0xA SSTORE JUMP JUMPDEST PUSH1 0x0 PUSH2 0xFBF DUP3 DUP5 PUSH2 0x1995 JUMP JUMPDEST SWAP4 SWAP3 POP POP POP JUMP JUMPDEST PUSH1 0x1 PUSH1 0x1 PUSH1 0xA0 SHL SUB DUP4 AND PUSH2 0x1028 JUMPI PUSH1 0x40 MLOAD PUSH3 0x461BCD PUSH1 0xE5 SHL DUP2 MSTORE PUSH1 0x20 PUSH1 0x4 DUP3 ADD MSTORE PUSH1 0x24 DUP1 DUP3 ADD MSTORE PUSH32 0x45524332303A20617070726F76652066726F6D20746865207A65726F20616464 PUSH1 0x44 DUP3 ADD MSTORE PUSH4 0x72657373 PUSH1 0xE0 SHL PUSH1 0x64 DUP3 ADD MSTORE PUSH1 0x84 ADD PUSH2 0x65F JUMP JUMPDEST PUSH1 0x1 PUSH1 0x1 PUSH1 0xA0 SHL SUB DUP3 AND PUSH2 0x1089 JUMPI PUSH1 0x40 MLOAD PUSH3 0x461BCD PUSH1 0xE5 SHL DUP2 MSTORE PUSH1 0x20 PUSH1 0x4 DUP3 ADD MSTORE PUSH1 0x22 PUSH1 0x24 DUP3 ADD MSTORE PUSH32 0x45524332303A20617070726F766520746F20746865207A65726F206164647265 PUSH1 0x44 DUP3 ADD MSTORE PUSH2 0x7373 PUSH1 0xF0 SHL PUSH1 0x64 DUP3 ADD MSTORE PUSH1 0x84 ADD PUSH2 0x65F JUMP JUMPDEST PUSH1 0x1 PUSH1 0x1 PUSH1 0xA0 SHL SUB DUP4 DUP2 AND PUSH1 0x0 DUP2 DUP2 MSTORE PUSH1 0x1 PUSH1 0x20 SWAP1 DUP2 MSTORE PUSH1 0x40 DUP1 DUP4 KECCAK256 SWAP5 DUP8 AND DUP1 DUP5 MSTORE SWAP5 DUP3 MSTORE SWAP2 DUP3 SWAP1 KECCAK256 DUP6 SWAP1 SSTORE SWAP1 MLOAD DUP5 DUP2 MSTORE PUSH32 0x8C5BE1E5EBEC7D5BD14F71427D1E84F3DD0314C0F7B2291E5B200AC8C7C3B925 SWAP2 ADD PUSH1 0x40 MLOAD DUP1 SWAP2 SUB SWAP1 LOG3 POP POP POP JUMP JUMPDEST PUSH1 0x0 PUSH2 0x10F6 DUP5 DUP5 PUSH2 0xBA3 JUMP JUMPDEST SWAP1 POP PUSH1 0x0 NOT DUP2 EQ PUSH2 0x115E JUMPI DUP2 DUP2 LT ISZERO PUSH2 0x1151 JUMPI PUSH1 0x40 MLOAD PUSH3 0x461BCD PUSH1 0xE5 SHL DUP2 MSTORE PUSH1 0x20 PUSH1 0x4 DUP3 ADD MSTORE PUSH1 0x1D PUSH1 0x24 DUP3 ADD MSTORE PUSH32 0x45524332303A20696E73756666696369656E7420616C6C6F77616E6365000000 PUSH1 0x44 DUP3 ADD MSTORE PUSH1 0x64 ADD PUSH2 0x65F JUMP JUMPDEST PUSH2 0x115E DUP5 DUP5 DUP5 DUP5 SUB PUSH2 0xFC6 JUMP JUMPDEST POP POP POP POP JUMP JUMPDEST PUSH1 0x1 PUSH1 0x1 PUSH1 0xA0 SHL SUB DUP4 AND PUSH2 0x11C8 JUMPI PUSH1 0x40 MLOAD PUSH3 0x461BCD PUSH1 0xE5 SHL DUP2 MSTORE PUSH1 0x20 PUSH1 0x4 DUP3 ADD MSTORE PUSH1 0x25 PUSH1 0x24 DUP3 ADD MSTORE PUSH32 0x45524332303A207472616E736665722066726F6D20746865207A65726F206164 PUSH1 0x44 DUP3 ADD MSTORE PUSH5 0x6472657373 PUSH1 0xD8 SHL PUSH1 0x64 DUP3 ADD MSTORE PUSH1 0x84 ADD PUSH2 0x65F JUMP JUMPDEST PUSH1 0x1 PUSH1 0x1 PUSH1 0xA0 SHL SUB DUP3 AND PUSH2 0x122A JUMPI PUSH1 0x40 MLOAD PUSH3 0x461BCD PUSH1 0xE5 SHL DUP2 MSTORE PUSH1 0x20 PUSH1 0x4 DUP3 ADD MSTORE PUSH1 0x23 PUSH1 0x24 DUP3 ADD MSTORE PUSH32 0x45524332303A207472616E7366657220746F20746865207A65726F2061646472 PUSH1 0x44 DUP3 ADD MSTORE PUSH3 0x657373 PUSH1 0xE8 SHL PUSH1 0x64 DUP3 ADD MSTORE PUSH1 0x84 ADD PUSH2 0x65F JUMP JUMPDEST PUSH1 0x1 PUSH1 0x1 PUSH1 0xA0 SHL SUB DUP4 AND PUSH1 0x0 SWAP1 DUP2 MSTORE PUSH1 0x20 DUP2 SWAP1 MSTORE PUSH1 0x40 SWAP1 KECCAK256 SLOAD DUP2 DUP2 LT ISZERO PUSH2 0x12A2 JUMPI PUSH1 0x40 MLOAD PUSH3 0x461BCD PUSH1 0xE5 SHL DUP2 MSTORE PUSH1 0x20 PUSH1 0x4 DUP3 ADD MSTORE PUSH1 0x26 PUSH1 0x24 DUP3 ADD MSTORE PUSH32 0x45524332303A207472616E7366657220616D6F756E7420657863656564732062 PUSH1 0x44 DUP3 ADD MSTORE PUSH6 0x616C616E6365 PUSH1 0xD0 SHL PUSH1 0x64 DUP3 ADD MSTORE PUSH1 0x84 ADD PUSH2 0x65F JUMP JUMPDEST PUSH1 0x1 PUSH1 0x1 PUSH1 0xA0 SHL SUB DUP1 DUP6 AND PUSH1 0x0 SWAP1 DUP2 MSTORE PUSH1 0x20 DUP2 SWAP1 MSTORE PUSH1 0x40 DUP1 DUP3 KECCAK256 DUP6 DUP6 SUB SWAP1 SSTORE SWAP2 DUP6 AND DUP2 MSTORE SWAP1 DUP2 KECCAK256 DUP1 SLOAD DUP5 SWAP3 SWAP1 PUSH2 0x12D9 SWAP1 DUP5 SWAP1 PUSH2 0x17E0 JUMP JUMPDEST SWAP3 POP POP DUP2 SWAP1 SSTORE POP DUP3 PUSH1 0x1 PUSH1 0x1 PUSH1 0xA0 SHL SUB AND DUP5 PUSH1 0x1 PUSH1 0x1 PUSH1 0xA0 SHL SUB AND PUSH32 0xDDF252AD1BE2C89B69C2B068FC378DAA952BA7F163C4A11628F55A4DF523B3EF DUP5 PUSH1 0x40 MLOAD PUSH2 0x1325 SWAP2 DUP2 MSTORE PUSH1 0x20 ADD SWAP1 JUMP JUMPDEST PUSH1 0x40 MLOAD DUP1 SWAP2 SUB SWAP1 LOG3 PUSH2 0x115E JUMP JUMPDEST PUSH1 0x1 PUSH1 0x1 PUSH1 0xA0 SHL SUB DUP3 AND PUSH2 0x1388 JUMPI PUSH1 0x40 MLOAD PUSH3 0x461BCD PUSH1 0xE5 SHL DUP2 MSTORE PUSH1 0x20 PUSH1 0x4 DUP3 ADD MSTORE PUSH1 0x1F PUSH1 0x24 DUP3 ADD MSTORE PUSH32 0x45524332303A206D696E7420746F20746865207A65726F206164647265737300 PUSH1 0x44 DUP3 ADD MSTORE PUSH1 0x64 ADD PUSH2 0x65F JUMP JUMPDEST DUP1 PUSH1 0x2 PUSH1 0x0 DUP3 DUP3 SLOAD PUSH2 0x139A SWAP2 SWAP1 PUSH2 0x17E0 JUMP JUMPDEST SWAP1 SWAP2 SSTORE POP POP PUSH1 0x1 PUSH1 0x1 PUSH1 0xA0 SHL SUB DUP3 AND PUSH1 0x0 SWAP1 DUP2 MSTORE PUSH1 0x20 DUP2 SWAP1 MSTORE PUSH1 0x40 DUP2 KECCAK256 DUP1 SLOAD DUP4 SWAP3 SWAP1 PUSH2 0x13C7 SWAP1 DUP5 SWAP1 PUSH2 0x17E0 JUMP JUMPDEST SWAP1 SWAP2 SSTORE POP POP PUSH1 0x40 MLOAD DUP2 DUP2 MSTORE PUSH1 0x1 PUSH1 0x1 PUSH1 0xA0 SHL SUB DUP4 AND SWAP1 PUSH1 0x0 SWAP1 PUSH32 0xDDF252AD1BE2C89B69C2B068FC378DAA952BA7F163C4A11628F55A4DF523B3EF SWAP1 PUSH1 0x20 ADD PUSH1 0x40 MLOAD DUP1 SWAP2 SUB SWAP1 LOG3 POP POP JUMP JUMPDEST PUSH2 0x72E CALLER DUP3 PUSH2 0x143C JUMP JUMPDEST PUSH2 0x1426 DUP3 CALLER DUP4 PUSH2 0x10EA JUMP JUMPDEST PUSH2 0x6F7 DUP3 DUP3 PUSH2 0x143C JUMP JUMPDEST PUSH1 0x0 PUSH2 0xFBF DUP3 DUP5 PUSH2 0x193B JUMP JUMPDEST PUSH1 0x1 PUSH1 0x1 PUSH1 0xA0 SHL SUB DUP3 AND PUSH2 0x149C JUMPI PUSH1 0x40 MLOAD PUSH3 0x461BCD PUSH1 0xE5 SHL DUP2 MSTORE PUSH1 0x20 PUSH1 0x4 DUP3 ADD MSTORE PUSH1 0x21 PUSH1 0x24 DUP3 ADD MSTORE PUSH32 0x45524332303A206275726E2066726F6D20746865207A65726F20616464726573 PUSH1 0x44 DUP3 ADD MSTORE PUSH1 0x73 PUSH1 0xF8 SHL PUSH1 0x64 DUP3 ADD MSTORE PUSH1 0x84 ADD PUSH2 0x65F JUMP JUMPDEST PUSH1 0x1 PUSH1 0x1 PUSH1 0xA0 SHL SUB DUP3 AND PUSH1 0x0 SWAP1 DUP2 MSTORE PUSH1 0x20 DUP2 SWAP1 MSTORE PUSH1 0x40 SWAP1 KECCAK256 SLOAD DUP2 DUP2 LT ISZERO PUSH2 0x1510 JUMPI PUSH1 0x40 MLOAD PUSH3 0x461BCD PUSH1 0xE5 SHL DUP2 MSTORE PUSH1 0x20 PUSH1 0x4 DUP3 ADD MSTORE PUSH1 0x22 PUSH1 0x24 DUP3 ADD MSTORE PUSH32 0x45524332303A206275726E20616D6F756E7420657863656564732062616C616E PUSH1 0x44 DUP3 ADD MSTORE PUSH2 0x6365 PUSH1 0xF0 SHL PUSH1 0x64 DUP3 ADD MSTORE PUSH1 0x84 ADD PUSH2 0x65F JUMP JUMPDEST PUSH1 0x1 PUSH1 0x1 PUSH1 0xA0 SHL SUB DUP4 AND PUSH1 0x0 SWAP1 DUP2 MSTORE PUSH1 0x20 DUP2 SWAP1 MSTORE PUSH1 0x40 DUP2 KECCAK256 DUP4 DUP4 SUB SWAP1 SSTORE PUSH1 0x2 DUP1 SLOAD DUP5 SWAP3 SWAP1 PUSH2 0x153F SWAP1 DUP5 SWAP1 PUSH2 0x19B7 JUMP JUMPDEST SWAP1 SWAP2 SSTORE POP POP PUSH1 0x40 MLOAD DUP3 DUP2 MSTORE PUSH1 0x0 SWAP1 PUSH1 0x1 PUSH1 0x1 PUSH1 0xA0 SHL SUB DUP6 AND SWAP1 PUSH32 0xDDF252AD1BE2C89B69C2B068FC378DAA952BA7F163C4A11628F55A4DF523B3EF SWAP1 PUSH1 0x20 ADD PUSH1 0x40 MLOAD DUP1 SWAP2 SUB SWAP1 LOG3 POP POP POP JUMP JUMPDEST PUSH1 0x0 PUSH1 0x20 DUP1 DUP4 MSTORE DUP4 MLOAD DUP1 DUP3 DUP6 ADD MSTORE PUSH1 0x0 JUMPDEST DUP2 DUP2 LT ISZERO PUSH2 0x15B7 JUMPI DUP6 DUP2 ADD DUP4 ADD MLOAD DUP6 DUP3 ADD PUSH1 0x40 ADD MSTORE DUP3 ADD PUSH2 0x159B JUMP JUMPDEST DUP2 DUP2 GT ISZERO PUSH2 0x15C9 JUMPI PUSH1 0x0 PUSH1 0x40 DUP4 DUP8 ADD ADD MSTORE JUMPDEST POP PUSH1 0x1F ADD PUSH1 0x1F NOT AND SWAP3 SWAP1 SWAP3 ADD PUSH1 0x40 ADD SWAP4 SWAP3 POP POP POP JUMP JUMPDEST DUP1 CALLDATALOAD PUSH1 0x1 PUSH1 0x1 PUSH1 0xA0 SHL SUB DUP2 AND DUP2 EQ PUSH2 0x15F6 JUMPI PUSH1 0x0 DUP1 REVERT JUMPDEST SWAP2 SWAP1 POP JUMP JUMPDEST PUSH1 0x0 DUP1 PUSH1 0x40 DUP4 DUP6 SUB SLT ISZERO PUSH2 0x160E JUMPI PUSH1 0x0 DUP1 REVERT JUMPDEST PUSH2 0x1617 DUP4 PUSH2 0x15DF JUMP JUMPDEST SWAP5 PUSH1 0x20 SWAP4 SWAP1 SWAP4 ADD CALLDATALOAD SWAP4 POP POP POP JUMP JUMPDEST PUSH1 0x0 DUP1 PUSH1 0x0 PUSH1 0x60 DUP5 DUP7 SUB SLT ISZERO PUSH2 0x163A JUMPI PUSH1 0x0 DUP1 REVERT JUMPDEST PUSH2 0x1643 DUP5 PUSH2 0x15DF JUMP JUMPDEST SWAP3 POP PUSH2 0x1651 PUSH1 0x20 DUP6 ADD PUSH2 0x15DF JUMP JUMPDEST SWAP2 POP PUSH1 0x40 DUP5 ADD CALLDATALOAD SWAP1 POP SWAP3 POP SWAP3 POP SWAP3 JUMP JUMPDEST PUSH1 0x0 PUSH1 0x20 DUP3 DUP5 SUB SLT ISZERO PUSH2 0x1673 JUMPI PUSH1 0x0 DUP1 REVERT JUMPDEST POP CALLDATALOAD SWAP2 SWAP1 POP JUMP JUMPDEST PUSH1 0x0 PUSH1 0x20 DUP3 DUP5 SUB SLT ISZERO PUSH2 0x168C JUMPI PUSH1 0x0 DUP1 REVERT JUMPDEST PUSH2 0xFBF DUP3 PUSH2 0x15DF JUMP JUMPDEST PUSH1 0x0 DUP1 PUSH1 0x0 PUSH1 0x60 DUP5 DUP7 SUB SLT ISZERO PUSH2 0x16AA JUMPI PUSH1 0x0 DUP1 REVERT JUMPDEST DUP4 CALLDATALOAD SWAP3 POP PUSH1 0x20 DUP5 ADD CALLDATALOAD SWAP2 POP PUSH2 0x16C1 PUSH1 0x40 DUP6 ADD PUSH2 0x15DF JUMP JUMPDEST SWAP1 POP SWAP3 POP SWAP3 POP SWAP3 JUMP JUMPDEST PUSH1 0x0 DUP1 PUSH1 0x0 DUP1 PUSH1 0x80 DUP6 DUP8 SUB SLT ISZERO PUSH2 0x16E0 JUMPI PUSH1 0x0 DUP1 REVERT JUMPDEST PUSH2 0x16E9 DUP6 PUSH2 0x15DF JUMP JUMPDEST SWAP4 POP PUSH1 0x20 DUP6 ADD CALLDATALOAD SWAP3 POP PUSH1 0x40 DUP6 ADD CALLDATALOAD SWAP2 POP PUSH2 0x1705 PUSH1 0x60 DUP7 ADD PUSH2 0x15DF JUMP JUMPDEST SWAP1 POP SWAP3 SWAP6 SWAP2 SWAP5 POP SWAP3 POP JUMP JUMPDEST PUSH1 0x0 DUP1 PUSH1 0x40 DUP4 DUP6 SUB SLT ISZERO PUSH2 0x1723 JUMPI PUSH1 0x0 DUP1 REVERT JUMPDEST PUSH2 0x172C DUP4 PUSH2 0x15DF JUMP JUMPDEST SWAP2 POP PUSH2 0x173A PUSH1 0x20 DUP5 ADD PUSH2 0x15DF JUMP JUMPDEST SWAP1 POP SWAP3 POP SWAP3 SWAP1 POP JUMP JUMPDEST PUSH1 0x0 DUP1 PUSH1 0x40 DUP4 DUP6 SUB SLT ISZERO PUSH2 0x1756 JUMPI PUSH1 0x0 DUP1 REVERT JUMPDEST POP POP DUP1 CALLDATALOAD SWAP3 PUSH1 0x20 SWAP1 SWAP2 ADD CALLDATALOAD SWAP2 POP JUMP JUMPDEST PUSH1 0x1 DUP2 DUP2 SHR SWAP1 DUP3 AND DUP1 PUSH2 0x1779 JUMPI PUSH1 0x7F DUP3 AND SWAP2 POP JUMPDEST PUSH1 0x20 DUP3 LT DUP2 SUB PUSH2 0x1799 JUMPI PUSH4 0x4E487B71 PUSH1 0xE0 SHL PUSH1 0x0 MSTORE PUSH1 0x22 PUSH1 0x4 MSTORE PUSH1 0x24 PUSH1 0x0 REVERT JUMPDEST POP SWAP2 SWAP1 POP JUMP JUMPDEST PUSH1 0x20 DUP1 DUP3 MSTORE PUSH1 0x11 SWAP1 DUP3 ADD MSTORE PUSH17 0x63616C6C6572206E6F74206F776E657221 PUSH1 0x78 SHL PUSH1 0x40 DUP3 ADD MSTORE PUSH1 0x60 ADD SWAP1 JUMP JUMPDEST PUSH4 0x4E487B71 PUSH1 0xE0 SHL PUSH1 0x0 MSTORE PUSH1 0x11 PUSH1 0x4 MSTORE PUSH1 0x24 PUSH1 0x0 REVERT JUMPDEST PUSH1 0x0 DUP3 NOT DUP3 GT ISZERO PUSH2 0x17F3 JUMPI PUSH2 0x17F3 PUSH2 0x17CA JUMP JUMPDEST POP ADD SWAP1 JUMP JUMPDEST PUSH1 0x20 DUP1 DUP3 MSTORE PUSH1 0x33 SWAP1 DUP3 ADD MSTORE PUSH32 0x6F6E6C7920627269646765206861732061636365737320746F20746869732063 PUSH1 0x40 DUP3 ADD MSTORE PUSH19 0x3434B632103A37B5B2B710333AB731BA34B7B7 PUSH1 0x69 SHL PUSH1 0x60 DUP3 ADD MSTORE PUSH1 0x80 ADD SWAP1 JUMP JUMPDEST PUSH1 0x1 DUP2 DUP2 JUMPDEST DUP1 DUP6 GT ISZERO PUSH2 0x1886 JUMPI DUP2 PUSH1 0x0 NOT DIV DUP3 GT ISZERO PUSH2 0x186C JUMPI PUSH2 0x186C PUSH2 0x17CA JUMP JUMPDEST DUP1 DUP6 AND ISZERO PUSH2 0x1879 JUMPI SWAP2 DUP2 MUL SWAP2 JUMPDEST SWAP4 DUP5 SHR SWAP4 SWAP1 DUP1 MUL SWAP1 PUSH2 0x1850 JUMP JUMPDEST POP SWAP3 POP SWAP3 SWAP1 POP JUMP JUMPDEST PUSH1 0x0 DUP3 PUSH2 0x189D JUMPI POP PUSH1 0x1 PUSH2 0x60B JUMP JUMPDEST DUP2 PUSH2 0x18AA JUMPI POP PUSH1 0x0 PUSH2 0x60B JUMP JUMPDEST DUP2 PUSH1 0x1 DUP2 EQ PUSH2 0x18C0 JUMPI PUSH1 0x2 DUP2 EQ PUSH2 0x18CA JUMPI PUSH2 0x18E6 JUMP JUMPDEST PUSH1 0x1 SWAP2 POP POP PUSH2 0x60B JUMP JUMPDEST PUSH1 0xFF DUP5 GT ISZERO PUSH2 0x18DB JUMPI PUSH2 0x18DB PUSH2 0x17CA JUMP JUMPDEST POP POP PUSH1 0x1 DUP3 SHL PUSH2 0x60B JUMP JUMPDEST POP PUSH1 0x20 DUP4 LT PUSH2 0x133 DUP4 LT AND PUSH1 0x4E DUP5 LT PUSH1 0xB DUP5 LT AND OR ISZERO PUSH2 0x1909 JUMPI POP DUP2 DUP2 EXP PUSH2 0x60B JUMP JUMPDEST PUSH2 0x1913 DUP4 DUP4 PUSH2 0x184B JUMP JUMPDEST DUP1 PUSH1 0x0 NOT DIV DUP3 GT ISZERO PUSH2 0x1927 JUMPI PUSH2 0x1927 PUSH2 0x17CA JUMP JUMPDEST MUL SWAP4 SWAP3 POP POP POP JUMP JUMPDEST PUSH1 0x0 PUSH2 0xFBF DUP4 DUP4 PUSH2 0x188E JUMP JUMPDEST PUSH1 0x0 DUP2 PUSH1 0x0 NOT DIV DUP4 GT DUP3 ISZERO ISZERO AND ISZERO PUSH2 0x1955 JUMPI PUSH2 0x1955 PUSH2 0x17CA JUMP JUMPDEST POP MUL SWAP1 JUMP JUMPDEST PUSH1 0x0 PUSH1 0x20 DUP3 DUP5 SUB SLT ISZERO PUSH2 0x196C JUMPI PUSH1 0x0 DUP1 REVERT JUMPDEST DUP2 MLOAD DUP1 ISZERO ISZERO DUP2 EQ PUSH2 0xFBF JUMPI PUSH1 0x0 DUP1 REVERT JUMPDEST PUSH1 0x0 PUSH1 0x1 DUP3 ADD PUSH2 0x198E JUMPI PUSH2 0x198E PUSH2 0x17CA JUMP JUMPDEST POP PUSH1 0x1 ADD SWAP1 JUMP JUMPDEST PUSH1 0x0 DUP3 PUSH2 0x19B2 JUMPI PUSH4 0x4E487B71 PUSH1 0xE0 SHL PUSH1 0x0 MSTORE PUSH1 0x12 PUSH1 0x4 MSTORE PUSH1 0x24 PUSH1 0x0 REVERT JUMPDEST POP DIV SWAP1 JUMP JUMPDEST PUSH1 0x0 DUP3 DUP3 LT ISZERO PUSH2 0x19C9 JUMPI PUSH2 0x19C9 PUSH2 0x17CA JUMP JUMPDEST POP SUB SWAP1 JUMP INVALID LOG2 PUSH5 0x6970667358 0x22 SLT KECCAK256 SWAP14 0xC7 DUP13 0x23 0xC2 PUSH12 0x4A7E1A8D367240374E6CC55F 0x28 0xCF 0xFC 0xC1 CHAINID 0xFB DUP15 0xBB PUSH14 0xC2857364264736F6C634300080F STOP CALLER "
				},
				"gasEstimates": {
					"creation": {
						"codeDepositCost": "1332000",
						"executionCost": "infinite",
						"totalCost": "infinite"
					},
					"external": {
						"allowance(address,address)": "infinite",
						"approve(address,uint256)": "24674",
						"balanceOf(address)": "2651",
						"bridge()": "2426",
						"burn(uint256)": "infinite",
						"burnFrom(address,uint256)": "infinite",
						"changeMinMaxPrivateSale(uint256,uint256)": "50250",
						"decimals()": "245",
						"decreaseAllowance(address,uint256)": "26995",
						"endSale()": "25535",
						"increaseAllowance(address,uint256)": "27094",
						"max()": "2384",
						"min()": "2405",
						"mint(address,uint256)": "infinite",
						"name()": "infinite",
						"privateLimit()": "2341",
						"privateSale(address)": "infinite",
						"setBridge(address)": "27889",
						"setPrivateLimit(uint256)": "25619",
						"startSale(uint256,uint256)": "46741",
						"symbol()": "infinite",
						"totalSupply()": "2372",
						"transfer(address,uint256)": "51253",
						"transferFrom(address,address,uint256)": "infinite",
						"transferOwnership(address)": "28332",
						"viewSale()": "8691",
						"withdrawalBNB(uint256,uint256,address)": "infinite",
						"withdrawalToken(address,uint256,uint256,address)": "infinite"
					}
				},
				"methodIdentifiers": {
					"allowance(address,address)": "dd62ed3e",
					"approve(address,uint256)": "095ea7b3",
					"balanceOf(address)": "70a08231",
					"bridge()": "e78cea92",
					"burn(uint256)": "42966c68",
					"burnFrom(address,uint256)": "79cc6790",
					"changeMinMaxPrivateSale(uint256,uint256)": "e181203a",
					"decimals()": "313ce567",
					"decreaseAllowance(address,uint256)": "a457c2d7",
					"endSale()": "380d831b",
					"increaseAllowance(address,uint256)": "39509351",
					"max()": "6ac5db19",
					"min()": "f8897945",
					"mint(address,uint256)": "40c10f19",
					"name()": "06fdde03",
					"privateLimit()": "3c3b7995",
					"privateSale(address)": "e7d53fcb",
					"setBridge(address)": "8dd14802",
					"setPrivateLimit(uint256)": "534b1442",
					"startSale(uint256,uint256)": "f4f3122e",
					"symbol()": "95d89b41",
					"totalSupply()": "18160ddd",
					"transfer(address,uint256)": "a9059cbb",
					"transferFrom(address,address,uint256)": "23b872dd",
					"transferOwnership(address)": "f2fde38b",
					"viewSale()": "4d1d03d1",
					"withdrawalBNB(uint256,uint256,address)": "adbc7cee",
					"withdrawalToken(address,uint256,uint256,address)": "b2938bee"
				}
			},
			"storageLayout": {
				"storage": [
					{
						"astId": 15,
						"contract": "Contracts/AccesPolygon.sol:MetaccesPolygon",
						"label": "_balances",
						"offset": 0,
						"slot": "0",
						"type": "t_mapping(t_address,t_uint256)"
					},
					{
						"astId": 21,
						"contract": "Contracts/AccesPolygon.sol:MetaccesPolygon",
						"label": "_allowances",
						"offset": 0,
						"slot": "1",
						"type": "t_mapping(t_address,t_mapping(t_address,t_uint256))"
					},
					{
						"astId": 23,
						"contract": "Contracts/AccesPolygon.sol:MetaccesPolygon",
						"label": "_totalSupply",
						"offset": 0,
						"slot": "2",
						"type": "t_uint256"
					},
					{
						"astId": 25,
						"contract": "Contracts/AccesPolygon.sol:MetaccesPolygon",
						"label": "_name",
						"offset": 0,
						"slot": "3",
						"type": "t_string_storage"
					},
					{
						"astId": 27,
						"contract": "Contracts/AccesPolygon.sol:MetaccesPolygon",
						"label": "_symbol",
						"offset": 0,
						"slot": "4",
						"type": "t_string_storage"
					},
					{
						"astId": 1080,
						"contract": "Contracts/AccesPolygon.sol:MetaccesPolygon",
						"label": "owner",
						"offset": 0,
						"slot": "5",
						"type": "t_address"
					},
					{
						"astId": 1082,
						"contract": "Contracts/AccesPolygon.sol:MetaccesPolygon",
						"label": "bridge",
						"offset": 0,
						"slot": "6",
						"type": "t_address"
					},
					{
						"astId": 1084,
						"contract": "Contracts/AccesPolygon.sol:MetaccesPolygon",
						"label": "sSBlock",
						"offset": 0,
						"slot": "7",
						"type": "t_uint256"
					},
					{
						"astId": 1086,
						"contract": "Contracts/AccesPolygon.sol:MetaccesPolygon",
						"label": "sEBlock",
						"offset": 0,
						"slot": "8",
						"type": "t_uint256"
					},
					{
						"astId": 1088,
						"contract": "Contracts/AccesPolygon.sol:MetaccesPolygon",
						"label": "sTot",
						"offset": 0,
						"slot": "9",
						"type": "t_uint256"
					},
					{
						"astId": 1090,
						"contract": "Contracts/AccesPolygon.sol:MetaccesPolygon",
						"label": "sPrice",
						"offset": 0,
						"slot": "10",
						"type": "t_uint256"
					},
					{
						"astId": 1096,
						"contract": "Contracts/AccesPolygon.sol:MetaccesPolygon",
						"label": "path",
						"offset": 0,
						"slot": "11",
						"type": "t_uint256"
					},
					{
						"astId": 1101,
						"contract": "Contracts/AccesPolygon.sol:MetaccesPolygon",
						"label": "max",
						"offset": 0,
						"slot": "12",
						"type": "t_uint256"
					},
					{
						"astId": 1107,
						"contract": "Contracts/AccesPolygon.sol:MetaccesPolygon",
						"label": "min",
						"offset": 0,
						"slot": "13",
						"type": "t_uint256"
					},
					{
						"astId": 1110,
						"contract": "Contracts/AccesPolygon.sol:MetaccesPolygon",
						"label": "privateLimit",
						"offset": 0,
						"slot": "14",
						"type": "t_uint256"
					}
				],
				"types": {
					"t_address": {
						"encoding": "inplace",
						"label": "address",
						"numberOfBytes": "20"
					},
					"t_mapping(t_address,t_mapping(t_address,t_uint256))": {
						"encoding": "mapping",
						"key": "t_address",
						"label": "mapping(address => mapping(address => uint256))",
						"numberOfBytes": "32",
						"value": "t_mapping(t_address,t_uint256)"
					},
					"t_mapping(t_address,t_uint256)": {
						"encoding": "mapping",
						"key": "t_address",
						"label": "mapping(address => uint256)",
						"numberOfBytes": "32",
						"value": "t_uint256"
					},
					"t_string_storage": {
						"encoding": "bytes",
						"label": "string",
						"numberOfBytes": "32"
					},
					"t_uint256": {
						"encoding": "inplace",
						"label": "uint256",
						"numberOfBytes": "32"
					}
				}
			},
			"userdoc": {
				"kind": "user",
				"methods": {},
				"version": 1
			}
		}
	}
}