{
	"data": {
		"bytecode": {
			"linkReferences": {},
			"object": "6080604052620000126012600a62000339565b600b819055620000249060146200034a565b600c55620000446064600c546200012260201b62000fb31790919060201c565b600d55620f4240600e5560405162001f6038038062001f6083398101604081905262000070916200036c565b604051806040016040528060088152602001674d6574616363657360c01b81525060405180604001604052806005815260200164416363657360d81b8152508160039081620000c0919062000442565b506004620000cf828262000442565b505060058054336001600160a01b031991821617909155600680549091166001600160a01b03841617905550600b546200011b90309062000115906305f5e1006200034a565b62000139565b506200054c565b60006200013082846200050e565b90505b92915050565b6001600160a01b038216620001945760405162461bcd60e51b815260206004820152601f60248201527f45524332303a206d696e7420746f20746865207a65726f206164647265737300604482015260640160405180910390fd5b8060026000828254620001a8919062000531565b90915550506001600160a01b03821660009081526020819052604081208054839290620001d790849062000531565b90915550506040518181526001600160a01b038316906000907fddf252ad1be2c89b69c2b068fc378daa952ba7f163c4a11628f55a4df523b3ef9060200160405180910390a35050565b505050565b634e487b7160e01b600052601160045260246000fd5b600181815b808511156200027d57816000190482111562000261576200026162000226565b808516156200026f57918102915b93841c939080029062000241565b509250929050565b600082620002965750600162000133565b81620002a55750600062000133565b8160018114620002be5760028114620002c957620002e9565b600191505062000133565b60ff841115620002dd57620002dd62000226565b50506001821b62000133565b5060208310610133831016604e8410600b84101617156200030e575081810a62000133565b6200031a83836200023c565b806000190482111562000331576200033162000226565b029392505050565b60006200013060ff84168362000285565b600081600019048311821515161562000367576200036762000226565b500290565b6000602082840312156200037f57600080fd5b81516001600160a01b03811681146200039757600080fd5b9392505050565b634e487b7160e01b600052604160045260246000fd5b600181811c90821680620003c957607f821691505b602082108103620003ea57634e487b7160e01b600052602260045260246000fd5b50919050565b601f8211156200022157600081815260208120601f850160051c81016020861015620004195750805b601f850160051c820191505b818110156200043a5782815560010162000425565b505050505050565b81516001600160401b038111156200045e576200045e6200039e565b62000476816200046f8454620003b4565b84620003f0565b602080601f831160018114620004ae5760008415620004955750858301515b600019600386901b1c1916600185901b1785556200043a565b600085815260208120601f198616915b82811015620004df57888601518255948401946001909101908401620004be565b5085821015620004fe5787850151600019600388901b60f8161c191681555b5050505050600190811b01905550565b6000826200052c57634e487b7160e01b600052601260045260246000fd5b500490565b6000821982111562000547576200054762000226565b500190565b611a04806200055c6000396000f3fe6080604052600436106101bb5760003560e01c806379cc6790116100ec578063dd62ed3e1161008a578063e7d53fcb11610064578063e7d53fcb146104fc578063f2fde38b1461050f578063f4f3122e1461052f578063f88979451461054f57600080fd5b8063dd62ed3e14610484578063e181203a146104a4578063e78cea92146104c457600080fd5b8063a457c2d7116100c6578063a457c2d714610404578063a9059cbb14610424578063adbc7cee14610444578063b2938bee1461046457600080fd5b806379cc6790146103af5780638dd14802146103cf57806395d89b41146103ef57600080fd5b80633c3b7995116101595780634d1d03d1116101335780634d1d03d11461030a578063534b1442146103435780636ac5db191461036357806370a082311461037957600080fd5b80633c3b7995146102b457806340c10f19146102ca57806342966c68146102ea57600080fd5b806323b872dd1161019557806323b872dd14610241578063313ce56714610261578063380d831b1461027d578063395093511461029457600080fd5b806306fdde03146101c7578063095ea7b3146101f257806318160ddd1461022257600080fd5b366101c257005b600080fd5b3480156101d357600080fd5b506101dc610565565b6040516101e9919061158a565b60405180910390f35b3480156101fe57600080fd5b5061021261020d3660046115fb565b6105f7565b60405190151581526020016101e9565b34801561022e57600080fd5b506002545b6040519081526020016101e9565b34801561024d57600080fd5b5061021261025c366004611625565b610611565b34801561026d57600080fd5b50604051601281526020016101e9565b34801561028957600080fd5b50610292610635565b005b3480156102a057600080fd5b506102126102af3660046115fb565b6106a1565b3480156102c057600080fd5b50610233600e5481565b3480156102d657600080fd5b506102926102e53660046115fb565b6106c3565b3480156102f657600080fd5b50610292610305366004611661565b6106fb565b34801561031657600080fd5b50600754600854600954600a546040805194855260208501939093529183015260608201526080016101e9565b34801561034f57600080fd5b5061029261035e366004611661565b610731565b34801561036f57600080fd5b50610233600c5481565b34801561038557600080fd5b5061023361039436600461167a565b6001600160a01b031660009081526020819052604090205490565b3480156103bb57600080fd5b506102926103ca3660046115fb565b6107ce565b3480156103db57600080fd5b506102926103ea36600461167a565b610802565b3480156103fb57600080fd5b506101dc6108d0565b34801561041057600080fd5b5061021261041f3660046115fb565b6108df565b34801561043057600080fd5b5061021261043f3660046115fb565b61095a565b34801561045057600080fd5b5061029261045f366004611695565b610968565b34801561047057600080fd5b5061029261047f3660046116ca565b610a3e565b34801561049057600080fd5b5061023361049f366004611710565b610ba3565b3480156104b057600080fd5b506102926104bf366004611743565b610bce565b3480156104d057600080fd5b506006546104e4906001600160a01b031681565b6040516001600160a01b0390911681526020016101e9565b61021261050a36600461167a565b610c8c565b34801561051b57600080fd5b5061029261052a36600461167a565b610e80565b34801561053b57600080fd5b5061029261054a366004611743565b610f3c565b34801561055b57600080fd5b50610233600d5481565b60606003805461057490611765565b80601f01602080910402602001604051908101604052809291908181526020018280546105a090611765565b80156105ed5780601f106105c2576101008083540402835291602001916105ed565b820191906000526020600020905b8154815290600101906020018083116105d057829003601f168201915b5050505050905090565b600033610605818585610fc6565b60019150505b92915050565b60003361061f8582856110ea565b61062a858585611164565b506001949350505050565b6005546001600160a01b031633146106685760405162461bcd60e51b815260040161065f9061179f565b60405180910390fd5b436008556040514281527fb144be0f16f8d30f2e18ef8f7938d5e90207932d96650e592ff47725716818fb9060200160405180910390a1565b6000336106058185856106b48383610ba3565b6106be91906117e0565b610fc6565b6006546001600160a01b031633146106ed5760405162461bcd60e51b815260040161065f906117f8565b6106f78282611332565b5050565b6006546001600160a01b031633146107255760405162461bcd60e51b815260040161065f906117f8565b61072e81611411565b50565b6005546001600160a01b0316331461075b5760405162461bcd60e51b815260040161065f9061179f565b806000036107935760405162461bcd60e51b81526020600482015260056024820152647a65726f2160d81b604482015260640161065f565b600e8190556040518181527f6d487f3988610155b3a9ef590f8ac170134d24e6505b9ddd3160e34abaa0edaf9060200160405180910390a150565b6006546001600160a01b031633146107f85760405162461bcd60e51b815260040161065f906117f8565b6106f7828261141b565b6005546001600160a01b0316331461082c5760405162461bcd60e51b815260040161065f9061179f565b6001600160a01b0381166108725760405162461bcd60e51b815260206004820152600d60248201526c7a65726f20616464726573732160981b604482015260640161065f565b6040516001600160a01b03821681527fe605ac02ea219003ec58fc9cf4d4b3c5f2d62ec39807b1c63886ddd47a6fcd6e9060200160405180910390a1600680546001600160a01b0319166001600160a01b0392909216919091179055565b60606004805461057490611765565b600033816108ed8286610ba3565b90508381101561094d5760405162461bcd60e51b815260206004820152602560248201527f45524332303a2064656372656173656420616c6c6f77616e63652062656c6f77604482015264207a65726f60d81b606482015260840161065f565b61062a8286868403610fc6565b600033610605818585611164565b6005546001600160a01b031633146109925760405162461bcd60e51b815260040161065f9061179f565b8247101561099f57600080fd5b60006109ac83600a61192f565b60408051868152602081018690526001600160a01b0385168183015290519192507f4508977418b95bac209196e03356692c2d8f47957dec1c15af1a44cc40d39a04919081900360600190a16001600160a01b0382166108fc610a0f838761193b565b6040518115909202916000818181858888f19350505050158015610a37573d6000803e3d6000fd5b5050505050565b6005546001600160a01b03163314610a685760405162461bcd60e51b815260040161065f9061179f565b6001600160a01b038416610aae5760405162461bcd60e51b815260206004820152600d60248201526c61646472657373207a65726f2160981b604482015260640161065f565b6000610abb83600a61192f565b604080516001600160a01b0388811682526020820188905281830187905285166060820152905191925086917f0206ca7f97d46974ed97b981f879b17e9e1fe17ead63770c806926d28aa5cbd59181900360800190a16001600160a01b03811663a9059cbb84610b2b858961193b565b6040516001600160e01b031960e085901b1681526001600160a01b03909216600483015260248201526044016020604051808303816000875af1158015610b76573d6000803e3d6000fd5b505050506040513d601f19601f82011682018060405250810190610b9a919061195a565b50505050505050565b6001600160a01b03918216600090815260016020908152604080832093909416825291909152205490565b6005546001600160a01b03163314610bf85760405162461bcd60e51b815260040161065f9061179f565b8115801590610c0657508015155b610c3a5760405162461bcd60e51b81526020600482015260056024820152645a65726f2160d81b604482015260640161065f565b600d829055600b54610c4c908261193b565b600c5560408051838152602081018390527f3b06ffd21bedfb2c375d7b1bcf74ca4fe1afe205699e39610b3aced7adf6b9e9910160405180910390a15050565b6000600b54600e54610c9e919061193b565b336000908152602081905260409020541115610d085760405162461bcd60e51b815260206004820152602360248201527f596f75207265616368656420796f757220707269766174652073616c65206c696044820152621b5a5d60ea1b606482015260840161065f565b4360075411158015610d1c57506008544311155b610d7c5760405162461bcd60e51b815260206004820152602b60248201527f507269766174652053616c652068617320656e646564206f7220646964206e6f60448201526a1d081cdd185c9d081e595d60aa1b606482015260840161065f565b600d5434906000908210801590610d955750600c548211155b610df05760405162461bcd60e51b815260206004820152602660248201527f4c657373207468616e204d696e696d756d206f72204d6f7265207468616e204d6044820152656178696d756d60d01b606482015260840161065f565b610e17670de0b6b3a7640000610e1184600a5461143090919063ffffffff16565b90610fb3565b600980549192506000610e298361197c565b9190505550610e39303383611164565b600a546040805183815260208101929092527fb887e151dbfcc06b4ce4f67f9bbedaeb16ab224e34c6668858d0310c6d18ffc3910160405180910390a15060019392505050565b6005546001600160a01b03163314610eaa5760405162461bcd60e51b815260040161065f9061179f565b6001600160a01b038116610ef05760405162461bcd60e51b815260206004820152600d60248201526c61646472657373207a65726f2160981b604482015260640161065f565b600580546001600160a01b0319166001600160a01b03831690811790915560405181907f8be0079c531659141344cd1fd0a4f28419497f9722a3daafe3b4186f6b6457e090600090a350565b6005546001600160a01b03163314610f665760405162461bcd60e51b815260040161065f9061179f565b8115801590610f7457508015155b610fa85760405162461bcd60e51b81526020600482015260056024820152645a65726f2160d81b604482015260640161065f565b600891909155600a55565b6000610fbf8284611995565b9392505050565b6001600160a01b0383166110285760405162461bcd60e51b8152602060048201526024808201527f45524332303a20617070726f76652066726f6d20746865207a65726f206164646044820152637265737360e01b606482015260840161065f565b6001600160a01b0382166110895760405162461bcd60e51b815260206004820152602260248201527f45524332303a20617070726f766520746f20746865207a65726f206164647265604482015261737360f01b606482015260840161065f565b6001600160a01b0383811660008181526001602090815260408083209487168084529482529182902085905590518481527f8c5be1e5ebec7d5bd14f71427d1e84f3dd0314c0f7b2291e5b200ac8c7c3b925910160405180910390a3505050565b60006110f68484610ba3565b9050600019811461115e57818110156111515760405162461bcd60e51b815260206004820152601d60248201527f45524332303a20696e73756666696369656e7420616c6c6f77616e6365000000604482015260640161065f565b61115e8484848403610fc6565b50505050565b6001600160a01b0383166111c85760405162461bcd60e51b815260206004820152602560248201527f45524332303a207472616e736665722066726f6d20746865207a65726f206164604482015264647265737360d81b606482015260840161065f565b6001600160a01b03821661122a5760405162461bcd60e51b815260206004820152602360248201527f45524332303a207472616e7366657220746f20746865207a65726f206164647260448201526265737360e81b606482015260840161065f565b6001600160a01b038316600090815260208190526040902054818110156112a25760405162461bcd60e51b815260206004820152602660248201527f45524332303a207472616e7366657220616d6f756e7420657863656564732062604482015265616c616e636560d01b606482015260840161065f565b6001600160a01b038085166000908152602081905260408082208585039055918516815290812080548492906112d99084906117e0565b92505081905550826001600160a01b0316846001600160a01b03167fddf252ad1be2c89b69c2b068fc378daa952ba7f163c4a11628f55a4df523b3ef8460405161132591815260200190565b60405180910390a361115e565b6001600160a01b0382166113885760405162461bcd60e51b815260206004820152601f60248201527f45524332303a206d696e7420746f20746865207a65726f206164647265737300604482015260640161065f565b806002600082825461139a91906117e0565b90915550506001600160a01b038216600090815260208190526040812080548392906113c79084906117e0565b90915550506040518181526001600160a01b038316906000907fddf252ad1be2c89b69c2b068fc378daa952ba7f163c4a11628f55a4df523b3ef9060200160405180910390a35050565b61072e338261143c565b6114268233836110ea565b6106f7828261143c565b6000610fbf828461193b565b6001600160a01b03821661149c5760405162461bcd60e51b815260206004820152602160248201527f45524332303a206275726e2066726f6d20746865207a65726f206164647265736044820152607360f81b606482015260840161065f565b6001600160a01b038216600090815260208190526040902054818110156115105760405162461bcd60e51b815260206004820152602260248201527f45524332303a206275726e20616d6f756e7420657863656564732062616c616e604482015261636560f01b606482015260840161065f565b6001600160a01b038316600090815260208190526040812083830390556002805484929061153f9084906119b7565b90915550506040518281526000906001600160a01b038516907fddf252ad1be2c89b69c2b068fc378daa952ba7f163c4a11628f55a4df523b3ef9060200160405180910390a3505050565b600060208083528351808285015260005b818110156115b75785810183015185820160400152820161159b565b818111156115c9576000604083870101525b50601f01601f1916929092016040019392505050565b80356001600160a01b03811681146115f657600080fd5b919050565b6000806040838503121561160e57600080fd5b611617836115df565b946020939093013593505050565b60008060006060848603121561163a57600080fd5b611643846115df565b9250611651602085016115df565b9150604084013590509250925092565b60006020828403121561167357600080fd5b5035919050565b60006020828403121561168c57600080fd5b610fbf826115df565b6000806000606084860312156116aa57600080fd5b83359250602084013591506116c1604085016115df565b90509250925092565b600080600080608085870312156116e057600080fd5b6116e9856115df565b93506020850135925060408501359150611705606086016115df565b905092959194509250565b6000806040838503121561172357600080fd5b61172c836115df565b915061173a602084016115df565b90509250929050565b6000806040838503121561175657600080fd5b50508035926020909101359150565b600181811c9082168061177957607f821691505b60208210810361179957634e487b7160e01b600052602260045260246000fd5b50919050565b60208082526011908201527063616c6c6572206e6f74206f776e65722160781b604082015260600190565b634e487b7160e01b600052601160045260246000fd5b600082198211156117f3576117f36117ca565b500190565b60208082526033908201527f6f6e6c7920627269646765206861732061636365737320746f207468697320636040820152723434b632103a37b5b2b710333ab731ba34b7b760691b606082015260800190565b600181815b8085111561188657816000190482111561186c5761186c6117ca565b8085161561187957918102915b93841c9390800290611850565b509250929050565b60008261189d5750600161060b565b816118aa5750600061060b565b81600181146118c057600281146118ca576118e6565b600191505061060b565b60ff8411156118db576118db6117ca565b50506001821b61060b565b5060208310610133831016604e8410600b8410161715611909575081810a61060b565b611913838361184b565b8060001904821115611927576119276117ca565b029392505050565b6000610fbf838361188e565b6000816000190483118215151615611955576119556117ca565b500290565b60006020828403121561196c57600080fd5b81518015158114610fbf57600080fd5b60006001820161198e5761198e6117ca565b5060010190565b6000826119b257634e487b7160e01b600052601260045260246000fd5b500490565b6000828210156119c9576119c96117ca565b50039056fea26469706673582212209dc78c23c26b4a7e1a8d367240374e6cc55f28cffcc146fb8ebb6d0c2857364264736f6c634300080f0033",
			"opcodes": "PUSH1 0x80 PUSH1 0x40 MSTORE PUSH3 0x12 PUSH1 0x12 PUSH1 0xA PUSH3 0x339 JUMP JUMPDEST PUSH1 0xB DUP2 SWAP1 SSTORE PUSH3 0x24 SWAP1 PUSH1 0x14 PUSH3 0x34A JUMP JUMPDEST PUSH1 0xC SSTORE PUSH3 0x44 PUSH1 0x64 PUSH1 0xC SLOAD PUSH3 0x122 PUSH1 0x20 SHL PUSH3 0xFB3 OR SWAP1 SWAP2 SWAP1 PUSH1 0x20 SHR JUMP JUMPDEST PUSH1 0xD SSTORE PUSH3 0xF4240 PUSH1 0xE SSTORE PUSH1 0x40 MLOAD PUSH3 0x1F60 CODESIZE SUB DUP1 PUSH3 0x1F60 DUP4 CODECOPY DUP2 ADD PUSH1 0x40 DUP2 SWAP1 MSTORE PUSH3 0x70 SWAP2 PUSH3 0x36C JUMP JUMPDEST PUSH1 0x40 MLOAD DUP1 PUSH1 0x40 ADD PUSH1 0x40 MSTORE DUP1 PUSH1 0x8 DUP2 MSTORE PUSH1 0x20 ADD PUSH8 0x4D65746163636573 PUSH1 0xC0 SHL DUP2 MSTORE POP PUSH1 0x40 MLOAD DUP1 PUSH1 0x40 ADD PUSH1 0x40 MSTORE DUP1 PUSH1 0x5 DUP2 MSTORE PUSH1 0x20 ADD PUSH5 0x4163636573 PUSH1 0xD8 SHL DUP2 MSTORE POP DUP2 PUSH1 0x3 SWAP1 DUP2 PUSH3 0xC0 SWAP2 SWAP1 PUSH3 0x442 JUMP JUMPDEST POP PUSH1 0x4 PUSH3 0xCF DUP3 DUP3 PUSH3 0x442 JUMP JUMPDEST POP POP PUSH1 0x5 DUP1 SLOAD CALLER PUSH1 0x1 PUSH1 0x1 PUSH1 0xA0 SHL SUB NOT SWAP2 DUP3 AND OR SWAP1 SWAP2 SSTORE PUSH1 0x6 DUP1 SLOAD SWAP1 SWAP2 AND PUSH1 0x1 PUSH1 0x1 PUSH1 0xA0 SHL SUB DUP5 AND OR SWAP1 SSTORE POP PUSH1 0xB SLOAD PUSH3 0x11B SWAP1 ADDRESS SWAP1 PUSH3 0x115 SWAP1 PUSH4 0x5F5E100 PUSH3 0x34A JUMP JUMPDEST PUSH3 0x139 JUMP JUMPDEST POP PUSH3 0x54C JUMP JUMPDEST PUSH1 0x0 PUSH3 0x130 DUP3 DUP5 PUSH3 0x50E JUMP JUMPDEST SWAP1 POP JUMPDEST SWAP3 SWAP2 POP POP JUMP JUMPDEST PUSH1 0x1 PUSH1 0x1 PUSH1 0xA0 SHL SUB DUP3 AND PUSH3 0x194 JUMPI PUSH1 0x40 MLOAD PUSH3 0x461BCD PUSH1 0xE5 SHL DUP2 MSTORE PUSH1 0x20 PUSH1 0x4 DUP3 ADD MSTORE PUSH1 0x1F PUSH1 0x24 DUP3 ADD MSTORE PUSH32 0x45524332303A206D696E7420746F20746865207A65726F206164647265737300 PUSH1 0x44 DUP3 ADD MSTORE PUSH1 0x64 ADD PUSH1 0x40 MLOAD DUP1 SWAP2 SUB SWAP1 REVERT JUMPDEST DUP1 PUSH1 0x2 PUSH1 0x0 DUP3 DUP3 SLOAD PUSH3 0x1A8 SWAP2 SWAP1 PUSH3 0x531 JUMP JUMPDEST SWAP1 SWAP2 SSTORE POP POP PUSH1 0x1 PUSH1 0x1 PUSH1 0xA0 SHL SUB DUP3 AND PUSH1 0x0 SWAP1 DUP2 MSTORE PUSH1 0x20 DUP2 SWAP1 MSTORE PUSH1 0x40 DUP2 KECCAK256 DUP1 SLOAD DUP4 SWAP3 SWAP1 PUSH3 0x1D7 SWAP1 DUP5 SWAP1 PUSH3 0x531 JUMP JUMPDEST SWAP1 SWAP2 SSTORE POP POP PUSH1 0x40 MLOAD DUP2 DUP2 MSTORE PUSH1 0x1 PUSH1 0x1 PUSH1 0xA0 SHL SUB DUP4 AND SWAP1 PUSH1 0x0 SWAP1 PUSH32 0xDDF252AD1BE2C89B69C2B068FC378DAA952BA7F163C4A11628F55A4DF523B3EF SWAP1 PUSH1 0x20 ADD PUSH1 0x40 MLOAD DUP1 SWAP2 SUB SWAP1 LOG3 POP POP JUMP JUMPDEST POP POP POP JUMP JUMPDEST PUSH4 0x4E487B71 PUSH1 0xE0 SHL PUSH1 0x0 MSTORE PUSH1 0x11 PUSH1 0x4 MSTORE PUSH1 0x24 PUSH1 0x0 REVERT JUMPDEST PUSH1 0x1 DUP2 DUP2 JUMPDEST DUP1 DUP6 GT ISZERO PUSH3 0x27D JUMPI DUP2 PUSH1 0x0 NOT DIV DUP3 GT ISZERO PUSH3 0x261 JUMPI PUSH3 0x261 PUSH3 0x226 JUMP JUMPDEST DUP1 DUP6 AND ISZERO PUSH3 0x26F JUMPI SWAP2 DUP2 MUL SWAP2 JUMPDEST SWAP4 DUP5 SHR SWAP4 SWAP1 DUP1 MUL SWAP1 PUSH3 0x241 JUMP JUMPDEST POP SWAP3 POP SWAP3 SWAP1 POP JUMP JUMPDEST PUSH1 0x0 DUP3 PUSH3 0x296 JUMPI POP PUSH1 0x1 PUSH3 0x133 JUMP JUMPDEST DUP2 PUSH3 0x2A5 JUMPI POP PUSH1 0x0 PUSH3 0x133 JUMP JUMPDEST DUP2 PUSH1 0x1 DUP2 EQ PUSH3 0x2BE JUMPI PUSH1 0x2 DUP2 EQ PUSH3 0x2C9 JUMPI PUSH3 0x2E9 JUMP JUMPDEST PUSH1 0x1 SWAP2 POP POP PUSH3 0x133 JUMP JUMPDEST PUSH1 0xFF DUP5 GT ISZERO PUSH3 0x2DD JUMPI PUSH3 0x2DD PUSH3 0x226 JUMP JUMPDEST POP POP PUSH1 0x1 DUP3 SHL PUSH3 0x133 JUMP JUMPDEST POP PUSH1 0x20 DUP4 LT PUSH2 0x133 DUP4 LT AND PUSH1 0x4E DUP5 LT PUSH1 0xB DUP5 LT AND OR ISZERO PUSH3 0x30E JUMPI POP DUP2 DUP2 EXP PUSH3 0x133 JUMP JUMPDEST PUSH3 0x31A DUP4 DUP4 PUSH3 0x23C JUMP JUMPDEST DUP1 PUSH1 0x0 NOT DIV DUP3 GT ISZERO PUSH3 0x331 JUMPI PUSH3 0x331 PUSH3 0x226 JUMP JUMPDEST MUL SWAP4 SWAP3 POP POP POP JUMP JUMPDEST PUSH1 0x0 PUSH3 0x130 PUSH1 0xFF DUP5 AND DUP4 PUSH3 0x285 JUMP JUMPDEST PUSH1 0x0 DUP2 PUSH1 0x0 NOT DIV DUP4 GT DUP3 ISZERO ISZERO AND ISZERO PUSH3 0x367 JUMPI PUSH3 0x367 PUSH3 0x226 JUMP JUMPDEST POP MUL SWAP1 JUMP JUMPDEST PUSH1 0x0 PUSH1 0x20 DUP3 DUP5 SUB SLT ISZERO PUSH3 0x37F JUMPI PUSH1 0x0 DUP1 REVERT JUMPDEST DUP2 MLOAD PUSH1 0x1 PUSH1 0x1 PUSH1 0xA0 SHL SUB DUP2 AND DUP2 EQ PUSH3 0x397 JUMPI PUSH1 0x0 DUP1 REVERT JUMPDEST SWAP4 SWAP3 POP POP POP JUMP JUMPDEST PUSH4 0x4E487B71 PUSH1 0xE0 SHL PUSH1 0x0 MSTORE PUSH1 0x41 PUSH1 0x4 MSTORE PUSH1 0x24 PUSH1 0x0 REVERT JUMPDEST PUSH1 0x1 DUP2 DUP2 SHR SWAP1 DUP3 AND DUP1 PUSH3 0x3C9 JUMPI PUSH1 0x7F DUP3 AND SWAP2 POP JUMPDEST PUSH1 0x20 DUP3 LT DUP2 SUB PUSH3 0x3EA JUMPI PUSH4 0x4E487B71 PUSH1 0xE0 SHL PUSH1 0x0 MSTORE PUSH1 0x22 PUSH1 0x4 MSTORE PUSH1 0x24 PUSH1 0x0 REVERT JUMPDEST POP SWAP2 SWAP1 POP JUMP JUMPDEST PUSH1 0x1F DUP3 GT ISZERO PUSH3 0x221 JUMPI PUSH1 0x0 DUP2 DUP2 MSTORE PUSH1 0x20 DUP2 KECCAK256 PUSH1 0x1F DUP6 ADD PUSH1 0x5 SHR DUP2 ADD PUSH1 0x20 DUP7 LT ISZERO PUSH3 0x419 JUMPI POP DUP1 JUMPDEST PUSH1 0x1F DUP6 ADD PUSH1 0x5 SHR DUP3 ADD SWAP2 POP JUMPDEST DUP2 DUP2 LT ISZERO PUSH3 0x43A JUMPI DUP3 DUP2 SSTORE PUSH1 0x1 ADD PUSH3 0x425 JUMP JUMPDEST POP POP POP POP POP POP JUMP JUMPDEST DUP2 MLOAD PUSH1 0x1 PUSH1 0x1 PUSH1 0x40 SHL SUB DUP2 GT ISZERO PUSH3 0x45E JUMPI PUSH3 0x45E PUSH3 0x39E JUMP JUMPDEST PUSH3 0x476 DUP2 PUSH3 0x46F DUP5 SLOAD PUSH3 0x3B4 JUMP JUMPDEST DUP5 PUSH3 0x3F0 JUMP JUMPDEST PUSH1 0x20 DUP1 PUSH1 0x1F DUP4 GT PUSH1 0x1 DUP2 EQ PUSH3 0x4AE JUMPI PUSH1 0x0 DUP5 ISZERO PUSH3 0x495 JUMPI POP DUP6 DUP4 ADD MLOAD JUMPDEST PUSH1 0x0 NOT PUSH1 0x3 DUP7 SWAP1 SHL SHR NOT AND PUSH1 0x1 DUP6 SWAP1 SHL OR DUP6 SSTORE PUSH3 0x43A JUMP JUMPDEST PUSH1 0x0 DUP6 DUP2 MSTORE PUSH1 0x20 DUP2 KECCAK256 PUSH1 0x1F NOT DUP7 AND SWAP2 JUMPDEST DUP3 DUP2 LT ISZERO PUSH3 0x4DF JUMPI DUP9 DUP7 ADD MLOAD DUP3 SSTORE SWAP5 DUP5 ADD SWAP5 PUSH1 0x1 SWAP1 SWAP2 ADD SWAP1 DUP5 ADD PUSH3 0x4BE JUMP JUMPDEST POP DUP6 DUP3 LT ISZERO PUSH3 0x4FE JUMPI DUP8 DUP6 ADD MLOAD PUSH1 0x0 NOT PUSH1 0x3 DUP9 SWAP1 SHL PUSH1 0xF8 AND SHR NOT AND DUP2 SSTORE JUMPDEST POP POP POP POP POP PUSH1 0x1 SWAP1 DUP2 SHL ADD SWAP1 SSTORE POP JUMP JUMPDEST PUSH1 0x0 DUP3 PUSH3 0x52C JUMPI PUSH4 0x4E487B71 PUSH1 0xE0 SHL PUSH1 0x0 MSTORE PUSH1 0x12 PUSH1 0x4 MSTORE PUSH1 0x24 PUSH1 0x0 REVERT JUMPDEST POP DIV SWAP1 JUMP JUMPDEST PUSH1 0x0 DUP3 NOT DUP3 GT ISZERO PUSH3 0x547 JUMPI PUSH3 0x547 PUSH3 0x226 JUMP JUMPDEST POP ADD SWAP1 JUMP JUMPDEST PUSH2 0x1A04 DUP1 PUSH3 0x55C PUSH1 0x0 CODECOPY PUSH1 0x0 RETURN INVALID PUSH1 0x80 PUSH1 0x40 MSTORE PUSH1 0x4 CALLDATASIZE LT PUSH2 0x1BB JUMPI PUSH1 0x0 CALLDATALOAD PUSH1 0xE0 SHR DUP1 PUSH4 0x79CC6790 GT PUSH2 0xEC JUMPI DUP1 PUSH4 0xDD62ED3E GT PUSH2 0x8A JUMPI DUP1 PUSH4 0xE7D53FCB GT PUSH2 0x64 JUMPI DUP1 PUSH4 0xE7D53FCB EQ PUSH2 0x4FC JUMPI DUP1 PUSH4 0xF2FDE38B EQ PUSH2 0x50F JUMPI DUP1 PUSH4 0xF4F3122E EQ PUSH2 0x52F JUMPI DUP1 PUSH4 0xF8897945 EQ PUSH2 0x54F JUMPI PUSH1 0x0 DUP1 REVERT JUMPDEST DUP1 PUSH4 0xDD62ED3E EQ PUSH2 0x484 JUMPI DUP1 PUSH4 0xE181203A EQ PUSH2 0x4A4 JUMPI DUP1 PUSH4 0xE78CEA92 EQ PUSH2 0x4C4 JUMPI PUSH1 0x0 DUP1 REVERT JUMPDEST DUP1 PUSH4 0xA457C2D7 GT PUSH2 0xC6 JUMPI DUP1 PUSH4 0xA457C2D7 EQ PUSH2 0x404 JUMPI DUP1 PUSH4 0xA9059CBB EQ PUSH2 0x424 JUMPI DUP1 PUSH4 0xADBC7CEE EQ PUSH2 0x444 JUMPI DUP1 PUSH4 0xB2938BEE EQ PUSH2 0x464 JUMPI PUSH1 0x0 DUP1 REVERT JUMPDEST DUP1 PUSH4 0x79CC6790 EQ PUSH2 0x3AF JUMPI DUP1 PUSH4 0x8DD14802 EQ PUSH2 0x3CF JUMPI DUP1 PUSH4 0x95D89B41 EQ PUSH2 0x3EF JUMPI PUSH1 0x0 DUP1 REVERT JUMPDEST DUP1 PUSH4 0x3C3B7995 GT PUSH2 0x159 JUMPI DUP1 PUSH4 0x4D1D03D1 GT PUSH2 0x133 JUMPI DUP1 PUSH4 0x4D1D03D1 EQ PUSH2 0x30A JUMPI DUP1 PUSH4 0x534B1442 EQ PUSH2 0x343 JUMPI DUP1 PUSH4 0x6AC5DB19 EQ PUSH2 0x363 JUMPI DUP1 PUSH4 0x70A08231 EQ PUSH2 0x379 JUMPI PUSH1 0x0 DUP1 REVERT JUMPDEST DUP1 PUSH4 0x3C3B7995 EQ PUSH2 0x2B4 JUMPI DUP1 PUSH4 0x40C10F19 EQ PUSH2 0x2CA JUMPI DUP1 PUSH4 0x42966C68 EQ PUSH2 0x2EA JUMPI PUSH1 0x0 DUP1 REVERT JUMPDEST DUP1 PUSH4 0x23B872DD GT PUSH2 0x195 JUMPI DUP1 PUSH4 0x23B872DD EQ PUSH2 0x241 JUMPI DUP1 PUSH4 0x313CE567 EQ PUSH2 0x261 JUMPI DUP1 PUSH4 0x380D831B EQ PUSH2 0x27D JUMPI DUP1 PUSH4 0x39509351 EQ PUSH2 0x294 JUMPI PUSH1 0x0 DUP1 REVERT JUMPDEST DUP1 PUSH4 0x6FDDE03 EQ PUSH2 0x1C7 JUMPI DUP1 PUSH4 0x95EA7B3 EQ PUSH2 0x1F2 JUMPI DUP1 PUSH4 0x18160DDD EQ PUSH2 0x222 JUMPI PUSH1 0x0 DUP1 REVERT JUMPDEST CALLDATASIZE PUSH2 0x1C2 JUMPI STOP JUMPDEST PUSH1 0x0 DUP1 REVERT JUMPDEST CALLVALUE DUP1 ISZERO PUSH2 0x1D3 JUMPI PUSH1 0x0 DUP1 REVERT JUMPDEST POP PUSH2 0x1DC PUSH2 0x565 JUMP JUMPDEST PUSH1 0x40 MLOAD PUSH2 0x1E9 SWAP2 SWAP1 PUSH2 0x158A JUMP JUMPDEST PUSH1 0x40 MLOAD DUP1 SWAP2 SUB SWAP1 RETURN JUMPDEST CALLVALUE DUP1 ISZERO PUSH2 0x1FE JUMPI PUSH1 0x0 DUP1 REVERT JUMPDEST POP PUSH2 0x212 PUSH2 0x20D CALLDATASIZE PUSH1 0x4 PUSH2 0x15FB JUMP JUMPDEST PUSH2 0x5F7 JUMP JUMPDEST PUSH1 0x40 MLOAD SWAP1 ISZERO ISZERO DUP2 MSTORE PUSH1 0x20 ADD PUSH2 0x1E9 JUMP JUMPDEST CALLVALUE DUP1 ISZERO PUSH2 0x22E JUMPI PUSH1 0x0 DUP1 REVERT JUMPDEST POP PUSH1 0x2 SLOAD JUMPDEST PUSH1 0x40 MLOAD SWAP1 DUP2 MSTORE PUSH1 0x20 ADD PUSH2 0x1E9 JUMP JUMPDEST CALLVALUE DUP1 ISZERO PUSH2 0x24D JUMPI PUSH1 0x0 DUP1 REVERT JUMPDEST POP PUSH2 0x212 PUSH2 0x25C CALLDATASIZE PUSH1 0x4 PUSH2 0x1625 JUMP JUMPDEST PUSH2 0x611 JUMP JUMPDEST CALLVALUE DUP1 ISZERO PUSH2 0x26D JUMPI PUSH1 0x0 DUP1 REVERT JUMPDEST POP PUSH1 0x40 MLOAD PUSH1 0x12 DUP2 MSTORE PUSH1 0x20 ADD PUSH2 0x1E9 JUMP JUMPDEST CALLVALUE DUP1 ISZERO PUSH2 0x289 JUMPI PUSH1 0x0 DUP1 REVERT JUMPDEST POP PUSH2 0x292 PUSH2 0x635 JUMP JUMPDEST STOP JUMPDEST CALLVALUE DUP1 ISZERO PUSH2 0x2A0 JUMPI PUSH1 0x0 DUP1 REVERT JUMPDEST POP PUSH2 0x212 PUSH2 0x2AF CALLDATASIZE PUSH1 0x4 PUSH2 0x15FB JUMP JUMPDEST PUSH2 0x6A1 JUMP JUMPDEST CALLVALUE DUP1 ISZERO PUSH2 0x2C0 JUMPI PUSH1 0x0 DUP1 REVERT JUMPDEST POP PUSH2 0x233 PUSH1 0xE SLOAD DUP2 JUMP JUMPDEST CALLVALUE DUP1 ISZERO PUSH2 0x2D6 JUMPI PUSH1 0x0 DUP1 REVERT JUMPDEST POP PUSH2 0x292 PUSH2 0x2E5 CALLDATASIZE PUSH1 0x4 PUSH2 0x15FB JUMP JUMPDEST PUSH2 0x6C3 JUMP JUMPDEST CALLVALUE DUP1 ISZERO PUSH2 0x2F6 JUMPI PUSH1 0x0 DUP1 REVERT JUMPDEST POP PUSH2 0x292 PUSH2 0x305 CALLDATASIZE PUSH1 0x4 PUSH2 0x1661 JUMP JUMPDEST PUSH2 0x6FB JUMP JUMPDEST CALLVALUE DUP1 ISZERO PUSH2 0x316 JUMPI PUSH1 0x0 DUP1 REVERT JUMPDEST POP PUSH1 0x7 SLOAD PUSH1 0x8 SLOAD PUSH1 0x9 SLOAD PUSH1 0xA SLOAD PUSH1 0x40 DUP1 MLOAD SWAP5 DUP6 MSTORE PUSH1 0x20 DUP6 ADD SWAP4 SWAP1 SWAP4 MSTORE SWAP2 DUP4 ADD MSTORE PUSH1 0x60 DUP3 ADD MSTORE PUSH1 0x80 ADD PUSH2 0x1E9 JUMP JUMPDEST CALLVALUE DUP1 ISZERO PUSH2 0x34F JUMPI PUSH1 0x0 DUP1 REVERT JUMPDEST POP PUSH2 0x292 PUSH2 0x35E CALLDATASIZE PUSH1 0x4 PUSH2 0x1661 JUMP JUMPDEST PUSH2 0x731 JUMP JUMPDEST CALLVALUE DUP1 ISZERO PUSH2 0x36F JUMPI PUSH1 0x0 DUP1 REVERT JUMPDEST POP PUSH2 0x233 PUSH1 0xC SLOAD DUP2 JUMP JUMPDEST CALLVALUE DUP1 ISZERO PUSH2 0x385 JUMPI PUSH1 0x0 DUP1 REVERT JUMPDEST POP PUSH2 0x233 PUSH2 0x394 CALLDATASIZE PUSH1 0x4 PUSH2 0x167A JUMP JUMPDEST PUSH1 0x1 PUSH1 0x1 PUSH1 0xA0 SHL SUB AND PUSH1 0x0 SWAP1 DUP2 MSTORE PUSH1 0x20 DUP2 SWAP1 MSTORE PUSH1 0x40 SWAP1 KECCAK256 SLOAD SWAP1 JUMP JUMPDEST CALLVALUE DUP1 ISZERO PUSH2 0x3BB JUMPI PUSH1 0x0 DUP1 REVERT JUMPDEST POP PUSH2 0x292 PUSH2 0x3CA CALLDATASIZE PUSH1 0x4 PUSH2 0x15FB JUMP JUMPDEST PUSH2 0x7CE JUMP JUMPDEST CALLVALUE DUP1 ISZERO PUSH2 0x3DB JUMPI PUSH1 0x0 DUP1 REVERT JUMPDEST POP PUSH2 0x292 PUSH2 0x3EA CALLDATASIZE PUSH1 0x4 PUSH2 0x167A JUMP JUMPDEST PUSH2 0x802 JUMP JUMPDEST CALLVALUE DUP1 ISZERO PUSH2 0x3FB JUMPI PUSH1 0x0 DUP1 REVERT JUMPDEST POP PUSH2 0x1DC PUSH2 0x8D0 JUMP JUMPDEST CALLVALUE DUP1 ISZERO PUSH2 0x410 JUMPI PUSH1 0x0 DUP1 REVERT JUMPDEST POP PUSH2 0x212 PUSH2 0x41F CALLDATASIZE PUSH1 0x4 PUSH2 0x15FB JUMP JUMPDEST PUSH2 0x8DF JUMP JUMPDEST CALLVALUE DUP1 ISZERO PUSH2 0x430 JUMPI PUSH1 0x0 DUP1 REVERT JUMPDEST POP PUSH2 0x212 PUSH2 0x43F CALLDATASIZE PUSH1 0x4 PUSH2 0x15FB JUMP JUMPDEST PUSH2 0x95A JUMP JUMPDEST CALLVALUE DUP1 ISZERO PUSH2 0x450 JUMPI PUSH1 0x0 DUP1 REVERT JUMPDEST POP PUSH2 0x292 PUSH2 0x45F CALLDATASIZE PUSH1 0x4 PUSH2 0x1695 JUMP JUMPDEST PUSH2 0x968 JUMP JUMPDEST CALLVALUE DUP1 ISZERO PUSH2 0x470 JUMPI PUSH1 0x0 DUP1 REVERT JUMPDEST POP PUSH2 0x292 PUSH2 0x47F CALLDATASIZE PUSH1 0x4 PUSH2 0x16CA JUMP JUMPDEST PUSH2 0xA3E JUMP JUMPDEST CALLVALUE DUP1 ISZERO PUSH2 0x490 JUMPI PUSH1 0x0 DUP1 REVERT JUMPDEST POP PUSH2 0x233 PUSH2 0x49F CALLDATASIZE PUSH1 0x4 PUSH2 0x1710 JUMP JUMPDEST PUSH2 0xBA3 JUMP JUMPDEST CALLVALUE DUP1 ISZERO PUSH2 0x4B0 JUMPI PUSH1 0x0 DUP1 REVERT JUMPDEST POP PUSH2 0x292 PUSH2 0x4BF CALLDATASIZE PUSH1 0x4 PUSH2 0x1743 JUMP JUMPDEST PUSH2 0xBCE JUMP JUMPDEST CALLVALUE DUP1 ISZERO PUSH2 0x4D0 JUMPI PUSH1 0x0 DUP1 REVERT JUMPDEST POP PUSH1 0x6 SLOAD PUSH2 0x4E4 SWAP1 PUSH1 0x1 PUSH1 0x1 PUSH1 0xA0 SHL SUB AND DUP2 JUMP JUMPDEST PUSH1 0x40 MLOAD PUSH1 0x1 PUSH1 0x1 PUSH1 0xA0 SHL SUB SWAP1 SWAP2 AND DUP2 MSTORE PUSH1 0x20 ADD PUSH2 0x1E9 JUMP JUMPDEST PUSH2 0x212 PUSH2 0x50A CALLDATASIZE PUSH1 0x4 PUSH2 0x167A JUMP JUMPDEST PUSH2 0xC8C JUMP JUMPDEST CALLVALUE DUP1 ISZERO PUSH2 0x51B JUMPI PUSH1 0x0 DUP1 REVERT JUMPDEST POP PUSH2 0x292 PUSH2 0x52A CALLDATASIZE PUSH1 0x4 PUSH2 0x167A JUMP JUMPDEST PUSH2 0xE80 JUMP JUMPDEST CALLVALUE DUP1 ISZERO PUSH2 0x53B JUMPI PUSH1 0x0 DUP1 REVERT JUMPDEST POP PUSH2 0x292 PUSH2 0x54A CALLDATASIZE PUSH1 0x4 PUSH2 0x1743 JUMP JUMPDEST PUSH2 0xF3C JUMP JUMPDEST CALLVALUE DUP1 ISZERO PUSH2 0x55B JUMPI PUSH1 0x0 DUP1 REVERT JUMPDEST POP PUSH2 0x233 PUSH1 0xD SLOAD DUP2 JUMP JUMPDEST PUSH1 0x60 PUSH1 0x3 DUP1 SLOAD PUSH2 0x574 SWAP1 PUSH2 0x1765 JUMP JUMPDEST DUP1 PUSH1 0x1F ADD PUSH1 0x20 DUP1 SWAP2 DIV MUL PUSH1 0x20 ADD PUSH1 0x40 MLOAD SWAP1 DUP2 ADD PUSH1 0x40 MSTORE DUP1 SWAP3 SWAP2 SWAP1 DUP2 DUP2 MSTORE PUSH1 0x20 ADD DUP3 DUP1 SLOAD PUSH2 0x5A0 SWAP1 PUSH2 0x1765 JUMP JUMPDEST DUP1 ISZERO PUSH2 0x5ED JUMPI DUP1 PUSH1 0x1F LT PUSH2 0x5C2 JUMPI PUSH2 0x100 DUP1 DUP4 SLOAD DIV MUL DUP4 MSTORE SWAP2 PUSH1 0x20 ADD SWAP2 PUSH2 0x5ED JUMP JUMPDEST DUP3 ADD SWAP2 SWAP1 PUSH1 0x0 MSTORE PUSH1 0x20 PUSH1 0x0 KECCAK256 SWAP1 JUMPDEST DUP2 SLOAD DUP2 MSTORE SWAP1 PUSH1 0x1 ADD SWAP1 PUSH1 0x20 ADD DUP1 DUP4 GT PUSH2 0x5D0 JUMPI DUP3 SWAP1 SUB PUSH1 0x1F AND DUP3 ADD SWAP2 JUMPDEST POP POP POP POP POP SWAP1 POP SWAP1 JUMP JUMPDEST PUSH1 0x0 CALLER PUSH2 0x605 DUP2 DUP6 DUP6 PUSH2 0xFC6 JUMP JUMPDEST PUSH1 0x1 SWAP2 POP POP JUMPDEST SWAP3 SWAP2 POP POP JUMP JUMPDEST PUSH1 0x0 CALLER PUSH2 0x61F DUP6 DUP3 DUP6 PUSH2 0x10EA JUMP JUMPDEST PUSH2 0x62A DUP6 DUP6 DUP6 PUSH2 0x1164 JUMP JUMPDEST POP PUSH1 0x1 SWAP5 SWAP4 POP POP POP POP JUMP JUMPDEST PUSH1 0x5 SLOAD PUSH1 0x1 PUSH1 0x1 PUSH1 0xA0 SHL SUB AND CALLER EQ PUSH2 0x668 JUMPI PUSH1 0x40 MLOAD PUSH3 0x461BCD PUSH1 0xE5 SHL DUP2 MSTORE PUSH1 0x4 ADD PUSH2 0x65F SWAP1 PUSH2 0x179F JUMP JUMPDEST PUSH1 0x40 MLOAD DUP1 SWAP2 SUB SWAP1 REVERT JUMPDEST NUMBER PUSH1 0x8 SSTORE PUSH1 0x40 MLOAD TIMESTAMP DUP2 MSTORE PUSH32 0xB144BE0F16F8D30F2E18EF8F7938D5E90207932D96650E592FF47725716818FB SWAP1 PUSH1 0x20 ADD PUSH1 0x40 MLOAD DUP1 SWAP2 SUB SWAP1 LOG1 JUMP JUMPDEST PUSH1 0x0 CALLER PUSH2 0x605 DUP2 DUP6 DUP6 PUSH2 0x6B4 DUP4 DUP4 PUSH2 0xBA3 JUMP JUMPDEST PUSH2 0x6BE SWAP2 SWAP1 PUSH2 0x17E0 JUMP JUMPDEST PUSH2 0xFC6 JUMP JUMPDEST PUSH1 0x6 SLOAD PUSH1 0x1 PUSH1 0x1 PUSH1 0xA0 SHL SUB AND CALLER EQ PUSH2 0x6ED JUMPI PUSH1 0x40 MLOAD PUSH3 0x461BCD PUSH1 0xE5 SHL DUP2 MSTORE PUSH1 0x4 ADD PUSH2 0x65F SWAP1 PUSH2 0x17F8 JUMP JUMPDEST PUSH2 0x6F7 DUP3 DUP3 PUSH2 0x1332 JUMP JUMPDEST POP POP JUMP JUMPDEST PUSH1 0x6 SLOAD PUSH1 0x1 PUSH1 0x1 PUSH1 0xA0 SHL SUB AND CALLER EQ PUSH2 0x725 JUMPI PUSH1 0x40 MLOAD PUSH3 0x461BCD PUSH1 0xE5 SHL DUP2 MSTORE PUSH1 0x4 ADD PUSH2 0x65F SWAP1 PUSH2 0x17F8 JUMP JUMPDEST PUSH2 0x72E DUP2 PUSH2 0x1411 JUMP JUMPDEST POP JUMP JUMPDEST PUSH1 0x5 SLOAD PUSH1 0x1 PUSH1 0x1 PUSH1 0xA0 SHL SUB AND CALLER EQ PUSH2 0x75B JUMPI PUSH1 0x40 MLOAD PUSH3 0x461BCD PUSH1 0xE5 SHL DUP2 MSTORE PUSH1 0x4 ADD PUSH2 0x65F SWAP1 PUSH2 0x179F JUMP JUMPDEST DUP1 PUSH1 0x0 SUB PUSH2 0x793 JUMPI PUSH1 0x40 MLOAD PUSH3 0x461BCD PUSH1 0xE5 SHL DUP2 MSTORE PUSH1 0x20 PUSH1 0x4 DUP3 ADD MSTORE PUSH1 0x5 PUSH1 0x24 DUP3 ADD MSTORE PUSH5 0x7A65726F21 PUSH1 0xD8 SHL PUSH1 0x44 DUP3 ADD MSTORE PUSH1 0x64 ADD PUSH2 0x65F JUMP JUMPDEST PUSH1 0xE DUP2 SWAP1 SSTORE PUSH1 0x40 MLOAD DUP2 DUP2 MSTORE PUSH32 0x6D487F3988610155B3A9EF590F8AC170134D24E6505B9DDD3160E34ABAA0EDAF SWAP1 PUSH1 0x20 ADD PUSH1 0x40 MLOAD DUP1 SWAP2 SUB SWAP1 LOG1 POP JUMP JUMPDEST PUSH1 0x6 SLOAD PUSH1 0x1 PUSH1 0x1 PUSH1 0xA0 SHL SUB AND CALLER EQ PUSH2 0x7F8 JUMPI PUSH1 0x40 MLOAD PUSH3 0x461BCD PUSH1 0xE5 SHL DUP2 MSTORE PUSH1 0x4 ADD PUSH2 0x65F SWAP1 PUSH2 0x17F8 JUMP JUMPDEST PUSH2 0x6F7 DUP3 DUP3 PUSH2 0x141B JUMP JUMPDEST PUSH1 0x5 SLOAD PUSH1 0x1 PUSH1 0x1 PUSH1 0xA0 SHL SUB AND CALLER EQ PUSH2 0x82C JUMPI PUSH1 0x40 MLOAD PUSH3 0x461BCD PUSH1 0xE5 SHL DUP2 MSTORE PUSH1 0x4 ADD PUSH2 0x65F SWAP1 PUSH2 0x179F JUMP JUMPDEST PUSH1 0x1 PUSH1 0x1 PUSH1 0xA0 SHL SUB DUP2 AND PUSH2 0x872 JUMPI PUSH1 0x40 MLOAD PUSH3 0x461BCD PUSH1 0xE5 SHL DUP2 MSTORE PUSH1 0x20 PUSH1 0x4 DUP3 ADD MSTORE PUSH1 0xD PUSH1 0x24 DUP3 ADD MSTORE PUSH13 0x7A65726F206164647265737321 PUSH1 0x98 SHL PUSH1 0x44 DUP3 ADD MSTORE PUSH1 0x64 ADD PUSH2 0x65F JUMP JUMPDEST PUSH1 0x40 MLOAD PUSH1 0x1 PUSH1 0x1 PUSH1 0xA0 SHL SUB DUP3 AND DUP2 MSTORE PUSH32 0xE605AC02EA219003EC58FC9CF4D4B3C5F2D62EC39807B1C63886DDD47A6FCD6E SWAP1 PUSH1 0x20 ADD PUSH1 0x40 MLOAD DUP1 SWAP2 SUB SWAP1 LOG1 PUSH1 0x6 DUP1 SLOAD PUSH1 0x1 PUSH1 0x1 PUSH1 0xA0 SHL SUB NOT AND PUSH1 0x1 PUSH1 0x1 PUSH1 0xA0 SHL SUB SWAP3 SWAP1 SWAP3 AND SWAP2 SWAP1 SWAP2 OR SWAP1 SSTORE JUMP JUMPDEST PUSH1 0x60 PUSH1 0x4 DUP1 SLOAD PUSH2 0x574 SWAP1 PUSH2 0x1765 JUMP JUMPDEST PUSH1 0x0 CALLER DUP2 PUSH2 0x8ED DUP3 DUP7 PUSH2 0xBA3 JUMP JUMPDEST SWAP1 POP DUP4 DUP2 LT ISZERO PUSH2 0x94D JUMPI PUSH1 0x40 MLOAD PUSH3 0x461BCD PUSH1 0xE5 SHL DUP2 MSTORE PUSH1 0x20 PUSH1 0x4 DUP3 ADD MSTORE PUSH1 0x25 PUSH1 0x24 DUP3 ADD MSTORE PUSH32 0x45524332303A2064656372656173656420616C6C6F77616E63652062656C6F77 PUSH1 0x44 DUP3 ADD MSTORE PUSH5 0x207A65726F PUSH1 0xD8 SHL PUSH1 0x64 DUP3 ADD MSTORE PUSH1 0x84 ADD PUSH2 0x65F JUMP JUMPDEST PUSH2 0x62A DUP3 DUP7 DUP7 DUP5 SUB PUSH2 0xFC6 JUMP JUMPDEST PUSH1 0x0 CALLER PUSH2 0x605 DUP2 DUP6 DUP6 PUSH2 0x1164 JUMP JUMPDEST PUSH1 0x5 SLOAD PUSH1 0x1 PUSH1 0x1 PUSH1 0xA0 SHL SUB AND CALLER EQ PUSH2 0x992 JUMPI PUSH1 0x40 MLOAD PUSH3 0x461BCD PUSH1 0xE5 SHL DUP2 MSTORE PUSH1 0x4 ADD PUSH2 0x65F SWAP1 PUSH2 0x179F JUMP JUMPDEST DUP3 SELFBALANCE LT ISZERO PUSH2 0x99F JUMPI PUSH1 0x0 DUP1 REVERT JUMPDEST PUSH1 0x0 PUSH2 0x9AC DUP4 PUSH1 0xA PUSH2 0x192F JUMP JUMPDEST PUSH1 0x40 DUP1 MLOAD DUP7 DUP2 MSTORE PUSH1 0x20 DUP2 ADD DUP7 SWAP1 MSTORE PUSH1 0x1 PUSH1 0x1 PUSH1 0xA0 SHL SUB DUP6 AND DUP2 DUP4 ADD MSTORE SWAP1 MLOAD SWAP2 SWAP3 POP PUSH32 0x4508977418B95BAC209196E03356692C2D8F47957DEC1C15AF1A44CC40D39A04 SWAP2 SWAP1 DUP2 SWAP1 SUB PUSH1 0x60 ADD SWAP1 LOG1 PUSH1 0x1 PUSH1 0x1 PUSH1 0xA0 SHL SUB DUP3 AND PUSH2 0x8FC PUSH2 0xA0F DUP4 DUP8 PUSH2 0x193B JUMP JUMPDEST PUSH1 0x40 MLOAD DUP2 ISZERO SWAP1 SWAP3 MUL SWAP2 PUSH1 0x0 DUP2 DUP2 DUP2 DUP6 DUP9 DUP9 CALL SWAP4 POP POP POP POP ISZERO DUP1 ISZERO PUSH2 0xA37 JUMPI RETURNDATASIZE PUSH1 0x0 DUP1 RETURNDATACOPY RETURNDATASIZE PUSH1 0x0 REVERT JUMPDEST POP POP POP POP POP JUMP JUMPDEST PUSH1 0x5 SLOAD PUSH1 0x1 PUSH1 0x1 PUSH1 0xA0 SHL SUB AND CALLER EQ PUSH2 0xA68 JUMPI PUSH1 0x40 MLOAD PUSH3 0x461BCD PUSH1 0xE5 SHL DUP2 MSTORE PUSH1 0x4 ADD PUSH2 0x65F SWAP1 PUSH2 0x179F JUMP JUMPDEST PUSH1 0x1 PUSH1 0x1 PUSH1 0xA0 SHL SUB DUP5 AND PUSH2 0xAAE JUMPI PUSH1 0x40 MLOAD PUSH3 0x461BCD PUSH1 0xE5 SHL DUP2 MSTORE PUSH1 0x20 PUSH1 0x4 DUP3 ADD MSTORE PUSH1 0xD PUSH1 0x24 DUP3 ADD MSTORE PUSH13 0x61646472657373207A65726F21 PUSH1 0x98 SHL PUSH1 0x44 DUP3 ADD MSTORE PUSH1 0x64 ADD PUSH2 0x65F JUMP JUMPDEST PUSH1 0x0 PUSH2 0xABB DUP4 PUSH1 0xA PUSH2 0x192F JUMP JUMPDEST PUSH1 0x40 DUP1 MLOAD PUSH1 0x1 PUSH1 0x1 PUSH1 0xA0 SHL SUB DUP9 DUP2 AND DUP3 MSTORE PUSH1 0x20 DUP3 ADD DUP9 SWAP1 MSTORE DUP2 DUP4 ADD DUP8 SWAP1 MSTORE DUP6 AND PUSH1 0x60 DUP3 ADD MSTORE SWAP1 MLOAD SWAP2 SWAP3 POP DUP7 SWAP2 PUSH32 0x206CA7F97D46974ED97B981F879B17E9E1FE17EAD63770C806926D28AA5CBD5 SWAP2 DUP2 SWAP1 SUB PUSH1 0x80 ADD SWAP1 LOG1 PUSH1 0x1 PUSH1 0x1 PUSH1 0xA0 SHL SUB DUP2 AND PUSH4 0xA9059CBB DUP5 PUSH2 0xB2B DUP6 DUP10 PUSH2 0x193B JUMP JUMPDEST PUSH1 0x40 MLOAD PUSH1 0x1 PUSH1 0x1 PUSH1 0xE0 SHL SUB NOT PUSH1 0xE0 DUP6 SWAP1 SHL AND DUP2 MSTORE PUSH1 0x1 PUSH1 0x1 PUSH1 0xA0 SHL SUB SWAP1 SWAP3 AND PUSH1 0x4 DUP4 ADD MSTORE PUSH1 0x24 DUP3 ADD MSTORE PUSH1 0x44 ADD PUSH1 0x20 PUSH1 0x40 MLOAD DUP1 DUP4 SUB DUP2 PUSH1 0x0 DUP8 GAS CALL ISZERO DUP1 ISZERO PUSH2 0xB76 JUMPI RETURNDATASIZE PUSH1 0x0 DUP1 RETURNDATACOPY RETURNDATASIZE PUSH1 0x0 REVERT JUMPDEST POP POP POP POP PUSH1 0x40 MLOAD RETURNDATASIZE PUSH1 0x1F NOT PUSH1 0x1F DUP3 ADD AND DUP3 ADD DUP1 PUSH1 0x40 MSTORE POP DUP2 ADD SWAP1 PUSH2 0xB9A SWAP2 SWAP1 PUSH2 0x195A JUMP JUMPDEST POP POP POP POP POP POP POP JUMP JUMPDEST PUSH1 0x1 PUSH1 0x1 PUSH1 0xA0 SHL SUB SWAP2 DUP3 AND PUSH1 0x0 SWAP1 DUP2 MSTORE PUSH1 0x1 PUSH1 0x20 SWAP1 DUP2 MSTORE PUSH1 0x40 DUP1 DUP4 KECCAK256 SWAP4 SWAP1 SWAP5 AND DUP3 MSTORE SWAP2 SWAP1 SWAP2 MSTORE KECCAK256 SLOAD SWAP1 JUMP JUMPDEST PUSH1 0x5 SLOAD PUSH1 0x1 PUSH1 0x1 PUSH1 0xA0 SHL SUB AND CALLER EQ PUSH2 0xBF8 JUMPI PUSH1 0x40 MLOAD PUSH3 0x461BCD PUSH1 0xE5 SHL DUP2 MSTORE PUSH1 0x4 ADD PUSH2 0x65F SWAP1 PUSH2 0x179F JUMP JUMPDEST DUP2 ISZERO DUP1 ISZERO SWAP1 PUSH2 0xC06 JUMPI POP DUP1 ISZERO ISZERO JUMPDEST PUSH2 0xC3A JUMPI PUSH1 0x40 MLOAD PUSH3 0x461BCD PUSH1 0xE5 SHL DUP2 MSTORE PUSH1 0x20 PUSH1 0x4 DUP3 ADD MSTORE PUSH1 0x5 PUSH1 0x24 DUP3 ADD MSTORE PUSH5 0x5A65726F21 PUSH1 0xD8 SHL PUSH1 0x44 DUP3 ADD MSTORE PUSH1 0x64 ADD PUSH2 0x65F JUMP JUMPDEST PUSH1 0xD DUP3 SWAP1 SSTORE PUSH1 0xB SLOAD PUSH2 0xC4C SWAP1 DUP3 PUSH2 0x193B JUMP JUMPDEST PUSH1 0xC SSTORE PUSH1 0x40 DUP1 MLOAD DUP4 DUP2 MSTORE PUSH1 0x20 DUP2 ADD DUP4 SWAP1 MSTORE PUSH32 0x3B06FFD21BEDFB2C375D7B1BCF74CA4FE1AFE205699E39610B3ACED7ADF6B9E9 SWAP2 ADD PUSH1 0x40 MLOAD DUP1 SWAP2 SUB SWAP1 LOG1 POP POP JUMP JUMPDEST PUSH1 0x0 PUSH1 0xB SLOAD PUSH1 0xE SLOAD PUSH2 0xC9E SWAP2 SWAP1 PUSH2 0x193B JUMP JUMPDEST CALLER PUSH1 0x0 SWAP1 DUP2 MSTORE PUSH1 0x20 DUP2 SWAP1 MSTORE PUSH1 0x40 SWAP1 KECCAK256 SLOAD GT ISZERO PUSH2 0xD08 JUMPI PUSH1 0x40 MLOAD PUSH3 0x461BCD PUSH1 0xE5 SHL DUP2 MSTORE PUSH1 0x20 PUSH1 0x4 DUP3 ADD MSTORE PUSH1 0x23 PUSH1 0x24 DUP3 ADD MSTORE PUSH32 0x596F75207265616368656420796F757220707269766174652073616C65206C69 PUSH1 0x44 DUP3 ADD MSTORE PUSH3 0x1B5A5D PUSH1 0xEA SHL PUSH1 0x64 DUP3 ADD MSTORE PUSH1 0x84 ADD PUSH2 0x65F JUMP JUMPDEST NUMBER PUSH1 0x7 SLOAD GT ISZERO DUP1 ISZERO PUSH2 0xD1C JUMPI POP PUSH1 0x8 SLOAD NUMBER GT ISZERO JUMPDEST PUSH2 0xD7C JUMPI PUSH1 0x40 MLOAD PUSH3 0x461BCD PUSH1 0xE5 SHL DUP2 MSTORE PUSH1 0x20 PUSH1 0x4 DUP3 ADD MSTORE PUSH1 0x2B PUSH1 0x24 DUP3 ADD MSTORE PUSH32 0x507269766174652053616C652068617320656E646564206F7220646964206E6F PUSH1 0x44 DUP3 ADD MSTORE PUSH11 0x1D081CDD185C9D081E595D PUSH1 0xAA SHL PUSH1 0x64 DUP3 ADD MSTORE PUSH1 0x84 ADD PUSH2 0x65F JUMP JUMPDEST PUSH1 0xD SLOAD CALLVALUE SWAP1 PUSH1 0x0 SWAP1 DUP3 LT DUP1 ISZERO SWAP1 PUSH2 0xD95 JUMPI POP PUSH1 0xC SLOAD DUP3 GT ISZERO JUMPDEST PUSH2 0xDF0 JUMPI PUSH1 0x40 MLOAD PUSH3 0x461BCD PUSH1 0xE5 SHL DUP2 MSTORE PUSH1 0x20 PUSH1 0x4 DUP3 ADD MSTORE PUSH1 0x26 PUSH1 0x24 DUP3 ADD MSTORE PUSH32 0x4C657373207468616E204D696E696D756D206F72204D6F7265207468616E204D PUSH1 0x44 DUP3 ADD MSTORE PUSH6 0x6178696D756D PUSH1 0xD0 SHL PUSH1 0x64 DUP3 ADD MSTORE PUSH1 0x84 ADD PUSH2 0x65F JUMP JUMPDEST PUSH2 0xE17 PUSH8 0xDE0B6B3A7640000 PUSH2 0xE11 DUP5 PUSH1 0xA SLOAD PUSH2 0x1430 SWAP1 SWAP2 SWAP1 PUSH4 0xFFFFFFFF AND JUMP JUMPDEST SWAP1 PUSH2 0xFB3 JUMP JUMPDEST PUSH1 0x9 DUP1 SLOAD SWAP2 SWAP3 POP PUSH1 0x0 PUSH2 0xE29 DUP4 PUSH2 0x197C JUMP JUMPDEST SWAP2 SWAP1 POP SSTORE POP PUSH2 0xE39 ADDRESS CALLER DUP4 PUSH2 0x1164 JUMP JUMPDEST PUSH1 0xA SLOAD PUSH1 0x40 DUP1 MLOAD DUP4 DUP2 MSTORE PUSH1 0x20 DUP2 ADD SWAP3 SWAP1 SWAP3 MSTORE PUSH32 0xB887E151DBFCC06B4CE4F67F9BBEDAEB16AB224E34C6668858D0310C6D18FFC3 SWAP2 ADD PUSH1 0x40 MLOAD DUP1 SWAP2 SUB SWAP1 LOG1 POP PUSH1 0x1 SWAP4 SWAP3 POP POP POP JUMP JUMPDEST PUSH1 0x5 SLOAD PUSH1 0x1 PUSH1 0x1 PUSH1 0xA0 SHL SUB AND CALLER EQ PUSH2 0xEAA JUMPI PUSH1 0x40 MLOAD PUSH3 0x461BCD PUSH1 0xE5 SHL DUP2 MSTORE PUSH1 0x4 ADD PUSH2 0x65F SWAP1 PUSH2 0x179F JUMP JUMPDEST PUSH1 0x1 PUSH1 0x1 PUSH1 0xA0 SHL SUB DUP2 AND PUSH2 0xEF0 JUMPI PUSH1 0x40 MLOAD PUSH3 0x461BCD PUSH1 0xE5 SHL DUP2 MSTORE PUSH1 0x20 PUSH1 0x4 DUP3 ADD MSTORE PUSH1 0xD PUSH1 0x24 DUP3 ADD MSTORE PUSH13 0x61646472657373207A65726F21 PUSH1 0x98 SHL PUSH1 0x44 DUP3 ADD MSTORE PUSH1 0x64 ADD PUSH2 0x65F JUMP JUMPDEST PUSH1 0x5 DUP1 SLOAD PUSH1 0x1 PUSH1 0x1 PUSH1 0xA0 SHL SUB NOT AND PUSH1 0x1 PUSH1 0x1 PUSH1 0xA0 SHL SUB DUP4 AND SWAP1 DUP2 OR SWAP1 SWAP2 SSTORE PUSH1 0x40 MLOAD DUP2 SWAP1 PUSH32 0x8BE0079C531659141344CD1FD0A4F28419497F9722A3DAAFE3B4186F6B6457E0 SWAP1 PUSH1 0x0 SWAP1 LOG3 POP JUMP JUMPDEST PUSH1 0x5 SLOAD PUSH1 0x1 PUSH1 0x1 PUSH1 0xA0 SHL SUB AND CALLER EQ PUSH2 0xF66 JUMPI PUSH1 0x40 MLOAD PUSH3 0x461BCD PUSH1 0xE5 SHL DUP2 MSTORE PUSH1 0x4 ADD PUSH2 0x65F SWAP1 PUSH2 0x179F JUMP JUMPDEST DUP2 ISZERO DUP1 ISZERO SWAP1 PUSH2 0xF74 JUMPI POP DUP1 ISZERO ISZERO JUMPDEST PUSH2 0xFA8 JUMPI PUSH1 0x40 MLOAD PUSH3 0x461BCD PUSH1 0xE5 SHL DUP2 MSTORE PUSH1 0x20 PUSH1 0x4 DUP3 ADD MSTORE PUSH1 0x5 PUSH1 0x24 DUP3 ADD MSTORE PUSH5 0x5A65726F21 PUSH1 0xD8 SHL PUSH1 0x44 DUP3 ADD MSTORE PUSH1 0x64 ADD PUSH2 0x65F JUMP JUMPDEST PUSH1 0x8 SWAP2 SWAP1 SWAP2 SSTORE PUSH1 0xA SSTORE JUMP JUMPDEST PUSH1 0x0 PUSH2 0xFBF DUP3 DUP5 PUSH2 0x1995 JUMP JUMPDEST SWAP4 SWAP3 POP POP POP JUMP JUMPDEST PUSH1 0x1 PUSH1 0x1 PUSH1 0xA0 SHL SUB DUP4 AND PUSH2 0x1028 JUMPI PUSH1 0x40 MLOAD PUSH3 0x461BCD PUSH1 0xE5 SHL DUP2 MSTORE PUSH1 0x20 PUSH1 0x4 DUP3 ADD MSTORE PUSH1 0x24 DUP1 DUP3 ADD MSTORE PUSH32 0x45524332303A20617070726F76652066726F6D20746865207A65726F20616464 PUSH1 0x44 DUP3 ADD MSTORE PUSH4 0x72657373 PUSH1 0xE0 SHL PUSH1 0x64 DUP3 ADD MSTORE PUSH1 0x84 ADD PUSH2 0x65F JUMP JUMPDEST PUSH1 0x1 PUSH1 0x1 PUSH1 0xA0 SHL SUB DUP3 AND PUSH2 0x1089 JUMPI PUSH1 0x40 MLOAD PUSH3 0x461BCD PUSH1 0xE5 SHL DUP2 MSTORE PUSH1 0x20 PUSH1 0x4 DUP3 ADD MSTORE PUSH1 0x22 PUSH1 0x24 DUP3 ADD MSTORE PUSH32 0x45524332303A20617070726F766520746F20746865207A65726F206164647265 PUSH1 0x44 DUP3 ADD MSTORE PUSH2 0x7373 PUSH1 0xF0 SHL PUSH1 0x64 DUP3 ADD MSTORE PUSH1 0x84 ADD PUSH2 0x65F JUMP JUMPDEST PUSH1 0x1 PUSH1 0x1 PUSH1 0xA0 SHL SUB DUP4 DUP2 AND PUSH1 0x0 DUP2 DUP2 MSTORE PUSH1 0x1 PUSH1 0x20 SWAP1 DUP2 MSTORE PUSH1 0x40 DUP1 DUP4 KECCAK256 SWAP5 DUP8 AND DUP1 DUP5 MSTORE SWAP5 DUP3 MSTORE SWAP2 DUP3 SWAP1 KECCAK256 DUP6 SWAP1 SSTORE SWAP1 MLOAD DUP5 DUP2 MSTORE PUSH32 0x8C5BE1E5EBEC7D5BD14F71427D1E84F3DD0314C0F7B2291E5B200AC8C7C3B925 SWAP2 ADD PUSH1 0x40 MLOAD DUP1 SWAP2 SUB SWAP1 LOG3 POP POP POP JUMP JUMPDEST PUSH1 0x0 PUSH2 0x10F6 DUP5 DUP5 PUSH2 0xBA3 JUMP JUMPDEST SWAP1 POP PUSH1 0x0 NOT DUP2 EQ PUSH2 0x115E JUMPI DUP2 DUP2 LT ISZERO PUSH2 0x1151 JUMPI PUSH1 0x40 MLOAD PUSH3 0x461BCD PUSH1 0xE5 SHL DUP2 MSTORE PUSH1 0x20 PUSH1 0x4 DUP3 ADD MSTORE PUSH1 0x1D PUSH1 0x24 DUP3 ADD MSTORE PUSH32 0x45524332303A20696E73756666696369656E7420616C6C6F77616E6365000000 PUSH1 0x44 DUP3 ADD MSTORE PUSH1 0x64 ADD PUSH2 0x65F JUMP JUMPDEST PUSH2 0x115E DUP5 DUP5 DUP5 DUP5 SUB PUSH2 0xFC6 JUMP JUMPDEST POP POP POP POP JUMP JUMPDEST PUSH1 0x1 PUSH1 0x1 PUSH1 0xA0 SHL SUB DUP4 AND PUSH2 0x11C8 JUMPI PUSH1 0x40 MLOAD PUSH3 0x461BCD PUSH1 0xE5 SHL DUP2 MSTORE PUSH1 0x20 PUSH1 0x4 DUP3 ADD MSTORE PUSH1 0x25 PUSH1 0x24 DUP3 ADD MSTORE PUSH32 0x45524332303A207472616E736665722066726F6D20746865207A65726F206164 PUSH1 0x44 DUP3 ADD MSTORE PUSH5 0x6472657373 PUSH1 0xD8 SHL PUSH1 0x64 DUP3 ADD MSTORE PUSH1 0x84 ADD PUSH2 0x65F JUMP JUMPDEST PUSH1 0x1 PUSH1 0x1 PUSH1 0xA0 SHL SUB DUP3 AND PUSH2 0x122A JUMPI PUSH1 0x40 MLOAD PUSH3 0x461BCD PUSH1 0xE5 SHL DUP2 MSTORE PUSH1 0x20 PUSH1 0x4 DUP3 ADD MSTORE PUSH1 0x23 PUSH1 0x24 DUP3 ADD MSTORE PUSH32 0x45524332303A207472616E7366657220746F20746865207A65726F2061646472 PUSH1 0x44 DUP3 ADD MSTORE PUSH3 0x657373 PUSH1 0xE8 SHL PUSH1 0x64 DUP3 ADD MSTORE PUSH1 0x84 ADD PUSH2 0x65F JUMP JUMPDEST PUSH1 0x1 PUSH1 0x1 PUSH1 0xA0 SHL SUB DUP4 AND PUSH1 0x0 SWAP1 DUP2 MSTORE PUSH1 0x20 DUP2 SWAP1 MSTORE PUSH1 0x40 SWAP1 KECCAK256 SLOAD DUP2 DUP2 LT ISZERO PUSH2 0x12A2 JUMPI PUSH1 0x40 MLOAD PUSH3 0x461BCD PUSH1 0xE5 SHL DUP2 MSTORE PUSH1 0x20 PUSH1 0x4 DUP3 ADD MSTORE PUSH1 0x26 PUSH1 0x24 DUP3 ADD MSTORE PUSH32 0x45524332303A207472616E7366657220616D6F756E7420657863656564732062 PUSH1 0x44 DUP3 ADD MSTORE PUSH6 0x616C616E6365 PUSH1 0xD0 SHL PUSH1 0x64 DUP3 ADD MSTORE PUSH1 0x84 ADD PUSH2 0x65F JUMP JUMPDEST PUSH1 0x1 PUSH1 0x1 PUSH1 0xA0 SHL SUB DUP1 DUP6 AND PUSH1 0x0 SWAP1 DUP2 MSTORE PUSH1 0x20 DUP2 SWAP1 MSTORE PUSH1 0x40 DUP1 DUP3 KECCAK256 DUP6 DUP6 SUB SWAP1 SSTORE SWAP2 DUP6 AND DUP2 MSTORE SWAP1 DUP2 KECCAK256 DUP1 SLOAD DUP5 SWAP3 SWAP1 PUSH2 0x12D9 SWAP1 DUP5 SWAP1 PUSH2 0x17E0 JUMP JUMPDEST SWAP3 POP POP DUP2 SWAP1 SSTORE POP DUP3 PUSH1 0x1 PUSH1 0x1 PUSH1 0xA0 SHL SUB AND DUP5 PUSH1 0x1 PUSH1 0x1 PUSH1 0xA0 SHL SUB AND PUSH32 0xDDF252AD1BE2C89B69C2B068FC378DAA952BA7F163C4A11628F55A4DF523B3EF DUP5 PUSH1 0x40 MLOAD PUSH2 0x1325 SWAP2 DUP2 MSTORE PUSH1 0x20 ADD SWAP1 JUMP JUMPDEST PUSH1 0x40 MLOAD DUP1 SWAP2 SUB SWAP1 LOG3 PUSH2 0x115E JUMP JUMPDEST PUSH1 0x1 PUSH1 0x1 PUSH1 0xA0 SHL SUB DUP3 AND PUSH2 0x1388 JUMPI PUSH1 0x40 MLOAD PUSH3 0x461BCD PUSH1 0xE5 SHL DUP2 MSTORE PUSH1 0x20 PUSH1 0x4 DUP3 ADD MSTORE PUSH1 0x1F PUSH1 0x24 DUP3 ADD MSTORE PUSH32 0x45524332303A206D696E7420746F20746865207A65726F206164647265737300 PUSH1 0x44 DUP3 ADD MSTORE PUSH1 0x64 ADD PUSH2 0x65F JUMP JUMPDEST DUP1 PUSH1 0x2 PUSH1 0x0 DUP3 DUP3 SLOAD PUSH2 0x139A SWAP2 SWAP1 PUSH2 0x17E0 JUMP JUMPDEST SWAP1 SWAP2 SSTORE POP POP PUSH1 0x1 PUSH1 0x1 PUSH1 0xA0 SHL SUB DUP3 AND PUSH1 0x0 SWAP1 DUP2 MSTORE PUSH1 0x20 DUP2 SWAP1 MSTORE PUSH1 0x40 DUP2 KECCAK256 DUP1 SLOAD DUP4 SWAP3 SWAP1 PUSH2 0x13C7 SWAP1 DUP5 SWAP1 PUSH2 0x17E0 JUMP JUMPDEST SWAP1 SWAP2 SSTORE POP POP PUSH1 0x40 MLOAD DUP2 DUP2 MSTORE PUSH1 0x1 PUSH1 0x1 PUSH1 0xA0 SHL SUB DUP4 AND SWAP1 PUSH1 0x0 SWAP1 PUSH32 0xDDF252AD1BE2C89B69C2B068FC378DAA952BA7F163C4A11628F55A4DF523B3EF SWAP1 PUSH1 0x20 ADD PUSH1 0x40 MLOAD DUP1 SWAP2 SUB SWAP1 LOG3 POP POP JUMP JUMPDEST PUSH2 0x72E CALLER DUP3 PUSH2 0x143C JUMP JUMPDEST PUSH2 0x1426 DUP3 CALLER DUP4 PUSH2 0x10EA JUMP JUMPDEST PUSH2 0x6F7 DUP3 DUP3 PUSH2 0x143C JUMP JUMPDEST PUSH1 0x0 PUSH2 0xFBF DUP3 DUP5 PUSH2 0x193B JUMP JUMPDEST PUSH1 0x1 PUSH1 0x1 PUSH1 0xA0 SHL SUB DUP3 AND PUSH2 0x149C JUMPI PUSH1 0x40 MLOAD PUSH3 0x461BCD PUSH1 0xE5 SHL DUP2 MSTORE PUSH1 0x20 PUSH1 0x4 DUP3 ADD MSTORE PUSH1 0x21 PUSH1 0x24 DUP3 ADD MSTORE PUSH32 0x45524332303A206275726E2066726F6D20746865207A65726F20616464726573 PUSH1 0x44 DUP3 ADD MSTORE PUSH1 0x73 PUSH1 0xF8 SHL PUSH1 0x64 DUP3 ADD MSTORE PUSH1 0x84 ADD PUSH2 0x65F JUMP JUMPDEST PUSH1 0x1 PUSH1 0x1 PUSH1 0xA0 SHL SUB DUP3 AND PUSH1 0x0 SWAP1 DUP2 MSTORE PUSH1 0x20 DUP2 SWAP1 MSTORE PUSH1 0x40 SWAP1 KECCAK256 SLOAD DUP2 DUP2 LT ISZERO PUSH2 0x1510 JUMPI PUSH1 0x40 MLOAD PUSH3 0x461BCD PUSH1 0xE5 SHL DUP2 MSTORE PUSH1 0x20 PUSH1 0x4 DUP3 ADD MSTORE PUSH1 0x22 PUSH1 0x24 DUP3 ADD MSTORE PUSH32 0x45524332303A206275726E20616D6F756E7420657863656564732062616C616E PUSH1 0x44 DUP3 ADD MSTORE PUSH2 0x6365 PUSH1 0xF0 SHL PUSH1 0x64 DUP3 ADD MSTORE PUSH1 0x84 ADD PUSH2 0x65F JUMP JUMPDEST PUSH1 0x1 PUSH1 0x1 PUSH1 0xA0 SHL SUB DUP4 AND PUSH1 0x0 SWAP1 DUP2 MSTORE PUSH1 0x20 DUP2 SWAP1 MSTORE PUSH1 0x40 DUP2 KECCAK256 DUP4 DUP4 SUB SWAP1 SSTORE PUSH1 0x2 DUP1 SLOAD DUP5 SWAP3 SWAP1 PUSH2 0x153F SWAP1 DUP5 SWAP1 PUSH2 0x19B7 JUMP JUMPDEST SWAP1 SWAP2 SSTORE POP POP PUSH1 0x40 MLOAD DUP3 DUP2 MSTORE PUSH1 0x0 SWAP1 PUSH1 0x1 PUSH1 0x1 PUSH1 0xA0 SHL SUB DUP6 AND SWAP1 PUSH32 0xDDF252AD1BE2C89B69C2B068FC378DAA952BA7F163C4A11628F55A4DF523B3EF SWAP1 PUSH1 0x20 ADD PUSH1 0x40 MLOAD DUP1 SWAP2 SUB SWAP1 LOG3 POP POP POP JUMP JUMPDEST PUSH1 0x0 PUSH1 0x20 DUP1 DUP4 MSTORE DUP4 MLOAD DUP1 DUP3 DUP6 ADD MSTORE PUSH1 0x0 JUMPDEST DUP2 DUP2 LT ISZERO PUSH2 0x15B7 JUMPI DUP6 DUP2 ADD DUP4 ADD MLOAD DUP6 DUP3 ADD PUSH1 0x40 ADD MSTORE DUP3 ADD PUSH2 0x159B JUMP JUMPDEST DUP2 DUP2 GT ISZERO PUSH2 0x15C9 JUMPI PUSH1 0x0 PUSH1 0x40 DUP4 DUP8 ADD ADD MSTORE JUMPDEST POP PUSH1 0x1F ADD PUSH1 0x1F NOT AND SWAP3 SWAP1 SWAP3 ADD PUSH1 0x40 ADD SWAP4 SWAP3 POP POP POP JUMP JUMPDEST DUP1 CALLDATALOAD PUSH1 0x1 PUSH1 0x1 PUSH1 0xA0 SHL SUB DUP2 AND DUP2 EQ PUSH2 0x15F6 JUMPI PUSH1 0x0 DUP1 REVERT JUMPDEST SWAP2 SWAP1 POP JUMP JUMPDEST PUSH1 0x0 DUP1 PUSH1 0x40 DUP4 DUP6 SUB SLT ISZERO PUSH2 0x160E JUMPI PUSH1 0x0 DUP1 REVERT JUMPDEST PUSH2 0x1617 DUP4 PUSH2 0x15DF JUMP JUMPDEST SWAP5 PUSH1 0x20 SWAP4 SWAP1 SWAP4 ADD CALLDATALOAD SWAP4 POP POP POP JUMP JUMPDEST PUSH1 0x0 DUP1 PUSH1 0x0 PUSH1 0x60 DUP5 DUP7 SUB SLT ISZERO PUSH2 0x163A JUMPI PUSH1 0x0 DUP1 REVERT JUMPDEST PUSH2 0x1643 DUP5 PUSH2 0x15DF JUMP JUMPDEST SWAP3 POP PUSH2 0x1651 PUSH1 0x20 DUP6 ADD PUSH2 0x15DF JUMP JUMPDEST SWAP2 POP PUSH1 0x40 DUP5 ADD CALLDATALOAD SWAP1 POP SWAP3 POP SWAP3 POP SWAP3 JUMP JUMPDEST PUSH1 0x0 PUSH1 0x20 DUP3 DUP5 SUB SLT ISZERO PUSH2 0x1673 JUMPI PUSH1 0x0 DUP1 REVERT JUMPDEST POP CALLDATALOAD SWAP2 SWAP1 POP JUMP JUMPDEST PUSH1 0x0 PUSH1 0x20 DUP3 DUP5 SUB SLT ISZERO PUSH2 0x168C JUMPI PUSH1 0x0 DUP1 REVERT JUMPDEST PUSH2 0xFBF DUP3 PUSH2 0x15DF JUMP JUMPDEST PUSH1 0x0 DUP1 PUSH1 0x0 PUSH1 0x60 DUP5 DUP7 SUB SLT ISZERO PUSH2 0x16AA JUMPI PUSH1 0x0 DUP1 REVERT JUMPDEST DUP4 CALLDATALOAD SWAP3 POP PUSH1 0x20 DUP5 ADD CALLDATALOAD SWAP2 POP PUSH2 0x16C1 PUSH1 0x40 DUP6 ADD PUSH2 0x15DF JUMP JUMPDEST SWAP1 POP SWAP3 POP SWAP3 POP SWAP3 JUMP JUMPDEST PUSH1 0x0 DUP1 PUSH1 0x0 DUP1 PUSH1 0x80 DUP6 DUP8 SUB SLT ISZERO PUSH2 0x16E0 JUMPI PUSH1 0x0 DUP1 REVERT JUMPDEST PUSH2 0x16E9 DUP6 PUSH2 0x15DF JUMP JUMPDEST SWAP4 POP PUSH1 0x20 DUP6 ADD CALLDATALOAD SWAP3 POP PUSH1 0x40 DUP6 ADD CALLDATALOAD SWAP2 POP PUSH2 0x1705 PUSH1 0x60 DUP7 ADD PUSH2 0x15DF JUMP JUMPDEST SWAP1 POP SWAP3 SWAP6 SWAP2 SWAP5 POP SWAP3 POP JUMP JUMPDEST PUSH1 0x0 DUP1 PUSH1 0x40 DUP4 DUP6 SUB SLT ISZERO PUSH2 0x1723 JUMPI PUSH1 0x0 DUP1 REVERT JUMPDEST PUSH2 0x172C DUP4 PUSH2 0x15DF JUMP JUMPDEST SWAP2 POP PUSH2 0x173A PUSH1 0x20 DUP5 ADD PUSH2 0x15DF JUMP JUMPDEST SWAP1 POP SWAP3 POP SWAP3 SWAP1 POP JUMP JUMPDEST PUSH1 0x0 DUP1 PUSH1 0x40 DUP4 DUP6 SUB SLT ISZERO PUSH2 0x1756 JUMPI PUSH1 0x0 DUP1 REVERT JUMPDEST POP POP DUP1 CALLDATALOAD SWAP3 PUSH1 0x20 SWAP1 SWAP2 ADD CALLDATALOAD SWAP2 POP JUMP JUMPDEST PUSH1 0x1 DUP2 DUP2 SHR SWAP1 DUP3 AND DUP1 PUSH2 0x1779 JUMPI PUSH1 0x7F DUP3 AND SWAP2 POP JUMPDEST PUSH1 0x20 DUP3 LT DUP2 SUB PUSH2 0x1799 JUMPI PUSH4 0x4E487B71 PUSH1 0xE0 SHL PUSH1 0x0 MSTORE PUSH1 0x22 PUSH1 0x4 MSTORE PUSH1 0x24 PUSH1 0x0 REVERT JUMPDEST POP SWAP2 SWAP1 POP JUMP JUMPDEST PUSH1 0x20 DUP1 DUP3 MSTORE PUSH1 0x11 SWAP1 DUP3 ADD MSTORE PUSH17 0x63616C6C6572206E6F74206F776E657221 PUSH1 0x78 SHL PUSH1 0x40 DUP3 ADD MSTORE PUSH1 0x60 ADD SWAP1 JUMP JUMPDEST PUSH4 0x4E487B71 PUSH1 0xE0 SHL PUSH1 0x0 MSTORE PUSH1 0x11 PUSH1 0x4 MSTORE PUSH1 0x24 PUSH1 0x0 REVERT JUMPDEST PUSH1 0x0 DUP3 NOT DUP3 GT ISZERO PUSH2 0x17F3 JUMPI PUSH2 0x17F3 PUSH2 0x17CA JUMP JUMPDEST POP ADD SWAP1 JUMP JUMPDEST PUSH1 0x20 DUP1 DUP3 MSTORE PUSH1 0x33 SWAP1 DUP3 ADD MSTORE PUSH32 0x6F6E6C7920627269646765206861732061636365737320746F20746869732063 PUSH1 0x40 DUP3 ADD MSTORE PUSH19 0x3434B632103A37B5B2B710333AB731BA34B7B7 PUSH1 0x69 SHL PUSH1 0x60 DUP3 ADD MSTORE PUSH1 0x80 ADD SWAP1 JUMP JUMPDEST PUSH1 0x1 DUP2 DUP2 JUMPDEST DUP1 DUP6 GT ISZERO PUSH2 0x1886 JUMPI DUP2 PUSH1 0x0 NOT DIV DUP3 GT ISZERO PUSH2 0x186C JUMPI PUSH2 0x186C PUSH2 0x17CA JUMP JUMPDEST DUP1 DUP6 AND ISZERO PUSH2 0x1879 JUMPI SWAP2 DUP2 MUL SWAP2 JUMPDEST SWAP4 DUP5 SHR SWAP4 SWAP1 DUP1 MUL SWAP1 PUSH2 0x1850 JUMP JUMPDEST POP SWAP3 POP SWAP3 SWAP1 POP JUMP JUMPDEST PUSH1 0x0 DUP3 PUSH2 0x189D JUMPI POP PUSH1 0x1 PUSH2 0x60B JUMP JUMPDEST DUP2 PUSH2 0x18AA JUMPI POP PUSH1 0x0 PUSH2 0x60B JUMP JUMPDEST DUP2 PUSH1 0x1 DUP2 EQ PUSH2 0x18C0 JUMPI PUSH1 0x2 DUP2 EQ PUSH2 0x18CA JUMPI PUSH2 0x18E6 JUMP JUMPDEST PUSH1 0x1 SWAP2 POP POP PUSH2 0x60B JUMP JUMPDEST PUSH1 0xFF DUP5 GT ISZERO PUSH2 0x18DB JUMPI PUSH2 0x18DB PUSH2 0x17CA JUMP JUMPDEST POP POP PUSH1 0x1 DUP3 SHL PUSH2 0x60B JUMP JUMPDEST POP PUSH1 0x20 DUP4 LT PUSH2 0x133 DUP4 LT AND PUSH1 0x4E DUP5 LT PUSH1 0xB DUP5 LT AND OR ISZERO PUSH2 0x1909 JUMPI POP DUP2 DUP2 EXP PUSH2 0x60B JUMP JUMPDEST PUSH2 0x1913 DUP4 DUP4 PUSH2 0x184B JUMP JUMPDEST DUP1 PUSH1 0x0 NOT DIV DUP3 GT ISZERO PUSH2 0x1927 JUMPI PUSH2 0x1927 PUSH2 0x17CA JUMP JUMPDEST MUL SWAP4 SWAP3 POP POP POP JUMP JUMPDEST PUSH1 0x0 PUSH2 0xFBF DUP4 DUP4 PUSH2 0x188E JUMP JUMPDEST PUSH1 0x0 DUP2 PUSH1 0x0 NOT DIV DUP4 GT DUP3 ISZERO ISZERO AND ISZERO PUSH2 0x1955 JUMPI PUSH2 0x1955 PUSH2 0x17CA JUMP JUMPDEST POP MUL SWAP1 JUMP JUMPDEST PUSH1 0x0 PUSH1 0x20 DUP3 DUP5 SUB SLT ISZERO PUSH2 0x196C JUMPI PUSH1 0x0 DUP1 REVERT JUMPDEST DUP2 MLOAD DUP1 ISZERO ISZERO DUP2 EQ PUSH2 0xFBF JUMPI PUSH1 0x0 DUP1 REVERT JUMPDEST PUSH1 0x0 PUSH1 0x1 DUP3 ADD PUSH2 0x198E JUMPI PUSH2 0x198E PUSH2 0x17CA JUMP JUMPDEST POP PUSH1 0x1 ADD SWAP1 JUMP JUMPDEST PUSH1 0x0 DUP3 PUSH2 0x19B2 JUMPI PUSH4 0x4E487B71 PUSH1 0xE0 SHL PUSH1 0x0 MSTORE PUSH1 0x12 PUSH1 0x4 MSTORE PUSH1 0x24 PUSH1 0x0 REVERT JUMPDEST POP DIV SWAP1 JUMP JUMPDEST PUSH1 0x0 DUP3 DUP3 LT ISZERO PUSH2 0x19C9 JUMPI PUSH2 0x19C9 PUSH2 0x17CA JUMP JUMPDEST POP SUB SWAP1 JUMP INVALID LOG2 PUSH5 0x6970667358 0x22 SLT KECCAK256 SWAP14 0xC7 DUP13 0x23 0xC2 PUSH12 0x4A7E1A8D367240374E6CC55F 0x28 0xCF 0xFC 0xC1 CHAINID 0xFB DUP15 0xBB PUSH14 0xC2857364264736F6C634300080F STOP CALLER "
		},
		"gasEstimates": {
			"creation": {
				"codeDepositCost": "1332000",
				"executionCost": "infinite",
				"totalCost": "infinite"
			},
			"external": {
				"allowance(address,address)": "infinite",
				"approve(address,uint256)": "24674",
				"balanceOf(address)": "2651",
				"bridge()": "2426",
				"burn(uint256)": "infinite",
				"burnFrom(address,uint256)": "infinite",
				"changeMinMaxPrivateSale(uint256,uint256)": "50250",
				"decimals()": "245",
				"decreaseAllowance(address,uint256)": "26995",
				"endSale()": "25535",
				"increaseAllowance(address,uint256)": "27094",
				"max()": "2384",
				"min()": "2405",
				"mint(address,uint256)": "infinite",
				"name()": "infinite",
				"privateLimit()": "2341",
				"privateSale(address)": "infinite",
				"setBridge(address)": "27889",
				"setPrivateLimit(uint256)": "25619",
				"startSale(uint256,uint256)": "46741",
				"symbol()": "infinite",
				"totalSupply()": "2372",
				"transfer(address,uint256)": "51253",
				"transferFrom(address,address,uint256)": "infinite",
				"transferOwnership(address)": "28332",
				"viewSale()": "8691",
				"withdrawalBNB(uint256,uint256,address)": "infinite",
				"withdrawalToken(address,uint256,uint256,address)": "infinite"
			}
		},
		"methodIdentifiers": {
			"allowance(address,address)": "dd62ed3e",
			"approve(address,uint256)": "095ea7b3",
			"balanceOf(address)": "70a08231",
			"bridge()": "e78cea92",
			"burn(uint256)": "42966c68",
			"burnFrom(address,uint256)": "79cc6790",
			"changeMinMaxPrivateSale(uint256,uint256)": "e181203a",
			"decimals()": "313ce567",
			"decreaseAllowance(address,uint256)": "a457c2d7",
			"endSale()": "380d831b",
			"increaseAllowance(address,uint256)": "39509351",
			"max()": "6ac5db19",
			"min()": "f8897945",
			"mint(address,uint256)": "40c10f19",
			"name()": "06fdde03",
			"privateLimit()": "3c3b7995",
			"privateSale(address)": "e7d53fcb",
			"setBridge(address)": "8dd14802",
			"setPrivateLimit(uint256)": "534b1442",
			"startSale(uint256,uint256)": "f4f3122e",
			"symbol()": "95d89b41",
			"totalSupply()": "18160ddd",
			"transfer(address,uint256)": "a9059cbb",
			"transferFrom(address,address,uint256)": "23b872dd",
			"transferOwnership(address)": "f2fde38b",
			"viewSale()": "4d1d03d1",
			"withdrawalBNB(uint256,uint256,address)": "adbc7cee",
			"withdrawalToken(address,uint256,uint256,address)": "b2938bee"
		}
	},
	"abi": [
		{
			"inputs": [
				{
					"internalType": "address",
					"name": "_bridge",
					"type": "address"
				}
			],
			"stateMutability": "payable",
			"type": "constructor"
		},
		{
			"anonymous": false,
			"inputs": [
				{
					"indexed": true,
					"internalType": "address",
					"name": "owner",
					"type": "address"
				},
				{
					"indexed": true,
					"internalType": "address",
					"name": "spender",
					"type": "address"
				},
				{
					"indexed": false,
					"internalType": "uint256",
					"name": "value",
					"type": "uint256"
				}
			],
			"name": "Approval",
			"type": "event"
		},
		{
			"anonymous": false,
			"inputs": [
				{
					"indexed": true,
					"internalType": "address",
					"name": "oldOwner",
					"type": "address"
				},
				{
					"indexed": true,
					"internalType": "address",
					"name": "newOwner",
					"type": "address"
				}
			],
			"name": "OwnershipTransferred",
			"type": "event"
		},
		{
			"anonymous": false,
			"inputs": [
				{
					"indexed": false,
					"internalType": "uint256",
					"name": "newLimit",
					"type": "uint256"
				}
			],
			"name": "PrivateLimit",
			"type": "event"
		},
		{
			"anonymous": false,
			"inputs": [
				{
					"indexed": false,
					"internalType": "uint256",
					"name": "Amount",
					"type": "uint256"
				},
				{
					"indexed": false,
					"internalType": "uint256",
					"name": "Price",
					"type": "uint256"
				}
			],
			"name": "PrivateSale",
			"type": "event"
		},
		{
			"anonymous": false,
			"inputs": [
				{
					"indexed": false,
					"internalType": "address",
					"name": "_bridge",
					"type": "address"
				}
			],
			"name": "SetBridge",
			"type": "event"
		},
		{
			"anonymous": false,
			"inputs": [
				{
					"indexed": true,
					"internalType": "address",
					"name": "from",
					"type": "address"
				},
				{
					"indexed": true,
					"internalType": "address",
					"name": "to",
					"type": "address"
				},
				{
					"indexed": false,
					"internalType": "uint256",
					"name": "value",
					"type": "uint256"
				}
			],
			"name": "Transfer",
			"type": "event"
		},
		{
			"anonymous": false,
			"inputs": [
				{
					"indexed": false,
					"internalType": "uint256",
					"name": "_amount",
					"type": "uint256"
				},
				{
					"indexed": false,
					"internalType": "uint256",
					"name": "decimal",
					"type": "uint256"
				},
				{
					"indexed": false,
					"internalType": "address",
					"name": "to",
					"type": "address"
				}
			],
			"name": "WithdrawalBNB",
			"type": "event"
		},
		{
			"anonymous": false,
			"inputs": [
				{
					"indexed": false,
					"internalType": "address",
					"name": "_tokenAddr",
					"type": "address"
				},
				{
					"indexed": false,
					"internalType": "uint256",
					"name": "_amount",
					"type": "uint256"
				},
				{
					"indexed": false,
					"internalType": "uint256",
					"name": "decimals",
					"type": "uint256"
				},
				{
					"indexed": false,
					"internalType": "address",
					"name": "to",
					"type": "address"
				}
			],
			"name": "WithdrawalToken",
			"type": "event"
		},
		{
			"anonymous": false,
			"inputs": [
				{
					"indexed": false,
					"internalType": "uint256",
					"name": "Min",
					"type": "uint256"
				},
				{
					"indexed": false,
					"internalType": "uint256",
					"name": "Max",
					"type": "uint256"
				}
			],
			"name": "minMax",
			"type": "event"
		},
		{
			"anonymous": false,
			"inputs": [
				{
					"indexed": false,
					"internalType": "uint256",
					"name": "Time",
					"type": "uint256"
				}
			],
			"name": "saleEnded",
			"type": "event"
		},
		{
			"anonymous": false,
			"inputs": [
				{
					"indexed": false,
					"internalType": "uint256",
					"name": "blockNumber",
					"type": "uint256"
				}
			],
			"name": "saleStarted",
			"type": "event"
		},
		{
			"inputs": [
				{
					"internalType": "address",
					"name": "owner",
					"type": "address"
				},
				{
					"internalType": "address",
					"name": "spender",
					"type": "address"
				}
			],
			"name": "allowance",
			"outputs": [
				{
					"internalType": "uint256",
					"name": "",
					"type": "uint256"
				}
			],
			"stateMutability": "view",
			"type": "function"
		},
		{
			"inputs": [
				{
					"internalType": "address",
					"name": "spender",
					"type": "address"
				},
				{
					"internalType": "uint256",
					"name": "amount",
					"type": "uint256"
				}
			],
			"name": "approve",
			"outputs": [
				{
					"internalType": "bool",
					"name": "",
					"type": "bool"
				}
			],
			"stateMutability": "nonpayable",
			"type": "function"
		},
		{
			"inputs": [
				{
					"internalType": "address",
					"name": "account",
					"type": "address"
				}
			],
			"name": "balanceOf",
			"outputs": [
				{
					"internalType": "uint256",
					"name": "",
					"type": "uint256"
				}
			],
			"stateMutability": "view",
			"type": "function"
		},
		{
			"inputs": [],
			"name": "bridge",
			"outputs": [
				{
					"internalType": "address",
					"name": "",
					"type": "address"
				}
			],
			"stateMutability": "view",
			"type": "function"
		},
		{
			"inputs": [
				{
					"internalType": "uint256",
					"name": "amount",
					"type": "uint256"
				}
			],
			"name": "burn",
			"outputs": [],
			"stateMutability": "nonpayable",
			"type": "function"
		},
		{
			"inputs": [
				{
					"internalType": "address",
					"name": "account",
					"type": "address"
				},
				{
					"internalType": "uint256",
					"name": "amount",
					"type": "uint256"
				}
			],
			"name": "burnFrom",
			"outputs": [],
			"stateMutability": "nonpayable",
			"type": "function"
		},
		{
			"inputs": [
				{
					"internalType": "uint256",
					"name": "minAmount",
					"type": "uint256"
				},
				{
					"internalType": "uint256",
					"name": "maxAmount",
					"type": "uint256"
				}
			],
			"name": "changeMinMaxPrivateSale",
			"outputs": [],
			"stateMutability": "nonpayable",
			"type": "function"
		},
		{
			"inputs": [],
			"name": "decimals",
			"outputs": [
				{
					"internalType": "uint8",
					"name": "",
					"type": "uint8"
				}
			],
			"stateMutability": "view",
			"type": "function"
		},
		{
			"inputs": [
				{
					"internalType": "address",
					"name": "spender",
					"type": "address"
				},
				{
					"internalType": "uint256",
					"name": "subtractedValue",
					"type": "uint256"
				}
			],
			"name": "decreaseAllowance",
			"outputs": [
				{
					"internalType": "bool",
					"name": "",
					"type": "bool"
				}
			],
			"stateMutability": "nonpayable",
			"type": "function"
		},
		{
			"inputs": [],
			"name": "endSale",
			"outputs": [],
			"stateMutability": "nonpayable",
			"type": "function"
		},
		{
			"inputs": [
				{
					"internalType": "address",
					"name": "spender",
					"type": "address"
				},
				{
					"internalType": "uint256",
					"name": "addedValue",
					"type": "uint256"
				}
			],
			"name": "increaseAllowance",
			"outputs": [
				{
					"internalType": "bool",
					"name": "",
					"type": "bool"
				}
			],
			"stateMutability": "nonpayable",
			"type": "function"
		},
		{
			"inputs": [],
			"name": "max",
			"outputs": [
				{
					"internalType": "uint256",
					"name": "",
					"type": "uint256"
				}
			],
			"stateMutability": "view",
			"type": "function"
		},
		{
			"inputs": [],
			"name": "min",
			"outputs": [
				{
					"internalType": "uint256",
					"name": "",
					"type": "uint256"
				}
			],
			"stateMutability": "view",
			"type": "function"
		},
		{
			"inputs": [
				{
					"internalType": "address",
					"name": "recipient",
					"type": "address"
				},
				{
					"internalType": "uint256",
					"name": "amount",
					"type": "uint256"
				}
			],
			"name": "mint",
			"outputs": [],
			"stateMutability": "nonpayable",
			"type": "function"
		},
		{
			"inputs": [],
			"name": "name",
			"outputs": [
				{
					"internalType": "string",
					"name": "",
					"type": "string"
				}
			],
			"stateMutability": "view",
			"type": "function"
		},
		{
			"inputs": [],
			"name": "privateLimit",
			"outputs": [
				{
					"internalType": "uint256",
					"name": "",
					"type": "uint256"
				}
			],
			"stateMutability": "view",
			"type": "function"
		},
		{
			"inputs": [
				{
					"internalType": "address",
					"name": "",
					"type": "address"
				}
			],
			"name": "privateSale",
			"outputs": [
				{
					"internalType": "bool",
					"name": "success",
					"type": "bool"
				}
			],
			"stateMutability": "payable",
			"type": "function"
		},
		{
			"inputs": [
				{
					"internalType": "address",
					"name": "_bridge",
					"type": "address"
				}
			],
			"name": "setBridge",
			"outputs": [],
			"stateMutability": "nonpayable",
			"type": "function"
		},
		{
			"inputs": [
				{
					"internalType": "uint256",
					"name": "_limit",
					"type": "uint256"
				}
			],
			"name": "setPrivateLimit",
			"outputs": [],
			"stateMutability": "nonpayable",
			"type": "function"
		},
		{
			"inputs": [
				{
					"internalType": "uint256",
					"name": "_sEBlock",
					"type": "uint256"
				},
				{
					"internalType": "uint256",
					"name": "_sPrice",
					"type": "uint256"
				}
			],
			"name": "startSale",
			"outputs": [],
			"stateMutability": "nonpayable",
			"type": "function"
		},
		{
			"inputs": [],
			"name": "symbol",
			"outputs": [
				{
					"internalType": "string",
					"name": "",
					"type": "string"
				}
			],
			"stateMutability": "view",
			"type": "function"
		},
		{
			"inputs": [],
			"name": "totalSupply",
			"outputs": [
				{
					"internalType": "uint256",
					"name": "",
					"type": "uint256"
				}
			],
			"stateMutability": "view",
			"type": "function"
		},
		{
			"inputs": [
				{
					"internalType": "address",
					"name": "to",
					"type": "address"
				},
				{
					"internalType": "uint256",
					"name": "amount",
					"type": "uint256"
				}
			],
			"name": "transfer",
			"outputs": [
				{
					"internalType": "bool",
					"name": "",
					"type": "bool"
				}
			],
			"stateMutability": "nonpayable",
			"type": "function"
		},
		{
			"inputs": [
				{
					"internalType": "address",
					"name": "from",
					"type": "address"
				},
				{
					"internalType": "address",
					"name": "to",
					"type": "address"
				},
				{
					"internalType": "uint256",
					"name": "amount",
					"type": "uint256"
				}
			],
			"name": "transferFrom",
			"outputs": [
				{
					"internalType": "bool",
					"name": "",
					"type": "bool"
				}
			],
			"stateMutability": "nonpayable",
			"type": "function"
		},
		{
			"inputs": [
				{
					"internalType": "address",
					"name": "_newOwner",
					"type": "address"
				}
			],
			"name": "transferOwnership",
			"outputs": [],
			"stateMutability": "nonpayable",
			"type": "function"
		},
		{
			"inputs": [],
			"name": "viewSale",
			"outputs": [
				{
					"internalType": "uint256",
					"name": "StartBlock",
					"type": "uint256"
				},
				{
					"internalType": "uint256",
					"name": "EndBlock",
					"type": "uint256"
				},
				{
					"internalType": "uint256",
					"name": "SaleCount",
					"type": "uint256"
				},
				{
					"internalType": "uint256",
					"name": "SalePrice",
					"type": "uint256"
				}
			],
			"stateMutability": "view",
			"type": "function"
		},
		{
			"inputs": [
				{
					"internalType": "uint256",
					"name": "_amount",
					"type": "uint256"
				},
				{
					"internalType": "uint256",
					"name": "decimal",
					"type": "uint256"
				},
				{
					"internalType": "address",
					"name": "to",
					"type": "address"
				}
			],
			"name": "withdrawalBNB",
			"outputs": [],
			"stateMutability": "nonpayable",
			"type": "function"
		},
		{
			"inputs": [
				{
					"internalType": "address",
					"name": "_tokenAddr",
					"type": "address"
				},
				{
					"internalType": "uint256",
					"name": "_amount",
					"type": "uint256"
				},
				{
					"internalType": "uint256",
					"name": "decimal",
					"type": "uint256"
				},
				{
					"internalType": "address",
					"name": "to",
					"type": "address"
				}
			],
			"name": "withdrawalToken",
			"outputs": [],
			"stateMutability": "nonpayable",
			"type": "function"
		},
		{
			"stateMutability": "payable",
			"type": "receive"
		}
	]
}